{
  "address": "0xCaBDd9314d2b0c80D898871b850b5FA62AAf3777",
  "abi": [
    {
      "inputs": [],
      "stateMutability": "nonpayable",
      "type": "constructor"
    },
    {
      "inputs": [
        {
          "internalType": "address",
          "name": "target",
          "type": "address"
        }
      ],
      "name": "AddressEmptyCode",
      "type": "error"
    },
    {
      "inputs": [
        {
          "internalType": "address",
          "name": "implementation",
          "type": "address"
        }
      ],
      "name": "ERC1967InvalidImplementation",
      "type": "error"
    },
    {
      "inputs": [],
      "name": "ERC1967NonPayable",
      "type": "error"
    },
    {
      "inputs": [],
      "name": "EnforcedPause",
      "type": "error"
    },
    {
      "inputs": [],
      "name": "ExpectedPause",
      "type": "error"
    },
    {
      "inputs": [],
      "name": "FailedInnerCall",
      "type": "error"
    },
    {
      "inputs": [],
      "name": "InvalidInitialization",
      "type": "error"
    },
    {
      "inputs": [],
      "name": "NotFileOwner",
      "type": "error"
    },
    {
      "inputs": [],
      "name": "NotInitializing",
      "type": "error"
    },
    {
      "inputs": [
        {
          "internalType": "address",
          "name": "owner",
          "type": "address"
        }
      ],
      "name": "OwnableInvalidOwner",
      "type": "error"
    },
    {
      "inputs": [
        {
          "internalType": "address",
          "name": "account",
          "type": "address"
        }
      ],
      "name": "OwnableUnauthorizedAccount",
      "type": "error"
    },
    {
      "inputs": [],
      "name": "UUPSUnauthorizedCallContext",
      "type": "error"
    },
    {
      "inputs": [
        {
          "internalType": "bytes32",
          "name": "slot",
          "type": "bytes32"
        }
      ],
      "name": "UUPSUnsupportedProxiableUUID",
      "type": "error"
    },
    {
      "anonymous": false,
      "inputs": [
        {
          "indexed": true,
          "internalType": "uint256",
          "name": "fileId",
          "type": "uint256"
        },
        {
          "indexed": true,
          "internalType": "address",
          "name": "ownerAddress",
          "type": "address"
        },
        {
          "indexed": false,
          "internalType": "string",
          "name": "url",
          "type": "string"
        }
      ],
      "name": "FileAdded",
      "type": "event"
    },
    {
      "anonymous": false,
      "inputs": [
        {
          "indexed": false,
          "internalType": "uint64",
          "name": "version",
          "type": "uint64"
        }
      ],
      "name": "Initialized",
      "type": "event"
    },
    {
      "anonymous": false,
      "inputs": [
        {
          "indexed": true,
          "internalType": "address",
          "name": "previousOwner",
          "type": "address"
        },
        {
          "indexed": true,
          "internalType": "address",
          "name": "newOwner",
          "type": "address"
        }
      ],
      "name": "OwnershipTransferStarted",
      "type": "event"
    },
    {
      "anonymous": false,
      "inputs": [
        {
          "indexed": true,
          "internalType": "address",
          "name": "previousOwner",
          "type": "address"
        },
        {
          "indexed": true,
          "internalType": "address",
          "name": "newOwner",
          "type": "address"
        }
      ],
      "name": "OwnershipTransferred",
      "type": "event"
    },
    {
      "anonymous": false,
      "inputs": [
        {
          "indexed": false,
          "internalType": "address",
          "name": "account",
          "type": "address"
        }
      ],
      "name": "Paused",
      "type": "event"
    },
    {
      "anonymous": false,
      "inputs": [
        {
          "indexed": true,
          "internalType": "uint256",
          "name": "fileId",
          "type": "uint256"
        },
        {
          "indexed": true,
          "internalType": "address",
          "name": "account",
          "type": "address"
        }
      ],
      "name": "PermissionGranted",
      "type": "event"
    },
    {
      "anonymous": false,
      "inputs": [
        {
          "indexed": true,
          "internalType": "uint256",
          "name": "fileId",
          "type": "uint256"
        },
        {
          "indexed": true,
          "internalType": "uint256",
          "name": "proofIndex",
          "type": "uint256"
        }
      ],
      "name": "ProofAdded",
      "type": "event"
    },
    {
      "anonymous": false,
      "inputs": [
        {
          "indexed": false,
          "internalType": "address",
          "name": "account",
          "type": "address"
        }
      ],
      "name": "Unpaused",
      "type": "event"
    },
    {
      "anonymous": false,
      "inputs": [
        {
          "indexed": true,
          "internalType": "address",
          "name": "implementation",
          "type": "address"
        }
      ],
      "name": "Upgraded",
      "type": "event"
    },
    {
      "inputs": [],
      "name": "UPGRADE_INTERFACE_VERSION",
      "outputs": [
        {
          "internalType": "string",
          "name": "",
          "type": "string"
        }
      ],
      "stateMutability": "view",
      "type": "function"
    },
    {
      "inputs": [],
      "name": "acceptOwnership",
      "outputs": [],
      "stateMutability": "nonpayable",
      "type": "function"
    },
    {
      "inputs": [
        {
          "internalType": "string",
          "name": "url",
          "type": "string"
        }
      ],
      "name": "addFile",
      "outputs": [
        {
          "internalType": "uint256",
          "name": "",
          "type": "uint256"
        }
      ],
      "stateMutability": "nonpayable",
      "type": "function"
    },
    {
      "inputs": [
        {
          "internalType": "uint256",
          "name": "fileId",
          "type": "uint256"
        },
        {
          "internalType": "address",
          "name": "account",
          "type": "address"
        },
        {
          "internalType": "string",
          "name": "key",
          "type": "string"
        }
      ],
      "name": "addFilePermission",
      "outputs": [],
      "stateMutability": "nonpayable",
      "type": "function"
    },
    {
      "inputs": [
        {
          "internalType": "uint256",
          "name": "fileId",
          "type": "uint256"
        },
        {
          "components": [
            {
              "internalType": "bytes",
              "name": "signature",
              "type": "bytes"
            },
            {
              "components": [
                {
                  "internalType": "uint256",
                  "name": "score",
                  "type": "uint256"
                },
                {
                  "internalType": "uint256",
                  "name": "timestamp",
                  "type": "uint256"
                },
                {
                  "internalType": "string",
                  "name": "metadata",
                  "type": "string"
                },
                {
                  "internalType": "string",
                  "name": "proofUrl",
                  "type": "string"
                },
                {
                  "internalType": "string",
                  "name": "instruction",
                  "type": "string"
                }
              ],
              "internalType": "struct IDataRegistry.ProofData",
              "name": "data",
              "type": "tuple"
            }
          ],
          "internalType": "struct IDataRegistry.Proof",
          "name": "proof",
          "type": "tuple"
        }
      ],
      "name": "addProof",
      "outputs": [],
      "stateMutability": "nonpayable",
      "type": "function"
    },
    {
      "inputs": [
        {
          "internalType": "uint256",
          "name": "fileId",
          "type": "uint256"
        },
        {
          "internalType": "address",
          "name": "account",
          "type": "address"
        }
      ],
      "name": "filePermissions",
      "outputs": [
        {
          "internalType": "string",
          "name": "",
          "type": "string"
        }
      ],
      "stateMutability": "view",
      "type": "function"
    },
    {
      "inputs": [
        {
          "internalType": "uint256",
          "name": "fileId",
          "type": "uint256"
        },
        {
          "internalType": "uint256",
          "name": "index",
          "type": "uint256"
        }
      ],
      "name": "fileProofs",
      "outputs": [
        {
          "components": [
            {
              "internalType": "bytes",
              "name": "signature",
              "type": "bytes"
            },
            {
              "components": [
                {
                  "internalType": "uint256",
                  "name": "score",
                  "type": "uint256"
                },
                {
                  "internalType": "uint256",
                  "name": "timestamp",
                  "type": "uint256"
                },
                {
                  "internalType": "string",
                  "name": "metadata",
                  "type": "string"
                },
                {
                  "internalType": "string",
                  "name": "proofUrl",
                  "type": "string"
                },
                {
                  "internalType": "string",
                  "name": "instruction",
                  "type": "string"
                }
              ],
              "internalType": "struct IDataRegistry.ProofData",
              "name": "data",
              "type": "tuple"
            }
          ],
          "internalType": "struct IDataRegistry.Proof",
          "name": "",
          "type": "tuple"
        }
      ],
      "stateMutability": "view",
      "type": "function"
    },
    {
      "inputs": [
        {
          "internalType": "uint256",
          "name": "fileId",
          "type": "uint256"
        }
      ],
      "name": "files",
      "outputs": [
        {
          "components": [
            {
              "internalType": "uint256",
              "name": "id",
              "type": "uint256"
            },
            {
              "internalType": "address",
              "name": "ownerAddress",
              "type": "address"
            },
            {
              "internalType": "string",
              "name": "url",
              "type": "string"
            },
            {
              "internalType": "uint256",
              "name": "addedAtBlock",
              "type": "uint256"
            }
          ],
          "internalType": "struct IDataRegistry.FileResponse",
          "name": "",
          "type": "tuple"
        }
      ],
      "stateMutability": "view",
      "type": "function"
    },
    {
      "inputs": [],
      "name": "filesCount",
      "outputs": [
        {
          "internalType": "uint256",
          "name": "",
          "type": "uint256"
        }
      ],
      "stateMutability": "view",
      "type": "function"
    },
    {
      "inputs": [
        {
          "internalType": "address",
          "name": "ownerAddress",
          "type": "address"
        }
      ],
      "name": "initialize",
      "outputs": [],
      "stateMutability": "nonpayable",
      "type": "function"
    },
    {
      "inputs": [],
      "name": "owner",
      "outputs": [
        {
          "internalType": "address",
          "name": "",
          "type": "address"
        }
      ],
      "stateMutability": "view",
      "type": "function"
    },
    {
      "inputs": [],
      "name": "pause",
      "outputs": [],
      "stateMutability": "nonpayable",
      "type": "function"
    },
    {
      "inputs": [],
      "name": "paused",
      "outputs": [
        {
          "internalType": "bool",
          "name": "",
          "type": "bool"
        }
      ],
      "stateMutability": "view",
      "type": "function"
    },
    {
      "inputs": [],
      "name": "pendingOwner",
      "outputs": [
        {
          "internalType": "address",
          "name": "",
          "type": "address"
        }
      ],
      "stateMutability": "view",
      "type": "function"
    },
    {
      "inputs": [],
      "name": "proxiableUUID",
      "outputs": [
        {
          "internalType": "bytes32",
          "name": "",
          "type": "bytes32"
        }
      ],
      "stateMutability": "view",
      "type": "function"
    },
    {
      "inputs": [],
      "name": "renounceOwnership",
      "outputs": [],
      "stateMutability": "nonpayable",
      "type": "function"
    },
    {
      "inputs": [
        {
          "internalType": "address",
          "name": "newOwner",
          "type": "address"
        }
      ],
      "name": "transferOwnership",
      "outputs": [],
      "stateMutability": "nonpayable",
      "type": "function"
    },
    {
      "inputs": [],
      "name": "unpause",
      "outputs": [],
      "stateMutability": "nonpayable",
      "type": "function"
    },
    {
      "inputs": [
        {
          "internalType": "address",
          "name": "newImplementation",
          "type": "address"
        },
        {
          "internalType": "bytes",
          "name": "data",
          "type": "bytes"
        }
      ],
      "name": "upgradeToAndCall",
      "outputs": [],
      "stateMutability": "payable",
      "type": "function"
    },
    {
      "inputs": [],
      "name": "version",
      "outputs": [
        {
          "internalType": "uint256",
          "name": "",
          "type": "uint256"
        }
      ],
      "stateMutability": "pure",
      "type": "function"
    }
  ],
  "transactionHash": "0xc096eeb76ad105c5c5639caed4831e45294859b9209b823d2c62ea4b1bd1c2ef",
  "args": [],
  "numDeployments": 1,
  "solcInputHash": "607a8b9d3c8ae0738f4d31f58e0131ac",
  "bytecode": "0x60a06040523060805234801561001457600080fd5b5061001d610022565b6100d4565b7ff0c57e16840df040f15088dc2f81fe391c3923bec73e23a9662efc9c229c6a00805468010000000000000000900460ff16156100725760405163f92ee8a960e01b815260040160405180910390fd5b80546001600160401b03908116146100d15780546001600160401b0319166001600160401b0390811782556040519081527fc7f505b2f371ae2175ee4913f4499e1f2633a7b5936321eed1cdaeb6115181d29060200160405180910390a15b50565b608051611a556100fd60003960008181610d2d01528181610d560152610e9c0152611a556000f3fe60806040526004361061011f5760003560e01c8063ad3cb1cc116100a0578063e30c397811610064578063e30c397814610307578063eb9b9b641461031c578063f2fde38b1461033c578063f4c714b41461035c578063f75cf8671461038957600080fd5b8063ad3cb1cc14610253578063c26045f714610284578063c4d66de8146102a4578063dbda68db146102c4578063dfb5e9ba146102f157600080fd5b806360f1c43a116100e757806360f1c43a146101ba578063715018a6146101e757806379ba5097146101fc5780638456cb59146102115780638da5cb5b1461022657600080fd5b80633f4ba83a146101245780634f1ef2861461013b57806352d1902d1461014e57806354fd4d50146101765780635c975abb1461018a575b600080fd5b34801561013057600080fd5b506101396103a9565b005b610139610149366004611470565b6103bb565b34801561015a57600080fd5b506101636103da565b6040519081526020015b60405180910390f35b34801561018257600080fd5b506001610163565b34801561019657600080fd5b50600080516020611a008339815191525460ff16604051901515815260200161016d565b3480156101c657600080fd5b506101da6101d53660046114be565b6103f7565b60405161016d919061153a565b3480156101f357600080fd5b506101396104b1565b34801561020857600080fd5b506101396104c3565b34801561021d57600080fd5b50610139610510565b34801561023257600080fd5b5061023b610520565b6040516001600160a01b03909116815260200161016d565b34801561025f57600080fd5b506101da604051806040016040528060058152602001640352e302e360dc1b81525081565b34801561029057600080fd5b5061013961029f36600461154d565b610555565b3480156102b057600080fd5b506101396102bf366004611674565b610643565b3480156102d057600080fd5b506102e46102df36600461168f565b61076b565b60405161016d91906116b1565b3480156102fd57600080fd5b5061016360005481565b34801561031357600080fd5b5061023b610a0f565b34801561032857600080fd5b50610163610337366004611746565b610a38565b34801561034857600080fd5b50610139610357366004611674565b610a55565b34801561036857600080fd5b5061037c610377366004611783565b610ada565b60405161016d919061179c565b34801561039557600080fd5b506101396103a43660046117ea565b610be6565b6103b1610c90565b6103b9610cc2565b565b6103c3610d22565b6103cc82610dc7565b6103d68282610dcf565b5050565b60006103e4610e91565b506000805160206119e083398151915290565b60008281526001602090815260408083206001600160a01b0385168452600501909152902080546060919061042b90611841565b80601f016020809104026020016040519081016040528092919081815260200182805461045790611841565b80156104a45780601f10610479576101008083540402835291602001916104a4565b820191906000526020600020905b81548152906001019060200180831161048757829003601f168201915b5050505050905092915050565b6104b9610c90565b6103b96000610eda565b33806104cd610a0f565b6001600160a01b0316146105045760405163118cdaa760e01b81526001600160a01b03821660048201526024015b60405180910390fd5b61050d81610eda565b50565b610518610c90565b6103b9610f12565b6000807f9016d09d72d40fdae2fd8ceac6b6234c7706214fd39c1cd1e609a0528c1993005b546001600160a01b031692915050565b61055d610f5b565b60008281526001602052604081206003018054829061057b9061187b565b9182905550600084815260016020908152604080832084845260040190915290208351919250839181906105af90826118ea565b50602082015181600101600082015181600001556020820151816001015560408201518160020190816105e291906118ea565b50606082015160038201906105f790826118ea565b506080820151600482019061060c90826118ea565b50506040518493508692507faf40333be7583051bc0470d0b829c7717be60e0b467a5f5fd722c30e1a8b00c69150600090a3505050565b7ff0c57e16840df040f15088dc2f81fe391c3923bec73e23a9662efc9c229c6a008054600160401b810460ff16159067ffffffffffffffff166000811580156106895750825b905060008267ffffffffffffffff1660011480156106a65750303b155b9050811580156106b4575080155b156106d25760405163f92ee8a960e01b815260040160405180910390fd5b845467ffffffffffffffff1916600117855583156106fc57845460ff60401b1916600160401b1785555b610704610f8c565b61070c610f8c565b610714610f94565b61071d86610eda565b831561076357845460ff60401b19168555604051600181527fc7f505b2f371ae2175ee4913f4499e1f2633a7b5936321eed1cdaeb6115181d29060200160405180910390a15b505050505050565b610773611321565b60008381526001602090815260408083208584526004019091529081902081518083019092528054829082906107a890611841565b80601f01602080910402602001604051908101604052809291908181526020018280546107d490611841565b80156108215780601f106107f657610100808354040283529160200191610821565b820191906000526020600020905b81548152906001019060200180831161080457829003601f168201915b50505050508152602001600182016040518060a0016040529081600082015481526020016001820154815260200160028201805461085e90611841565b80601f016020809104026020016040519081016040528092919081815260200182805461088a90611841565b80156108d75780601f106108ac576101008083540402835291602001916108d7565b820191906000526020600020905b8154815290600101906020018083116108ba57829003601f168201915b505050505081526020016003820180546108f090611841565b80601f016020809104026020016040519081016040528092919081815260200182805461091c90611841565b80156109695780601f1061093e57610100808354040283529160200191610969565b820191906000526020600020905b81548152906001019060200180831161094c57829003601f168201915b5050505050815260200160048201805461098290611841565b80601f01602080910402602001604051908101604052809291908181526020018280546109ae90611841565b80156109fb5780601f106109d0576101008083540402835291602001916109fb565b820191906000526020600020905b8154815290600101906020018083116109de57829003601f168201915b505050919092525050509052509392505050565b6000807f237e158222e3e6968b72b9db0d8043aacf074ad9f650f0d1606b4d82ee432c00610545565b6000610a42610f5b565b610a4b82610fa4565b506000545b919050565b610a5d610c90565b7f237e158222e3e6968b72b9db0d8043aacf074ad9f650f0d1606b4d82ee432c0080546001600160a01b0319166001600160a01b0383169081178255610aa1610520565b6001600160a01b03167f38d16b8cac22d99fc7c124b9cd0de2d3fa1faef420bfe791d8c362d765e2270060405160405180910390a35050565b610b0e60405180608001604052806000815260200160006001600160a01b0316815260200160608152602001600081525090565b600082815260016020818152604092839020835160808101855286815281546001600160a01b03169281019290925291820180549293919291830191610b5390611841565b80601f0160208091040260200160405190810160405280929190818152602001828054610b7f90611841565b8015610bcc5780601f10610ba157610100808354040283529160200191610bcc565b820191906000526020600020905b815481529060010190602001808311610baf57829003601f168201915b505050505081526020018260020154815250915050919050565b610bee610f5b565b6000838152600160205260409020546001600160a01b03163314610c255760405163abea322960e01b815260040160405180910390fd5b60008381526001602090815260408083206001600160a01b03861684526005019091529020610c5482826118ea565b506040516001600160a01b0383169084907f6e0403ef2b13328247bf9260ad8dd9c18fb5a18b95ea25de817ca991da05929b90600090a3505050565b33610c99610520565b6001600160a01b0316146103b95760405163118cdaa760e01b81523360048201526024016104fb565b610cca61103e565b600080516020611a00833981519152805460ff191681557f5db9ee0a495bf2e6ff9c91a7834c1ba4fdd244a5e8aa4e537bd38aeae4b073aa335b6040516001600160a01b03909116815260200160405180910390a150565b306001600160a01b037f0000000000000000000000000000000000000000000000000000000000000000161480610da957507f00000000000000000000000000000000000000000000000000000000000000006001600160a01b0316610d9d6000805160206119e0833981519152546001600160a01b031690565b6001600160a01b031614155b156103b95760405163703e46dd60e11b815260040160405180910390fd5b61050d610c90565b816001600160a01b03166352d1902d6040518163ffffffff1660e01b8152600401602060405180830381865afa925050508015610e29575060408051601f3d908101601f19168201909252610e26918101906119aa565b60015b610e5157604051634c9c8ce360e01b81526001600160a01b03831660048201526024016104fb565b6000805160206119e08339815191528114610e8257604051632a87526960e21b8152600481018290526024016104fb565b610e8c838361106e565b505050565b306001600160a01b037f000000000000000000000000000000000000000000000000000000000000000016146103b95760405163703e46dd60e11b815260040160405180910390fd5b7f237e158222e3e6968b72b9db0d8043aacf074ad9f650f0d1606b4d82ee432c0080546001600160a01b03191681556103d6826110c4565b610f1a610f5b565b600080516020611a00833981519152805460ff191660011781557f62e78cea01bee320cd4e420270b5ea74000d11b0c9f74754ebdbfc544b05a25833610d04565b600080516020611a008339815191525460ff16156103b95760405163d93c066560e01b815260040160405180910390fd5b6103b9611135565b610f9c611135565b6103b961117e565b60008060008154610fb49061187b565b9182905550600081815260016020819052604090912080546001600160a01b0319163317815591925001610fe883826118ea565b50600081815260016020526040908190204360029091015551339082907f2980b13036c0d9df6b71ea9e9c09536efd24d7dd1868e29aa730f0c3fbd1a0dc9061103290869061153a565b60405180910390a35050565b600080516020611a008339815191525460ff166103b957604051638dfc202b60e01b815260040160405180910390fd5b6110778261119f565b6040516001600160a01b038316907fbc7cd75a20ee27fd9adebab32041f755214dbc6bffa90cc0225b39da2e5c2d3b90600090a28051156110bc57610e8c8282611204565b6103d661127a565b7f9016d09d72d40fdae2fd8ceac6b6234c7706214fd39c1cd1e609a0528c19930080546001600160a01b031981166001600160a01b03848116918217845560405192169182907f8be0079c531659141344cd1fd0a4f28419497f9722a3daafe3b4186f6b6457e090600090a3505050565b7ff0c57e16840df040f15088dc2f81fe391c3923bec73e23a9662efc9c229c6a0054600160401b900460ff166103b957604051631afcd79f60e31b815260040160405180910390fd5b611186611135565b600080516020611a00833981519152805460ff19169055565b806001600160a01b03163b6000036111d557604051634c9c8ce360e01b81526001600160a01b03821660048201526024016104fb565b6000805160206119e083398151915280546001600160a01b0319166001600160a01b0392909216919091179055565b6060600080846001600160a01b03168460405161122191906119c3565b600060405180830381855af49150503d806000811461125c576040519150601f19603f3d011682016040523d82523d6000602084013e611261565b606091505b5091509150611271858383611299565b95945050505050565b34156103b95760405163b398979f60e01b815260040160405180910390fd5b6060826112ae576112a9826112f8565b6112f1565b81511580156112c557506001600160a01b0384163b155b156112ee57604051639996b31560e01b81526001600160a01b03851660048201526024016104fb565b50805b9392505050565b8051156113085780518082602001fd5b604051630a12f52160e11b815260040160405180910390fd5b6040518060400160405280606081526020016113656040518060a0016040528060008152602001600081526020016060815260200160608152602001606081525090565b905290565b80356001600160a01b0381168114610a5057600080fd5b634e487b7160e01b600052604160045260246000fd5b6040805190810167ffffffffffffffff811182821017156113ba576113ba611381565b60405290565b60405160a0810167ffffffffffffffff811182821017156113ba576113ba611381565b600082601f8301126113f457600080fd5b813567ffffffffffffffff8082111561140f5761140f611381565b604051601f8301601f19908116603f0116810190828211818310171561143757611437611381565b8160405283815286602085880101111561145057600080fd5b836020870160208301376000602085830101528094505050505092915050565b6000806040838503121561148357600080fd5b61148c8361136a565b9150602083013567ffffffffffffffff8111156114a857600080fd5b6114b4858286016113e3565b9150509250929050565b600080604083850312156114d157600080fd5b823591506114e16020840161136a565b90509250929050565b60005b838110156115055781810151838201526020016114ed565b50506000910152565b600081518084526115268160208601602086016114ea565b601f01601f19169290920160200192915050565b6020815260006112f1602083018461150e565b6000806040838503121561156057600080fd5b82359150602083013567ffffffffffffffff8082111561157f57600080fd5b908401906040828703121561159357600080fd5b61159b611397565b8235828111156115aa57600080fd5b6115b6888286016113e3565b8252506020830135828111156115cb57600080fd5b929092019160a083880312156115e057600080fd5b6115e86113c0565b833581526020840135602082015260408401358381111561160857600080fd5b611614898287016113e3565b60408301525060608401358381111561162c57600080fd5b611638898287016113e3565b60608301525060808401358381111561165057600080fd5b61165c898287016113e3565b60808301525060208201529396939550929350505050565b60006020828403121561168657600080fd5b6112f18261136a565b600080604083850312156116a257600080fd5b50508035926020909101359150565b6020815260008251604060208401526116cd606084018261150e565b90506020840151601f198483030160408501528051825260208101516020830152604081015160a0604084015261170760a084018261150e565b905060608201518382036060850152611720828261150e565b91505060808201519150828103608084015261173c818361150e565b9695505050505050565b60006020828403121561175857600080fd5b813567ffffffffffffffff81111561176f57600080fd5b61177b848285016113e3565b949350505050565b60006020828403121561179557600080fd5b5035919050565b602081528151602082015260018060a01b03602083015116604082015260006040830151608060608401526117d460a084018261150e565b9050606084015160808401528091505092915050565b6000806000606084860312156117ff57600080fd5b8335925061180f6020850161136a565b9150604084013567ffffffffffffffff81111561182b57600080fd5b611837868287016113e3565b9150509250925092565b600181811c9082168061185557607f821691505b60208210810361187557634e487b7160e01b600052602260045260246000fd5b50919050565b60006001820161189b57634e487b7160e01b600052601160045260246000fd5b5060010190565b601f821115610e8c576000816000526020600020601f850160051c810160208610156118cb5750805b601f850160051c820191505b81811015610763578281556001016118d7565b815167ffffffffffffffff81111561190457611904611381565b611918816119128454611841565b846118a2565b602080601f83116001811461194d57600084156119355750858301515b600019600386901b1c1916600185901b178555610763565b600085815260208120601f198616915b8281101561197c5788860151825594840194600190910190840161195d565b508582101561199a5787850151600019600388901b60f8161c191681555b5050505050600190811b01905550565b6000602082840312156119bc57600080fd5b5051919050565b600082516119d58184602087016114ea565b919091019291505056fe360894a13ba1a3210667c828492db98dca3e2076cc3735a920a3ca505d382bbccd5ed15c6e187e77e9aee88184c21f4f2182ab5827cb3b7e07fbedcd63f03300a26469706673582212209d0f1091050f5b5b792dbfac2222558682ab0a4ff2807a5bf383f3ea044e4c8264736f6c63430008180033",
  "devdoc": {
    "errors": {
      "AddressEmptyCode(address)": [
        {
          "details": "There's no code at `target` (it is not a contract)."
        }
      ],
      "ERC1967InvalidImplementation(address)": [
        {
          "details": "The `implementation` of the proxy is invalid."
        }
      ],
      "ERC1967NonPayable()": [
        {
          "details": "An upgrade function sees `msg.value > 0` that may be lost."
        }
      ],
      "EnforcedPause()": [
        {
          "details": "The operation failed because the contract is paused."
        }
      ],
      "ExpectedPause()": [
        {
          "details": "The operation failed because the contract is not paused."
        }
      ],
      "FailedInnerCall()": [
        {
          "details": "A call to an address target failed. The target may have reverted."
        }
      ],
      "InvalidInitialization()": [
        {
          "details": "The contract is already initialized."
        }
      ],
      "NotInitializing()": [
        {
          "details": "The contract is not initializing."
        }
      ],
      "OwnableInvalidOwner(address)": [
        {
          "details": "The owner is not a valid owner account. (eg. `address(0)`)"
        }
      ],
      "OwnableUnauthorizedAccount(address)": [
        {
          "details": "The caller account is not authorized to perform an operation."
        }
      ],
      "UUPSUnauthorizedCallContext()": [
        {
          "details": "The call is from an unauthorized context."
        }
      ],
      "UUPSUnsupportedProxiableUUID(bytes32)": [
        {
          "details": "The storage `slot` is unsupported as a UUID."
        }
      ]
    },
    "events": {
      "FileAdded(uint256,address,string)": {
        "params": {
          "fileId": "id of the file",
          "ownerAddress": "address of the owner",
          "url": "url of the file"
        }
      },
      "Initialized(uint64)": {
        "details": "Triggered when the contract has been initialized or reinitialized."
      },
      "Paused(address)": {
        "details": "Emitted when the pause is triggered by `account`."
      },
      "PermissionGranted(uint256,address)": {
        "params": {
          "account": "address of the account",
          "fileId": "id of the file"
        }
      },
      "ProofAdded(uint256,uint256)": {
        "params": {
          "fileId": "id of the file",
          "proofIndex": "index of the proof"
        }
      },
      "Unpaused(address)": {
        "details": "Emitted when the pause is lifted by `account`."
      },
      "Upgraded(address)": {
        "details": "Emitted when the implementation is upgraded."
      }
    },
    "kind": "dev",
    "methods": {
      "acceptOwnership()": {
        "details": "The new owner accepts the ownership transfer."
      },
      "addFile(string)": {
        "params": {
          "url": "url of the file"
        },
        "returns": {
          "_0": "uint256                          id of the file"
        }
      },
      "addFilePermission(uint256,address,string)": {
        "params": {
          "account": "address of the account",
          "fileId": "id of the file",
          "key": "encryption key for the account"
        }
      },
      "addProof(uint256,(bytes,(uint256,uint256,string,string,string)))": {
        "params": {
          "fileId": "id of the file",
          "proof": "proof for the file"
        }
      },
      "constructor": {
        "custom:oz-upgrades-unsafe-allow": "constructor"
      },
      "filePermissions(uint256,address)": {
        "params": {
          "account": "address of the account",
          "fileId": "id of the file"
        },
        "returns": {
          "_0": "string                           key for the account"
        }
      },
      "fileProofs(uint256,uint256)": {
        "params": {
          "fileId": "id of the file",
          "index": "index of the proof"
        },
        "returns": {
          "_0": "Proof                            proof of the file"
        }
      },
      "files(uint256)": {
        "params": {
          "fileId": "id of the file"
        },
        "returns": {
          "_0": "FileResponse                     information about the file"
        }
      },
      "initialize(address)": {
        "params": {
          "ownerAddress": "address of the owner"
        }
      },
      "owner()": {
        "details": "Returns the address of the current owner."
      },
      "pause()": {
        "details": "Pauses the contract"
      },
      "paused()": {
        "details": "Returns true if the contract is paused, and false otherwise."
      },
      "pendingOwner()": {
        "details": "Returns the address of the pending owner."
      },
      "proxiableUUID()": {
        "details": "Implementation of the ERC1822 {proxiableUUID} function. This returns the storage slot used by the implementation. It is used to validate the implementation's compatibility when performing an upgrade. IMPORTANT: A proxy pointing at a proxiable contract should not be considered proxiable itself, because this risks bricking a proxy that upgrades to it, by delegating to itself until out of gas. Thus it is critical that this function revert if invoked through a proxy. This is guaranteed by the `notDelegated` modifier."
      },
      "renounceOwnership()": {
        "details": "Leaves the contract without owner. It will not be possible to call `onlyOwner` functions. Can only be called by the current owner. NOTE: Renouncing ownership will leave the contract without an owner, thereby disabling any functionality that is only available to the owner."
      },
      "transferOwnership(address)": {
        "details": "Starts the ownership transfer of the contract to a new account. Replaces the pending transfer if there is one. Can only be called by the current owner."
      },
      "unpause()": {
        "details": "Unpauses the contract"
      },
      "upgradeToAndCall(address,bytes)": {
        "custom:oz-upgrades-unsafe-allow-reachable": "delegatecall",
        "details": "Upgrade the implementation of the proxy to `newImplementation`, and subsequently execute the function call encoded in `data`. Calls {_authorizeUpgrade}. Emits an {Upgraded} event."
      }
    },
    "version": 1
  },
  "userdoc": {
    "events": {
      "FileAdded(uint256,address,string)": {
        "notice": "Triggered when a file has been added"
      },
      "PermissionGranted(uint256,address)": {
        "notice": "Triggered when user has authorized an account to access the file"
      },
      "ProofAdded(uint256,uint256)": {
        "notice": "Triggered when user has added an proof to the file"
      }
    },
    "kind": "user",
    "methods": {
      "addFile(string)": {
        "notice": "Adds a file to the registry"
      },
      "addFilePermission(uint256,address,string)": {
        "notice": "Adds permissions for accounts to access the file"
      },
      "addProof(uint256,(bytes,(uint256,uint256,string,string,string)))": {
        "notice": "Adds an proof to the file"
      },
      "filePermissions(uint256,address)": {
        "notice": "Returns permissions for the file"
      },
      "fileProofs(uint256,uint256)": {
        "notice": "Returns the proof of the file"
      },
      "files(uint256)": {
        "notice": "Returns information about the file"
      },
      "initialize(address)": {
        "notice": "Initialize the contract"
      },
      "version()": {
        "notice": "Returns the version of the contract"
      }
    },
    "version": 1
  },
  "storageLayout": {
    "storage": [
      {
        "astId": 11102,
        "contract": "contracts/dataRegistry/DataRegistryImplementation.sol:DataRegistryImplementation",
        "label": "filesCount",
        "offset": 0,
        "slot": "0",
        "type": "t_uint256"
      },
      {
        "astId": 11107,
        "contract": "contracts/dataRegistry/DataRegistryImplementation.sol:DataRegistryImplementation",
        "label": "_files",
        "offset": 0,
        "slot": "1",
        "type": "t_mapping(t_uint256,t_struct(File)11145_storage)"
      }
    ],
    "types": {
      "t_address": {
        "encoding": "inplace",
        "label": "address",
        "numberOfBytes": "20"
      },
      "t_bytes_storage": {
        "encoding": "bytes",
        "label": "bytes",
        "numberOfBytes": "32"
      },
      "t_mapping(t_address,t_string_storage)": {
        "encoding": "mapping",
        "key": "t_address",
        "label": "mapping(address => string)",
        "numberOfBytes": "32",
        "value": "t_string_storage"
      },
      "t_mapping(t_uint256,t_struct(File)11145_storage)": {
        "encoding": "mapping",
        "key": "t_uint256",
        "label": "mapping(uint256 => struct IDataRegistry.File)",
        "numberOfBytes": "32",
        "value": "t_struct(File)11145_storage"
      },
      "t_mapping(t_uint256,t_struct(Proof)11127_storage)": {
        "encoding": "mapping",
        "key": "t_uint256",
        "label": "mapping(uint256 => struct IDataRegistry.Proof)",
        "numberOfBytes": "32",
        "value": "t_struct(Proof)11127_storage"
      },
      "t_string_storage": {
        "encoding": "bytes",
        "label": "string",
        "numberOfBytes": "32"
      },
      "t_struct(File)11145_storage": {
        "encoding": "inplace",
        "label": "struct IDataRegistry.File",
        "members": [
          {
            "astId": 11129,
            "contract": "contracts/dataRegistry/DataRegistryImplementation.sol:DataRegistryImplementation",
            "label": "ownerAddress",
            "offset": 0,
            "slot": "0",
            "type": "t_address"
          },
          {
            "astId": 11131,
            "contract": "contracts/dataRegistry/DataRegistryImplementation.sol:DataRegistryImplementation",
            "label": "url",
            "offset": 0,
            "slot": "1",
            "type": "t_string_storage"
          },
          {
            "astId": 11133,
            "contract": "contracts/dataRegistry/DataRegistryImplementation.sol:DataRegistryImplementation",
            "label": "addedAtBlock",
            "offset": 0,
            "slot": "2",
            "type": "t_uint256"
          },
          {
            "astId": 11135,
            "contract": "contracts/dataRegistry/DataRegistryImplementation.sol:DataRegistryImplementation",
            "label": "proofsCount",
            "offset": 0,
            "slot": "3",
            "type": "t_uint256"
          },
          {
            "astId": 11140,
            "contract": "contracts/dataRegistry/DataRegistryImplementation.sol:DataRegistryImplementation",
            "label": "proofs",
            "offset": 0,
            "slot": "4",
            "type": "t_mapping(t_uint256,t_struct(Proof)11127_storage)"
          },
          {
            "astId": 11144,
            "contract": "contracts/dataRegistry/DataRegistryImplementation.sol:DataRegistryImplementation",
            "label": "permissions",
            "offset": 0,
            "slot": "5",
            "type": "t_mapping(t_address,t_string_storage)"
          }
        ],
        "numberOfBytes": "192"
      },
      "t_struct(Proof)11127_storage": {
        "encoding": "inplace",
        "label": "struct IDataRegistry.Proof",
        "members": [
          {
            "astId": 11123,
            "contract": "contracts/dataRegistry/DataRegistryImplementation.sol:DataRegistryImplementation",
            "label": "signature",
            "offset": 0,
            "slot": "0",
            "type": "t_bytes_storage"
          },
          {
            "astId": 11126,
            "contract": "contracts/dataRegistry/DataRegistryImplementation.sol:DataRegistryImplementation",
            "label": "data",
            "offset": 0,
            "slot": "1",
            "type": "t_struct(ProofData)11121_storage"
          }
        ],
        "numberOfBytes": "192"
      },
      "t_struct(ProofData)11121_storage": {
        "encoding": "inplace",
        "label": "struct IDataRegistry.ProofData",
        "members": [
          {
            "astId": 11112,
            "contract": "contracts/dataRegistry/DataRegistryImplementation.sol:DataRegistryImplementation",
            "label": "score",
            "offset": 0,
            "slot": "0",
            "type": "t_uint256"
          },
          {
            "astId": 11114,
            "contract": "contracts/dataRegistry/DataRegistryImplementation.sol:DataRegistryImplementation",
            "label": "timestamp",
            "offset": 0,
            "slot": "1",
            "type": "t_uint256"
          },
          {
            "astId": 11116,
            "contract": "contracts/dataRegistry/DataRegistryImplementation.sol:DataRegistryImplementation",
            "label": "metadata",
            "offset": 0,
            "slot": "2",
            "type": "t_string_storage"
          },
          {
            "astId": 11118,
            "contract": "contracts/dataRegistry/DataRegistryImplementation.sol:DataRegistryImplementation",
            "label": "proofUrl",
            "offset": 0,
            "slot": "3",
            "type": "t_string_storage"
          },
          {
            "astId": 11120,
            "contract": "contracts/dataRegistry/DataRegistryImplementation.sol:DataRegistryImplementation",
            "label": "instruction",
            "offset": 0,
            "slot": "4",
            "type": "t_string_storage"
          }
        ],
        "numberOfBytes": "160"
      },
      "t_uint256": {
        "encoding": "inplace",
        "label": "uint256",
        "numberOfBytes": "32"
      }
    }
  }
}