{
  "address": "0x93886A063668CF297B8bAa95D6860F81cBa84dCF",
  "abi": [
    {
      "inputs": [
        {
          "internalType": "address",
          "name": "target",
          "type": "address"
        }
      ],
      "name": "AddressEmptyCode",
      "type": "error"
    },
    {
      "inputs": [],
      "name": "AlreadyDistributed",
      "type": "error"
    },
    {
      "inputs": [],
      "name": "ArityMismatch",
      "type": "error"
    },
    {
      "inputs": [],
      "name": "CheckpointUnorderedInsertion",
      "type": "error"
    },
    {
      "inputs": [],
      "name": "CurrentEpochNotCreated",
      "type": "error"
    },
    {
      "inputs": [
        {
          "internalType": "address",
          "name": "implementation",
          "type": "address"
        }
      ],
      "name": "ERC1967InvalidImplementation",
      "type": "error"
    },
    {
      "inputs": [],
      "name": "ERC1967NonPayable",
      "type": "error"
    },
    {
      "inputs": [],
      "name": "EnforcedPause",
      "type": "error"
    },
    {
      "inputs": [],
      "name": "EpochEnded",
      "type": "error"
    },
    {
      "inputs": [],
      "name": "EpochNotEnded",
      "type": "error"
    },
    {
      "inputs": [],
      "name": "EpochNotStarted",
      "type": "error"
    },
    {
      "inputs": [],
      "name": "ExpectedPause",
      "type": "error"
    },
    {
      "inputs": [],
      "name": "FailedInnerCall",
      "type": "error"
    },
    {
      "inputs": [],
      "name": "InvalidDlpList",
      "type": "error"
    },
    {
      "inputs": [],
      "name": "InvalidDlpStatus",
      "type": "error"
    },
    {
      "inputs": [],
      "name": "InvalidInitialization",
      "type": "error"
    },
    {
      "inputs": [],
      "name": "InvalidPerformancePercentages",
      "type": "error"
    },
    {
      "inputs": [],
      "name": "InvalidStakeAmount",
      "type": "error"
    },
    {
      "inputs": [],
      "name": "InvalidStakersPercentage",
      "type": "error"
    },
    {
      "inputs": [],
      "name": "InvalidUnstakeAmount",
      "type": "error"
    },
    {
      "inputs": [],
      "name": "NotAllowed",
      "type": "error"
    },
    {
      "inputs": [],
      "name": "NotDlpOwner",
      "type": "error"
    },
    {
      "inputs": [],
      "name": "NotInitializing",
      "type": "error"
    },
    {
      "inputs": [],
      "name": "NothingToClaim",
      "type": "error"
    },
    {
      "inputs": [
        {
          "internalType": "address",
          "name": "owner",
          "type": "address"
        }
      ],
      "name": "OwnableInvalidOwner",
      "type": "error"
    },
    {
      "inputs": [
        {
          "internalType": "address",
          "name": "account",
          "type": "address"
        }
      ],
      "name": "OwnableUnauthorizedAccount",
      "type": "error"
    },
    {
      "inputs": [],
      "name": "PreviousEpochNotFinalised",
      "type": "error"
    },
    {
      "inputs": [],
      "name": "ReentrancyGuardReentrantCall",
      "type": "error"
    },
    {
      "inputs": [
        {
          "internalType": "uint8",
          "name": "bits",
          "type": "uint8"
        },
        {
          "internalType": "uint256",
          "name": "value",
          "type": "uint256"
        }
      ],
      "name": "SafeCastOverflowedUintDowncast",
      "type": "error"
    },
    {
      "inputs": [],
      "name": "TooManyDlps",
      "type": "error"
    },
    {
      "inputs": [],
      "name": "UUPSUnauthorizedCallContext",
      "type": "error"
    },
    {
      "inputs": [
        {
          "internalType": "bytes32",
          "name": "slot",
          "type": "bytes32"
        }
      ],
      "name": "UUPSUnsupportedProxiableUUID",
      "type": "error"
    },
    {
      "inputs": [],
      "name": "WithdrawNotAllowed",
      "type": "error"
    },
    {
      "anonymous": false,
      "inputs": [
        {
          "indexed": true,
          "internalType": "uint256",
          "name": "dlpId",
          "type": "uint256"
        }
      ],
      "name": "DlpDeregistered",
      "type": "event"
    },
    {
      "anonymous": false,
      "inputs": [
        {
          "indexed": true,
          "internalType": "uint256",
          "name": "dlpId",
          "type": "uint256"
        },
        {
          "indexed": false,
          "internalType": "uint256",
          "name": "unstakeAmount",
          "type": "uint256"
        },
        {
          "indexed": false,
          "internalType": "uint256",
          "name": "penaltyAmount",
          "type": "uint256"
        }
      ],
      "name": "DlpDeregisteredByOwner",
      "type": "event"
    },
    {
      "anonymous": false,
      "inputs": [
        {
          "indexed": true,
          "internalType": "uint256",
          "name": "dlpId",
          "type": "uint256"
        },
        {
          "indexed": true,
          "internalType": "address",
          "name": "dlpAddress",
          "type": "address"
        },
        {
          "indexed": true,
          "internalType": "address",
          "name": "ownerAddress",
          "type": "address"
        }
      ],
      "name": "DlpRegistered",
      "type": "event"
    },
    {
      "anonymous": false,
      "inputs": [
        {
          "indexed": false,
          "internalType": "uint256",
          "name": "dlpId",
          "type": "uint256"
        },
        {
          "indexed": false,
          "internalType": "uint256",
          "name": "stakersPercentage",
          "type": "uint256"
        }
      ],
      "name": "DlpStakersPercentageUpdated",
      "type": "event"
    },
    {
      "anonymous": false,
      "inputs": [
        {
          "indexed": false,
          "internalType": "uint256",
          "name": "epochId",
          "type": "uint256"
        }
      ],
      "name": "EpochCreated",
      "type": "event"
    },
    {
      "anonymous": false,
      "inputs": [
        {
          "indexed": false,
          "internalType": "uint256",
          "name": "epochId",
          "type": "uint256"
        },
        {
          "indexed": false,
          "internalType": "bool",
          "name": "isFinalised",
          "type": "bool"
        }
      ],
      "name": "EpochPerformancesSaved",
      "type": "event"
    },
    {
      "anonymous": false,
      "inputs": [
        {
          "indexed": false,
          "internalType": "uint256",
          "name": "newEpochRewardAmount",
          "type": "uint256"
        }
      ],
      "name": "EpochRewardAmountUpdated",
      "type": "event"
    },
    {
      "anonymous": false,
      "inputs": [
        {
          "indexed": false,
          "internalType": "uint256",
          "name": "newEpochSize",
          "type": "uint256"
        }
      ],
      "name": "EpochSizeUpdated",
      "type": "event"
    },
    {
      "anonymous": false,
      "inputs": [
        {
          "indexed": false,
          "internalType": "uint64",
          "name": "version",
          "type": "uint64"
        }
      ],
      "name": "Initialized",
      "type": "event"
    },
    {
      "anonymous": false,
      "inputs": [
        {
          "indexed": false,
          "internalType": "uint256",
          "name": "newMaxNumberOfDlps",
          "type": "uint256"
        }
      ],
      "name": "MaxNumberOfDlpsUpdated",
      "type": "event"
    },
    {
      "anonymous": false,
      "inputs": [
        {
          "indexed": false,
          "internalType": "uint256",
          "name": "newMinDlpStakeAmount",
          "type": "uint256"
        }
      ],
      "name": "MinDlpStakeAmountUpdated",
      "type": "event"
    },
    {
      "anonymous": false,
      "inputs": [
        {
          "indexed": true,
          "internalType": "address",
          "name": "previousOwner",
          "type": "address"
        },
        {
          "indexed": true,
          "internalType": "address",
          "name": "newOwner",
          "type": "address"
        }
      ],
      "name": "OwnershipTransferStarted",
      "type": "event"
    },
    {
      "anonymous": false,
      "inputs": [
        {
          "indexed": true,
          "internalType": "address",
          "name": "previousOwner",
          "type": "address"
        },
        {
          "indexed": true,
          "internalType": "address",
          "name": "newOwner",
          "type": "address"
        }
      ],
      "name": "OwnershipTransferred",
      "type": "event"
    },
    {
      "anonymous": false,
      "inputs": [
        {
          "indexed": false,
          "internalType": "address",
          "name": "account",
          "type": "address"
        }
      ],
      "name": "Paused",
      "type": "event"
    },
    {
      "anonymous": false,
      "inputs": [
        {
          "indexed": false,
          "internalType": "uint256",
          "name": "newTtfPercentage",
          "type": "uint256"
        },
        {
          "indexed": false,
          "internalType": "uint256",
          "name": "newTfcPercentage",
          "type": "uint256"
        },
        {
          "indexed": false,
          "internalType": "uint256",
          "name": "newVduPercentage",
          "type": "uint256"
        },
        {
          "indexed": false,
          "internalType": "uint256",
          "name": "newUwPercentage",
          "type": "uint256"
        }
      ],
      "name": "PerformancePercentagesUpdated",
      "type": "event"
    },
    {
      "anonymous": false,
      "inputs": [
        {
          "indexed": false,
          "internalType": "uint256[]",
          "name": "dlpIds",
          "type": "uint256[]"
        },
        {
          "indexed": false,
          "internalType": "uint256[]",
          "name": "scores",
          "type": "uint256[]"
        }
      ],
      "name": "ScoresUpdated",
      "type": "event"
    },
    {
      "anonymous": false,
      "inputs": [
        {
          "indexed": true,
          "internalType": "address",
          "name": "staker",
          "type": "address"
        },
        {
          "indexed": true,
          "internalType": "uint256",
          "name": "dlpId",
          "type": "uint256"
        },
        {
          "indexed": false,
          "internalType": "uint256",
          "name": "amount",
          "type": "uint256"
        }
      ],
      "name": "Staked",
      "type": "event"
    },
    {
      "anonymous": false,
      "inputs": [
        {
          "indexed": false,
          "internalType": "address",
          "name": "staker",
          "type": "address"
        },
        {
          "indexed": false,
          "internalType": "uint256",
          "name": "dlpId",
          "type": "uint256"
        },
        {
          "indexed": false,
          "internalType": "uint256",
          "name": "epochId",
          "type": "uint256"
        },
        {
          "indexed": false,
          "internalType": "uint256",
          "name": "claimAmount",
          "type": "uint256"
        }
      ],
      "name": "StakerDlpEpochRewardClaimed",
      "type": "event"
    },
    {
      "anonymous": false,
      "inputs": [
        {
          "indexed": false,
          "internalType": "address",
          "name": "account",
          "type": "address"
        }
      ],
      "name": "Unpaused",
      "type": "event"
    },
    {
      "anonymous": false,
      "inputs": [
        {
          "indexed": true,
          "internalType": "address",
          "name": "staker",
          "type": "address"
        },
        {
          "indexed": true,
          "internalType": "uint256",
          "name": "dlpId",
          "type": "uint256"
        },
        {
          "indexed": false,
          "internalType": "uint256",
          "name": "amount",
          "type": "uint256"
        }
      ],
      "name": "Unstaked",
      "type": "event"
    },
    {
      "anonymous": false,
      "inputs": [
        {
          "indexed": true,
          "internalType": "address",
          "name": "implementation",
          "type": "address"
        }
      ],
      "name": "Upgraded",
      "type": "event"
    },
    {
      "inputs": [],
      "name": "UPGRADE_INTERFACE_VERSION",
      "outputs": [
        {
          "internalType": "string",
          "name": "",
          "type": "string"
        }
      ],
      "stateMutability": "view",
      "type": "function"
    },
    {
      "inputs": [],
      "name": "acceptOwnership",
      "outputs": [],
      "stateMutability": "nonpayable",
      "type": "function"
    },
    {
      "inputs": [],
      "name": "addRewardForDlps",
      "outputs": [],
      "stateMutability": "payable",
      "type": "function"
    },
    {
      "inputs": [
        {
          "internalType": "uint256",
          "name": "dlpId",
          "type": "uint256"
        }
      ],
      "name": "claimReward",
      "outputs": [],
      "stateMutability": "nonpayable",
      "type": "function"
    },
    {
      "inputs": [
        {
          "internalType": "uint256",
          "name": "dlpId",
          "type": "uint256"
        },
        {
          "internalType": "uint256",
          "name": "lastEpochToClaim",
          "type": "uint256"
        }
      ],
      "name": "claimRewardUntilEpoch",
      "outputs": [],
      "stateMutability": "nonpayable",
      "type": "function"
    },
    {
      "inputs": [
        {
          "internalType": "address",
          "name": "stakerAddress",
          "type": "address"
        },
        {
          "internalType": "uint256",
          "name": "dlpId",
          "type": "uint256"
        }
      ],
      "name": "claimableAmount",
      "outputs": [
        {
          "internalType": "uint256",
          "name": "",
          "type": "uint256"
        }
      ],
      "stateMutability": "view",
      "type": "function"
    },
    {
      "inputs": [],
      "name": "createEpochs",
      "outputs": [],
      "stateMutability": "nonpayable",
      "type": "function"
    },
    {
      "inputs": [
        {
          "internalType": "uint256",
          "name": "blockNumber",
          "type": "uint256"
        }
      ],
      "name": "createEpochsUntilBlockNumber",
      "outputs": [],
      "stateMutability": "nonpayable",
      "type": "function"
    },
    {
      "inputs": [
        {
          "internalType": "uint256",
          "name": "dlpId",
          "type": "uint256"
        }
      ],
      "name": "deregisterDlp",
      "outputs": [],
      "stateMutability": "nonpayable",
      "type": "function"
    },
    {
      "inputs": [
        {
          "internalType": "uint256",
          "name": "dlpId",
          "type": "uint256"
        },
        {
          "internalType": "uint256",
          "name": "dlpOwnerAmount",
          "type": "uint256"
        }
      ],
      "name": "distributeStakeAfterDeregistration",
      "outputs": [],
      "stateMutability": "nonpayable",
      "type": "function"
    },
    {
      "inputs": [
        {
          "internalType": "uint256",
          "name": "dlpId",
          "type": "uint256"
        },
        {
          "internalType": "uint256",
          "name": "epochId",
          "type": "uint256"
        }
      ],
      "name": "dlpEpochs",
      "outputs": [
        {
          "components": [
            {
              "internalType": "uint256",
              "name": "ttf",
              "type": "uint256"
            },
            {
              "internalType": "uint256",
              "name": "tfc",
              "type": "uint256"
            },
            {
              "internalType": "uint256",
              "name": "vdu",
              "type": "uint256"
            },
            {
              "internalType": "uint256",
              "name": "uw",
              "type": "uint256"
            },
            {
              "internalType": "uint256",
              "name": "stakeAmount",
              "type": "uint256"
            },
            {
              "internalType": "bool",
              "name": "isTopDlp",
              "type": "bool"
            },
            {
              "internalType": "uint256",
              "name": "rewardAmount",
              "type": "uint256"
            },
            {
              "internalType": "uint256",
              "name": "stakersPercentage",
              "type": "uint256"
            }
          ],
          "internalType": "struct IDataLiquidityPoolsRoot.DlpEpochInfo",
          "name": "",
          "type": "tuple"
        }
      ],
      "stateMutability": "view",
      "type": "function"
    },
    {
      "inputs": [
        {
          "internalType": "address",
          "name": "dlpAddress",
          "type": "address"
        }
      ],
      "name": "dlpIds",
      "outputs": [
        {
          "internalType": "uint256",
          "name": "dlpId",
          "type": "uint256"
        }
      ],
      "stateMutability": "view",
      "type": "function"
    },
    {
      "inputs": [
        {
          "internalType": "uint256",
          "name": "dlpId",
          "type": "uint256"
        }
      ],
      "name": "dlps",
      "outputs": [
        {
          "components": [
            {
              "internalType": "uint256",
              "name": "id",
              "type": "uint256"
            },
            {
              "internalType": "address",
              "name": "dlpAddress",
              "type": "address"
            },
            {
              "internalType": "address",
              "name": "ownerAddress",
              "type": "address"
            },
            {
              "internalType": "enum IDataLiquidityPoolsRoot.DlpStatus",
              "name": "status",
              "type": "uint8"
            },
            {
              "internalType": "uint256",
              "name": "registrationBlockNumber",
              "type": "uint256"
            },
            {
              "internalType": "uint256",
              "name": "grantedAmount",
              "type": "uint256"
            },
            {
              "internalType": "uint256",
              "name": "stakersPercentage",
              "type": "uint256"
            },
            {
              "internalType": "uint256",
              "name": "stakeAmount",
              "type": "uint256"
            }
          ],
          "internalType": "struct IDataLiquidityPoolsRoot.DlpResponse",
          "name": "",
          "type": "tuple"
        }
      ],
      "stateMutability": "view",
      "type": "function"
    },
    {
      "inputs": [
        {
          "internalType": "address",
          "name": "dlpAddress",
          "type": "address"
        }
      ],
      "name": "dlpsByAddress",
      "outputs": [
        {
          "components": [
            {
              "internalType": "uint256",
              "name": "id",
              "type": "uint256"
            },
            {
              "internalType": "address",
              "name": "dlpAddress",
              "type": "address"
            },
            {
              "internalType": "address",
              "name": "ownerAddress",
              "type": "address"
            },
            {
              "internalType": "enum IDataLiquidityPoolsRoot.DlpStatus",
              "name": "status",
              "type": "uint8"
            },
            {
              "internalType": "uint256",
              "name": "registrationBlockNumber",
              "type": "uint256"
            },
            {
              "internalType": "uint256",
              "name": "grantedAmount",
              "type": "uint256"
            },
            {
              "internalType": "uint256",
              "name": "stakersPercentage",
              "type": "uint256"
            },
            {
              "internalType": "uint256",
              "name": "stakeAmount",
              "type": "uint256"
            }
          ],
          "internalType": "struct IDataLiquidityPoolsRoot.DlpResponse",
          "name": "",
          "type": "tuple"
        }
      ],
      "stateMutability": "view",
      "type": "function"
    },
    {
      "inputs": [],
      "name": "dlpsCount",
      "outputs": [
        {
          "internalType": "uint256",
          "name": "",
          "type": "uint256"
        }
      ],
      "stateMutability": "view",
      "type": "function"
    },
    {
      "inputs": [],
      "name": "epochRewardAmount",
      "outputs": [
        {
          "internalType": "uint256",
          "name": "",
          "type": "uint256"
        }
      ],
      "stateMutability": "view",
      "type": "function"
    },
    {
      "inputs": [],
      "name": "epochSize",
      "outputs": [
        {
          "internalType": "uint256",
          "name": "",
          "type": "uint256"
        }
      ],
      "stateMutability": "view",
      "type": "function"
    },
    {
      "inputs": [
        {
          "internalType": "uint256",
          "name": "epochId",
          "type": "uint256"
        }
      ],
      "name": "epochs",
      "outputs": [
        {
          "components": [
            {
              "internalType": "uint256",
              "name": "startBlock",
              "type": "uint256"
            },
            {
              "internalType": "uint256",
              "name": "endBlock",
              "type": "uint256"
            },
            {
              "internalType": "uint256",
              "name": "reward",
              "type": "uint256"
            },
            {
              "internalType": "bool",
              "name": "isFinalised",
              "type": "bool"
            },
            {
              "internalType": "uint256[]",
              "name": "dlpIds",
              "type": "uint256[]"
            }
          ],
          "internalType": "struct IDataLiquidityPoolsRoot.EpochInfo",
          "name": "",
          "type": "tuple"
        }
      ],
      "stateMutability": "view",
      "type": "function"
    },
    {
      "inputs": [],
      "name": "epochsCount",
      "outputs": [
        {
          "internalType": "uint256",
          "name": "",
          "type": "uint256"
        }
      ],
      "stateMutability": "view",
      "type": "function"
    },
    {
      "inputs": [
        {
          "components": [
            {
              "internalType": "address payable",
              "name": "ownerAddress",
              "type": "address"
            },
            {
              "internalType": "uint256",
              "name": "maxNumberOfDlps",
              "type": "uint256"
            },
            {
              "internalType": "uint256",
              "name": "minDlpStakeAmount",
              "type": "uint256"
            },
            {
              "internalType": "uint256",
              "name": "startBlock",
              "type": "uint256"
            },
            {
              "internalType": "uint256",
              "name": "epochSize",
              "type": "uint256"
            },
            {
              "internalType": "uint256",
              "name": "epochRewardAmount",
              "type": "uint256"
            },
            {
              "internalType": "uint256",
              "name": "ttfPercentage",
              "type": "uint256"
            },
            {
              "internalType": "uint256",
              "name": "tfcPercentage",
              "type": "uint256"
            },
            {
              "internalType": "uint256",
              "name": "vduPercentage",
              "type": "uint256"
            },
            {
              "internalType": "uint256",
              "name": "uwPercentage",
              "type": "uint256"
            }
          ],
          "internalType": "struct DataLiquidityPoolsRootImplementation.InitParams",
          "name": "params",
          "type": "tuple"
        }
      ],
      "name": "initialize",
      "outputs": [],
      "stateMutability": "nonpayable",
      "type": "function"
    },
    {
      "inputs": [],
      "name": "maxNumberOfDlps",
      "outputs": [
        {
          "internalType": "uint256",
          "name": "",
          "type": "uint256"
        }
      ],
      "stateMutability": "view",
      "type": "function"
    },
    {
      "inputs": [],
      "name": "minDlpStakeAmount",
      "outputs": [
        {
          "internalType": "uint256",
          "name": "",
          "type": "uint256"
        }
      ],
      "stateMutability": "view",
      "type": "function"
    },
    {
      "inputs": [],
      "name": "owner",
      "outputs": [
        {
          "internalType": "address",
          "name": "",
          "type": "address"
        }
      ],
      "stateMutability": "view",
      "type": "function"
    },
    {
      "inputs": [],
      "name": "pause",
      "outputs": [],
      "stateMutability": "nonpayable",
      "type": "function"
    },
    {
      "inputs": [],
      "name": "paused",
      "outputs": [
        {
          "internalType": "bool",
          "name": "",
          "type": "bool"
        }
      ],
      "stateMutability": "view",
      "type": "function"
    },
    {
      "inputs": [],
      "name": "pendingOwner",
      "outputs": [
        {
          "internalType": "address",
          "name": "",
          "type": "address"
        }
      ],
      "stateMutability": "view",
      "type": "function"
    },
    {
      "inputs": [],
      "name": "proxiableUUID",
      "outputs": [
        {
          "internalType": "bytes32",
          "name": "",
          "type": "bytes32"
        }
      ],
      "stateMutability": "view",
      "type": "function"
    },
    {
      "inputs": [
        {
          "internalType": "address",
          "name": "dlpAddress",
          "type": "address"
        },
        {
          "internalType": "address payable",
          "name": "dlpOwnerAddress",
          "type": "address"
        },
        {
          "internalType": "uint256",
          "name": "stakersPercentage",
          "type": "uint256"
        }
      ],
      "name": "registerDlp",
      "outputs": [],
      "stateMutability": "payable",
      "type": "function"
    },
    {
      "inputs": [
        {
          "internalType": "address",
          "name": "dlpAddress",
          "type": "address"
        },
        {
          "internalType": "address payable",
          "name": "dlpOwnerAddress",
          "type": "address"
        },
        {
          "internalType": "uint256",
          "name": "stakersPercentage",
          "type": "uint256"
        }
      ],
      "name": "registerDlpWithGrant",
      "outputs": [],
      "stateMutability": "payable",
      "type": "function"
    },
    {
      "inputs": [],
      "name": "registeredDlps",
      "outputs": [
        {
          "internalType": "uint256[]",
          "name": "",
          "type": "uint256[]"
        }
      ],
      "stateMutability": "view",
      "type": "function"
    },
    {
      "inputs": [],
      "name": "renounceOwnership",
      "outputs": [],
      "stateMutability": "nonpayable",
      "type": "function"
    },
    {
      "inputs": [
        {
          "internalType": "uint256",
          "name": "epochId",
          "type": "uint256"
        },
        {
          "components": [
            {
              "internalType": "uint256",
              "name": "dlpId",
              "type": "uint256"
            },
            {
              "internalType": "uint256",
              "name": "ttf",
              "type": "uint256"
            },
            {
              "internalType": "uint256",
              "name": "tfc",
              "type": "uint256"
            },
            {
              "internalType": "uint256",
              "name": "vdu",
              "type": "uint256"
            },
            {
              "internalType": "uint256",
              "name": "uw",
              "type": "uint256"
            }
          ],
          "internalType": "struct IDataLiquidityPoolsRoot.DlpPerformance[]",
          "name": "dlpPerformances",
          "type": "tuple[]"
        },
        {
          "internalType": "bool",
          "name": "isFinalised",
          "type": "bool"
        }
      ],
      "name": "saveEpochPerformances",
      "outputs": [],
      "stateMutability": "nonpayable",
      "type": "function"
    },
    {
      "inputs": [
        {
          "internalType": "uint256",
          "name": "dlpId",
          "type": "uint256"
        }
      ],
      "name": "stake",
      "outputs": [],
      "stateMutability": "payable",
      "type": "function"
    },
    {
      "inputs": [
        {
          "internalType": "address",
          "name": "staker",
          "type": "address"
        },
        {
          "internalType": "uint256",
          "name": "dlpId",
          "type": "uint256"
        },
        {
          "internalType": "uint256",
          "name": "epochId",
          "type": "uint256"
        }
      ],
      "name": "stakerDlpEpochs",
      "outputs": [
        {
          "components": [
            {
              "internalType": "uint256",
              "name": "dlpId",
              "type": "uint256"
            },
            {
              "internalType": "uint256",
              "name": "epochId",
              "type": "uint256"
            },
            {
              "internalType": "uint256",
              "name": "stakeAmount",
              "type": "uint256"
            },
            {
              "internalType": "uint256",
              "name": "rewardAmount",
              "type": "uint256"
            },
            {
              "internalType": "uint256",
              "name": "claimAmount",
              "type": "uint256"
            }
          ],
          "internalType": "struct IDataLiquidityPoolsRoot.StakerDlpEpochInfo",
          "name": "",
          "type": "tuple"
        }
      ],
      "stateMutability": "view",
      "type": "function"
    },
    {
      "inputs": [
        {
          "internalType": "address",
          "name": "stakerAddress",
          "type": "address"
        },
        {
          "internalType": "uint256",
          "name": "dlpId",
          "type": "uint256"
        }
      ],
      "name": "stakerDlps",
      "outputs": [
        {
          "components": [
            {
              "internalType": "uint256",
              "name": "dlpId",
              "type": "uint256"
            },
            {
              "internalType": "uint256",
              "name": "stakeAmount",
              "type": "uint256"
            },
            {
              "internalType": "uint256",
              "name": "lastClaimedEpochId",
              "type": "uint256"
            }
          ],
          "internalType": "struct IDataLiquidityPoolsRoot.StakerDlpInfo",
          "name": "",
          "type": "tuple"
        }
      ],
      "stateMutability": "view",
      "type": "function"
    },
    {
      "inputs": [
        {
          "internalType": "address",
          "name": "stakerAddress",
          "type": "address"
        }
      ],
      "name": "stakerDlpsList",
      "outputs": [
        {
          "components": [
            {
              "internalType": "uint256",
              "name": "dlpId",
              "type": "uint256"
            },
            {
              "internalType": "uint256",
              "name": "stakeAmount",
              "type": "uint256"
            },
            {
              "internalType": "uint256",
              "name": "lastClaimedEpochId",
              "type": "uint256"
            }
          ],
          "internalType": "struct IDataLiquidityPoolsRoot.StakerDlpInfo[]",
          "name": "",
          "type": "tuple[]"
        }
      ],
      "stateMutability": "view",
      "type": "function"
    },
    {
      "inputs": [
        {
          "internalType": "address",
          "name": "staker",
          "type": "address"
        }
      ],
      "name": "stakerDlpsListCount",
      "outputs": [
        {
          "internalType": "uint256",
          "name": "",
          "type": "uint256"
        }
      ],
      "stateMutability": "view",
      "type": "function"
    },
    {
      "inputs": [],
      "name": "tfcPercentage",
      "outputs": [
        {
          "internalType": "uint256",
          "name": "",
          "type": "uint256"
        }
      ],
      "stateMutability": "view",
      "type": "function"
    },
    {
      "inputs": [
        {
          "internalType": "uint256",
          "name": "numberOfDlps",
          "type": "uint256"
        }
      ],
      "name": "topDlpIds",
      "outputs": [
        {
          "internalType": "uint256[]",
          "name": "",
          "type": "uint256[]"
        }
      ],
      "stateMutability": "view",
      "type": "function"
    },
    {
      "inputs": [],
      "name": "totalDlpsRewardAmount",
      "outputs": [
        {
          "internalType": "uint256",
          "name": "",
          "type": "uint256"
        }
      ],
      "stateMutability": "view",
      "type": "function"
    },
    {
      "inputs": [
        {
          "internalType": "address",
          "name": "newOwner",
          "type": "address"
        }
      ],
      "name": "transferOwnership",
      "outputs": [],
      "stateMutability": "nonpayable",
      "type": "function"
    },
    {
      "inputs": [],
      "name": "ttfPercentage",
      "outputs": [
        {
          "internalType": "uint256",
          "name": "",
          "type": "uint256"
        }
      ],
      "stateMutability": "view",
      "type": "function"
    },
    {
      "inputs": [],
      "name": "unpause",
      "outputs": [],
      "stateMutability": "nonpayable",
      "type": "function"
    },
    {
      "inputs": [
        {
          "internalType": "uint256",
          "name": "dlpId",
          "type": "uint256"
        },
        {
          "internalType": "uint256",
          "name": "amount",
          "type": "uint256"
        }
      ],
      "name": "unstake",
      "outputs": [],
      "stateMutability": "nonpayable",
      "type": "function"
    },
    {
      "inputs": [
        {
          "internalType": "uint256",
          "name": "dlpId",
          "type": "uint256"
        },
        {
          "internalType": "uint256",
          "name": "stakersPercentage",
          "type": "uint256"
        }
      ],
      "name": "updateDlpStakersPercentage",
      "outputs": [],
      "stateMutability": "nonpayable",
      "type": "function"
    },
    {
      "inputs": [
        {
          "internalType": "uint256",
          "name": "newEpochRewardAmount",
          "type": "uint256"
        }
      ],
      "name": "updateEpochRewardAmount",
      "outputs": [],
      "stateMutability": "nonpayable",
      "type": "function"
    },
    {
      "inputs": [
        {
          "internalType": "uint256",
          "name": "newEpochSize",
          "type": "uint256"
        }
      ],
      "name": "updateEpochSize",
      "outputs": [],
      "stateMutability": "nonpayable",
      "type": "function"
    },
    {
      "inputs": [
        {
          "internalType": "uint256",
          "name": "newMaxNumberOfDlps",
          "type": "uint256"
        }
      ],
      "name": "updateMaxNumberOfDlps",
      "outputs": [],
      "stateMutability": "nonpayable",
      "type": "function"
    },
    {
      "inputs": [
        {
          "internalType": "uint256",
          "name": "newMinDlpStakeAmount",
          "type": "uint256"
        }
      ],
      "name": "updateMinDlpStakeAmount",
      "outputs": [],
      "stateMutability": "nonpayable",
      "type": "function"
    },
    {
      "inputs": [
        {
          "internalType": "uint256",
          "name": "newTtfPercentage",
          "type": "uint256"
        },
        {
          "internalType": "uint256",
          "name": "newTfcPercentage",
          "type": "uint256"
        },
        {
          "internalType": "uint256",
          "name": "newVduPercentage",
          "type": "uint256"
        },
        {
          "internalType": "uint256",
          "name": "newUwPercentage",
          "type": "uint256"
        }
      ],
      "name": "updatePerformancePercentages",
      "outputs": [],
      "stateMutability": "nonpayable",
      "type": "function"
    },
    {
      "inputs": [
        {
          "internalType": "address",
          "name": "newImplementation",
          "type": "address"
        },
        {
          "internalType": "bytes",
          "name": "data",
          "type": "bytes"
        }
      ],
      "name": "upgradeToAndCall",
      "outputs": [],
      "stateMutability": "payable",
      "type": "function"
    },
    {
      "inputs": [],
      "name": "uwPercentage",
      "outputs": [
        {
          "internalType": "uint256",
          "name": "",
          "type": "uint256"
        }
      ],
      "stateMutability": "view",
      "type": "function"
    },
    {
      "inputs": [],
      "name": "vduPercentage",
      "outputs": [
        {
          "internalType": "uint256",
          "name": "",
          "type": "uint256"
        }
      ],
      "stateMutability": "view",
      "type": "function"
    },
    {
      "inputs": [],
      "name": "version",
      "outputs": [
        {
          "internalType": "uint256",
          "name": "",
          "type": "uint256"
        }
      ],
      "stateMutability": "pure",
      "type": "function"
    }
  ],
  "transactionHash": "0x58d411865bdb9f0fb8411dfeae886bf073fc7632f3bd1690ca47bc2f066832d8",
  "args": [],
  "numDeployments": 3,
  "solcInputHash": "4105d997fa57f5b4a132325184f753c8",
  "bytecode": "0x60a06040523060805234801561001457600080fd5b5060805161434261003e600039600081816129dc01528181612a050152612b4601526143426000f3fe6080604052600436106103355760003560e01c80638d8c658f116101ab578063c6b61e4c116100f7578063e7a6227611610095578063eaeb2ec81161006f578063eaeb2ec8146109a3578063f2fde38b146109c3578063fc492a08146109e3578063fd605f4e14610a0357600080fd5b8063e7a6227614610901578063e7ebaa6f14610963578063ea83e47b1461098357600080fd5b8063d3e14c32116100d1578063d3e14c32146108a3578063d4e01872146108b9578063da97013a146108d9578063e30c3978146108ec57600080fd5b8063c6b61e4c1461084d578063c70915931461087a578063ca4ab3a21461088d57600080fd5b8063a694fc3a11610164578063ae169a501161013e578063ae169a50146107ca578063b4fcea1d146107ea578063c06020b01461080a578063c22b9fd41461083757600080fd5b8063a694fc3a14610759578063a9d90f9b1461076c578063ad3cb1cc1461078c57600080fd5b80638d8c658f146106a05780638da5cb5b146106c0578063916e1c57146106ed5780639d3ce842146107035780639e2c8a5b14610719578063a4e9196a1461073957600080fd5b8063526fda59116102855780636b289f5b1161022357806376bc9869116101fd57806376bc98691461064157806379b8d9381461065657806379ba5097146106765780638456cb591461068b57600080fd5b80636b289f5b146105ec5780636f3414321461060c578063715018a61461062c57600080fd5b8063572d356e1161025f578063572d356e1461057057806357e04157146105865780635c975abb146105a657806368ed41ed146105d657600080fd5b8063526fda591461052757806352d1902d1461054757806354fd4d501461055c57600080fd5b80632ae51134116102f25780633f4ba83a116102cc5780633f4ba83a146104bc578063439b3756146104d15780634f1ef286146104fe57806351c144a41461051157600080fd5b80632ae51134146103ea57806334a2e4eb1461046d5780633f2f924f1461049a57600080fd5b806307813e061461033a57806308c451cb14610370578063132c58e9146103925780631430091c146103b6578063178f794d146103be5780632523ca7f146103d4575b600080fd5b34801561034657600080fd5b5061035a610355366004613b39565b610a23565b6040516103679190613b65565b60405180910390f35b34801561037c57600080fd5b5061039061038b366004613c2a565b610ac5565b005b34801561039e57600080fd5b506103a860035481565b604051908152602001610367565b610390610cfb565b3480156103ca57600080fd5b506103a860085481565b3480156103e057600080fd5b506103a860005481565b3480156103f657600080fd5b5061040a610405366004613cb8565b610d30565b6040516103679190600061010082019050825182526020830151602083015260408301516040830152606083015160608301526080830151608083015260a0830151151560a083015260c083015160c083015260e083015160e083015292915050565b34801561047957600080fd5b5061048d610488366004613cda565b610e98565b6040516103679190613cf7565b3480156104a657600080fd5b506104af610ff3565b6040516103679190613d95565b3480156104c857600080fd5b50610390611004565b3480156104dd57600080fd5b506104f16104ec366004613cda565b611014565b6040516103679190613dbe565b61039061050c366004613e45565b61103e565b34801561051d57600080fd5b506103a860015481565b34801561053357600080fd5b50610390610542366004613eed565b61105d565b34801561055357600080fd5b506103a86110d6565b34801561056857600080fd5b5060016103a8565b34801561057c57600080fd5b506103a860045481565b34801561059257600080fd5b506103906105a1366004613f16565b6110f3565b3480156105b257600080fd5b506000805160206142cd8339815191525460ff166040519015158152602001610367565b3480156105e257600080fd5b506103a860095481565b3480156105f857600080fd5b50610390610607366004613eed565b61166d565b34801561061857600080fd5b50610390610627366004613cb8565b6116df565b34801561063857600080fd5b506103906118c5565b34801561064d57600080fd5b506103906118d7565b34801561066257600080fd5b506103a8610671366004613b39565b6118e0565b34801561068257600080fd5b506103906119f0565b34801561069757600080fd5b50610390611a3d565b3480156106ac57600080fd5b506104af6106bb366004613eed565b611a4d565b3480156106cc57600080fd5b506106d5611cec565b6040516001600160a01b039091168152602001610367565b3480156106f957600080fd5b506103a8600e5481565b34801561070f57600080fd5b506103a860065481565b34801561072557600080fd5b50610390610734366004613cb8565b611d21565b34801561074557600080fd5b50610390610754366004613eed565b611e6e565b610390610767366004613eed565b611eab565b34801561077857600080fd5b50610390610787366004613cb8565b611eeb565b34801561079857600080fd5b506107bd604051806040016040528060058152602001640352e302e360dc1b81525081565b604051610367919061403e565b3480156107d657600080fd5b506103906107e5366004613eed565b611f1c565b3480156107f657600080fd5b50610390610805366004613eed565b611f4f565b34801561081657600080fd5b506103a8610825366004613cda565b600b6020526000908152604090205481565b34801561084357600080fd5b506103a860075481565b34801561085957600080fd5b5061086d610868366004613eed565b6120e3565b6040516103679190614071565b6103906108883660046140be565b612178565b34801561089957600080fd5b506103a860025481565b3480156108af57600080fd5b506103a860055481565b3480156108c557600080fd5b506103906108d4366004613eed565b6121e1565b6103906108e73660046140be565b612253565b3480156108f857600080fd5b506106d56122a5565b34801561090d57600080fd5b5061092161091c3660046140ff565b6122ce565b6040516103679190600060a082019050825182526020830151602083015260408301516040830152606083015160608301526080830151608083015292915050565b34801561096f57600080fd5b506103a861097e366004613cda565b61243b565b34801561098f57600080fd5b506104f161099e366004613eed565b61245c565b3480156109af57600080fd5b506103906109be366004613eed565b61250f565b3480156109cf57600080fd5b506103906109de366004613cda565b612525565b3480156109ef57600080fd5b506103906109fe366004614134565b6125aa565b348015610a0f57600080fd5b50610390610a1e366004613cb8565b612691565b610a4760405180606001604052806000815260200160008152602001600081525090565b604080516060810182528381526000848152600a60209081528382206001600160a01b038816835260070181529290209091820190610a889060010161277f565b6001600160d01b031681526000848152600a602090815260408083206001600160a01b038916845260070182529091205491015290505b92915050565b7ff0c57e16840df040f15088dc2f81fe391c3923bec73e23a9662efc9c229c6a008054600160401b810460ff16159067ffffffffffffffff16600081158015610b0b5750825b905060008267ffffffffffffffff166001148015610b285750303b155b905081158015610b36575080155b15610b545760405163f92ee8a960e01b815260040160405180910390fd5b845467ffffffffffffffff191660011785558315610b7e57845460ff60401b1916600160401b1785555b610b866127c6565b610b8e6127c6565b610b966127ce565b610b9e6127de565b60208601516000556040860151600155608086015160045560a086015160035560c0860151600581905560e0870151600681905561010088015160078190556101208901516008819055929091610bf49161417c565b610bfe919061417c565b610c08919061417c565b68056bc75e2d6310000014610c305760405163e2b5214560e01b815260040160405180910390fd5b60008052600f60205260608601517ff4803e074bd026baaf6ed2e288c9515f68c72fb7216eebdd7cae1718a53ec37590610c7690610c709060029061418f565b436127ee565b81556060870151610c899060019061418f565b60018083019190915560058201805460ff191690911790558651610cac90612804565b508315610cf357845460ff60401b19168555604051600181527fc7f505b2f371ae2175ee4913f4499e1f2633a7b5936321eed1cdaeb6115181d29060200160405180910390a15b505050505050565b610d0361283c565b3460026000828254610d15919061417c565b909155505060016000805160206142ed83398151915255565b565b610d7a604051806101000160405280600081526020016000815260200160008152602001600081526020016000815260200160001515815260200160008152602001600081525090565b6000828152600f6020818152604080842087855260068082018452828620835160e081018552815481526001808301548288019081526002840154838801908152600385015460608086019182526004870154608080880191909152600588015460a0880152969097015460c0860152885161010081018a52855181529251838b01529051978201979097529551938601939093529689905294909352549092830191610e4a91610e3391610e2e9161418f565b612888565b6000888152600a60205260409020600601906128bf565b6001600160d01b031681526000858152600f60209081526040909120910190610e76906003018761290a565b151581526020018260a0015181526020018260c0015181525091505092915050565b6001600160a01b0381166000908152601060205260408120606091610ebc82612922565b67ffffffffffffffff811115610ed457610ed4613b86565b604051908082528060200260200182016040528015610f2957816020015b610f1660405180606001604052806000815260200160008152602001600081525090565b815260200190600190039081610ef25790505b50905060005b610f3883612922565b811015610feb576000610f4b848361292c565b604080516060810182528281526000838152600a60209081528382206001600160a01b038c16835260070181529290209293509190820190610f8f9060010161277f565b6001600160d01b031681526000838152600a602090815260408083206001600160a01b038c1684526007018252909120549101528351849084908110610fd757610fd76141a2565b602090810291909101015250600101610f2f565b509392505050565b6060610fff600c612938565b905090565b61100c612945565b610d2e612977565b61101c613adf565b6001600160a01b0382166000908152600b6020526040902054610abf9061245c565b6110466129d1565b61104f82612a76565b6110598282612a7e565b5050565b611065612945565b600e546000908152600f602052604090206001015443111561109a576040516331bad64960e01b815260040160405180910390fd5b60008190556040518181527fad333ea03ce4e657f8ef5f2f2480d4165184eb4c94bc6011e3bab314bf7791b7906020015b60405180910390a150565b60006110e0612b3b565b506000805160206142ad83398151915290565b6110fb612945565b6111036118d7565b6000838152600f602052604081208054909103611133576040516333e7d47160e11b815260040160405180910390fd5b81156111b557600f600061114860018761418f565b815260208101919091526040016000206005015460ff1661117c5760405163c99e29b360e01b815260040160405180910390fd5b43816001015411156111a15760405163756b785760e01b815260040160405180910390fd5b60058101805460ff191660011790556111da565b43816001015410156111da57604051636bec07d760e11b815260040160405180910390fd5b6000848152600f60205260408120600301906111f582612922565b9050845181146112185760405163c21fe6bf60e01b815260040160405180910390fd5b600080805b8383101561141f5785600601600089858151811061123d5761123d6141a2565b6020026020010151600001518152602001908152602001600020915061128988848151811061126e5761126e6141a2565b6020026020010151600001518661290a90919063ffffffff16565b6112a65760405163b8e4b73960e01b815260040160405180910390fd5b8783815181106112b8576112b86141a2565b60200260200101516020015182600001819055508783815181106112de576112de6141a2565b6020026020010151604001518260010181905550878381518110611304576113046141a2565b602002602001015160600151826002018190555087838151811061132a5761132a6141a2565b6020026020010151608001518260030181905550600854888481518110611353576113536141a2565b60200260200101516080015161136991906141b8565b60075489858151811061137e5761137e6141a2565b60200260200101516060015161139491906141b8565b6006548a86815181106113a9576113a96141a2565b6020026020010151604001516113bf91906141b8565b6005548b87815181106113d4576113d46141a2565b6020026020010151602001516113ea91906141b8565b6113f4919061417c565b6113fe919061417c565b611408919061417c565b611412908261417c565b600190930192905061121d565b8060000361143257505050505050505050565b600092505b8383101561162757856006016000898581518110611457576114576141a2565b602002602001015160000151815260200190815260200160002091508086600201546008548a868151811061148e5761148e6141a2565b6020026020010151608001516114a491906141b8565b6007548b87815181106114b9576114b96141a2565b6020026020010151606001516114cf91906141b8565b6006548c88815181106114e4576114e46141a2565b6020026020010151604001516114fa91906141b8565b6005548d898151811061150f5761150f6141a2565b60200260200101516020015161152591906141b8565b61152f919061417c565b611539919061417c565b611543919061417c565b61154d91906141b8565b61155791906141cf565b6005830155868015611575575068056bc75e2d631000008260060154105b1561161c57600a6000898581518110611590576115906141a2565b6020908102919091018101515182528101919091526040016000206002015460068301546001600160a01b03909116906108fc9068056bc75e2d63100000906115d9908261418f565b85600501546115e891906141b8565b6115f291906141cf565b6040518115909202916000818181858888f1935050505015801561161a573d6000803e3d6000fd5b505b600190920191611437565b604080518a815288151560208201527f3c387ccbf64e52e42837a373a65ea10f0fc23678882ab5424891e8a9c824db48910160405180910390a15050505050505b505050565b600e546000908152600f60205260409020600101544311156116a2576040516331bad64960e01b815260040160405180910390fd5b6116aa612945565b60038190556040518181527f2fe8cb48ce95af273ee232223c3a0fbda25a65208753e99801ce508751f2b7fb906020016110cb565b6116e761283c565b600e546000908152600f602052604090206001015443111561171c576040516331bad64960e01b815260040160405180910390fd5b611724612945565b6000828152600a6020526040902060028082810154600160a01b900460ff169081111561175357611753613da8565b1461177157604051636e1ed6c560e11b815260040160405180910390fd5b60028101546001600160a01b03166000908152600782016020526040902061179b9060010161277f565b6001600160d01b03166000036117c45760405163cce553a960e01b815260040160405180910390fd5b81156118085760028101546040516001600160a01b039091169083156108fc029084906000818181858888f19350505050158015611806573d6000803e3d6000fd5b505b600082826005015461181a919061418f565b111561186e57611828611cec565b6001600160a01b03166108fc838360050154611844919061418f565b6040518115909202916000818181858888f1935050505015801561186c573d6000803e3d6000fd5b505b61187c816006016000612b84565b505060028101546001600160a01b0316600090815260078201602052604081206118ab91600190910190612b84565b50505061105960016000805160206142ed83398151915255565b6118cd612945565b610d2e6000612804565b610d2e43612baf565b6000818152600a602090815260408083206001600160a01b03861684526007019091528120805482905b600e548110156119e7578061191e816141f1565b6000818152600f602090815260408083208a84526006810190925290912060058201549294509092509060ff166119565750506119e7565b60008160040154116119695760006119d4565b68056bc75e2d631000008160060154826004015483600501546119a361199960018860000154610e2e919061418f565b60018b01906128bf565b6001600160d01b03166119b691906141b8565b6119c091906141cf565b6119ca91906141b8565b6119d491906141cf565b6119de908561417c565b9350505061190a565b50949350505050565b33806119fa6122a5565b6001600160a01b031614611a315760405163118cdaa760e01b81526001600160a01b03821660048201526024015b60405180910390fd5b611a3a81612804565b50565b611a45612945565b610d2e612dc5565b60606000611a5b600c612938565b8051909150611a6a84826127ee565b935060008467ffffffffffffffff811115611a8757611a87613b86565b604051908082528060200260200182016040528015611ab0578160200160208202803683370190505b50905084600003611ac357949350505050565b60008567ffffffffffffffff811115611ade57611ade613b86565b604051908082528060200260200182016040528015611b07578160200160208202803683370190505b50905060005b83811015611ce1576000858281518110611b2957611b296141a2565b602002602001015190506000611b53600a600084815260200190815260200160002060060161277f565b6001600160d01b031690508860005b8a811015611be157858181518110611b7c57611b7c6141a2565b6020026020010151831180611bcc5750858181518110611b9e57611b9e6141a2565b602002602001015183148015611bcc5750868181518110611bc157611bc16141a2565b602002602001015184105b15611bd957809150611be1565b600101611b62565b5089811015611cd6576000611bf760018c61418f565b90505b81811115611c965786611c0e60018361418f565b81518110611c1e57611c1e6141a2565b6020026020010151878281518110611c3857611c386141a2565b602090810291909101015285611c4f60018361418f565b81518110611c5f57611c5f6141a2565b6020026020010151868281518110611c7957611c796141a2565b602090810291909101015280611c8e8161420a565b915050611bfa565b5082868281518110611caa57611caa6141a2565b60200260200101818152505081858281518110611cc957611cc96141a2565b6020026020010181815250505b505050600101611b0d565b509095945050505050565b6000807f9016d09d72d40fdae2fd8ceac6b6234c7706214fd39c1cd1e609a0528c1993005b546001600160a01b031692915050565b600e546000908152600f6020526040902060010154431115611d56576040516331bad64960e01b815260040160405180910390fd5b611d9e611d796004544311611d6c576000612888565b600454610e2e904361418f565b6000848152600a602090815260408083203384526007019091529020600101906128bf565b6001600160d01b0316811115611dc7576040516314fea1a960e11b815260040160405180910390fd5b6000828152600a6020526040902060028101546001600160a01b03163303611e63576000838152600a602090815260408083203384526007019091528120611e119060010161277f565b6001600160d01b0316905081600501548382611e2d919061418f565b1080611e435750600154611e41848361418f565b105b15611e61576040516314fea1a960e11b815260040160405180910390fd5b505b611668338484612e0e565b611e76612945565b60018190556040518181527fe9a6d1b35cdb834e1d3cfe94b7199407fc9dbb6d64ba6c59b30295425d86d4c1906020016110cb565b600e546000908152600f6020526040902060010154431115611ee0576040516331bad64960e01b815260040160405180910390fd5b611a3a338234612edb565b611ef361283c565b611efb61300b565b611f05828261303c565b61105960016000805160206142ed83398151915255565b611f2461283c565b611f2c61300b565b611f3881600e5461303c565b611a3a60016000805160206142ed83398151915255565b6000818152600a602052604090206002015481906001600160a01b03163314611f8b57604051633387d70760e01b815260040160405180910390fd5b611f9361283c565b600e546000908152600f6020526040902060010154431115611fc8576040516331bad64960e01b815260040160405180910390fd5b6000828152600a602052604090206001600282810154600160a01b900460ff1690811115611ff857611ff8613da8565b1461201657604051636e1ed6c560e11b815260040160405180910390fd5b60028101805460ff60a01b1916600160a11b179055612036600c8461320c565b5060405183907fc3f4c6824ace066416e91f60e8762e0257019e0eb2e83afa4cdf62d23991e73990600090a2600581015460028201546001600160a01b0316600090815260078301602052604081209091906120949060010161277f565b6001600160d01b03166120a7919061418f565b905080156120ca57600282015482546120ca916001600160a01b03169083612e0e565b505061105960016000805160206142ed83398151915255565b6121176040518060a00160405280600081526020016000815260200160008152602001600015158152602001606081525090565b6040805160a0810182526000848152600f602081815284832080548552600181015482860152600281015495850195909552600585015460ff161515606085015291869052905290608082019061217090600301612938565b905292915050565b61218061300b565b61218861283c565b600e546000908152600f60205260409020600101544311156121bd576040516331bad64960e01b815260040160405180910390fd5b6121ca8383836000613218565b61166860016000805160206142ed83398151915255565b6121e9612945565b600e546000908152600f602052604090206001015443111561221e576040516331bad64960e01b815260040160405180910390fd5b60048190556040518181527f3cd59cf395448ba3bfd2541dcb31ccd800b9e303281df0888a62ae5d5f673f58906020016110cb565b61225b61300b565b61226361283c565b600e546000908152600f6020526040902060010154431115612298576040516331bad64960e01b815260040160405180910390fd5b6121ca8383836001613218565b6000807f237e158222e3e6968b72b9db0d8043aacf074ad9f650f0d1606b4d82ee432c00611d11565b6123006040518060a0016040528060008152602001600081526020016000815260200160008152602001600081525090565b6000828152600f60205260408120546123519061232390610e2e9060019061418f565b6000868152600a602090815260408083206001600160a01b038b1684526007019091529020600101906128bf565b6001600160d01b031690506000600f6000858152602001908152602001600020600601600086815260200190815260200160002090506040518060a0016040528086815260200185815260200183815260200160008360040154116123b75760006123f9565b82600401548468056bc75e2d63100000856006015486600501546123db91906141b8565b6123e591906141cf565b6123ef91906141b8565b6123f991906141cf565b81526000878152600a602090815260408083206001600160a01b038c1684526007018252808320898452600201825290912054910152925050505b9392505050565b6001600160a01b0381166000908152601060205260408120610abf90612922565b612464613adf565b6000828152600a60209081526040918290208251610100810184528154815260018201546001600160a01b039081169382019390935260028083015493841694820194909452909290916060830191600160a01b90910460ff16908111156124ce576124ce613da8565b81526020018260030154815260200182600501548152602001826004015481526020016124fd8360060161277f565b6001600160d01b031690529392505050565b611a3a43821061251f5743612baf565b81612baf565b61252d612945565b7f237e158222e3e6968b72b9db0d8043aacf074ad9f650f0d1606b4d82ee432c0080546001600160a01b0319166001600160a01b0383169081178255612571611cec565b6001600160a01b03167f38d16b8cac22d99fc7c124b9cd0de2d3fa1faef420bfe791d8c362d765e2270060405160405180910390a35050565b6125b2612945565b600e546000908152600f60205260409020600101544311156125e7576040516331bad64960e01b815260040160405180910390fd5b80826125f3858761417c565b6125fd919061417c565b612607919061417c565b68056bc75e2d631000001461262f5760405163e2b5214560e01b815260040160405180910390fd5b60058490556006839055600782905560088190556040805185815260208101859052908101839052606081018290527f9fed7ac1282e0ba1555a16ba3a71b4db07d3740cc71e611b077b581d1ad87c0b9060800160405180910390a150505050565b6000828152600a602052604090206002015482906001600160a01b031633146126cd57604051633387d70760e01b815260040160405180910390fd5b600e546000908152600f6020526040902060010154431115612702576040516331bad64960e01b815260040160405180910390fd5b68056bc75e2d6310000082111561272c5760405163d1be20e560e01b815260040160405180910390fd5b6000838152600a602090815260409182902060040184905581518581529081018490527fdc7c1eb84b8e606e429c65b5053a00111db03437dbbad386aa5c2cb0ea19d84d910160405180910390a1505050565b805460009080156127bd576127a78361279960018461418f565b600091825260209091200190565b54600160301b90046001600160d01b0316612434565b60009392505050565b610d2e61339a565b6127d661339a565b610d2e6133e3565b6127e661339a565b610d2e6133eb565b60008183106127fd5781612434565b5090919050565b7f237e158222e3e6968b72b9db0d8043aacf074ad9f650f0d1606b4d82ee432c0080546001600160a01b03191681556110598261340c565b6000805160206142ed83398151915280546001190161286e57604051633ee5aeb560e01b815260040160405180910390fd5b60029055565b60016000805160206142ed83398151915255565b600065ffffffffffff8211156128bb576040516306dfcc6560e41b81526030600482015260248101839052604401611a28565b5090565b8154600090816128d18585838561347d565b905080156128fe576128e88561279960018461418f565b54600160301b90046001600160d01b0316612901565b60005b95945050505050565b60008181526001830160205260408120541515612434565b6000610abf825490565b600061243483836134d7565b6060600061243483613501565b3361294e611cec565b6001600160a01b031614610d2e5760405163118cdaa760e01b8152336004820152602401611a28565b61297f61355d565b6000805160206142cd833981519152805460ff191681557f5db9ee0a495bf2e6ff9c91a7834c1ba4fdd244a5e8aa4e537bd38aeae4b073aa335b6040516001600160a01b0390911681526020016110cb565b306001600160a01b037f0000000000000000000000000000000000000000000000000000000000000000161480612a5857507f00000000000000000000000000000000000000000000000000000000000000006001600160a01b0316612a4c6000805160206142ad833981519152546001600160a01b031690565b6001600160a01b031614155b15610d2e5760405163703e46dd60e11b815260040160405180910390fd5b611a3a612945565b816001600160a01b03166352d1902d6040518163ffffffff1660e01b8152600401602060405180830381865afa925050508015612ad8575060408051601f3d908101601f19168201909252612ad591810190614221565b60015b612b0057604051634c9c8ce360e01b81526001600160a01b0383166004820152602401611a28565b6000805160206142ad8339815191528114612b3157604051632a87526960e21b815260048101829052602401611a28565b611668838361358d565b306001600160a01b037f00000000000000000000000000000000000000000000000000000000000000001614610d2e5760405163703e46dd60e11b815260040160405180910390fd5b600080612ba4612b9343612888565b612b9c856135e3565b869190613617565b915091509250929050565b600e546000908152600f602052604090206001810154431015612bd0575050565b6000612bdd600054611a4d565b90505b828260010154101561166857600e8054906000612bfc836141f1565b9091555050600e546000908152600f60205260409020600180840154612c219161417c565b808255600454600191612c34919061417c565b612c3e919061418f565b6001820155600354600282015560005b8251811015612d8057612c86838281518110612c6c57612c6c6141a2565b60200260200101518360030161363290919063ffffffff16565b50612cd4612c978560010154612888565b600a6000868581518110612cad57612cad6141a2565b602002602001015181526020019081526020016000206006016128bf90919063ffffffff16565b6001600160d01b0316826006016000858481518110612cf557612cf56141a2565b6020026020010151815260200190815260200160002060040181905550600a6000848381518110612d2857612d286141a2565b6020026020010151815260200190815260200160002060040154826006016000858481518110612d5a57612d5a6141a2565b602090810291909101810151825281019190915260400160002060060155600101612c4e565b8193507f0129593a287c7be892e56181ff1238eb466a2c952dc53a3029140d1f3ddc4a8d600e54604051612db691815260200190565b60405180910390a15050612be0565b612dcd61300b565b6000805160206142cd833981519152805460ff191660011781557f62e78cea01bee320cd4e420270b5ea74000d11b0c9f74754ebdbfc544b05a258336129b9565b6000828152600a60205260409020612e2c6006820161363e8461364a565b50506001600160a01b03841660009081526007820160205260409020612e589060010161363e8461364a565b50506040516001600160a01b0385169083156108fc029084906000818181858888f19350505050158015612e90573d6000803e3d6000fd5b5082846001600160a01b03167f7fc4727e062e336010f2c282598ef5f14facb3de68cf8195c2f23e1454b2b74e84604051612ecd91815260200190565b60405180910390a350505050565b6000828152600a602052604090206001600282810154600160a01b900460ff1690811115612f0b57612f0b613da8565b14612f2957604051636e1ed6c560e11b815260040160405180910390fd5b6001600160a01b0384166000908152601060205260409020612f4b8185613632565b50612f5c8260060161367f8561364a565b50506001600160a01b03851660009081526007830160205260408120612f889060010161367f8661364a565b506001600160a01b038716600090815260078501602052604081206001600160d01b03929092169250829003612fbe57600e5481555b85876001600160a01b03167f1449c6dd7851abc30abf37f57715f492010519147cc2652fbc38202c18a6ee9087604051612ffa91815260200190565b60405180910390a350505050505050565b6000805160206142cd8339815191525460ff1615610d2e5760405163d93c066560e01b815260040160405180910390fd5b6000828152600a60209081526040808320338452600701909152812090805b82548411156131be576000600f60008560000154600161307b919061417c565b815260208082019290925260409081016000908120898252600681019093522060058201549192509060ff166130b25750506131be565b84548560006130c0836141f1565b919050555060008160040154116130d8576000613139565b68056bc75e2d6310000081600601548260040154836005015461310861199960018860000154610e2e919061418f565b6001600160d01b031661311b91906141b8565b61312591906141cf565b61312f91906141b8565b61313991906141cf565b93508360000361314a57505061305b565b845460009081526002860160205260409020849055613169848461417c565b855460408051338152602081018b905290810191909152606081018690529093507f4952128cd80b7e898bd01cdbeef5d50f236e06f3e18d6961eed5ad968aca61ad9060800160405180910390a1505061305b565b806000036131df576040516312d37ee560e31b815260040160405180910390fd5b604051339082156108fc029083906000818181858888f19350505050158015610cf3573d6000803e3d6000fd5b6000612434838361368b565b6001600160a01b0384166000908152600b60205260409020541561324f57604051636e1ed6c560e11b815260040160405180910390fd5b68056bc75e2d631000008211156132795760405163d1be20e560e01b815260040160405180910390fd5b60098054906000613289836141f1565b90915550506009546000908152600a602052604090206001543410156132c257604051630103be3b60e21b815260040160405180910390fd5b81156132cf573460058201555b6009805482556002820180546001840180546001600160a01b038a81166001600160a01b031990921682179092559088166001600160a81b031990921691909117600160a01b179091556004830185905590546000918252600b602052604090912081905561334090859034612edb565b60095461334f90600c90613632565b50836001600160a01b0316856001600160a01b03166009547fe5c2985d22a121f4f7b534ee3a7ab105a620e670bb02f5d1188e20a8670f401e60405160405180910390a45050505050565b7ff0c57e16840df040f15088dc2f81fe391c3923bec73e23a9662efc9c229c6a0054600160401b900460ff16610d2e57604051631afcd79f60e31b815260040160405180910390fd5b61287461339a565b6133f361339a565b6000805160206142cd833981519152805460ff19169055565b7f9016d09d72d40fdae2fd8ceac6b6234c7706214fd39c1cd1e609a0528c19930080546001600160a01b031981166001600160a01b03848116918217845560405192169182907f8be0079c531659141344cd1fd0a4f28419497f9722a3daafe3b4186f6b6457e090600090a3505050565b60005b81831015610feb5760006134948484613785565b60008781526020902090915065ffffffffffff86169082015465ffffffffffff1611156134c3578092506134d1565b6134ce81600161417c565b93505b50613480565b60008260000182815481106134ee576134ee6141a2565b9060005260206000200154905092915050565b60608160000180548060200260200160405190810160405280929190818152602001828054801561355157602002820191906000526020600020905b81548152602001906001019080831161353d575b50505050509050919050565b6000805160206142cd8339815191525460ff16610d2e57604051638dfc202b60e01b815260040160405180910390fd5b613596826137a0565b6040516001600160a01b038316907fbc7cd75a20ee27fd9adebab32041f755214dbc6bffa90cc0225b39da2e5c2d3b90600090a28051156135db576116688282613805565b611059613872565b60006001600160d01b038211156128bb576040516306dfcc6560e41b815260d0600482015260248101839052604401611a28565b600080613625858585613891565b915091505b935093915050565b60006124348383613a0b565b6000612434828461423a565b60008061362561365943612888565b6136776136658861277f565b61366e876135e3565b8863ffffffff16565b879190613617565b6000612434828461425a565b600081815260018301602052604081205480156137745760006136af60018361418f565b85549091506000906136c39060019061418f565b90508082146137285760008660000182815481106136e3576136e36141a2565b9060005260206000200154905080876000018481548110613706576137066141a2565b6000918252602080832090910192909255918252600188019052604090208390555b85548690806137395761373961427a565b600190038181906000526020600020016000905590558560010160008681526020019081526020016000206000905560019350505050610abf565b6000915050610abf565b5092915050565b600061379460028484186141cf565b6124349084841661417c565b806001600160a01b03163b6000036137d657604051634c9c8ce360e01b81526001600160a01b0382166004820152602401611a28565b6000805160206142ad83398151915280546001600160a01b0319166001600160a01b0392909216919091179055565b6060600080846001600160a01b0316846040516138229190614290565b600060405180830381855af49150503d806000811461385d576040519150601f19603f3d011682016040523d82523d6000602084013e613862565b606091505b5091509150612901858383613a5a565b3415610d2e5760405163b398979f60e01b815260040160405180910390fd5b8254600090819080156139b05760006138af8761279960018561418f565b60408051808201909152905465ffffffffffff808216808452600160301b9092046001600160d01b03166020840152919250908716101561390357604051632520601d60e01b815260040160405180910390fd5b805165ffffffffffff80881691160361394f57846139268861279960018661418f565b80546001600160d01b0392909216600160301b0265ffffffffffff9092169190911790556139a0565b6040805180820190915265ffffffffffff80881682526001600160d01b0380881660208085019182528b54600181018d5560008d81529190912094519151909216600160301b029216919091179101555b60200151925083915061362a9050565b50506040805180820190915265ffffffffffff80851682526001600160d01b0380851660208085019182528854600181018a5560008a815291822095519251909316600160301b02919093161792019190915590508161362a565b6000818152600183016020526040812054613a5257508154600181810184556000848152602080822090930184905584548482528286019093526040902091909155610abf565b506000610abf565b606082613a6f57613a6a82613ab6565b612434565b8151158015613a8657506001600160a01b0384163b155b15613aaf57604051639996b31560e01b81526001600160a01b0385166004820152602401611a28565b5080612434565b805115613ac65780518082602001fd5b604051630a12f52160e11b815260040160405180910390fd5b60408051610100810182526000808252602082018190529181018290529060608201908152602001600081526020016000815260200160008152602001600081525090565b6001600160a01b0381168114611a3a57600080fd5b60008060408385031215613b4c57600080fd5b8235613b5781613b24565b946020939093013593505050565b81518152602080830151908201526040808301519082015260608101610abf565b634e487b7160e01b600052604160045260246000fd5b604051610140810167ffffffffffffffff81118282101715613bc057613bc0613b86565b60405290565b60405160a0810167ffffffffffffffff81118282101715613bc057613bc0613b86565b604051601f8201601f1916810167ffffffffffffffff81118282101715613c1257613c12613b86565b604052919050565b8035613c2581613b24565b919050565b60006101408284031215613c3d57600080fd5b613c45613b9c565b613c4e83613c1a565b81526020830135602082015260408301356040820152606083013560608201526080830135608082015260a083013560a082015260c083013560c082015260e083013560e08201526101008084013581830152506101208084013581830152508091505092915050565b60008060408385031215613ccb57600080fd5b50508035926020909101359150565b600060208284031215613cec57600080fd5b813561243481613b24565b6020808252825182820181905260009190848201906040850190845b81811015613d4d57613d3a8385518051825260208082015190830152604090810151910152565b9284019260609290920191600101613d13565b50909695505050505050565b60008151808452602080850194506020840160005b83811015613d8a57815187529582019590820190600101613d6e565b509495945050505050565b6020815260006124346020830184613d59565b634e487b7160e01b600052602160045260246000fd5b815181526020808301516001600160a01b039081169183019190915260408084015190911690820152606082015161010082019060038110613e1057634e487b7160e01b600052602160045260246000fd5b806060840152506080830151608083015260a083015160a083015260c083015160c083015260e083015160e083015292915050565b60008060408385031215613e5857600080fd5b8235613e6381613b24565b915060208381013567ffffffffffffffff80821115613e8157600080fd5b818601915086601f830112613e9557600080fd5b813581811115613ea757613ea7613b86565b613eb9601f8201601f19168501613be9565b91508082528784828501011115613ecf57600080fd5b80848401858401376000848284010152508093505050509250929050565b600060208284031215613eff57600080fd5b5035919050565b80358015158114613c2557600080fd5b60008060006060808587031215613f2c57600080fd5b8435935060208086013567ffffffffffffffff80821115613f4c57600080fd5b818801915088601f830112613f6057600080fd5b813581811115613f7257613f72613b86565b613f80848260051b01613be9565b818152848101925060a091820284018501918b831115613f9f57600080fd5b938501935b82851015613ffb5780858d031215613fbc5760008081fd5b613fc4613bc6565b8535815286860135878201526040808701359082015287860135888201526080808701359082015284529384019392850192613fa4565b5080975050505050505061401160408501613f06565b90509250925092565b60005b8381101561403557818101518382015260200161401d565b50506000910152565b602081526000825180602084015261405d81604085016020870161401a565b601f01601f19169190910160400192915050565b602081528151602082015260208201516040820152604082015160608201526060820151151560808201526000608083015160a0808401526140b660c0840182613d59565b949350505050565b6000806000606084860312156140d357600080fd5b83356140de81613b24565b925060208401356140ee81613b24565b929592945050506040919091013590565b60008060006060848603121561411457600080fd5b833561411f81613b24565b95602085013595506040909401359392505050565b6000806000806080858703121561414a57600080fd5b5050823594602084013594506040840135936060013592509050565b634e487b7160e01b600052601160045260246000fd5b80820180821115610abf57610abf614166565b81810381811115610abf57610abf614166565b634e487b7160e01b600052603260045260246000fd5b8082028115828204841417610abf57610abf614166565b6000826141ec57634e487b7160e01b600052601260045260246000fd5b500490565b60006001820161420357614203614166565b5060010190565b60008161421957614219614166565b506000190190565b60006020828403121561423357600080fd5b5051919050565b6001600160d01b0382811682821603908082111561377e5761377e614166565b6001600160d01b0381811683821601908082111561377e5761377e614166565b634e487b7160e01b600052603160045260246000fd5b600082516142a281846020870161401a565b919091019291505056fe360894a13ba1a3210667c828492db98dca3e2076cc3735a920a3ca505d382bbccd5ed15c6e187e77e9aee88184c21f4f2182ab5827cb3b7e07fbedcd63f033009b779b17422d0df92223018b32b4d1fa46e071723d6817e2486d003becc55f00a26469706673582212209c73d8ce1f059b20807dc076c2144810f81b5c9425d1256f0d28ae2ae959704364736f6c63430008180033",
  "devdoc": {
    "errors": {
      "AddressEmptyCode(address)": [
        {
          "details": "There's no code at `target` (it is not a contract)."
        }
      ],
      "CheckpointUnorderedInsertion()": [
        {
          "details": "A value was attempted to be inserted on a past checkpoint."
        }
      ],
      "ERC1967InvalidImplementation(address)": [
        {
          "details": "The `implementation` of the proxy is invalid."
        }
      ],
      "ERC1967NonPayable()": [
        {
          "details": "An upgrade function sees `msg.value > 0` that may be lost."
        }
      ],
      "EnforcedPause()": [
        {
          "details": "The operation failed because the contract is paused."
        }
      ],
      "ExpectedPause()": [
        {
          "details": "The operation failed because the contract is not paused."
        }
      ],
      "FailedInnerCall()": [
        {
          "details": "A call to an address target failed. The target may have reverted."
        }
      ],
      "InvalidInitialization()": [
        {
          "details": "The contract is already initialized."
        }
      ],
      "NotInitializing()": [
        {
          "details": "The contract is not initializing."
        }
      ],
      "OwnableInvalidOwner(address)": [
        {
          "details": "The owner is not a valid owner account. (eg. `address(0)`)"
        }
      ],
      "OwnableUnauthorizedAccount(address)": [
        {
          "details": "The caller account is not authorized to perform an operation."
        }
      ],
      "ReentrancyGuardReentrantCall()": [
        {
          "details": "Unauthorized reentrant call."
        }
      ],
      "SafeCastOverflowedUintDowncast(uint8,uint256)": [
        {
          "details": "Value doesn't fit in an uint of `bits` size."
        }
      ],
      "UUPSUnauthorizedCallContext()": [
        {
          "details": "The call is from an unauthorized context."
        }
      ],
      "UUPSUnsupportedProxiableUUID(bytes32)": [
        {
          "details": "The storage `slot` is unsupported as a UUID."
        }
      ]
    },
    "events": {
      "DlpDeregistered(uint256)": {
        "params": {
          "dlpId": "id of the dlp"
        }
      },
      "DlpDeregisteredByOwner(uint256,uint256,uint256)": {
        "params": {
          "dlpId": "id of the dlp",
          "penaltyAmount": "penalty amount",
          "unstakeAmount": "amount unstake"
        }
      },
      "DlpRegistered(uint256,address,address)": {
        "params": {
          "dlpAddress": "address of the dlp",
          "dlpId": "id of the dlp",
          "ownerAddress": "owner of the dlp"
        }
      },
      "DlpStakersPercentageUpdated(uint256,uint256)": {
        "params": {
          "dlpId": "id of the dlp",
          "stakersPercentage": "new stakers percentage"
        }
      },
      "EpochCreated(uint256)": {
        "params": {
          "epochId": "reward epoch id"
        }
      },
      "EpochPerformancesSaved(uint256,bool)": {
        "params": {
          "epochId": "epoch id",
          "isFinalised": "true if the performances are final"
        }
      },
      "EpochRewardAmountUpdated(uint256)": {
        "params": {
          "newEpochRewardAmount": "new epoch reward amount"
        }
      },
      "EpochSizeUpdated(uint256)": {
        "params": {
          "newEpochSize": "new epoch size"
        }
      },
      "Initialized(uint64)": {
        "details": "Triggered when the contract has been initialized or reinitialized."
      },
      "MaxNumberOfDlpsUpdated(uint256)": {
        "params": {
          "newMaxNumberOfDlps": "new max number of dlps"
        }
      },
      "MinDlpStakeAmountUpdated(uint256)": {
        "params": {
          "newMinDlpStakeAmount": "new minDlpStakeAmount"
        }
      },
      "Paused(address)": {
        "details": "Emitted when the pause is triggered by `account`."
      },
      "PerformancePercentagesUpdated(uint256,uint256,uint256,uint256)": {
        "params": {
          "newTfcPercentage": "new tfc percentage",
          "newTtfPercentage": "new ttf percentage",
          "newUwPercentage": "new uw percentage",
          "newVduPercentage": "new vdu percentage"
        }
      },
      "ScoresUpdated(uint256[],uint256[])": {
        "params": {
          "dlpIds": "dlp ids",
          "scores": "dlp scores"
        }
      },
      "Staked(address,uint256,uint256)": {
        "params": {
          "amount": "amount stake",
          "dlpId": "id of the dlp",
          "staker": "address of the staker"
        }
      },
      "StakerDlpEpochRewardClaimed(address,uint256,uint256,uint256)": {
        "params": {
          "claimAmount": "amount claimed",
          "dlpId": "id of the dlp",
          "epochId": "epoch id",
          "staker": "address of the staker"
        }
      },
      "Unpaused(address)": {
        "details": "Emitted when the pause is lifted by `account`."
      },
      "Unstaked(address,uint256,uint256)": {
        "params": {
          "amount": "amount unstake",
          "dlpId": "id of the dlp",
          "staker": "address of the staker"
        }
      },
      "Upgraded(address)": {
        "details": "Emitted when the implementation is upgraded."
      }
    },
    "kind": "dev",
    "methods": {
      "acceptOwnership()": {
        "details": "The new owner accepts the ownership transfer."
      },
      "claimReward(uint256)": {
        "params": {
          "dlpId": "dlp id"
        }
      },
      "claimRewardUntilEpoch(uint256,uint256)": {
        "params": {
          "dlpId": "id of the dlp",
          "lastEpochToClaim": "epoch id"
        }
      },
      "claimableAmount(address,uint256)": {
        "params": {
          "dlpId": "id of the dlp",
          "stakerAddress": "address of the staker"
        }
      },
      "createEpochsUntilBlockNumber(uint256)": {
        "details": "useful only when createEpochs cannot be called because there are to many epochs to create",
        "params": {
          "blockNumber": "block number"
        }
      },
      "deregisterDlp(uint256)": {
        "params": {
          "dlpId": "dlp id"
        }
      },
      "distributeStakeAfterDeregistration(uint256,uint256)": {
        "params": {
          "dlpId": "dlp id",
          "dlpOwnerAmount": "amount to distribute to the dlp owner"
        }
      },
      "dlpEpochs(uint256,uint256)": {
        "params": {
          "dlpId": "id of the dlp",
          "epochId": "epoch id"
        }
      },
      "dlps(uint256)": {
        "params": {
          "dlpId": "id of the dlp"
        }
      },
      "dlpsByAddress(address)": {
        "params": {
          "dlpAddress": "address of the dlp"
        }
      },
      "epochs(uint256)": {
        "params": {
          "epochId": "epoch id"
        }
      },
      "initialize((address,uint256,uint256,uint256,uint256,uint256,uint256,uint256,uint256,uint256))": {
        "params": {
          "params": "initialization parameters"
        }
      },
      "owner()": {
        "details": "Returns the address of the current owner."
      },
      "pause()": {
        "details": "Pauses the contract"
      },
      "paused()": {
        "details": "Returns true if the contract is paused, and false otherwise."
      },
      "pendingOwner()": {
        "details": "Returns the address of the pending owner."
      },
      "proxiableUUID()": {
        "details": "Implementation of the ERC1822 {proxiableUUID} function. This returns the storage slot used by the implementation. It is used to validate the implementation's compatibility when performing an upgrade. IMPORTANT: A proxy pointing at a proxiable contract should not be considered proxiable itself, because this risks bricking a proxy that upgrades to it, by delegating to itself until out of gas. Thus it is critical that this function revert if invoked through a proxy. This is guaranteed by the `notDelegated` modifier."
      },
      "registerDlp(address,address,uint256)": {
        "params": {
          "dlpAddress": "address of the dlp",
          "dlpOwnerAddress": "owner of the dlp",
          "stakersPercentage": "percentage of the rewards that will be distributed to the stakers"
        }
      },
      "registerDlpWithGrant(address,address,uint256)": {
        "params": {
          "dlpAddress": "address of the dlp",
          "dlpOwnerAddress": "owner of the dlp",
          "stakersPercentage": "percentage of the rewards that will be distributed to the stakers"
        }
      },
      "renounceOwnership()": {
        "details": "Leaves the contract without owner. It will not be possible to call `onlyOwner` functions. Can only be called by the current owner. NOTE: Renouncing ownership will leave the contract without an owner, thereby disabling any functionality that is only available to the owner."
      },
      "saveEpochPerformances(uint256,(uint256,uint256,uint256,uint256,uint256)[],bool)": {
        "params": {
          "dlpPerformances": "An array of DLPPerformance structs containing the performance metrics of the DLPs",
          "epochId": "The ID of the epoch"
        }
      },
      "stake(uint256)": {
        "params": {
          "dlpId": "dlp id"
        }
      },
      "stakerDlpEpochs(address,uint256,uint256)": {
        "params": {
          "dlpId": "id of the dlp",
          "epochId": "epoch id",
          "staker": "address of the staker"
        }
      },
      "stakerDlps(address,uint256)": {
        "params": {
          "dlpId": "id of the dlp",
          "stakerAddress": "address of the staker"
        }
      },
      "stakerDlpsList(address)": {
        "params": {
          "stakerAddress": "address of the staker"
        }
      },
      "topDlpIds(uint256)": {
        "params": {
          "numberOfDlps": "number of dlps"
        }
      },
      "transferOwnership(address)": {
        "details": "Starts the ownership transfer of the contract to a new account. Replaces the pending transfer if there is one. Can only be called by the current owner."
      },
      "unpause()": {
        "details": "Unpauses the contract"
      },
      "unstake(uint256,uint256)": {
        "params": {
          "amount": "amount to unstake",
          "dlpId": "dlp id"
        }
      },
      "updateDlpStakersPercentage(uint256,uint256)": {
        "params": {
          "dlpId": "dlp id",
          "stakersPercentage": "new stakers percentage"
        }
      },
      "updateEpochRewardAmount(uint256)": {
        "params": {
          "newEpochRewardAmount": "new epoch size"
        }
      },
      "updateEpochSize(uint256)": {
        "params": {
          "newEpochSize": "new epoch size"
        }
      },
      "updateMaxNumberOfDlps(uint256)": {
        "params": {
          "newMaxNumberOfDlps": "new maximum number of dlps"
        }
      },
      "updateMinDlpStakeAmount(uint256)": {
        "params": {
          "newMinDlpStakeAmount": "new minDlpStakeAmount"
        }
      },
      "updatePerformancePercentages(uint256,uint256,uint256,uint256)": {
        "params": {
          "newTfcPercentage": "new tfc percentage",
          "newTtfPercentage": "new ttf percentage",
          "newUwPercentage": "new uw percentage",
          "newVduPercentage": "new vdu percentage"
        }
      },
      "upgradeToAndCall(address,bytes)": {
        "custom:oz-upgrades-unsafe-allow-reachable": "delegatecall",
        "details": "Upgrade the implementation of the proxy to `newImplementation`, and subsequently execute the function call encoded in `data`. Calls {_authorizeUpgrade}. Emits an {Upgraded} event."
      }
    },
    "version": 1
  },
  "userdoc": {
    "events": {
      "DlpDeregistered(uint256)": {
        "notice": "Triggered when a dlp has been deregistered"
      },
      "DlpDeregisteredByOwner(uint256,uint256,uint256)": {
        "notice": "Triggered when a dlp has been deregistered by the dlp owner"
      },
      "DlpRegistered(uint256,address,address)": {
        "notice": "Triggered when a dlp has registered"
      },
      "DlpStakersPercentageUpdated(uint256,uint256)": {
        "notice": "Triggered when the dlp stakers percentage has been updated"
      },
      "EpochCreated(uint256)": {
        "notice": "Triggered when a epoch has been created"
      },
      "EpochPerformancesSaved(uint256,bool)": {
        "notice": "Triggered when epoch performances have been saved"
      },
      "EpochRewardAmountUpdated(uint256)": {
        "notice": "Triggered when the epoch reward amount has been updated"
      },
      "EpochSizeUpdated(uint256)": {
        "notice": "Triggered when the epoch size has been updated"
      },
      "MaxNumberOfDlpsUpdated(uint256)": {
        "notice": "Triggered when the max number of dlps has been updated"
      },
      "MinDlpStakeAmountUpdated(uint256)": {
        "notice": "Triggered when the minDlpStakeAmount has been updated"
      },
      "PerformancePercentagesUpdated(uint256,uint256,uint256,uint256)": {
        "notice": "Triggered when the performance percentages has been updated"
      },
      "ScoresUpdated(uint256[],uint256[])": {
        "notice": "Triggered when owner has updated its scores"
      },
      "Staked(address,uint256,uint256)": {
        "notice": "Triggered when user has stake some DAT for a DLP"
      },
      "StakerDlpEpochRewardClaimed(address,uint256,uint256,uint256)": {
        "notice": "Triggered when a staker has claimed a reward for a dlp in an epoch"
      },
      "Unstaked(address,uint256,uint256)": {
        "notice": "Triggered when user has unstake some DAT from a DLP"
      }
    },
    "kind": "user",
    "methods": {
      "addRewardForDlps()": {
        "notice": "Adds rewards for dlps"
      },
      "claimReward(uint256)": {
        "notice": "Claims reward for a dlp until the current epoch"
      },
      "claimRewardUntilEpoch(uint256,uint256)": {
        "notice": "Claims reward for a dlp until a specific epoch"
      },
      "claimableAmount(address,uint256)": {
        "notice": "Gets the claimable amount for a staker for a dlp"
      },
      "createEpochs()": {
        "notice": "Creates epochs until current block number"
      },
      "createEpochsUntilBlockNumber(uint256)": {
        "notice": "Creates epochs until a specific block number"
      },
      "deregisterDlp(uint256)": {
        "notice": "Deregisters dlp"
      },
      "distributeStakeAfterDeregistration(uint256,uint256)": {
        "notice": "Distributes stake after deregistration of a granted DLP"
      },
      "dlpEpochs(uint256,uint256)": {
        "notice": "Gets epoch dlp information"
      },
      "dlps(uint256)": {
        "notice": "Gets the dlp information"
      },
      "dlpsByAddress(address)": {
        "notice": "Gets the dlp information"
      },
      "epochs(uint256)": {
        "notice": "Gets epoch information"
      },
      "initialize((address,uint256,uint256,uint256,uint256,uint256,uint256,uint256,uint256,uint256))": {
        "notice": "Initialize the contract"
      },
      "registerDlp(address,address,uint256)": {
        "notice": "Registers a dlp"
      },
      "registerDlpWithGrant(address,address,uint256)": {
        "notice": "Registers a dlp with grant"
      },
      "registeredDlps()": {
        "notice": "Gets registered dlps list"
      },
      "saveEpochPerformances(uint256,(uint256,uint256,uint256,uint256,uint256)[],bool)": {
        "notice": "Saves the performances of top DLPs for a specific epoch and calculates the rewards for the DLPs"
      },
      "stake(uint256)": {
        "notice": "Stakes Vana tokens for a DLP"
      },
      "stakerDlpEpochs(address,uint256,uint256)": {
        "notice": "Gets information about the staker for a dlp in an epoch"
      },
      "stakerDlps(address,uint256)": {
        "notice": "Gets the information about the dlp for a staker"
      },
      "stakerDlpsList(address)": {
        "notice": "Gets the information about the dlps for which the staker has staked"
      },
      "stakerDlpsListCount(address)": {
        "notice": "Gets the number of dlps for which the staker has staked"
      },
      "topDlpIds(uint256)": {
        "notice": "Gets the top dlps ids"
      },
      "unstake(uint256,uint256)": {
        "notice": "Unstakes Vana tokens from a DLP"
      },
      "updateDlpStakersPercentage(uint256,uint256)": {
        "notice": "Updates the stakers percentage for a dlp"
      },
      "updateEpochRewardAmount(uint256)": {
        "notice": "Updates the epochRewardAmount"
      },
      "updateEpochSize(uint256)": {
        "notice": "Updates the epoch size"
      },
      "updateMaxNumberOfDlps(uint256)": {
        "notice": "Updates the maximum number of dlps"
      },
      "updateMinDlpStakeAmount(uint256)": {
        "notice": "Updates the minDlpStakeAmount"
      },
      "updatePerformancePercentages(uint256,uint256,uint256,uint256)": {
        "notice": "Updates the performance percentages"
      },
      "version()": {
        "notice": "returns the version of the contract"
      }
    },
    "version": 1
  },
  "storageLayout": {
    "storage": [
      {
        "astId": 19074,
        "contract": "contracts/root/DataLiquidityPoolsRootImplementation.sol:DataLiquidityPoolsRootImplementation",
        "label": "maxNumberOfDlps",
        "offset": 0,
        "slot": "0",
        "type": "t_uint256"
      },
      {
        "astId": 19077,
        "contract": "contracts/root/DataLiquidityPoolsRootImplementation.sol:DataLiquidityPoolsRootImplementation",
        "label": "minDlpStakeAmount",
        "offset": 0,
        "slot": "1",
        "type": "t_uint256"
      },
      {
        "astId": 19080,
        "contract": "contracts/root/DataLiquidityPoolsRootImplementation.sol:DataLiquidityPoolsRootImplementation",
        "label": "totalDlpsRewardAmount",
        "offset": 0,
        "slot": "2",
        "type": "t_uint256"
      },
      {
        "astId": 19083,
        "contract": "contracts/root/DataLiquidityPoolsRootImplementation.sol:DataLiquidityPoolsRootImplementation",
        "label": "epochRewardAmount",
        "offset": 0,
        "slot": "3",
        "type": "t_uint256"
      },
      {
        "astId": 19086,
        "contract": "contracts/root/DataLiquidityPoolsRootImplementation.sol:DataLiquidityPoolsRootImplementation",
        "label": "epochSize",
        "offset": 0,
        "slot": "4",
        "type": "t_uint256"
      },
      {
        "astId": 19089,
        "contract": "contracts/root/DataLiquidityPoolsRootImplementation.sol:DataLiquidityPoolsRootImplementation",
        "label": "ttfPercentage",
        "offset": 0,
        "slot": "5",
        "type": "t_uint256"
      },
      {
        "astId": 19092,
        "contract": "contracts/root/DataLiquidityPoolsRootImplementation.sol:DataLiquidityPoolsRootImplementation",
        "label": "tfcPercentage",
        "offset": 0,
        "slot": "6",
        "type": "t_uint256"
      },
      {
        "astId": 19095,
        "contract": "contracts/root/DataLiquidityPoolsRootImplementation.sol:DataLiquidityPoolsRootImplementation",
        "label": "vduPercentage",
        "offset": 0,
        "slot": "7",
        "type": "t_uint256"
      },
      {
        "astId": 19098,
        "contract": "contracts/root/DataLiquidityPoolsRootImplementation.sol:DataLiquidityPoolsRootImplementation",
        "label": "uwPercentage",
        "offset": 0,
        "slot": "8",
        "type": "t_uint256"
      },
      {
        "astId": 19101,
        "contract": "contracts/root/DataLiquidityPoolsRootImplementation.sol:DataLiquidityPoolsRootImplementation",
        "label": "dlpsCount",
        "offset": 0,
        "slot": "9",
        "type": "t_uint256"
      },
      {
        "astId": 19106,
        "contract": "contracts/root/DataLiquidityPoolsRootImplementation.sol:DataLiquidityPoolsRootImplementation",
        "label": "_dlps",
        "offset": 0,
        "slot": "10",
        "type": "t_mapping(t_uint256,t_struct(Dlp)19202_storage)"
      },
      {
        "astId": 19111,
        "contract": "contracts/root/DataLiquidityPoolsRootImplementation.sol:DataLiquidityPoolsRootImplementation",
        "label": "dlpIds",
        "offset": 0,
        "slot": "11",
        "type": "t_mapping(t_address,t_uint256)"
      },
      {
        "astId": 19114,
        "contract": "contracts/root/DataLiquidityPoolsRootImplementation.sol:DataLiquidityPoolsRootImplementation",
        "label": "_registeredDlps",
        "offset": 0,
        "slot": "12",
        "type": "t_struct(UintSet)10349_storage"
      },
      {
        "astId": 19117,
        "contract": "contracts/root/DataLiquidityPoolsRootImplementation.sol:DataLiquidityPoolsRootImplementation",
        "label": "epochsCount",
        "offset": 0,
        "slot": "14",
        "type": "t_uint256"
      },
      {
        "astId": 19122,
        "contract": "contracts/root/DataLiquidityPoolsRootImplementation.sol:DataLiquidityPoolsRootImplementation",
        "label": "_epochs",
        "offset": 0,
        "slot": "15",
        "type": "t_mapping(t_uint256,t_struct(Epoch)19168_storage)"
      },
      {
        "astId": 19127,
        "contract": "contracts/root/DataLiquidityPoolsRootImplementation.sol:DataLiquidityPoolsRootImplementation",
        "label": "_stakers",
        "offset": 0,
        "slot": "16",
        "type": "t_mapping(t_address,t_struct(Staker)19206_storage)"
      }
    ],
    "types": {
      "t_address": {
        "encoding": "inplace",
        "label": "address",
        "numberOfBytes": "20"
      },
      "t_address_payable": {
        "encoding": "inplace",
        "label": "address payable",
        "numberOfBytes": "20"
      },
      "t_array(t_bytes32)dyn_storage": {
        "base": "t_bytes32",
        "encoding": "dynamic_array",
        "label": "bytes32[]",
        "numberOfBytes": "32"
      },
      "t_array(t_struct(Checkpoint208)8833_storage)dyn_storage": {
        "base": "t_struct(Checkpoint208)8833_storage",
        "encoding": "dynamic_array",
        "label": "struct Checkpoints.Checkpoint208[]",
        "numberOfBytes": "32"
      },
      "t_bool": {
        "encoding": "inplace",
        "label": "bool",
        "numberOfBytes": "1"
      },
      "t_bytes32": {
        "encoding": "inplace",
        "label": "bytes32",
        "numberOfBytes": "32"
      },
      "t_enum(DlpStatus)19136": {
        "encoding": "inplace",
        "label": "enum IDataLiquidityPoolsRoot.DlpStatus",
        "numberOfBytes": "1"
      },
      "t_mapping(t_address,t_struct(DlpStaker)19178_storage)": {
        "encoding": "mapping",
        "key": "t_address",
        "label": "mapping(address => struct IDataLiquidityPoolsRoot.DlpStaker)",
        "numberOfBytes": "32",
        "value": "t_struct(DlpStaker)19178_storage"
      },
      "t_mapping(t_address,t_struct(Staker)19206_storage)": {
        "encoding": "mapping",
        "key": "t_address",
        "label": "mapping(address => struct IDataLiquidityPoolsRoot.Staker)",
        "numberOfBytes": "32",
        "value": "t_struct(Staker)19206_storage"
      },
      "t_mapping(t_address,t_uint256)": {
        "encoding": "mapping",
        "key": "t_address",
        "label": "mapping(address => uint256)",
        "numberOfBytes": "32",
        "value": "t_uint256"
      },
      "t_mapping(t_bytes32,t_uint256)": {
        "encoding": "mapping",
        "key": "t_bytes32",
        "label": "mapping(bytes32 => uint256)",
        "numberOfBytes": "32",
        "value": "t_uint256"
      },
      "t_mapping(t_uint256,t_struct(Dlp)19202_storage)": {
        "encoding": "mapping",
        "key": "t_uint256",
        "label": "mapping(uint256 => struct IDataLiquidityPoolsRoot.Dlp)",
        "numberOfBytes": "32",
        "value": "t_struct(Dlp)19202_storage"
      },
      "t_mapping(t_uint256,t_struct(Epoch)19168_storage)": {
        "encoding": "mapping",
        "key": "t_uint256",
        "label": "mapping(uint256 => struct IDataLiquidityPoolsRoot.Epoch)",
        "numberOfBytes": "32",
        "value": "t_struct(Epoch)19168_storage"
      },
      "t_mapping(t_uint256,t_struct(EpochDlp)19151_storage)": {
        "encoding": "mapping",
        "key": "t_uint256",
        "label": "mapping(uint256 => struct IDataLiquidityPoolsRoot.EpochDlp)",
        "numberOfBytes": "32",
        "value": "t_struct(EpochDlp)19151_storage"
      },
      "t_mapping(t_uint256,t_uint256)": {
        "encoding": "mapping",
        "key": "t_uint256",
        "label": "mapping(uint256 => uint256)",
        "numberOfBytes": "32",
        "value": "t_uint256"
      },
      "t_struct(Checkpoint208)8833_storage": {
        "encoding": "inplace",
        "label": "struct Checkpoints.Checkpoint208",
        "members": [
          {
            "astId": 8830,
            "contract": "contracts/root/DataLiquidityPoolsRootImplementation.sol:DataLiquidityPoolsRootImplementation",
            "label": "_key",
            "offset": 0,
            "slot": "0",
            "type": "t_uint48"
          },
          {
            "astId": 8832,
            "contract": "contracts/root/DataLiquidityPoolsRootImplementation.sol:DataLiquidityPoolsRootImplementation",
            "label": "_value",
            "offset": 6,
            "slot": "0",
            "type": "t_uint208"
          }
        ],
        "numberOfBytes": "32"
      },
      "t_struct(Dlp)19202_storage": {
        "encoding": "inplace",
        "label": "struct IDataLiquidityPoolsRoot.Dlp",
        "members": [
          {
            "astId": 19180,
            "contract": "contracts/root/DataLiquidityPoolsRootImplementation.sol:DataLiquidityPoolsRootImplementation",
            "label": "id",
            "offset": 0,
            "slot": "0",
            "type": "t_uint256"
          },
          {
            "astId": 19182,
            "contract": "contracts/root/DataLiquidityPoolsRootImplementation.sol:DataLiquidityPoolsRootImplementation",
            "label": "dlpAddress",
            "offset": 0,
            "slot": "1",
            "type": "t_address"
          },
          {
            "astId": 19184,
            "contract": "contracts/root/DataLiquidityPoolsRootImplementation.sol:DataLiquidityPoolsRootImplementation",
            "label": "ownerAddress",
            "offset": 0,
            "slot": "2",
            "type": "t_address_payable"
          },
          {
            "astId": 19187,
            "contract": "contracts/root/DataLiquidityPoolsRootImplementation.sol:DataLiquidityPoolsRootImplementation",
            "label": "status",
            "offset": 20,
            "slot": "2",
            "type": "t_enum(DlpStatus)19136"
          },
          {
            "astId": 19189,
            "contract": "contracts/root/DataLiquidityPoolsRootImplementation.sol:DataLiquidityPoolsRootImplementation",
            "label": "registrationBlockNumber",
            "offset": 0,
            "slot": "3",
            "type": "t_uint256"
          },
          {
            "astId": 19191,
            "contract": "contracts/root/DataLiquidityPoolsRootImplementation.sol:DataLiquidityPoolsRootImplementation",
            "label": "stakersPercentage",
            "offset": 0,
            "slot": "4",
            "type": "t_uint256"
          },
          {
            "astId": 19193,
            "contract": "contracts/root/DataLiquidityPoolsRootImplementation.sol:DataLiquidityPoolsRootImplementation",
            "label": "grantedAmount",
            "offset": 0,
            "slot": "5",
            "type": "t_uint256"
          },
          {
            "astId": 19196,
            "contract": "contracts/root/DataLiquidityPoolsRootImplementation.sol:DataLiquidityPoolsRootImplementation",
            "label": "stakeAmountCheckpoints",
            "offset": 0,
            "slot": "6",
            "type": "t_struct(Trace208)8828_storage"
          },
          {
            "astId": 19201,
            "contract": "contracts/root/DataLiquidityPoolsRootImplementation.sol:DataLiquidityPoolsRootImplementation",
            "label": "stakers",
            "offset": 0,
            "slot": "7",
            "type": "t_mapping(t_address,t_struct(DlpStaker)19178_storage)"
          }
        ],
        "numberOfBytes": "256"
      },
      "t_struct(DlpStaker)19178_storage": {
        "encoding": "inplace",
        "label": "struct IDataLiquidityPoolsRoot.DlpStaker",
        "members": [
          {
            "astId": 19170,
            "contract": "contracts/root/DataLiquidityPoolsRootImplementation.sol:DataLiquidityPoolsRootImplementation",
            "label": "lastClaimedEpochId",
            "offset": 0,
            "slot": "0",
            "type": "t_uint256"
          },
          {
            "astId": 19173,
            "contract": "contracts/root/DataLiquidityPoolsRootImplementation.sol:DataLiquidityPoolsRootImplementation",
            "label": "stakeAmountCheckpoints",
            "offset": 0,
            "slot": "1",
            "type": "t_struct(Trace208)8828_storage"
          },
          {
            "astId": 19177,
            "contract": "contracts/root/DataLiquidityPoolsRootImplementation.sol:DataLiquidityPoolsRootImplementation",
            "label": "claimAmounts",
            "offset": 0,
            "slot": "2",
            "type": "t_mapping(t_uint256,t_uint256)"
          }
        ],
        "numberOfBytes": "96"
      },
      "t_struct(Epoch)19168_storage": {
        "encoding": "inplace",
        "label": "struct IDataLiquidityPoolsRoot.Epoch",
        "members": [
          {
            "astId": 19153,
            "contract": "contracts/root/DataLiquidityPoolsRootImplementation.sol:DataLiquidityPoolsRootImplementation",
            "label": "startBlock",
            "offset": 0,
            "slot": "0",
            "type": "t_uint256"
          },
          {
            "astId": 19155,
            "contract": "contracts/root/DataLiquidityPoolsRootImplementation.sol:DataLiquidityPoolsRootImplementation",
            "label": "endBlock",
            "offset": 0,
            "slot": "1",
            "type": "t_uint256"
          },
          {
            "astId": 19157,
            "contract": "contracts/root/DataLiquidityPoolsRootImplementation.sol:DataLiquidityPoolsRootImplementation",
            "label": "rewardAmount",
            "offset": 0,
            "slot": "2",
            "type": "t_uint256"
          },
          {
            "astId": 19160,
            "contract": "contracts/root/DataLiquidityPoolsRootImplementation.sol:DataLiquidityPoolsRootImplementation",
            "label": "dlpIds",
            "offset": 0,
            "slot": "3",
            "type": "t_struct(UintSet)10349_storage"
          },
          {
            "astId": 19162,
            "contract": "contracts/root/DataLiquidityPoolsRootImplementation.sol:DataLiquidityPoolsRootImplementation",
            "label": "isFinalised",
            "offset": 0,
            "slot": "5",
            "type": "t_bool"
          },
          {
            "astId": 19167,
            "contract": "contracts/root/DataLiquidityPoolsRootImplementation.sol:DataLiquidityPoolsRootImplementation",
            "label": "dlps",
            "offset": 0,
            "slot": "6",
            "type": "t_mapping(t_uint256,t_struct(EpochDlp)19151_storage)"
          }
        ],
        "numberOfBytes": "224"
      },
      "t_struct(EpochDlp)19151_storage": {
        "encoding": "inplace",
        "label": "struct IDataLiquidityPoolsRoot.EpochDlp",
        "members": [
          {
            "astId": 19138,
            "contract": "contracts/root/DataLiquidityPoolsRootImplementation.sol:DataLiquidityPoolsRootImplementation",
            "label": "ttf",
            "offset": 0,
            "slot": "0",
            "type": "t_uint256"
          },
          {
            "astId": 19140,
            "contract": "contracts/root/DataLiquidityPoolsRootImplementation.sol:DataLiquidityPoolsRootImplementation",
            "label": "tfc",
            "offset": 0,
            "slot": "1",
            "type": "t_uint256"
          },
          {
            "astId": 19142,
            "contract": "contracts/root/DataLiquidityPoolsRootImplementation.sol:DataLiquidityPoolsRootImplementation",
            "label": "vdu",
            "offset": 0,
            "slot": "2",
            "type": "t_uint256"
          },
          {
            "astId": 19144,
            "contract": "contracts/root/DataLiquidityPoolsRootImplementation.sol:DataLiquidityPoolsRootImplementation",
            "label": "uw",
            "offset": 0,
            "slot": "3",
            "type": "t_uint256"
          },
          {
            "astId": 19146,
            "contract": "contracts/root/DataLiquidityPoolsRootImplementation.sol:DataLiquidityPoolsRootImplementation",
            "label": "stakeAmount",
            "offset": 0,
            "slot": "4",
            "type": "t_uint256"
          },
          {
            "astId": 19148,
            "contract": "contracts/root/DataLiquidityPoolsRootImplementation.sol:DataLiquidityPoolsRootImplementation",
            "label": "rewardAmount",
            "offset": 0,
            "slot": "5",
            "type": "t_uint256"
          },
          {
            "astId": 19150,
            "contract": "contracts/root/DataLiquidityPoolsRootImplementation.sol:DataLiquidityPoolsRootImplementation",
            "label": "stakersPercentage",
            "offset": 0,
            "slot": "6",
            "type": "t_uint256"
          }
        ],
        "numberOfBytes": "224"
      },
      "t_struct(Set)9877_storage": {
        "encoding": "inplace",
        "label": "struct EnumerableSet.Set",
        "members": [
          {
            "astId": 9872,
            "contract": "contracts/root/DataLiquidityPoolsRootImplementation.sol:DataLiquidityPoolsRootImplementation",
            "label": "_values",
            "offset": 0,
            "slot": "0",
            "type": "t_array(t_bytes32)dyn_storage"
          },
          {
            "astId": 9876,
            "contract": "contracts/root/DataLiquidityPoolsRootImplementation.sol:DataLiquidityPoolsRootImplementation",
            "label": "_positions",
            "offset": 0,
            "slot": "1",
            "type": "t_mapping(t_bytes32,t_uint256)"
          }
        ],
        "numberOfBytes": "64"
      },
      "t_struct(Staker)19206_storage": {
        "encoding": "inplace",
        "label": "struct IDataLiquidityPoolsRoot.Staker",
        "members": [
          {
            "astId": 19205,
            "contract": "contracts/root/DataLiquidityPoolsRootImplementation.sol:DataLiquidityPoolsRootImplementation",
            "label": "dlpIds",
            "offset": 0,
            "slot": "0",
            "type": "t_struct(UintSet)10349_storage"
          }
        ],
        "numberOfBytes": "64"
      },
      "t_struct(Trace208)8828_storage": {
        "encoding": "inplace",
        "label": "struct Checkpoints.Trace208",
        "members": [
          {
            "astId": 8827,
            "contract": "contracts/root/DataLiquidityPoolsRootImplementation.sol:DataLiquidityPoolsRootImplementation",
            "label": "_checkpoints",
            "offset": 0,
            "slot": "0",
            "type": "t_array(t_struct(Checkpoint208)8833_storage)dyn_storage"
          }
        ],
        "numberOfBytes": "32"
      },
      "t_struct(UintSet)10349_storage": {
        "encoding": "inplace",
        "label": "struct EnumerableSet.UintSet",
        "members": [
          {
            "astId": 10348,
            "contract": "contracts/root/DataLiquidityPoolsRootImplementation.sol:DataLiquidityPoolsRootImplementation",
            "label": "_inner",
            "offset": 0,
            "slot": "0",
            "type": "t_struct(Set)9877_storage"
          }
        ],
        "numberOfBytes": "64"
      },
      "t_uint208": {
        "encoding": "inplace",
        "label": "uint208",
        "numberOfBytes": "26"
      },
      "t_uint256": {
        "encoding": "inplace",
        "label": "uint256",
        "numberOfBytes": "32"
      },
      "t_uint48": {
        "encoding": "inplace",
        "label": "uint48",
        "numberOfBytes": "6"
      }
    }
  }
}