{
  "address": "0xF52A4781BEE675dc297F69b781a55aE486B06e04",
  "abi": [
    {
      "inputs": [],
      "name": "AccessControlBadConfirmation",
      "type": "error"
    },
    {
      "inputs": [
        {
          "internalType": "address",
          "name": "account",
          "type": "address"
        },
        {
          "internalType": "bytes32",
          "name": "neededRole",
          "type": "bytes32"
        }
      ],
      "name": "AccessControlUnauthorizedAccount",
      "type": "error"
    },
    {
      "inputs": [
        {
          "internalType": "address",
          "name": "target",
          "type": "address"
        }
      ],
      "name": "AddressEmptyCode",
      "type": "error"
    },
    {
      "inputs": [
        {
          "internalType": "address",
          "name": "account",
          "type": "address"
        }
      ],
      "name": "AddressInsufficientBalance",
      "type": "error"
    },
    {
      "inputs": [],
      "name": "ArityMismatch",
      "type": "error"
    },
    {
      "inputs": [
        {
          "internalType": "address",
          "name": "implementation",
          "type": "address"
        }
      ],
      "name": "ERC1967InvalidImplementation",
      "type": "error"
    },
    {
      "inputs": [],
      "name": "ERC1967NonPayable",
      "type": "error"
    },
    {
      "inputs": [],
      "name": "EnforcedPause",
      "type": "error"
    },
    {
      "inputs": [],
      "name": "ExpectedPause",
      "type": "error"
    },
    {
      "inputs": [],
      "name": "FailedInnerCall",
      "type": "error"
    },
    {
      "inputs": [],
      "name": "FileAlreadyAdded",
      "type": "error"
    },
    {
      "inputs": [],
      "name": "FileAlreadyVerified",
      "type": "error"
    },
    {
      "inputs": [],
      "name": "InvalidFileId",
      "type": "error"
    },
    {
      "inputs": [],
      "name": "InvalidInitialization",
      "type": "error"
    },
    {
      "inputs": [],
      "name": "InvalidStakeAmount",
      "type": "error"
    },
    {
      "inputs": [],
      "name": "InvalidValidatorStatus",
      "type": "error"
    },
    {
      "inputs": [],
      "name": "MasterKeyAlreadySet",
      "type": "error"
    },
    {
      "inputs": [],
      "name": "NotAllowed",
      "type": "error"
    },
    {
      "inputs": [],
      "name": "NotFileOwner",
      "type": "error"
    },
    {
      "inputs": [],
      "name": "NotFinalized",
      "type": "error"
    },
    {
      "inputs": [],
      "name": "NotInitializing",
      "type": "error"
    },
    {
      "inputs": [],
      "name": "NotValidatorOwner",
      "type": "error"
    },
    {
      "inputs": [],
      "name": "NothingToClaim",
      "type": "error"
    },
    {
      "inputs": [
        {
          "internalType": "address",
          "name": "owner",
          "type": "address"
        }
      ],
      "name": "OwnableInvalidOwner",
      "type": "error"
    },
    {
      "inputs": [
        {
          "internalType": "address",
          "name": "account",
          "type": "address"
        }
      ],
      "name": "OwnableUnauthorizedAccount",
      "type": "error"
    },
    {
      "inputs": [],
      "name": "ReentrancyGuardReentrantCall",
      "type": "error"
    },
    {
      "inputs": [
        {
          "internalType": "address",
          "name": "token",
          "type": "address"
        }
      ],
      "name": "SafeERC20FailedOperation",
      "type": "error"
    },
    {
      "inputs": [],
      "name": "TooManyValidators",
      "type": "error"
    },
    {
      "inputs": [],
      "name": "UUPSUnauthorizedCallContext",
      "type": "error"
    },
    {
      "inputs": [
        {
          "internalType": "bytes32",
          "name": "slot",
          "type": "bytes32"
        }
      ],
      "name": "UUPSUnsupportedProxiableUUID",
      "type": "error"
    },
    {
      "inputs": [],
      "name": "WithdrawNotAllowed",
      "type": "error"
    },
    {
      "anonymous": false,
      "inputs": [
        {
          "indexed": true,
          "internalType": "address",
          "name": "contributorAddress",
          "type": "address"
        },
        {
          "indexed": false,
          "internalType": "uint256",
          "name": "fileId",
          "type": "uint256"
        },
        {
          "indexed": false,
          "internalType": "uint256",
          "name": "amount",
          "type": "uint256"
        }
      ],
      "name": "ContributionRewardClaimed",
      "type": "event"
    },
    {
      "anonymous": false,
      "inputs": [
        {
          "indexed": false,
          "internalType": "uint256",
          "name": "epochId",
          "type": "uint256"
        }
      ],
      "name": "EpochCreated",
      "type": "event"
    },
    {
      "anonymous": false,
      "inputs": [
        {
          "indexed": false,
          "internalType": "uint256",
          "name": "newEpochRewardAmount",
          "type": "uint256"
        }
      ],
      "name": "EpochRewardAmountUpdated",
      "type": "event"
    },
    {
      "anonymous": false,
      "inputs": [
        {
          "indexed": false,
          "internalType": "address",
          "name": "validator",
          "type": "address"
        },
        {
          "indexed": false,
          "internalType": "uint256",
          "name": "epochId",
          "type": "uint256"
        },
        {
          "indexed": false,
          "internalType": "uint256",
          "name": "claimAmount",
          "type": "uint256"
        }
      ],
      "name": "EpochRewardClaimed",
      "type": "event"
    },
    {
      "anonymous": false,
      "inputs": [
        {
          "indexed": false,
          "internalType": "uint256",
          "name": "newEpochSize",
          "type": "uint256"
        }
      ],
      "name": "EpochSizeUpdated",
      "type": "event"
    },
    {
      "anonymous": false,
      "inputs": [
        {
          "indexed": true,
          "internalType": "address",
          "name": "contributorAddress",
          "type": "address"
        },
        {
          "indexed": false,
          "internalType": "uint256",
          "name": "fileId",
          "type": "uint256"
        }
      ],
      "name": "FileAdded",
      "type": "event"
    },
    {
      "anonymous": false,
      "inputs": [
        {
          "indexed": false,
          "internalType": "uint256",
          "name": "newFileRewardDelay",
          "type": "uint256"
        }
      ],
      "name": "FileRewardDelayUpdated",
      "type": "event"
    },
    {
      "anonymous": false,
      "inputs": [
        {
          "indexed": false,
          "internalType": "uint256",
          "name": "newFileRewardFactor",
          "type": "uint256"
        }
      ],
      "name": "FileRewardFactorUpdated",
      "type": "event"
    },
    {
      "anonymous": false,
      "inputs": [
        {
          "indexed": true,
          "internalType": "address",
          "name": "validatorAddress",
          "type": "address"
        },
        {
          "indexed": false,
          "internalType": "uint256",
          "name": "fileId",
          "type": "uint256"
        },
        {
          "indexed": false,
          "internalType": "uint256",
          "name": "score",
          "type": "uint256"
        }
      ],
      "name": "FileVerified",
      "type": "event"
    },
    {
      "anonymous": false,
      "inputs": [
        {
          "indexed": false,
          "internalType": "uint64",
          "name": "version",
          "type": "uint64"
        }
      ],
      "name": "Initialized",
      "type": "event"
    },
    {
      "anonymous": false,
      "inputs": [
        {
          "indexed": false,
          "internalType": "string",
          "name": "newMasterKey",
          "type": "string"
        }
      ],
      "name": "MasterKeySet",
      "type": "event"
    },
    {
      "anonymous": false,
      "inputs": [
        {
          "indexed": false,
          "internalType": "uint256",
          "name": "newMaxNumberOfValidators",
          "type": "uint256"
        }
      ],
      "name": "MaxNumberOfValidatorsUpdated",
      "type": "event"
    },
    {
      "anonymous": false,
      "inputs": [
        {
          "indexed": false,
          "internalType": "uint256",
          "name": "newMinStakeAmount",
          "type": "uint256"
        }
      ],
      "name": "MinStakeAmountUpdated",
      "type": "event"
    },
    {
      "anonymous": false,
      "inputs": [
        {
          "indexed": true,
          "internalType": "address",
          "name": "previousOwner",
          "type": "address"
        },
        {
          "indexed": true,
          "internalType": "address",
          "name": "newOwner",
          "type": "address"
        }
      ],
      "name": "OwnershipTransferStarted",
      "type": "event"
    },
    {
      "anonymous": false,
      "inputs": [
        {
          "indexed": true,
          "internalType": "address",
          "name": "previousOwner",
          "type": "address"
        },
        {
          "indexed": true,
          "internalType": "address",
          "name": "newOwner",
          "type": "address"
        }
      ],
      "name": "OwnershipTransferred",
      "type": "event"
    },
    {
      "anonymous": false,
      "inputs": [
        {
          "indexed": false,
          "internalType": "address",
          "name": "account",
          "type": "address"
        }
      ],
      "name": "Paused",
      "type": "event"
    },
    {
      "anonymous": false,
      "inputs": [
        {
          "indexed": true,
          "internalType": "bytes32",
          "name": "role",
          "type": "bytes32"
        },
        {
          "indexed": true,
          "internalType": "bytes32",
          "name": "previousAdminRole",
          "type": "bytes32"
        },
        {
          "indexed": true,
          "internalType": "bytes32",
          "name": "newAdminRole",
          "type": "bytes32"
        }
      ],
      "name": "RoleAdminChanged",
      "type": "event"
    },
    {
      "anonymous": false,
      "inputs": [
        {
          "indexed": true,
          "internalType": "bytes32",
          "name": "role",
          "type": "bytes32"
        },
        {
          "indexed": true,
          "internalType": "address",
          "name": "account",
          "type": "address"
        },
        {
          "indexed": true,
          "internalType": "address",
          "name": "sender",
          "type": "address"
        }
      ],
      "name": "RoleGranted",
      "type": "event"
    },
    {
      "anonymous": false,
      "inputs": [
        {
          "indexed": true,
          "internalType": "bytes32",
          "name": "role",
          "type": "bytes32"
        },
        {
          "indexed": true,
          "internalType": "address",
          "name": "account",
          "type": "address"
        },
        {
          "indexed": true,
          "internalType": "address",
          "name": "sender",
          "type": "address"
        }
      ],
      "name": "RoleRevoked",
      "type": "event"
    },
    {
      "anonymous": false,
      "inputs": [
        {
          "indexed": true,
          "internalType": "address",
          "name": "validatorAddress",
          "type": "address"
        },
        {
          "indexed": false,
          "internalType": "uint256",
          "name": "amount",
          "type": "uint256"
        },
        {
          "indexed": false,
          "internalType": "uint256",
          "name": "totalAmount",
          "type": "uint256"
        }
      ],
      "name": "Staked",
      "type": "event"
    },
    {
      "anonymous": false,
      "inputs": [
        {
          "indexed": false,
          "internalType": "address",
          "name": "account",
          "type": "address"
        }
      ],
      "name": "Unpaused",
      "type": "event"
    },
    {
      "anonymous": false,
      "inputs": [
        {
          "indexed": true,
          "internalType": "address",
          "name": "stakerAddress",
          "type": "address"
        },
        {
          "indexed": false,
          "internalType": "uint256",
          "name": "amount",
          "type": "uint256"
        }
      ],
      "name": "Unstaked",
      "type": "event"
    },
    {
      "anonymous": false,
      "inputs": [
        {
          "indexed": true,
          "internalType": "address",
          "name": "implementation",
          "type": "address"
        }
      ],
      "name": "Upgraded",
      "type": "event"
    },
    {
      "anonymous": false,
      "inputs": [
        {
          "indexed": false,
          "internalType": "uint256",
          "name": "newValidationPeriod",
          "type": "uint256"
        }
      ],
      "name": "ValidationPeriodUpdated",
      "type": "event"
    },
    {
      "anonymous": false,
      "inputs": [
        {
          "indexed": true,
          "internalType": "address",
          "name": "validatorAddress",
          "type": "address"
        }
      ],
      "name": "ValidatorApproved",
      "type": "event"
    },
    {
      "anonymous": false,
      "inputs": [
        {
          "indexed": true,
          "internalType": "address",
          "name": "validatorAddress",
          "type": "address"
        }
      ],
      "name": "ValidatorDeregistered",
      "type": "event"
    },
    {
      "anonymous": false,
      "inputs": [
        {
          "indexed": true,
          "internalType": "address",
          "name": "validatorAddress",
          "type": "address"
        },
        {
          "indexed": false,
          "internalType": "uint256",
          "name": "unstakedAmount",
          "type": "uint256"
        },
        {
          "indexed": false,
          "internalType": "uint256",
          "name": "penaltyAmount",
          "type": "uint256"
        }
      ],
      "name": "ValidatorDeregisteredByOwner",
      "type": "event"
    },
    {
      "anonymous": false,
      "inputs": [
        {
          "indexed": true,
          "internalType": "address",
          "name": "validatorAddress",
          "type": "address"
        },
        {
          "indexed": true,
          "internalType": "address",
          "name": "ownerAddress",
          "type": "address"
        },
        {
          "indexed": false,
          "internalType": "uint256",
          "name": "amount",
          "type": "uint256"
        }
      ],
      "name": "ValidatorRegistered",
      "type": "event"
    },
    {
      "anonymous": false,
      "inputs": [
        {
          "indexed": false,
          "internalType": "uint256",
          "name": "newValidatorScoreKappa",
          "type": "uint256"
        }
      ],
      "name": "ValidatorScoreKappaUpdated",
      "type": "event"
    },
    {
      "anonymous": false,
      "inputs": [
        {
          "indexed": false,
          "internalType": "uint256",
          "name": "newValidatorScoreMinTrust",
          "type": "uint256"
        }
      ],
      "name": "ValidatorScoreMinTrustUpdated",
      "type": "event"
    },
    {
      "anonymous": false,
      "inputs": [
        {
          "indexed": false,
          "internalType": "uint256",
          "name": "newValidatorScoreRho",
          "type": "uint256"
        }
      ],
      "name": "ValidatorScoreRhoUpdated",
      "type": "event"
    },
    {
      "anonymous": false,
      "inputs": [
        {
          "indexed": true,
          "internalType": "address",
          "name": "validatorAddress",
          "type": "address"
        }
      ],
      "name": "ValidatorUnregistered",
      "type": "event"
    },
    {
      "anonymous": false,
      "inputs": [
        {
          "indexed": true,
          "internalType": "address",
          "name": "validatorAddress",
          "type": "address"
        },
        {
          "indexed": false,
          "internalType": "address[]",
          "name": "validators",
          "type": "address[]"
        },
        {
          "indexed": false,
          "internalType": "uint256[]",
          "name": "weights",
          "type": "uint256[]"
        }
      ],
      "name": "WeightsUpdated",
      "type": "event"
    },
    {
      "inputs": [],
      "name": "DEFAULT_ADMIN_ROLE",
      "outputs": [
        {
          "internalType": "bytes32",
          "name": "",
          "type": "bytes32"
        }
      ],
      "stateMutability": "view",
      "type": "function"
    },
    {
      "inputs": [],
      "name": "UPGRADE_INTERFACE_VERSION",
      "outputs": [
        {
          "internalType": "string",
          "name": "",
          "type": "string"
        }
      ],
      "stateMutability": "view",
      "type": "function"
    },
    {
      "inputs": [],
      "name": "acceptOwnership",
      "outputs": [],
      "stateMutability": "nonpayable",
      "type": "function"
    },
    {
      "inputs": [
        {
          "internalType": "uint256",
          "name": "id",
          "type": "uint256"
        }
      ],
      "name": "activeValidatorsLists",
      "outputs": [
        {
          "internalType": "address[]",
          "name": "",
          "type": "address[]"
        }
      ],
      "stateMutability": "view",
      "type": "function"
    },
    {
      "inputs": [],
      "name": "activeValidatorsListsCount",
      "outputs": [
        {
          "internalType": "uint256",
          "name": "",
          "type": "uint256"
        }
      ],
      "stateMutability": "view",
      "type": "function"
    },
    {
      "inputs": [
        {
          "internalType": "string",
          "name": "url",
          "type": "string"
        },
        {
          "internalType": "string",
          "name": "encryptedKey",
          "type": "string"
        }
      ],
      "name": "addFile",
      "outputs": [],
      "stateMutability": "nonpayable",
      "type": "function"
    },
    {
      "inputs": [
        {
          "internalType": "uint256",
          "name": "validatorsRewardAmount",
          "type": "uint256"
        }
      ],
      "name": "addRewardForValidators",
      "outputs": [],
      "stateMutability": "nonpayable",
      "type": "function"
    },
    {
      "inputs": [
        {
          "internalType": "uint256",
          "name": "contributorsRewardAmount",
          "type": "uint256"
        }
      ],
      "name": "addRewardsForContributors",
      "outputs": [],
      "stateMutability": "nonpayable",
      "type": "function"
    },
    {
      "inputs": [
        {
          "internalType": "address",
          "name": "validatorAddress",
          "type": "address"
        }
      ],
      "name": "approveValidator",
      "outputs": [],
      "stateMutability": "nonpayable",
      "type": "function"
    },
    {
      "inputs": [
        {
          "internalType": "uint256",
          "name": "fileId",
          "type": "uint256"
        }
      ],
      "name": "claimContributionReward",
      "outputs": [],
      "stateMutability": "nonpayable",
      "type": "function"
    },
    {
      "inputs": [
        {
          "internalType": "address",
          "name": "validatorAddress",
          "type": "address"
        },
        {
          "internalType": "uint256",
          "name": "epochNumber",
          "type": "uint256"
        }
      ],
      "name": "claimUnsentReward",
      "outputs": [],
      "stateMutability": "nonpayable",
      "type": "function"
    },
    {
      "inputs": [
        {
          "internalType": "address",
          "name": "contributorAddress",
          "type": "address"
        },
        {
          "internalType": "uint256",
          "name": "index",
          "type": "uint256"
        }
      ],
      "name": "contributorFiles",
      "outputs": [
        {
          "components": [
            {
              "internalType": "uint256",
              "name": "fileId",
              "type": "uint256"
            },
            {
              "internalType": "address",
              "name": "ownerAddress",
              "type": "address"
            },
            {
              "internalType": "string",
              "name": "url",
              "type": "string"
            },
            {
              "internalType": "string",
              "name": "encryptedKey",
              "type": "string"
            },
            {
              "internalType": "uint256",
              "name": "addedTimestamp",
              "type": "uint256"
            },
            {
              "internalType": "uint256",
              "name": "addedAtBlock",
              "type": "uint256"
            },
            {
              "internalType": "bool",
              "name": "valid",
              "type": "bool"
            },
            {
              "internalType": "bool",
              "name": "finalized",
              "type": "bool"
            },
            {
              "internalType": "uint256",
              "name": "score",
              "type": "uint256"
            },
            {
              "internalType": "uint256",
              "name": "authenticity",
              "type": "uint256"
            },
            {
              "internalType": "uint256",
              "name": "ownership",
              "type": "uint256"
            },
            {
              "internalType": "uint256",
              "name": "quality",
              "type": "uint256"
            },
            {
              "internalType": "uint256",
              "name": "uniqueness",
              "type": "uint256"
            },
            {
              "internalType": "uint256",
              "name": "reward",
              "type": "uint256"
            },
            {
              "internalType": "uint256",
              "name": "rewardWithdrawn",
              "type": "uint256"
            },
            {
              "internalType": "uint256",
              "name": "verificationsCount",
              "type": "uint256"
            }
          ],
          "internalType": "struct IDataLiquidityPool.FileResponse",
          "name": "",
          "type": "tuple"
        }
      ],
      "stateMutability": "view",
      "type": "function"
    },
    {
      "inputs": [
        {
          "internalType": "address",
          "name": "contributorAddress",
          "type": "address"
        }
      ],
      "name": "contributorInfo",
      "outputs": [
        {
          "components": [
            {
              "internalType": "address",
              "name": "contributorAddress",
              "type": "address"
            },
            {
              "internalType": "uint256",
              "name": "fileIdsCount",
              "type": "uint256"
            }
          ],
          "internalType": "struct IDataLiquidityPool.ContributorInfoResponse",
          "name": "",
          "type": "tuple"
        }
      ],
      "stateMutability": "view",
      "type": "function"
    },
    {
      "inputs": [
        {
          "internalType": "uint256",
          "name": "index",
          "type": "uint256"
        }
      ],
      "name": "contributors",
      "outputs": [
        {
          "components": [
            {
              "internalType": "address",
              "name": "contributorAddress",
              "type": "address"
            },
            {
              "internalType": "uint256",
              "name": "fileIdsCount",
              "type": "uint256"
            }
          ],
          "internalType": "struct IDataLiquidityPool.ContributorInfoResponse",
          "name": "",
          "type": "tuple"
        }
      ],
      "stateMutability": "view",
      "type": "function"
    },
    {
      "inputs": [],
      "name": "contributorsCount",
      "outputs": [
        {
          "internalType": "uint256",
          "name": "",
          "type": "uint256"
        }
      ],
      "stateMutability": "view",
      "type": "function"
    },
    {
      "inputs": [],
      "name": "createEpochs",
      "outputs": [],
      "stateMutability": "nonpayable",
      "type": "function"
    },
    {
      "inputs": [
        {
          "internalType": "uint256",
          "name": "blockNumber",
          "type": "uint256"
        }
      ],
      "name": "createEpochsUntilBlockNumber",
      "outputs": [],
      "stateMutability": "nonpayable",
      "type": "function"
    },
    {
      "inputs": [
        {
          "internalType": "address",
          "name": "validatorAddress",
          "type": "address"
        }
      ],
      "name": "deregisterValidator",
      "outputs": [],
      "stateMutability": "nonpayable",
      "type": "function"
    },
    {
      "inputs": [
        {
          "internalType": "address",
          "name": "validatorAddress",
          "type": "address"
        },
        {
          "internalType": "uint256",
          "name": "unstakeAmount",
          "type": "uint256"
        }
      ],
      "name": "deregisterValidatorByOwner",
      "outputs": [],
      "stateMutability": "nonpayable",
      "type": "function"
    },
    {
      "inputs": [],
      "name": "epochRewardAmount",
      "outputs": [
        {
          "internalType": "uint256",
          "name": "",
          "type": "uint256"
        }
      ],
      "stateMutability": "view",
      "type": "function"
    },
    {
      "inputs": [
        {
          "internalType": "uint256",
          "name": "epochId",
          "type": "uint256"
        }
      ],
      "name": "epochRewards",
      "outputs": [
        {
          "internalType": "address[]",
          "name": "validators",
          "type": "address[]"
        },
        {
          "internalType": "uint256[]",
          "name": "scores",
          "type": "uint256[]"
        },
        {
          "internalType": "uint256[]",
          "name": "withdrawnAmounts",
          "type": "uint256[]"
        }
      ],
      "stateMutability": "view",
      "type": "function"
    },
    {
      "inputs": [],
      "name": "epochSize",
      "outputs": [
        {
          "internalType": "uint256",
          "name": "",
          "type": "uint256"
        }
      ],
      "stateMutability": "view",
      "type": "function"
    },
    {
      "inputs": [
        {
          "internalType": "uint256",
          "name": "epochId",
          "type": "uint256"
        }
      ],
      "name": "epochs",
      "outputs": [
        {
          "components": [
            {
              "internalType": "uint256",
              "name": "startBlock",
              "type": "uint256"
            },
            {
              "internalType": "uint256",
              "name": "endBlock",
              "type": "uint256"
            },
            {
              "internalType": "uint256",
              "name": "reward",
              "type": "uint256"
            },
            {
              "internalType": "uint256",
              "name": "validatorsListId",
              "type": "uint256"
            }
          ],
          "internalType": "struct IDataLiquidityPool.EpochResponse",
          "name": "",
          "type": "tuple"
        }
      ],
      "stateMutability": "view",
      "type": "function"
    },
    {
      "inputs": [],
      "name": "epochsCount",
      "outputs": [
        {
          "internalType": "uint256",
          "name": "",
          "type": "uint256"
        }
      ],
      "stateMutability": "view",
      "type": "function"
    },
    {
      "inputs": [],
      "name": "fileRewardDelay",
      "outputs": [
        {
          "internalType": "uint256",
          "name": "",
          "type": "uint256"
        }
      ],
      "stateMutability": "view",
      "type": "function"
    },
    {
      "inputs": [],
      "name": "fileRewardFactor",
      "outputs": [
        {
          "internalType": "uint256",
          "name": "",
          "type": "uint256"
        }
      ],
      "stateMutability": "view",
      "type": "function"
    },
    {
      "inputs": [
        {
          "internalType": "uint256",
          "name": "fileId",
          "type": "uint256"
        },
        {
          "internalType": "address",
          "name": "validatorAddress",
          "type": "address"
        }
      ],
      "name": "fileScores",
      "outputs": [
        {
          "components": [
            {
              "internalType": "bool",
              "name": "valid",
              "type": "bool"
            },
            {
              "internalType": "uint256",
              "name": "score",
              "type": "uint256"
            },
            {
              "internalType": "uint256",
              "name": "reportedAtBlock",
              "type": "uint256"
            },
            {
              "internalType": "uint256",
              "name": "authenticity",
              "type": "uint256"
            },
            {
              "internalType": "uint256",
              "name": "ownership",
              "type": "uint256"
            },
            {
              "internalType": "uint256",
              "name": "quality",
              "type": "uint256"
            },
            {
              "internalType": "uint256",
              "name": "uniqueness",
              "type": "uint256"
            }
          ],
          "internalType": "struct IDataLiquidityPool.FileScore",
          "name": "",
          "type": "tuple"
        }
      ],
      "stateMutability": "view",
      "type": "function"
    },
    {
      "inputs": [
        {
          "internalType": "uint256",
          "name": "fileId",
          "type": "uint256"
        }
      ],
      "name": "files",
      "outputs": [
        {
          "components": [
            {
              "internalType": "uint256",
              "name": "fileId",
              "type": "uint256"
            },
            {
              "internalType": "address",
              "name": "ownerAddress",
              "type": "address"
            },
            {
              "internalType": "string",
              "name": "url",
              "type": "string"
            },
            {
              "internalType": "string",
              "name": "encryptedKey",
              "type": "string"
            },
            {
              "internalType": "uint256",
              "name": "addedTimestamp",
              "type": "uint256"
            },
            {
              "internalType": "uint256",
              "name": "addedAtBlock",
              "type": "uint256"
            },
            {
              "internalType": "bool",
              "name": "valid",
              "type": "bool"
            },
            {
              "internalType": "bool",
              "name": "finalized",
              "type": "bool"
            },
            {
              "internalType": "uint256",
              "name": "score",
              "type": "uint256"
            },
            {
              "internalType": "uint256",
              "name": "authenticity",
              "type": "uint256"
            },
            {
              "internalType": "uint256",
              "name": "ownership",
              "type": "uint256"
            },
            {
              "internalType": "uint256",
              "name": "quality",
              "type": "uint256"
            },
            {
              "internalType": "uint256",
              "name": "uniqueness",
              "type": "uint256"
            },
            {
              "internalType": "uint256",
              "name": "reward",
              "type": "uint256"
            },
            {
              "internalType": "uint256",
              "name": "rewardWithdrawn",
              "type": "uint256"
            },
            {
              "internalType": "uint256",
              "name": "verificationsCount",
              "type": "uint256"
            }
          ],
          "internalType": "struct IDataLiquidityPool.FileResponse",
          "name": "",
          "type": "tuple"
        }
      ],
      "stateMutability": "view",
      "type": "function"
    },
    {
      "inputs": [],
      "name": "filesCount",
      "outputs": [
        {
          "internalType": "uint256",
          "name": "",
          "type": "uint256"
        }
      ],
      "stateMutability": "view",
      "type": "function"
    },
    {
      "inputs": [
        {
          "internalType": "uint256",
          "name": "epochNumber",
          "type": "uint256"
        }
      ],
      "name": "getEmissionScores",
      "outputs": [
        {
          "internalType": "uint256[]",
          "name": "",
          "type": "uint256[]"
        }
      ],
      "stateMutability": "view",
      "type": "function"
    },
    {
      "inputs": [
        {
          "internalType": "address",
          "name": "validatorAddress",
          "type": "address"
        }
      ],
      "name": "getNextFileToVerify",
      "outputs": [
        {
          "components": [
            {
              "internalType": "uint256",
              "name": "fileId",
              "type": "uint256"
            },
            {
              "internalType": "address",
              "name": "ownerAddress",
              "type": "address"
            },
            {
              "internalType": "string",
              "name": "url",
              "type": "string"
            },
            {
              "internalType": "string",
              "name": "encryptedKey",
              "type": "string"
            },
            {
              "internalType": "uint256",
              "name": "addedTimestamp",
              "type": "uint256"
            },
            {
              "internalType": "uint256",
              "name": "addedAtBlock",
              "type": "uint256"
            },
            {
              "internalType": "bool",
              "name": "valid",
              "type": "bool"
            },
            {
              "internalType": "bool",
              "name": "finalized",
              "type": "bool"
            },
            {
              "internalType": "uint256",
              "name": "score",
              "type": "uint256"
            },
            {
              "internalType": "uint256",
              "name": "authenticity",
              "type": "uint256"
            },
            {
              "internalType": "uint256",
              "name": "ownership",
              "type": "uint256"
            },
            {
              "internalType": "uint256",
              "name": "quality",
              "type": "uint256"
            },
            {
              "internalType": "uint256",
              "name": "uniqueness",
              "type": "uint256"
            },
            {
              "internalType": "uint256",
              "name": "reward",
              "type": "uint256"
            },
            {
              "internalType": "uint256",
              "name": "rewardWithdrawn",
              "type": "uint256"
            },
            {
              "internalType": "uint256",
              "name": "verificationsCount",
              "type": "uint256"
            }
          ],
          "internalType": "struct IDataLiquidityPool.FileResponse",
          "name": "",
          "type": "tuple"
        }
      ],
      "stateMutability": "view",
      "type": "function"
    },
    {
      "inputs": [
        {
          "internalType": "bytes32",
          "name": "role",
          "type": "bytes32"
        }
      ],
      "name": "getRoleAdmin",
      "outputs": [
        {
          "internalType": "bytes32",
          "name": "",
          "type": "bytes32"
        }
      ],
      "stateMutability": "view",
      "type": "function"
    },
    {
      "inputs": [
        {
          "internalType": "bytes32",
          "name": "role",
          "type": "bytes32"
        },
        {
          "internalType": "address",
          "name": "account",
          "type": "address"
        }
      ],
      "name": "grantRole",
      "outputs": [],
      "stateMutability": "nonpayable",
      "type": "function"
    },
    {
      "inputs": [
        {
          "internalType": "bytes32",
          "name": "role",
          "type": "bytes32"
        },
        {
          "internalType": "address",
          "name": "account",
          "type": "address"
        }
      ],
      "name": "hasRole",
      "outputs": [
        {
          "internalType": "bool",
          "name": "",
          "type": "bool"
        }
      ],
      "stateMutability": "view",
      "type": "function"
    },
    {
      "inputs": [
        {
          "components": [
            {
              "internalType": "string",
              "name": "name",
              "type": "string"
            },
            {
              "internalType": "address",
              "name": "ownerAddress",
              "type": "address"
            },
            {
              "internalType": "address",
              "name": "tokenAddress",
              "type": "address"
            },
            {
              "internalType": "uint256",
              "name": "newMaxNumberOfValidators",
              "type": "uint256"
            },
            {
              "internalType": "uint256",
              "name": "newValidatorScoreMinTrust",
              "type": "uint256"
            },
            {
              "internalType": "uint256",
              "name": "newValidatorScoreKappa",
              "type": "uint256"
            },
            {
              "internalType": "uint256",
              "name": "newValidatorScoreRho",
              "type": "uint256"
            },
            {
              "internalType": "uint256",
              "name": "newValidationPeriod",
              "type": "uint256"
            },
            {
              "internalType": "uint256",
              "name": "newMinStakeAmount",
              "type": "uint256"
            },
            {
              "internalType": "uint256",
              "name": "startBlock",
              "type": "uint256"
            },
            {
              "internalType": "uint256",
              "name": "newEpochSize",
              "type": "uint256"
            },
            {
              "internalType": "uint256",
              "name": "newEpochRewardAmount",
              "type": "uint256"
            },
            {
              "internalType": "uint256",
              "name": "newFileRewardFactor",
              "type": "uint256"
            },
            {
              "internalType": "uint256",
              "name": "newFileRewardDelay",
              "type": "uint256"
            }
          ],
          "internalType": "struct DataLiquidityPoolImplementation.InitParams",
          "name": "params",
          "type": "tuple"
        }
      ],
      "name": "initialize",
      "outputs": [],
      "stateMutability": "nonpayable",
      "type": "function"
    },
    {
      "inputs": [],
      "name": "lastFinalizedFileId",
      "outputs": [
        {
          "internalType": "uint256",
          "name": "",
          "type": "uint256"
        }
      ],
      "stateMutability": "view",
      "type": "function"
    },
    {
      "inputs": [],
      "name": "masterKey",
      "outputs": [
        {
          "internalType": "string",
          "name": "",
          "type": "string"
        }
      ],
      "stateMutability": "view",
      "type": "function"
    },
    {
      "inputs": [],
      "name": "maxNumberOfValidators",
      "outputs": [
        {
          "internalType": "uint256",
          "name": "",
          "type": "uint256"
        }
      ],
      "stateMutability": "view",
      "type": "function"
    },
    {
      "inputs": [],
      "name": "minStakeAmount",
      "outputs": [
        {
          "internalType": "uint256",
          "name": "",
          "type": "uint256"
        }
      ],
      "stateMutability": "view",
      "type": "function"
    },
    {
      "inputs": [],
      "name": "name",
      "outputs": [
        {
          "internalType": "string",
          "name": "",
          "type": "string"
        }
      ],
      "stateMutability": "view",
      "type": "function"
    },
    {
      "inputs": [],
      "name": "owner",
      "outputs": [
        {
          "internalType": "address",
          "name": "",
          "type": "address"
        }
      ],
      "stateMutability": "view",
      "type": "function"
    },
    {
      "inputs": [],
      "name": "pause",
      "outputs": [],
      "stateMutability": "nonpayable",
      "type": "function"
    },
    {
      "inputs": [],
      "name": "paused",
      "outputs": [
        {
          "internalType": "bool",
          "name": "",
          "type": "bool"
        }
      ],
      "stateMutability": "view",
      "type": "function"
    },
    {
      "inputs": [],
      "name": "pendingOwner",
      "outputs": [
        {
          "internalType": "address",
          "name": "",
          "type": "address"
        }
      ],
      "stateMutability": "view",
      "type": "function"
    },
    {
      "inputs": [],
      "name": "proxiableUUID",
      "outputs": [
        {
          "internalType": "bytes32",
          "name": "",
          "type": "bytes32"
        }
      ],
      "stateMutability": "view",
      "type": "function"
    },
    {
      "inputs": [
        {
          "internalType": "uint256",
          "name": "xWAD",
          "type": "uint256"
        },
        {
          "internalType": "uint256",
          "name": "aWAD",
          "type": "uint256"
        },
        {
          "internalType": "uint256",
          "name": "pWAD",
          "type": "uint256"
        },
        {
          "internalType": "uint256",
          "name": "kWAD",
          "type": "uint256"
        },
        {
          "internalType": "uint256",
          "name": "cWAD",
          "type": "uint256"
        }
      ],
      "name": "rationalSigmoid",
      "outputs": [
        {
          "internalType": "uint256",
          "name": "",
          "type": "uint256"
        }
      ],
      "stateMutability": "pure",
      "type": "function"
    },
    {
      "inputs": [
        {
          "internalType": "address",
          "name": "validatorAddress",
          "type": "address"
        },
        {
          "internalType": "address",
          "name": "validatorOwnerAddress",
          "type": "address"
        },
        {
          "internalType": "uint256",
          "name": "stakeAmount",
          "type": "uint256"
        }
      ],
      "name": "registerValidator",
      "outputs": [],
      "stateMutability": "nonpayable",
      "type": "function"
    },
    {
      "inputs": [],
      "name": "renounceOwnership",
      "outputs": [],
      "stateMutability": "nonpayable",
      "type": "function"
    },
    {
      "inputs": [
        {
          "internalType": "bytes32",
          "name": "role",
          "type": "bytes32"
        },
        {
          "internalType": "address",
          "name": "callerConfirmation",
          "type": "address"
        }
      ],
      "name": "renounceRole",
      "outputs": [],
      "stateMutability": "nonpayable",
      "type": "function"
    },
    {
      "inputs": [
        {
          "internalType": "bytes32",
          "name": "role",
          "type": "bytes32"
        },
        {
          "internalType": "address",
          "name": "account",
          "type": "address"
        }
      ],
      "name": "revokeRole",
      "outputs": [],
      "stateMutability": "nonpayable",
      "type": "function"
    },
    {
      "inputs": [
        {
          "internalType": "string",
          "name": "newMasterKey",
          "type": "string"
        }
      ],
      "name": "setMasterKey",
      "outputs": [],
      "stateMutability": "nonpayable",
      "type": "function"
    },
    {
      "inputs": [
        {
          "internalType": "bytes4",
          "name": "interfaceId",
          "type": "bytes4"
        }
      ],
      "name": "supportsInterface",
      "outputs": [
        {
          "internalType": "bool",
          "name": "",
          "type": "bool"
        }
      ],
      "stateMutability": "view",
      "type": "function"
    },
    {
      "inputs": [],
      "name": "token",
      "outputs": [
        {
          "internalType": "contract IERC20",
          "name": "",
          "type": "address"
        }
      ],
      "stateMutability": "view",
      "type": "function"
    },
    {
      "inputs": [],
      "name": "totalContributorsRewardAmount",
      "outputs": [
        {
          "internalType": "uint256",
          "name": "",
          "type": "uint256"
        }
      ],
      "stateMutability": "view",
      "type": "function"
    },
    {
      "inputs": [],
      "name": "totalStaked",
      "outputs": [
        {
          "internalType": "uint256",
          "name": "",
          "type": "uint256"
        }
      ],
      "stateMutability": "view",
      "type": "function"
    },
    {
      "inputs": [],
      "name": "totalValidatorsRewardAmount",
      "outputs": [
        {
          "internalType": "uint256",
          "name": "",
          "type": "uint256"
        }
      ],
      "stateMutability": "view",
      "type": "function"
    },
    {
      "inputs": [
        {
          "internalType": "address",
          "name": "newOwner",
          "type": "address"
        }
      ],
      "name": "transferOwnership",
      "outputs": [],
      "stateMutability": "nonpayable",
      "type": "function"
    },
    {
      "inputs": [],
      "name": "unpause",
      "outputs": [],
      "stateMutability": "nonpayable",
      "type": "function"
    },
    {
      "inputs": [
        {
          "internalType": "uint256",
          "name": "newEpochRewardAmount",
          "type": "uint256"
        }
      ],
      "name": "updateEpochRewardAmount",
      "outputs": [],
      "stateMutability": "nonpayable",
      "type": "function"
    },
    {
      "inputs": [
        {
          "internalType": "uint256",
          "name": "newEpochSize",
          "type": "uint256"
        }
      ],
      "name": "updateEpochSize",
      "outputs": [],
      "stateMutability": "nonpayable",
      "type": "function"
    },
    {
      "inputs": [
        {
          "internalType": "uint256",
          "name": "newFileRewardDelay",
          "type": "uint256"
        }
      ],
      "name": "updateFileRewardDelay",
      "outputs": [],
      "stateMutability": "nonpayable",
      "type": "function"
    },
    {
      "inputs": [
        {
          "internalType": "uint256",
          "name": "newFileRewardFactor",
          "type": "uint256"
        }
      ],
      "name": "updateFileRewardFactor",
      "outputs": [],
      "stateMutability": "nonpayable",
      "type": "function"
    },
    {
      "inputs": [
        {
          "internalType": "uint256",
          "name": "newMaxNumberOfValidators",
          "type": "uint256"
        }
      ],
      "name": "updateMaxNumberOfValidators",
      "outputs": [],
      "stateMutability": "nonpayable",
      "type": "function"
    },
    {
      "inputs": [
        {
          "internalType": "uint256",
          "name": "newMinStakeAmount",
          "type": "uint256"
        }
      ],
      "name": "updateMinStakeAmount",
      "outputs": [],
      "stateMutability": "nonpayable",
      "type": "function"
    },
    {
      "inputs": [
        {
          "internalType": "uint256",
          "name": "newValidationPeriod",
          "type": "uint256"
        }
      ],
      "name": "updateValidationPeriod",
      "outputs": [],
      "stateMutability": "nonpayable",
      "type": "function"
    },
    {
      "inputs": [
        {
          "internalType": "uint256",
          "name": "newValidatorScoreKappa",
          "type": "uint256"
        }
      ],
      "name": "updateValidatorScoreKappa",
      "outputs": [],
      "stateMutability": "nonpayable",
      "type": "function"
    },
    {
      "inputs": [
        {
          "internalType": "uint256",
          "name": "newValidatorScoreMinTrust",
          "type": "uint256"
        }
      ],
      "name": "updateValidatorScoreMinTrust",
      "outputs": [],
      "stateMutability": "nonpayable",
      "type": "function"
    },
    {
      "inputs": [
        {
          "internalType": "uint256",
          "name": "newValidatorScoreRho",
          "type": "uint256"
        }
      ],
      "name": "updateValidatorScoreRho",
      "outputs": [],
      "stateMutability": "nonpayable",
      "type": "function"
    },
    {
      "inputs": [
        {
          "internalType": "address[]",
          "name": "validators",
          "type": "address[]"
        },
        {
          "internalType": "uint256[]",
          "name": "weights",
          "type": "uint256[]"
        }
      ],
      "name": "updateWeights",
      "outputs": [],
      "stateMutability": "nonpayable",
      "type": "function"
    },
    {
      "inputs": [
        {
          "internalType": "address",
          "name": "newImplementation",
          "type": "address"
        },
        {
          "internalType": "bytes",
          "name": "data",
          "type": "bytes"
        }
      ],
      "name": "upgradeToAndCall",
      "outputs": [],
      "stateMutability": "payable",
      "type": "function"
    },
    {
      "inputs": [],
      "name": "validationPeriod",
      "outputs": [
        {
          "internalType": "uint256",
          "name": "",
          "type": "uint256"
        }
      ],
      "stateMutability": "view",
      "type": "function"
    },
    {
      "inputs": [],
      "name": "validatorScoreKappa",
      "outputs": [
        {
          "internalType": "uint256",
          "name": "",
          "type": "uint256"
        }
      ],
      "stateMutability": "view",
      "type": "function"
    },
    {
      "inputs": [],
      "name": "validatorScoreMinTrust",
      "outputs": [
        {
          "internalType": "uint256",
          "name": "",
          "type": "uint256"
        }
      ],
      "stateMutability": "view",
      "type": "function"
    },
    {
      "inputs": [],
      "name": "validatorScoreRho",
      "outputs": [
        {
          "internalType": "uint256",
          "name": "",
          "type": "uint256"
        }
      ],
      "stateMutability": "view",
      "type": "function"
    },
    {
      "inputs": [
        {
          "internalType": "address",
          "name": "validatorAddress",
          "type": "address"
        }
      ],
      "name": "validatorWeights",
      "outputs": [
        {
          "internalType": "address[]",
          "name": "validators",
          "type": "address[]"
        },
        {
          "internalType": "uint256[]",
          "name": "weights",
          "type": "uint256[]"
        }
      ],
      "stateMutability": "view",
      "type": "function"
    },
    {
      "inputs": [
        {
          "internalType": "uint256",
          "name": "index",
          "type": "uint256"
        }
      ],
      "name": "validators",
      "outputs": [
        {
          "components": [
            {
              "internalType": "address",
              "name": "validatorAddress",
              "type": "address"
            },
            {
              "internalType": "address",
              "name": "ownerAddress",
              "type": "address"
            },
            {
              "internalType": "uint256",
              "name": "stakeAmount",
              "type": "uint256"
            },
            {
              "internalType": "enum IDataLiquidityPool.ValidatorStatus",
              "name": "status",
              "type": "uint8"
            },
            {
              "internalType": "uint256",
              "name": "firstBlockNumber",
              "type": "uint256"
            },
            {
              "internalType": "uint256",
              "name": "lastBlockNumber",
              "type": "uint256"
            },
            {
              "internalType": "uint256",
              "name": "grantedAmount",
              "type": "uint256"
            },
            {
              "internalType": "uint256",
              "name": "lastVerifiedFile",
              "type": "uint256"
            }
          ],
          "internalType": "struct IDataLiquidityPool.ValidatorInfoResponse",
          "name": "",
          "type": "tuple"
        }
      ],
      "stateMutability": "view",
      "type": "function"
    },
    {
      "inputs": [],
      "name": "validatorsCount",
      "outputs": [
        {
          "internalType": "uint256",
          "name": "",
          "type": "uint256"
        }
      ],
      "stateMutability": "view",
      "type": "function"
    },
    {
      "inputs": [
        {
          "internalType": "address",
          "name": "validatorAddress",
          "type": "address"
        }
      ],
      "name": "validatorsInfo",
      "outputs": [
        {
          "components": [
            {
              "internalType": "address",
              "name": "validatorAddress",
              "type": "address"
            },
            {
              "internalType": "address",
              "name": "ownerAddress",
              "type": "address"
            },
            {
              "internalType": "uint256",
              "name": "stakeAmount",
              "type": "uint256"
            },
            {
              "internalType": "enum IDataLiquidityPool.ValidatorStatus",
              "name": "status",
              "type": "uint8"
            },
            {
              "internalType": "uint256",
              "name": "firstBlockNumber",
              "type": "uint256"
            },
            {
              "internalType": "uint256",
              "name": "lastBlockNumber",
              "type": "uint256"
            },
            {
              "internalType": "uint256",
              "name": "grantedAmount",
              "type": "uint256"
            },
            {
              "internalType": "uint256",
              "name": "lastVerifiedFile",
              "type": "uint256"
            }
          ],
          "internalType": "struct IDataLiquidityPool.ValidatorInfoResponse",
          "name": "",
          "type": "tuple"
        }
      ],
      "stateMutability": "view",
      "type": "function"
    },
    {
      "inputs": [
        {
          "internalType": "uint256",
          "name": "fileId",
          "type": "uint256"
        },
        {
          "internalType": "bool",
          "name": "valid",
          "type": "bool"
        },
        {
          "internalType": "uint256",
          "name": "score",
          "type": "uint256"
        },
        {
          "internalType": "uint256",
          "name": "authenticity",
          "type": "uint256"
        },
        {
          "internalType": "uint256",
          "name": "ownership",
          "type": "uint256"
        },
        {
          "internalType": "uint256",
          "name": "quality",
          "type": "uint256"
        },
        {
          "internalType": "uint256",
          "name": "uniqueness",
          "type": "uint256"
        }
      ],
      "name": "verifyFile",
      "outputs": [],
      "stateMutability": "nonpayable",
      "type": "function"
    },
    {
      "inputs": [],
      "name": "version",
      "outputs": [
        {
          "internalType": "uint256",
          "name": "",
          "type": "uint256"
        }
      ],
      "stateMutability": "pure",
      "type": "function"
    }
  ],
  "transactionHash": "0x48842c8f0f5bbd0ef138762e5bf7a52ea193b7e00729140dc09b267b72446623",
  "args": [],
  "numDeployments": 1,
  "solcInputHash": "6386c50b05ab32115f0a06c22f22f29f",
  "bytecode": "0x60a06040523060805234801561001457600080fd5b506080516157bf6200003f600039600081816137f60152818161381f015261397601526157bf6000f3fe6080604052600436106104735760003560e01c80637a44e8a61161024a578063c5bcd43611610139578063e2787e3d116100b6578063f1c61bb61161007a578063f1c61bb614610dda578063f2fde38b14610e07578063f4c714b414610e27578063f8ef9f8014610e47578063fc0c546a14610e6757600080fd5b8063e2787e3d14610d63578063e30c397814610d79578063eaeb2ec814610d8e578063ed612f8c14610dae578063f188768414610dc457600080fd5b8063d547741f116100fd578063d547741f14610cc1578063d8060cd514610ce1578063dbd9a03114610d01578063ded80dc514610d21578063dfb5e9ba14610d4e57600080fd5b8063c5bcd43614610bf8578063c6b61e4c14610c18578063d28bca8414610c6b578063d3b245fa14610c8b578063d4e0187214610ca157600080fd5b806391d14854116101c7578063ad3cb1cc1161018b578063ad3cb1cc14610b5b578063b3aa4e7b14610b8c578063bd704e6814610bac578063c41d3b6314610bcc578063c5064f3d14610be257600080fd5b806391d1485414610ada57806393835a5b14610afa5780639b42b55214610b1a578063a217fddf14610b30578063ab049ffd14610b4557600080fd5b806386c216bf1161020e57806386c216bf14610a565780638afe35b914610a6c5780638da5cb5b14610a81578063916e1c5714610aae57806391a0455214610ac457600080fd5b80637a44e8a6146109cb5780637efd1b5f146109eb578063817b1cd214610a0b5780638456cb5914610a215780638686ffa414610a3657600080fd5b80634dc47d3411610366578063696ec140116102e357806374c5ad4f116102a757806374c5ad4f1461094b5780637569b3d71461096b57806376980d931461098157806376bc9869146109a157806379ba5097146109b657600080fd5b8063696ec140146108c05780636b289f5b146108e05780636f7cefc4146109005780637019a9e214610916578063715018a61461093657600080fd5b806354fd4d501161032a57806354fd4d5014610831578063572d356e14610845578063585a22e71461085b5780635c975abb1461087b57806361b10e69146108a057600080fd5b80634dc47d34146107355780634f1ef2861461076457806350f77fab1461077757806351e9a887146107ef57806352d1902d1461081c57600080fd5b806320206aca116103f457806336568abe116103b857806336568abe1461067c5780633cb5d1001461069c5780633f4ba83a146106e05780634b33273b146106f55780634b545f3a1461071557600080fd5b806320206aca146105cf578063248a9ca3146105ef578063248bfc3b1461060f5780632f2ff15d1461062f57806335aa2e441461064f57600080fd5b8063122134991161043b5780631221349914610543578063132c58e9146105635780631351fa79146105795780631a8bcb1d146105995780631e0b35e9146105b957600080fd5b806301ffc9a714610478578063020b4296146104ad57806306fdde03146104db578063089aed0d146104fd5780631201c54714610521575b600080fd5b34801561048457600080fd5b50610498610493366004614bf6565b610e87565b60405190151581526020015b60405180910390f35b3480156104b957600080fd5b506104cd6104c8366004614c3c565b610ebe565b6040516104a4929190614ccd565b3480156104e757600080fd5b506104f061102a565b6040516104a49190614d42565b34801561050957600080fd5b5061051360065481565b6040519081526020016104a4565b34801561052d57600080fd5b5061054161053c366004614d55565b6110b8565b005b34801561054f57600080fd5b5061054161055e366004614d55565b611107565b34801561056f57600080fd5b5061051360085481565b34801561058557600080fd5b50610541610594366004614d55565b61114b565b3480156105a557600080fd5b506105416105b4366004614d55565b61126e565b3480156105c557600080fd5b50610513600e5481565b3480156105db57600080fd5b506105416105ea366004614d55565b6112ab565b3480156105fb57600080fd5b5061051361060a366004614d55565b6112e8565b34801561061b57600080fd5b5061054161062a366004614e54565b61130a565b34801561063b57600080fd5b5061054161064a366004614eb7565b611481565b34801561065b57600080fd5b5061066f61066a366004614d55565b6114a3565b6040516104a49190614ef9565b34801561068857600080fd5b50610541610697366004614eb7565b6114cc565b3480156106a857600080fd5b506106bc6106b7366004614d55565b611504565b6040805182516001600160a01b0316815260209283015192810192909252016104a4565b3480156106ec57600080fd5b50610541611539565b34801561070157600080fd5b50610541610710366004614d55565b61154b565b34801561072157600080fd5b506106bc610730366004614c3c565b61157d565b34801561074157600080fd5b50610755610750366004614d55565b6115bb565b6040516104a493929190614f7d565b610541610772366004614fb6565b6117e1565b34801561078357600080fd5b50610797610792366004614eb7565b611800565b6040516104a49190600060e0820190508251151582526020830151602083015260408301516040830152606083015160608301526080830151608083015260a083015160a083015260c083015160c083015292915050565b3480156107fb57600080fd5b5061080f61080a366004614c3c565b6118c0565b6040516104a4919061500d565b34801561082857600080fd5b5061051361195f565b34801561083d57600080fd5b506001610513565b34801561085157600080fd5b5061051360095481565b34801561086757600080fd5b50610541610876366004615119565b61197c565b34801561088757600080fd5b5060008051602061574a8339815191525460ff16610498565b3480156108ac57600080fd5b506105416108bb366004614d55565b611a2c565b3480156108cc57600080fd5b506105416108db36600461514d565b611a69565b3480156108ec57600080fd5b506105416108fb366004614d55565b611be7565b34801561090c57600080fd5b50610513600d5481565b34801561092257600080fd5b50610541610931366004615177565b611c45565b34801561094257600080fd5b50610541611e9f565b34801561095757600080fd5b50610541610966366004615303565b611eb1565b34801561097757600080fd5b50610513601b5481565b34801561098d57600080fd5b5061054161099c3660046153b8565b611fe5565b3480156109ad57600080fd5b5061054161218e565b3480156109c257600080fd5b50610541612197565b3480156109d757600080fd5b506105416109e6366004614d55565b6121e1565b3480156109f757600080fd5b5061066f610a06366004614c3c565b61221e565b348015610a1757600080fd5b5061051360055481565b348015610a2d57600080fd5b506105416122b2565b348015610a4257600080fd5b50610513610a513660046153f4565b6122c2565b348015610a6257600080fd5b50610513600c5481565b348015610a7857600080fd5b506104f06123e5565b348015610a8d57600080fd5b50610a966123f2565b6040516001600160a01b0390911681526020016104a4565b348015610aba57600080fd5b5061051360195481565b348015610ad057600080fd5b50610513600b5481565b348015610ae657600080fd5b50610498610af5366004614eb7565b612427565b348015610b0657600080fd5b50610541610b15366004614c3c565b61245f565b348015610b2657600080fd5b5061051360145481565b348015610b3c57600080fd5b50610513600081565b348015610b5157600080fd5b50610513600a5481565b348015610b6757600080fd5b506104f0604051806040016040528060058152602001640352e302e360dc1b81525081565b348015610b9857600080fd5b5061080f610ba736600461514d565b61258e565b348015610bb857600080fd5b50610541610bc7366004614d55565b6125cd565b348015610bd857600080fd5b5061051360075481565b348015610bee57600080fd5b5061051360035481565b348015610c0457600080fd5b50610541610c1336600461543d565b61260a565b348015610c2457600080fd5b50610c38610c33366004614d55565b6129ec565b6040516104a491908151815260208083015190820152604080830151908201526060918201519181019190915260800190565b348015610c7757600080fd5b50610541610c8636600461514d565b612a5c565b348015610c9757600080fd5b5061051360105481565b348015610cad57600080fd5b50610541610cbc366004614d55565b612c07565b348015610ccd57600080fd5b50610541610cdc366004614eb7565b612c44565b348015610ced57600080fd5b50610541610cfc366004614d55565b612c60565b348015610d0d57600080fd5b50610541610d1c366004614c3c565b612c9d565b348015610d2d57600080fd5b50610d41610d3c366004614d55565b612de6565b6040516104a49190615496565b348015610d5a57600080fd5b506105136130fe565b348015610d6f57600080fd5b50610513600f5481565b348015610d8557600080fd5b50610a9661310f565b348015610d9a57600080fd5b50610541610da9366004614d55565b613138565b348015610dba57600080fd5b5061051360115481565b348015610dd057600080fd5b5061051360045481565b348015610de657600080fd5b50610dfa610df5366004614d55565b613218565b6040516104a491906154a9565b348015610e1357600080fd5b50610541610e22366004614c3c565b613232565b348015610e3357600080fd5b5061080f610e42366004614d55565b6132b7565b348015610e5357600080fd5b50610541610e62366004614d55565b6134a8565b348015610e7357600080fd5b50600154610a96906001600160a01b031681565b60006001600160e01b03198216637965db0b60e01b1480610eb857506301ffc9a760e01b6001600160e01b03198316145b92915050565b6001600160a01b03811660009081526013602090815260408083206019548452601a83528184206003015484526015909252822060609283929190610f02826134e5565b9050806001600160401b03811115610f1c57610f1c614d6e565b604051908082528060200260200182016040528015610f45578160200160208202803683370190505b509350806001600160401b03811115610f6057610f60614d6e565b604051908082528060200260200182016040528015610f89578160200160208202803683370190505b50945060005b8181101561102157610fa183826134ef565b868281518110610fb357610fb36154bc565b6001600160a01b0390921660209283029190910190910152600784016000610fdb85846134ef565b6001600160a01b03166001600160a01b031681526020019081526020016000205485828151811061100e5761100e6154bc565b6020908102919091010152600101610f8f565b50505050915091565b60008054611037906154d2565b80601f0160208091040260200160405190810160405280929190818152602001828054611063906154d2565b80156110b05780601f10611085576101008083540402835291602001916110b0565b820191906000526020600020905b81548152906001019060200180831161109357829003601f168201915b505050505081565b6110c06134fb565b6001546110d8906001600160a01b0316333084613533565b80600760008282546110ea9190615522565b9091555050600160008051602061576a8339815191525550565b50565b61110f6135ae565b600d8190556040518181527f988cc07d104f02f221da739f2faa4473eb99b20c035e2e95f4b5d21ce2ecc613906020015b60405180910390a150565b600081815260166020526040902080546001600160a01b031633146111835760405163abea322960e01b815260040160405180910390fd5b6006810154610100900460ff166111ad57604051630df706ad60e11b815260040160405180910390fd5b600081600e015411806111d0575042600f5482600301546111ce9190615522565b115b806111e0575080600d0154600754105b156111fe576040516315e34e0560e01b815260040160405180910390fd5b600d810154600e8201819055600154611224916001600160a01b039091169033906135e0565b600d81015460405133917fe1bcdf634ab88f36a3d5f11a93ce810f6e7804d1d456dfb6046e21046e2a0c619161126291868252602082015260400190565b60405180910390a25050565b6112766135ae565b600a8190556040518181527f49713882dce7cebaf1e95b21d928f97374855c5adfabf73652b8230de06e477990602001611140565b6112b36135ae565b60038190556040518181527f57f8ff470bd82228a577f3475415ce3850805da1616a853e77db8a8526dc21d390602001611140565b600090815260008051602061572a833981519152602052604090206001015490565b611312613611565b6000826040516020016113259190615535565b60408051601f198184030181529190528051602090910120905061134a601782613642565b1561136857604051631441154d60e31b815260040160405180910390fd5b61137360178261365a565b50600061138060176134e5565b600081815260166020526040902080546001600160a01b03191633178155909150600181016113af8682615599565b50600281016113be8582615599565b50426003820155436005820155336000908152601d602052604081208054909182906113e983615658565b909155505080546000908152600180830160205260409091208490558154900361144457601b805490600061141d83615658565b9091555050601b546000908152601c6020526040902080546001600160a01b031916331790555b60405183815233907f2b274a65505764a0b5cd751243bb52c611c94d959a38ef4ccc3452bd8758ec859060200160405180910390a2505050505050565b61148a826112e8565b61149381613666565b61149d8383613670565b50505050565b6114ab614b27565b600082815260126020526040902054610eb8906001600160a01b031661221e565b6001600160a01b03811633146114f55760405163334bd91960e11b815260040160405180910390fd5b6114ff8282613715565b505050565b60408051808201909152600080825260208201526000828152601c6020526040902054610eb8906001600160a01b031661157d565b6115416135ae565b611549613791565b565b6115536134fb565b60015461156b906001600160a01b0316333084613533565b80600660008282546110ea9190615522565b60408051808201825260008082526020918201819052825180840184526001600160a01b03949094168085528152601d825291909120549082015290565b6000818152601a6020908152604080832060030154835260159091528120606091829182916115e9826134e5565b9050806001600160401b0381111561160357611603614d6e565b60405190808252806020026020018201604052801561162c578160200160208202803683370190505b509450806001600160401b0381111561164757611647614d6e565b604051908082528060200260200182016040528015611670578160200160208202803683370190505b509350806001600160401b0381111561168b5761168b614d6e565b6040519080825280602002602001820160405280156116b4578160200160208202803683370190505b506000878152601a602052604081209194505b828110156117d6576116d984826134ef565b8782815181106116eb576116eb6154bc565b60200260200101906001600160a01b031690816001600160a01b031681525050816004016000888381518110611723576117236154bc565b60200260200101516001600160a01b03166001600160a01b0316815260200190815260200160002060000154868281518110611761576117616154bc565b602002602001018181525050816004016000888381518110611785576117856154bc565b60200260200101516001600160a01b03166001600160a01b03168152602001908152602001600020600101548582815181106117c3576117c36154bc565b60209081029190910101526001016116c7565b505050509193909250565b6117e96137eb565b6117f282613890565b6117fc8282613898565b5050565b6118426040518060e001604052806000151581526020016000815260200160008152602001600081526020016000815260200160008152602001600081525090565b5060009182526016602090815260408084206001600160a01b03939093168452600c909201815291819020815160e081018352815460ff16151581526001820154938101939093526002810154918301919091526003810154606083015260048101546080830152600581015460a08301526006015460c082015290565b6118c8614b6c565b6001600160a01b038216600090815260136020526040902060028082015460ff1660038111156118fa576118fa614ee3565b146119185760405163a36c527f60e01b815260040160405180910390fd5b600061192a8260060154601054613955565b611935906001615522565b905061195761194460176134e5565b821161195057816132b7565b60006132b7565b949350505050565b600061196961396b565b5060008051602061570a83398151915290565b60023360009081526013602052604090206002015460ff1660038111156119a5576119a5614ee3565b146119c35760405163a36c527f60e01b815260040160405180910390fd5b600280546119d0906154d2565b1590506119f05760405163eb6f177f60e01b815260040160405180910390fd5b60026119fc8282615599565b507f6add9898d2e3ac145eab271cee721d90be6753e16f43906b29e7320f1056aa17816040516111409190614d42565b611a346135ae565b600f8190556040518181527f1e12137a10ce5a9f14d2c22eb6f2a4bc56c19ad9b9bbf9d0b2c5c392cc2fb2ae90602001611140565b6001600160a01b038083166000908152601360205260409020548391163314611aa5576040516375d664db60e11b815260040160405180910390fd5b6000828152601a602090815260408083206001600160a01b038716845260048101835281842060139093529083206002820154835492949192670de0b6b3a764000091611af191615671565b611afb919061569e565b905082600101548111611b21576040516312d37ee560e31b815260040160405180910390fd5b6000836001015482611b3391906156c0565b9050806006541115611bdd576001600160a01b0388166000908152600486016020526040812060010183905560068054839290611b719084906156c0565b90915550508254600154611b92916001600160a01b039182169116836135e0565b604080516001600160a01b038a168152602081018990529081018290527fce5efe795e5903cb8218fa81516d904af10c5be8a8d0162dd36bd1d79dbece069060600160405180910390a15b5050505050505050565b611bef6135ae565b611bf761218e565b60088190556019546000908152601a602052604090819020600201829055517f2fe8cb48ce95af273ee232223c3a0fbda25a65208753e99801ce508751f2b7fb906111409083815260200190565b7ff0c57e16840df040f15088dc2f81fe391c3923bec73e23a9662efc9c229c6a008054600160401b810460ff1615906001600160401b0316600081158015611c8a5750825b90506000826001600160401b03166001148015611ca65750303b155b905081158015611cb4575080155b15611cd25760405163f92ee8a960e01b815260040160405180910390fd5b845467ffffffffffffffff191660011785558315611cfc57845460ff60401b1916600160401b1785555b611d046139b4565b611d0c6139b4565b611d146139bc565b611d1c6139cc565b611d246139b4565b8551600090611d339082615599565b5060608601516003556080860151600c5560a0860151600d5560c0860151600e5561010086015160045560e0860151600b55610140860180516009556101608701516008556040870151600180546001600160a01b0319166001600160a01b03909216919091178155610180880151600a556101a0880151600f5560198190556000819052601a6020526101208801517ff88cd8d612926ebb404e40725c01084b6e9b3ce0344cde068570342cbd448c618181559251611df291615522565b611dfc91906156c0565b60018281019190915561016088015160028301556040519081527f0129593a287c7be892e56181ff1238eb466a2c952dc53a3029140d1f3ddc4a8d9060200160405180910390a1611e5087602001516139dc565b508315611e9757845460ff60401b19168555604051600181527fc7f505b2f371ae2175ee4913f4499e1f2633a7b5936321eed1cdaeb6115181d29060200160405180910390a15b505050505050565b611ea76135ae565b61154960006139dc565b60023360009081526013602052604090206002015460ff166003811115611eda57611eda614ee3565b14611ef85760405163a36c527f60e01b815260040160405180910390fd5b611f0061218e565b815181518114611f235760405163c21fe6bf60e01b815260040160405180910390fd5b336000908152601360205260408120905b8351811015611f9b57838181518110611f4f57611f4f6154bc565b6020026020010151826007016000878481518110611f6f57611f6f6154bc565b6020908102919091018101516001600160a01b0316825281019190915260400160002055600101611f34565b50336001600160a01b03167f9a6feb528db7c124455828cc2d247246c6570cacbb3b08e371942c04938595ad8585604051611fd7929190614ccd565b60405180910390a250505050565b611fed613611565b611ff56134fb565b6001600160a01b038316600090815260136020526040812090600282015460ff16600381111561202757612027614ee3565b146120455760405163a36c527f60e01b815260040160405180910390fd5b60045482101561206857604051630103be3b60e21b815260040160405180910390fd5b600154612080906001600160a01b0316333085613533565b80546001600160a01b0319166001600160a01b038416178155600180820183905560028201805460ff1916828002179055506120ba6123f2565b6001600160a01b031633036120d157600581018290555b601180549060006120e183615658565b9091555050601154600090815260126020526040812080546001600160a01b0319166001600160a01b03871617905560058054849290612122908490615522565b92505081905550826001600160a01b0316846001600160a01b03167fc1a1f15666b0235d7e5ed7db678cfc0e9451b046c234011592b887be1434fd308460405161216e91815260200190565b60405180910390a3506114ff600160008051602061576a83398151915255565b61154943613138565b33806121a161310f565b6001600160a01b0316146121d85760405163118cdaa760e01b81526001600160a01b03821660048201526024015b60405180910390fd5b611104816139dc565b6121e96135ae565b600e8190556040518181527f984c7e868ec55d6f90d9e5305b0186de4e98c8bef8cebdab26d9133374d49fd490602001611140565b612226614b27565b6001600160a01b038083166000818152601360209081526040918290208251610100810184529384528054909416908301526001830154908201526002820154606082019060ff16600381111561227f5761227f614ee3565b81526020018260030154815260200182600401548152602001826005015481526020018260060154815250915050919050565b6122ba6135ae565b611549613a14565b600082861181816122dc576122d788866156c0565b6122e6565b6122e685896156c0565b90506000670de0b6b3a76400006122fd8380615671565b612307919061569e565b90506000670de0b6b3a764000061231e848a615671565b612328919061569e565b9050600061235b670de0b6b3a7640000612342858c615671565b61234c919061569e565b6123569089615522565b613a5d565b61236c670de0b6b3a7640000613a5d565b6123769190615671565b905084156123aa57898161238a8483615671565b612394919061569e565b61239e9190615522565b955050505050506123dc565b89816123b68483615671565b6123c0919061569e565b6123ca9190615522565b61239e90670de0b6b3a76400006156c0565b95945050505050565b60028054611037906154d2565b6000807f9016d09d72d40fdae2fd8ceac6b6234c7706214fd39c1cd1e609a0528c1993005b546001600160a01b031692915050565b600091825260008051602061572a833981519152602090815260408084206001600160a01b0393909316845291905290205460ff1690565b6001600160a01b03808216600090815260136020526040902054829116331461249b576040516375d664db60e11b815260040160405180910390fd5b6124a36134fb565b6001600160a01b038281166000908152601360205260409020541633148015906124e657506124d06123f2565b6001600160a01b0316336001600160a01b031614155b1561250457604051631eb49d6d60e11b815260040160405180910390fd5b61250d82613b45565b6001600160a01b038216600090815260136020526040812060058101549091036125765780600101546005600082825461254791906156c0565b90915550508054600180830154905461256e926001600160a01b03918216929116906135e0565b600060018201555b506117fc600160008051602061576a83398151915255565b612596614b6c565b6001600160a01b0383166000908152601d602090815260408083208584526001019091529020546125c6906132b7565b9392505050565b6125d56135ae565b600b8190556040518181527ff0874252a8e6b81d39166b2b8f7e569af412c51cabb37268f2d967e38526f7c890602001611140565b60023360009081526013602052604090206002015460ff16600381111561263357612633614ee3565b146126515760405163a36c527f60e01b815260040160405180910390fd5b61265961218e565b6000612664336118c0565b80519091508814612688576040516315addff760e21b815260040160405180910390fd5b6000888152601660209081526040808320338452600c810190925290912060020154156126c857604051633012061f60e21b815260040160405180910390fd5b6040805160e081018252891515815260208082018a815243838501908152606084018b8152608085018b815260a086018b815260c087018b8152336000908152600c8b019097529786209651875460ff191690151517875593516001870155915160028601555160038501555160048085019190915590516005840155925160069092019190915590820180549161275f83615658565b919050555080600401546001036127cd5760068101805460ff1916891515179055600781018790556008810186905560098101859055600a808201859055600b820184905554670de0b6b3a7640000906127b99089615671565b6127c3919061569e565b600d820155612939565b600681015460ff1680156127de5750875b60068201805460ff19169115159190911790556004810154876128026001836156c0565b83600701546128119190615671565b61281b9190615522565b612825919061569e565b600782015560048101548661283b6001836156c0565b836008015461284a9190615671565b6128549190615522565b61285e919061569e565b60088201556004810154856128746001836156c0565b83600901546128839190615671565b61288d9190615522565b612897919061569e565b60098201556004810154846128ad6001836156c0565b83600a01546128bc9190615671565b6128c69190615522565b6128d0919061569e565b600a8201556004810154836128e66001836156c0565b83600b01546128f59190615671565b6128ff9190615522565b612909919061569e565b600b820155600a546007820154670de0b6b3a76400009161292991615671565b612933919061569e565b600d8201555b33600090815260136020526040902060068101548a111561295c57600681018a90555b6014546000908152601560205260409020600290612979906134e5565b612983919061569e565b826004015411156129a55760068201805461ff00191661010017905560108a90555b604080518b8152602081018a905233917f50f16c05266b477dec86455837e3aa673bcc4d8d528314a55493b4af53c80236910160405180910390a250505050505050505050565b612a176040518060800160405280600081526020016000815260200160008152602001600081525090565b506000908152601a6020908152604091829020825160808101845281548152600182015492810192909252600281015492820192909252600390910154606082015290565b612a646135ae565b612a6c6134fb565b6001600160a01b03821660009081526013602052604090206001810154821115612aa957604051630103be3b60e21b815260040160405180910390fd5b60028082015460ff166003811115612ac357612ac3614ee3565b1480612ae757506001600282015460ff166003811115612ae557612ae5614ee3565b145b15612af557612af583613b45565b6003600282015460ff166003811115612b1057612b10614ee3565b14612b2e5760405163a36c527f60e01b815260040160405180910390fd5b6000828260010154612b4091906156c0565b90508015612b6657612b66612b536123f2565b6001546001600160a01b031690836135e0565b8215612b88578154600154612b88916001600160a01b039182169116856135e0565b816001015460056000828254612b9e91906156c0565b90915550506000600183015560408051848152602081018390526001600160a01b038616917f86e1adce0614e084ea59358bd82dfd7f7d14a85ce37e70517b45073fe347cf18910160405180910390a250506117fc600160008051602061576a83398151915255565b612c0f6135ae565b60098190556040518181527f3cd59cf395448ba3bfd2541dcb31ccd800b9e303281df0888a62ae5d5f673f5890602001611140565b612c4d826112e8565b612c5681613666565b61149d8383613715565b612c686135ae565b60048190556040518181527f8448c02797b448f4946bc25b3bf925e5556d1df822c944da701c54bab8a3162f90602001611140565b612ca56135ae565b612cad61218e565b601454600090815260156020526040812081612cc8826134e5565b601480549192506000612cda83615658565b909155505060145460009081526015602052604081209093505b81841015612d1c57612d10612d0984866134ef565b8290613cbb565b50600190930192612cf4565b6001600160a01b03851660009081526013602052604090206001600282015460ff166003811115612d4f57612d4f614ee3565b14612d6d5760405163a36c527f60e01b815260040160405180910390fd5b612d778287613cbb565b506002818101805460ff19169091179055436003808301919091556014546019546000908152601a60205260408082209093019190915590516001600160a01b038816917f6b872750794b9ce90f9678e8d33652e3c79a1bc2868bf145d74bb04e7da83af891a2505050505050565b6000818152601a6020908152604080832060030154835260159091528120606091612e10826134e5565b90506000816001600160401b03811115612e2c57612e2c614d6e565b604051908082528060200260200182016040528015612e55578160200160208202803683370190505b5090506000805b83811015612eed5760136000612e7287846134ef565b6001600160a01b03166001600160a01b0316815260200190815260200160002060010154838281518110612ea857612ea86154bc565b60200260200101818152505081158015612edb57506000838281518110612ed157612ed16154bc565b6020026020010151115b15612ee557600191505b600101612e5c565b5080612f3f57826001600160401b03811115612f0b57612f0b614d6e565b604051908082528060200260200182016040528015612f34578160200160208202803683370190505b509695505050505050565b6000836001600160401b03811115612f5957612f59614d6e565b604051908082528060200260200182016040528015612f8c57816020015b6060815260200190600190039081612f775790505b50905060005b848110156130ae57846001600160401b03811115612fb257612fb2614d6e565b604051908082528060200260200182016040528015612fdb578160200160208202803683370190505b50828281518110612fee57612fee6154bc565b6020908102919091010152600060138161300889856134ef565b6001600160a01b03166001600160a01b03168152602001908152602001600020905060005b868110156130a4576007820160006130458a846134ef565b6001600160a01b03166001600160a01b0316815260200190815260200160002054848481518110613078576130786154bc565b60200260200101518281518110613091576130916154bc565b602090810291909101015260010161302d565b5050600101612f92565b5060006130ba84613cd0565b905060006130c88383613e23565b905060006130d68484613f97565b905060006130e3836141d2565b90506130ef8183614297565b9b9a5050505050505050505050565b600061310a60176134e5565b905090565b6000807f237e158222e3e6968b72b9db0d8043aacf074ad9f650f0d1606b4d82ee432c00612417565b6019546000908152601a6020526040902060018101548211613158575050565b6019545b82826001015410156132115761317181614416565b8061317b81615658565b6000818152601a60205260409020600380860154908201556001808601549294509092506131a99190615522565b8082556009546001916131bc9190615522565b6131c691906156c0565b6001820155600854600282015560405182815290925082907f0129593a287c7be892e56181ff1238eb466a2c952dc53a3029140d1f3ddc4a8d9060200160405180910390a15061315c565b6019555050565b6000818152601560205260409020606090610eb89061457c565b61323a6135ae565b7f237e158222e3e6968b72b9db0d8043aacf074ad9f650f0d1606b4d82ee432c0080546001600160a01b0319166001600160a01b038316908117825561327e6123f2565b6001600160a01b03167f38d16b8cac22d99fc7c124b9cd0de2d3fa1faef420bfe791d8c362d765e2270060405160405180910390a35050565b6132bf614b6c565b60008281526016602090815260409182902082516102008101845285815281546001600160a01b0316928101929092526001810180549193830191613303906154d2565b80601f016020809104026020016040519081016040528092919081815260200182805461332f906154d2565b801561337c5780601f106133515761010080835404028352916020019161337c565b820191906000526020600020905b81548152906001019060200180831161335f57829003601f168201915b50505050508152602001826002018054613395906154d2565b80601f01602080910402602001604051908101604052809291908181526020018280546133c1906154d2565b801561340e5780601f106133e35761010080835404028352916020019161340e565b820191906000526020600020905b8154815290600101906020018083116133f157829003601f168201915b50505091835250506003830154602082015260058301546040820152600683015460ff80821615156060840152610100918290041615156080830152600784015460a0830152600884015460c0830152600984015460e0830152600a84015490820152600b830154610120820152600d830154610140820152600e8301546101608201526004909201546101809092019190915292915050565b6134b06135ae565b600c8190556040518181527f3ffb41bf6069f71b2f41fe721962b01d4e4ee8fe188cb480838d3a98a0b4e3a990602001611140565b6000610eb8825490565b60006125c68383614589565b60008051602061576a83398151915280546001190161352d57604051633ee5aeb560e01b815260040160405180910390fd5b60029055565b6040516001600160a01b03848116602483015283811660448301526064820183905261149d9186918216906323b872dd906084015b604051602081830303815290604052915060e01b6020820180516001600160e01b0383818316178352505050506145b3565b600160008051602061576a83398151915255565b336135b76123f2565b6001600160a01b0316146115495760405163118cdaa760e01b81523360048201526024016121cf565b6040516001600160a01b038381166024830152604482018390526114ff91859182169063a9059cbb90606401613568565b60008051602061574a8339815191525460ff16156115495760405163d93c066560e01b815260040160405180910390fd5b600081815260018301602052604081205415156125c6565b60006125c68383614616565b6111048133614665565b600060008051602061572a83398151915261368b8484612427565b61370b576000848152602082815260408083206001600160a01b03871684529091529020805460ff191660011790556136c13390565b6001600160a01b0316836001600160a01b0316857f2f8788117e7eff1d82e926ec794901d17c78024a50270940304540a733656f0d60405160405180910390a46001915050610eb8565b6000915050610eb8565b600060008051602061572a8339815191526137308484612427565b1561370b576000848152602082815260408083206001600160a01b0387168085529252808320805460ff1916905551339287917ff6391f5c32d9c69d2a47ea670b442974b53935d1edc7fd64eb21e047a839171b9190a46001915050610eb8565b61379961469e565b60008051602061574a833981519152805460ff191681557f5db9ee0a495bf2e6ff9c91a7834c1ba4fdd244a5e8aa4e537bd38aeae4b073aa335b6040516001600160a01b039091168152602001611140565b306001600160a01b037f000000000000000000000000000000000000000000000000000000000000000016148061387257507f00000000000000000000000000000000000000000000000000000000000000006001600160a01b031661386660008051602061570a833981519152546001600160a01b031690565b6001600160a01b031614155b156115495760405163703e46dd60e11b815260040160405180910390fd5b6111046135ae565b816001600160a01b03166352d1902d6040518163ffffffff1660e01b8152600401602060405180830381865afa9250505080156138f2575060408051601f3d908101601f191682019092526138ef918101906156d3565b60015b61391a57604051634c9c8ce360e01b81526001600160a01b03831660048201526024016121cf565b60008051602061570a833981519152811461394b57604051632a87526960e21b8152600481018290526024016121cf565b6114ff83836146ce565b600081831161396457816125c6565b5090919050565b306001600160a01b037f000000000000000000000000000000000000000000000000000000000000000016146115495760405163703e46dd60e11b815260040160405180910390fd5b611549614724565b6139c4614724565b61154961476d565b6139d4614724565b611549614775565b7f237e158222e3e6968b72b9db0d8043aacf074ad9f650f0d1606b4d82ee432c0080546001600160a01b03191681556117fc82614796565b613a1c613611565b60008051602061574a833981519152805460ff191660011781557f62e78cea01bee320cd4e420270b5ea74000d11b0c9f74754ebdbfc544b05a258336137d3565b600081600003613a6f57506000919050565b60006001613a7c84614807565b901c6001901b90506001818481613a9557613a95615688565b048201901c90506001818481613aad57613aad615688565b048201901c90506001818481613ac557613ac5615688565b048201901c90506001818481613add57613add615688565b048201901c90506001818481613af557613af5615688565b048201901c90506001818481613b0d57613b0d615688565b048201901c90506001818481613b2557613b25615688565b048201901c90506125c681828581613b3f57613b3f615688565b0461489b565b613b4d61218e565b6001600160a01b03811660009081526013602052604090206001600282015460ff166003811115613b8057613b80614ee3565b14158015613ba6575060028082015460ff166003811115613ba357613ba3614ee3565b14155b15613bc45760405163a36c527f60e01b815260040160405180910390fd5b601454600090815260156020526040812081613bdf826134e5565b601480549192506000613bf183615658565b909155505060145460009081526015602052604081209093505b81841015613c4f576001600160a01b038616613c2784866134ef565b6001600160a01b031614613c4457613c42612d0984866134ef565b505b600190930192613c0b565b6014546019546000908152601a602052604080822060039081019390935560028801805460ff191690931790925543600488015590516001600160a01b038816917f51407fafe7ef9bec39c65a12a4885a274190991bf1e9057fcc384fc77ff1a7f091a2505050505050565b60006125c6836001600160a01b038416614616565b606060008083516001600160401b03811115613cee57613cee614d6e565b604051908082528060200260200182016040528015613d17578160200160208202803683370190505b50905060005b8451811015613d5557848181518110613d3857613d386154bc565b602002602001015183613d4b9190615522565b9250600101613d1d565b5060008211613db25760405162461bcd60e51b815260206004820152602360248201527f4469766973696f6e206279207a65726f20696e206e6f726d616c697a655374616044820152626b657360e81b60648201526084016121cf565b60005b8451811015613e1b5782858281518110613dd157613dd16154bc565b6020026020010151670de0b6b3a7640000613dec9190615671565b613df6919061569e565b828281518110613e0857613e086154bc565b6020908102919091010152600101613db5565b509392505050565b6060600083516001600160401b03811115613e4057613e40614d6e565b604051908082528060200260200182016040528015613e69578160200160208202803683370190505b50905060005b8451811015613e1b5760005b858281518110613e8d57613e8d6154bc565b602002602001015151811015613f8e57600c54868381518110613eb257613eb26154bc565b60200260200101518281518110613ecb57613ecb6154bc565b60200260200101511115613f8657670de0b6b3a7640000858381518110613ef457613ef46154bc565b6020026020010151878481518110613f0e57613f0e6154bc565b60200260200101518381518110613f2757613f276154bc565b6020026020010151613f399190615671565b613f43919061569e565b838281518110613f5557613f556154bc565b6020026020010151613f679190615522565b838281518110613f7957613f796154bc565b6020026020010181815250505b600101613e7b565b50600101613e6f565b6060600083516001600160401b03811115613fb457613fb4614d6e565b604051908082528060200260200182016040528015613fdd578160200160208202803683370190505b5090506000805b85518110156140ce5760005b868281518110614002576140026154bc565b6020026020010151518110156140c557670de0b6b3a764000086838151811061402d5761402d6154bc565b6020026020010151888481518110614047576140476154bc565b60200260200101518381518110614060576140606154bc565b60200260200101516140729190615671565b61407c919061569e565b84828151811061408e5761408e6154bc565b60200260200101516140a09190615522565b8482815181106140b2576140b26154bc565b6020908102919091010152600101613ff0565b50600101613fe4565b5060005b825181101561410a578281815181106140ed576140ed6154bc565b6020026020010151826141009190615522565b91506001016140d2565b508060000361415f5781516001600160401b0381111561412c5761412c614d6e565b604051908082528060200260200182016040528015614155578160200160208202803683370190505b5092505050610eb8565b60005b82518110156141c8578183828151811061417e5761417e6154bc565b6020026020010151670de0b6b3a76400006141999190615671565b6141a3919061569e565b8382815181106141b5576141b56154bc565b6020908102919091010152600101614162565b5090949350505050565b6060600082516001600160401b038111156141ef576141ef614d6e565b604051908082528060200260200182016040528015614218578160200160208202803683370190505b50600e54600d549192506706f05b59d3b20000916658d15e1762800060005b875181101561428b57614266888281518110614255576142556154bc565b6020026020010151868686866122c2565b868281518110614278576142786154bc565b6020908102919091010152600101614237565b50939695505050505050565b6060600083516001600160401b038111156142b4576142b4614d6e565b6040519080825280602002602001820160405280156142dd578160200160208202803683370190505b5090506000805b855181101561438b57670de0b6b3a7640000858281518110614308576143086154bc565b6020026020010151878381518110614322576143226154bc565b60200260200101516143349190615671565b61433e919061569e565b838281518110614350576143506154bc565b60200260200101818152505082818151811061436e5761436e6154bc565b6020026020010151826143819190615522565b91506001016142e4565b50806000036143ad5781516001600160401b0381111561412c5761412c614d6e565b60005b82518110156141c857818382815181106143cc576143cc6154bc565b6020026020010151670de0b6b3a76400006143e79190615671565b6143f1919061569e565b838281518110614403576144036154bc565b60209081029190910101526001016143b0565b6000818152601a60209081526040808320600301548352601590915281209061443e826134e5565b9050600061444b84612de6565b6000858152601a602052604081209192505b83811015611e9757600061447186836134ef565b90506000670de0b6b3a76400008460020154868581518110614495576144956154bc565b60200260200101516144a79190615671565b6144b1919061569e565b6001600160a01b03831660009081526013602052604090208651919250908690859081106144e1576144e16154bc565b6020908102919091018101516001600160a01b0385166000908152600488019092526040909120558115801590614519575081600654115b15614571576001600160a01b03831660009081526004860160205260408120600101839055600680548492906145509084906156c0565b90915550508054600154614571916001600160a01b039182169116846135e0565b50505060010161445d565b606060006125c6836148aa565b60008260000182815481106145a0576145a06154bc565b9060005260206000200154905092915050565b60006145c86001600160a01b03841683614906565b905080516000141580156145ed5750808060200190518101906145eb91906156ec565b155b156114ff57604051635274afe760e01b81526001600160a01b03841660048201526024016121cf565b600081815260018301602052604081205461465d57508154600181810184556000848152602080822090930184905584548482528286019093526040902091909155610eb8565b506000610eb8565b61466f8282612427565b6117fc5760405163e2517d3f60e01b81526001600160a01b0382166004820152602481018390526044016121cf565b60008051602061574a8339815191525460ff1661154957604051638dfc202b60e01b815260040160405180910390fd5b6146d782614914565b6040516001600160a01b038316907fbc7cd75a20ee27fd9adebab32041f755214dbc6bffa90cc0225b39da2e5c2d3b90600090a280511561471c576114ff8282614979565b6117fc6149e6565b7ff0c57e16840df040f15088dc2f81fe391c3923bec73e23a9662efc9c229c6a0054600160401b900460ff1661154957604051631afcd79f60e31b815260040160405180910390fd5b61359a614724565b61477d614724565b60008051602061574a833981519152805460ff19169055565b7f9016d09d72d40fdae2fd8ceac6b6234c7706214fd39c1cd1e609a0528c19930080546001600160a01b031981166001600160a01b03848116918217845560405192169182907f8be0079c531659141344cd1fd0a4f28419497f9722a3daafe3b4186f6b6457e090600090a3505050565b600080608083901c1561481c57608092831c92015b604083901c1561482e57604092831c92015b602083901c1561484057602092831c92015b601083901c1561485257601092831c92015b600883901c1561486457600892831c92015b600483901c1561487657600492831c92015b600283901c1561488857600292831c92015b600183901c15610eb85760010192915050565b600081831061396457816125c6565b6060816000018054806020026020016040519081016040528092919081815260200182805480156148fa57602002820191906000526020600020905b8154815260200190600101908083116148e6575b50505050509050919050565b60606125c683836000614a05565b806001600160a01b03163b60000361494a57604051634c9c8ce360e01b81526001600160a01b03821660048201526024016121cf565b60008051602061570a83398151915280546001600160a01b0319166001600160a01b0392909216919091179055565b6060600080846001600160a01b0316846040516149969190615535565b600060405180830381855af49150503d80600081146149d1576040519150601f19603f3d011682016040523d82523d6000602084013e6149d6565b606091505b50915091506123dc858383614aa2565b34156115495760405163b398979f60e01b815260040160405180910390fd5b606081471015614a2a5760405163cd78605960e01b81523060048201526024016121cf565b600080856001600160a01b03168486604051614a469190615535565b60006040518083038185875af1925050503d8060008114614a83576040519150601f19603f3d011682016040523d82523d6000602084013e614a88565b606091505b5091509150614a98868383614aa2565b9695505050505050565b606082614ab757614ab282614afe565b6125c6565b8151158015614ace57506001600160a01b0384163b155b15614af757604051639996b31560e01b81526001600160a01b03851660048201526024016121cf565b50806125c6565b805115614b0e5780518082602001fd5b604051630a12f52160e11b815260040160405180910390fd5b60408051610100810182526000808252602082018190529181018290529060608201908152602001600081526020016000815260200160008152602001600081525090565b6040518061020001604052806000815260200160006001600160a01b031681526020016060815260200160608152602001600081526020016000815260200160001515815260200160001515815260200160008152602001600081526020016000815260200160008152602001600081526020016000815260200160008152602001600081525090565b600060208284031215614c0857600080fd5b81356001600160e01b0319811681146125c657600080fd5b80356001600160a01b0381168114614c3757600080fd5b919050565b600060208284031215614c4e57600080fd5b6125c682614c20565b60008151808452602080850194506020840160005b83811015614c915781516001600160a01b031687529582019590820190600101614c6c565b509495945050505050565b60008151808452602080850194506020840160005b83811015614c9157815187529582019590820190600101614cb1565b604081526000614ce06040830185614c57565b82810360208401526123dc8185614c9c565b60005b83811015614d0d578181015183820152602001614cf5565b50506000910152565b60008151808452614d2e816020860160208601614cf2565b601f01601f19169290920160200192915050565b6020815260006125c66020830184614d16565b600060208284031215614d6757600080fd5b5035919050565b634e487b7160e01b600052604160045260246000fd5b6040516101c081016001600160401b0381118282101715614da757614da7614d6e565b60405290565b604051601f8201601f191681016001600160401b0381118282101715614dd557614dd5614d6e565b604052919050565b60006001600160401b03831115614df657614df6614d6e565b614e09601f8401601f1916602001614dad565b9050828152838383011115614e1d57600080fd5b828260208301376000602084830101529392505050565b600082601f830112614e4557600080fd5b6125c683833560208501614ddd565b60008060408385031215614e6757600080fd5b82356001600160401b0380821115614e7e57600080fd5b614e8a86838701614e34565b93506020850135915080821115614ea057600080fd5b50614ead85828601614e34565b9150509250929050565b60008060408385031215614eca57600080fd5b82359150614eda60208401614c20565b90509250929050565b634e487b7160e01b600052602160045260246000fd5b81516001600160a01b0390811682526020808401519091169082015260408083015190820152606082015161010082019060048110614f4857634e487b7160e01b600052602160045260246000fd5b806060840152506080830151608083015260a083015160a083015260c083015160c083015260e083015160e083015292915050565b606081526000614f906060830186614c57565b8281036020840152614fa28186614c9c565b90508281036040840152614a988185614c9c565b60008060408385031215614fc957600080fd5b614fd283614c20565b915060208301356001600160401b03811115614fed57600080fd5b8301601f81018513614ffe57600080fd5b614ead85823560208401614ddd565b60208152815160208201526000602083015161503460408401826001600160a01b03169052565b506040830151610200806060850152615051610220850183614d16565b91506060850151601f1985840301608086015261506e8382614d16565b925050608085015160a085015260a085015160c085015260c085015161509860e086018215159052565b5060e08501516101006150ae8187018315159052565b860151610120868101919091528601516101408087019190915286015161016080870191909152860151610180808701919091528601516101a0808701919091528601516101c0808701919091528601516101e0808701919091529095015193019290925250919050565b60006020828403121561512b57600080fd5b81356001600160401b0381111561514157600080fd5b61195784828501614e34565b6000806040838503121561516057600080fd5b61516983614c20565b946020939093013593505050565b60006020828403121561518957600080fd5b81356001600160401b03808211156151a057600080fd5b908301906101c082860312156151b557600080fd5b6151bd614d84565b8235828111156151cc57600080fd5b6151d887828601614e34565b8252506151e760208401614c20565b60208201526151f860408401614c20565b6040820152606083810135908201526080808401359082015260a0808401359082015260c0808401359082015260e08084013590820152610100808401359082015261012080840135908201526101408084013590820152610160808401359082015261018080840135908201526101a09283013592810192909252509392505050565b60006001600160401b0382111561529557615295614d6e565b5060051b60200190565b600082601f8301126152b057600080fd5b813560206152c56152c08361527c565b614dad565b8083825260208201915060208460051b8701019350868411156152e757600080fd5b602086015b84811015612f3457803583529183019183016152ec565b6000806040838503121561531657600080fd5b82356001600160401b038082111561532d57600080fd5b818501915085601f83011261534157600080fd5b813560206153516152c08361527c565b82815260059290921b8401810191818101908984111561537057600080fd5b948201945b838610156153955761538686614c20565b82529482019490820190615375565b965050860135925050808211156153ab57600080fd5b50614ead8582860161529f565b6000806000606084860312156153cd57600080fd5b6153d684614c20565b92506153e460208501614c20565b9150604084013590509250925092565b600080600080600060a0868803121561540c57600080fd5b505083359560208501359550604085013594606081013594506080013592509050565b801515811461110457600080fd5b600080600080600080600060e0888a03121561545857600080fd5b87359650602088013561546a8161542f565b96999698505050506040850135946060810135946080820135945060a0820135935060c0909101359150565b6020815260006125c66020830184614c9c565b6020815260006125c66020830184614c57565b634e487b7160e01b600052603260045260246000fd5b600181811c908216806154e657607f821691505b60208210810361550657634e487b7160e01b600052602260045260246000fd5b50919050565b634e487b7160e01b600052601160045260246000fd5b80820180821115610eb857610eb861550c565b60008251615547818460208701614cf2565b9190910192915050565b601f8211156114ff576000816000526020600020601f850160051c8101602086101561557a5750805b601f850160051c820191505b81811015611e9757828155600101615586565b81516001600160401b038111156155b2576155b2614d6e565b6155c6816155c084546154d2565b84615551565b602080601f8311600181146155fb57600084156155e35750858301515b600019600386901b1c1916600185901b178555611e97565b600085815260208120601f198616915b8281101561562a5788860151825594840194600190910190840161560b565b50858210156156485787850151600019600388901b60f8161c191681555b5050505050600190811b01905550565b60006001820161566a5761566a61550c565b5060010190565b8082028115828204841417610eb857610eb861550c565b634e487b7160e01b600052601260045260246000fd5b6000826156bb57634e487b7160e01b600052601260045260246000fd5b500490565b81810381811115610eb857610eb861550c565b6000602082840312156156e557600080fd5b5051919050565b6000602082840312156156fe57600080fd5b81516125c68161542f56fe360894a13ba1a3210667c828492db98dca3e2076cc3735a920a3ca505d382bbc02dd7bc7dec4dceedda775e58dd541e08a116c6c53815c0bd028192f7b626800cd5ed15c6e187e77e9aee88184c21f4f2182ab5827cb3b7e07fbedcd63f033009b779b17422d0df92223018b32b4d1fa46e071723d6817e2486d003becc55f00a26469706673582212208fd9f06b602c93b6d06a83b00daf4043e4539440d9241a3188cde7d131cdf4cb64736f6c63430008180033",
  "devdoc": {
    "errors": {
      "AccessControlBadConfirmation()": [
        {
          "details": "The caller of a function is not the expected one. NOTE: Don't confuse with {AccessControlUnauthorizedAccount}."
        }
      ],
      "AccessControlUnauthorizedAccount(address,bytes32)": [
        {
          "details": "The `account` is missing a role."
        }
      ],
      "AddressEmptyCode(address)": [
        {
          "details": "There's no code at `target` (it is not a contract)."
        }
      ],
      "AddressInsufficientBalance(address)": [
        {
          "details": "The ETH balance of the account is not enough to perform the operation."
        }
      ],
      "ERC1967InvalidImplementation(address)": [
        {
          "details": "The `implementation` of the proxy is invalid."
        }
      ],
      "ERC1967NonPayable()": [
        {
          "details": "An upgrade function sees `msg.value > 0` that may be lost."
        }
      ],
      "EnforcedPause()": [
        {
          "details": "The operation failed because the contract is paused."
        }
      ],
      "ExpectedPause()": [
        {
          "details": "The operation failed because the contract is not paused."
        }
      ],
      "FailedInnerCall()": [
        {
          "details": "A call to an address target failed. The target may have reverted."
        }
      ],
      "InvalidInitialization()": [
        {
          "details": "The contract is already initialized."
        }
      ],
      "NotInitializing()": [
        {
          "details": "The contract is not initializing."
        }
      ],
      "OwnableInvalidOwner(address)": [
        {
          "details": "The owner is not a valid owner account. (eg. `address(0)`)"
        }
      ],
      "OwnableUnauthorizedAccount(address)": [
        {
          "details": "The caller account is not authorized to perform an operation."
        }
      ],
      "ReentrancyGuardReentrantCall()": [
        {
          "details": "Unauthorized reentrant call."
        }
      ],
      "SafeERC20FailedOperation(address)": [
        {
          "details": "An operation with an ERC20 token failed."
        }
      ],
      "UUPSUnauthorizedCallContext()": [
        {
          "details": "The call is from an unauthorized context."
        }
      ],
      "UUPSUnsupportedProxiableUUID(bytes32)": [
        {
          "details": "The storage `slot` is unsupported as a UUID."
        }
      ]
    },
    "events": {
      "ContributionRewardClaimed(address,uint256,uint256)": {
        "params": {
          "amount": "amount claimed",
          "contributorAddress": "address of the contributor",
          "fileId": "file id"
        }
      },
      "EpochCreated(uint256)": {
        "params": {
          "epochId": "reward epoch id"
        }
      },
      "EpochRewardAmountUpdated(uint256)": {
        "params": {
          "newEpochRewardAmount": "new epoch reward amount"
        }
      },
      "EpochRewardClaimed(address,uint256,uint256)": {
        "params": {
          "claimAmount": "amount claimed",
          "epochId": "epcoch id",
          "validator": "address of the validator"
        }
      },
      "EpochSizeUpdated(uint256)": {
        "params": {
          "newEpochSize": "new epoch size"
        }
      },
      "FileAdded(address,uint256)": {
        "params": {
          "contributorAddress": "owner of the file",
          "fileId": "file id"
        }
      },
      "FileRewardDelayUpdated(uint256)": {
        "params": {
          "newFileRewardDelay": "new file reward delay"
        }
      },
      "FileRewardFactorUpdated(uint256)": {
        "params": {
          "newFileRewardFactor": "new file reward factor"
        }
      },
      "FileVerified(address,uint256,uint256)": {
        "params": {
          "fileId": "file id",
          "score": "score of the verification",
          "validatorAddress": "address of the validator"
        }
      },
      "Initialized(uint64)": {
        "details": "Triggered when the contract has been initialized or reinitialized."
      },
      "MasterKeySet(string)": {
        "params": {
          "newMasterKey": "new master key"
        }
      },
      "MaxNumberOfValidatorsUpdated(uint256)": {
        "params": {
          "newMaxNumberOfValidators": "new max number of validators"
        }
      },
      "MinStakeAmountUpdated(uint256)": {
        "params": {
          "newMinStakeAmount": "new minStakeAmount"
        }
      },
      "Paused(address)": {
        "details": "Emitted when the pause is triggered by `account`."
      },
      "RoleAdminChanged(bytes32,bytes32,bytes32)": {
        "details": "Emitted when `newAdminRole` is set as ``role``'s admin role, replacing `previousAdminRole` `DEFAULT_ADMIN_ROLE` is the starting admin for all roles, despite {RoleAdminChanged} not being emitted signaling this."
      },
      "RoleGranted(bytes32,address,address)": {
        "details": "Emitted when `account` is granted `role`. `sender` is the account that originated the contract call, an admin role bearer except when using {AccessControl-_setupRole}."
      },
      "RoleRevoked(bytes32,address,address)": {
        "details": "Emitted when `account` is revoked `role`. `sender` is the account that originated the contract call:   - if using `revokeRole`, it is the admin role bearer   - if using `renounceRole`, it is the role bearer (i.e. `account`)"
      },
      "Staked(address,uint256,uint256)": {
        "params": {
          "amount": "amount staked in this call",
          "totalAmount": "total amount staked by the validator",
          "validatorAddress": "address of the validator"
        }
      },
      "Unpaused(address)": {
        "details": "Emitted when the pause is lifted by `account`."
      },
      "Unstaked(address,uint256)": {
        "params": {
          "amount": "amount unstaked",
          "stakerAddress": "address of the staker"
        }
      },
      "Upgraded(address)": {
        "details": "Emitted when the implementation is upgraded."
      },
      "ValidationPeriodUpdated(uint256)": {
        "params": {
          "newValidationPeriod": "new validation period"
        }
      },
      "ValidatorApproved(address)": {
        "params": {
          "validatorAddress": "address of the validator"
        }
      },
      "ValidatorDeregistered(address)": {
        "params": {
          "validatorAddress": "address of the validator"
        }
      },
      "ValidatorDeregisteredByOwner(address,uint256,uint256)": {
        "params": {
          "penaltyAmount": "penalty amount",
          "unstakedAmount": "amount unstaked",
          "validatorAddress": "address of the validator"
        }
      },
      "ValidatorRegistered(address,address,uint256)": {
        "params": {
          "amount": "amount staked in this call",
          "ownerAddress": "owner of the validator",
          "validatorAddress": "address of the validator"
        }
      },
      "ValidatorScoreKappaUpdated(uint256)": {
        "params": {
          "newValidatorScoreKappa": "new validatorScoreKappa"
        }
      },
      "ValidatorScoreMinTrustUpdated(uint256)": {
        "params": {
          "newValidatorScoreMinTrust": "new validatorScoreMinTrust"
        }
      },
      "ValidatorScoreRhoUpdated(uint256)": {
        "params": {
          "newValidatorScoreRho": "new validatorScoreRho"
        }
      },
      "ValidatorUnregistered(address)": {
        "params": {
          "validatorAddress": "address of the validator"
        }
      },
      "WeightsUpdated(address,address[],uint256[])": {
        "params": {
          "validatorAddress": "address of the validator",
          "validators": "validators",
          "weights": "weights"
        }
      }
    },
    "kind": "dev",
    "methods": {
      "acceptOwnership()": {
        "details": "The new owner accepts the ownership transfer."
      },
      "addFile(string,string)": {
        "params": {
          "encryptedKey": "encrypted key",
          "url": "file url"
        }
      },
      "contributorFiles(address,uint256)": {
        "params": {
          "contributorAddress": "address of the contributor",
          "index": "index of the file"
        },
        "returns": {
          "_0": "uint256                             file id"
        }
      },
      "contributorInfo(address)": {
        "params": {
          "contributorAddress": "address of the contributor"
        },
        "returns": {
          "_0": "ContributorInfoResponse             contributor information"
        }
      },
      "contributors(uint256)": {
        "params": {
          "index": "index of the contributor"
        },
        "returns": {
          "_0": "ContributorInfoResponse             contributor information"
        }
      },
      "deregisterValidator(address)": {
        "params": {
          "validatorAddress": "validator addresses"
        }
      },
      "deregisterValidatorByOwner(address,uint256)": {
        "params": {
          "unstakeAmount": "amount to sent to validator owner",
          "validatorAddress": "validator addresses"
        }
      },
      "epochRewards(uint256)": {
        "params": {
          "epochId": "epoch id"
        },
        "returns": {
          "scores": "                              scores",
          "validators": "                         validators",
          "withdrawnAmounts": "                   withdrawnAmounts"
        }
      },
      "epochs(uint256)": {
        "params": {
          "epochId": "epoch id"
        }
      },
      "fileScores(uint256,address)": {
        "params": {
          "fileId": "file id",
          "validatorAddress": "validator address"
        }
      },
      "files(uint256)": {
        "params": {
          "fileId": "file id"
        }
      },
      "getEmissionScores(uint256)": {
        "params": {
          "epochNumber": "epoch number"
        }
      },
      "getNextFileToVerify(address)": {
        "params": {
          "validatorAddress": "address of the validator"
        }
      },
      "getRoleAdmin(bytes32)": {
        "details": "Returns the admin role that controls `role`. See {grantRole} and {revokeRole}. To change a role's admin, use {_setRoleAdmin}."
      },
      "grantRole(bytes32,address)": {
        "details": "Grants `role` to `account`. If `account` had not been already granted `role`, emits a {RoleGranted} event. Requirements: - the caller must have ``role``'s admin role. May emit a {RoleGranted} event."
      },
      "hasRole(bytes32,address)": {
        "details": "Returns `true` if `account` has been granted `role`."
      },
      "initialize((string,address,address,uint256,uint256,uint256,uint256,uint256,uint256,uint256,uint256,uint256,uint256,uint256))": {
        "params": {
          "params": "initialization parameters"
        }
      },
      "owner()": {
        "details": "Returns the address of the current owner."
      },
      "pause()": {
        "details": "Pauses the contract"
      },
      "paused()": {
        "details": "Returns true if the contract is paused, and false otherwise."
      },
      "pendingOwner()": {
        "details": "Returns the address of the pending owner."
      },
      "proxiableUUID()": {
        "details": "Implementation of the ERC1822 {proxiableUUID} function. This returns the storage slot used by the implementation. It is used to validate the implementation's compatibility when performing an upgrade. IMPORTANT: A proxy pointing at a proxiable contract should not be considered proxiable itself, because this risks bricking a proxy that upgrades to it, by delegating to itself until out of gas. Thus it is critical that this function revert if invoked through a proxy. This is guaranteed by the `notDelegated` modifier."
      },
      "rationalSigmoid(uint256,uint256,uint256,uint256,uint256)": {
        "params": {
          "aWAD": "amplitude",
          "cWAD": "steepness",
          "kWAD": "shift",
          "pWAD": "temperature",
          "xWAD": "trust score"
        }
      },
      "registerValidator(address,address,uint256)": {
        "params": {
          "stakeAmount": "amount to stake",
          "validatorAddress": "address of the validator",
          "validatorOwnerAddress": "owner of the validator"
        }
      },
      "renounceOwnership()": {
        "details": "Leaves the contract without owner. It will not be possible to call `onlyOwner` functions. Can only be called by the current owner. NOTE: Renouncing ownership will leave the contract without an owner, thereby disabling any functionality that is only available to the owner."
      },
      "renounceRole(bytes32,address)": {
        "details": "Revokes `role` from the calling account. Roles are often managed via {grantRole} and {revokeRole}: this function's purpose is to provide a mechanism for accounts to lose their privileges if they are compromised (such as when a trusted device is misplaced). If the calling account had been revoked `role`, emits a {RoleRevoked} event. Requirements: - the caller must be `callerConfirmation`. May emit a {RoleRevoked} event."
      },
      "revokeRole(bytes32,address)": {
        "details": "Revokes `role` from `account`. If `account` had been granted `role`, emits a {RoleRevoked} event. Requirements: - the caller must have ``role``'s admin role. May emit a {RoleRevoked} event."
      },
      "setMasterKey(string)": {
        "params": {
          "newMasterKey": "new master key"
        }
      },
      "supportsInterface(bytes4)": {
        "details": "See {IERC165-supportsInterface}."
      },
      "transferOwnership(address)": {
        "details": "Starts the ownership transfer of the contract to a new account. Replaces the pending transfer if there is one. Can only be called by the current owner."
      },
      "unpause()": {
        "details": "Unpauses the contract"
      },
      "updateEpochRewardAmount(uint256)": {
        "params": {
          "newEpochRewardAmount": "new epoch size"
        }
      },
      "updateEpochSize(uint256)": {
        "params": {
          "newEpochSize": "new epoch size"
        }
      },
      "updateFileRewardDelay(uint256)": {
        "params": {
          "newFileRewardDelay": "new file reward delay"
        }
      },
      "updateFileRewardFactor(uint256)": {
        "params": {
          "newFileRewardFactor": "new file reward factor"
        }
      },
      "updateMaxNumberOfValidators(uint256)": {
        "params": {
          "newMaxNumberOfValidators": "new maximum number of validators"
        }
      },
      "updateMinStakeAmount(uint256)": {
        "params": {
          "newMinStakeAmount": "new minStakeAmount"
        }
      },
      "updateValidationPeriod(uint256)": {
        "params": {
          "newValidationPeriod": "new validation period"
        }
      },
      "updateValidatorScoreKappa(uint256)": {
        "params": {
          "newValidatorScoreKappa": "new validatorScoreKappa"
        }
      },
      "updateValidatorScoreMinTrust(uint256)": {
        "params": {
          "newValidatorScoreMinTrust": "new validatorScoreMinTrust"
        }
      },
      "updateValidatorScoreRho(uint256)": {
        "params": {
          "newValidatorScoreRho": "new validatorScoreRho"
        }
      },
      "upgradeToAndCall(address,bytes)": {
        "custom:oz-upgrades-unsafe-allow-reachable": "delegatecall",
        "details": "Upgrade the implementation of the proxy to `newImplementation`, and subsequently execute the function call encoded in `data`. Calls {_authorizeUpgrade}. Emits an {Upgraded} event."
      },
      "validators(uint256)": {
        "params": {
          "index": "index of the validator"
        }
      },
      "validatorsInfo(address)": {
        "params": {
          "validatorAddress": "address of the validator"
        }
      },
      "verifyFile(uint256,bool,uint256,uint256,uint256,uint256,uint256)": {
        "params": {
          "authenticity": "authenticity score",
          "fileId": "file id",
          "ownership": "ownership score",
          "quality": "quality score",
          "score": "score of the verification",
          "uniqueness": "uniqueness score",
          "valid": "whether the file is valid"
        }
      }
    },
    "version": 1
  },
  "userdoc": {
    "events": {
      "ContributionRewardClaimed(address,uint256,uint256)": {
        "notice": "Triggered when a data contributor has claimed a reward"
      },
      "EpochCreated(uint256)": {
        "notice": "Triggered when a epoch has been created"
      },
      "EpochRewardAmountUpdated(uint256)": {
        "notice": "Triggered when the epoch reward amount has been updated"
      },
      "EpochRewardClaimed(address,uint256,uint256)": {
        "notice": "Triggered when a validator has claimed un unsed reward"
      },
      "EpochSizeUpdated(uint256)": {
        "notice": "Triggered when the epoch size has been updated"
      },
      "FileAdded(address,uint256)": {
        "notice": "Triggered when a file has been added"
      },
      "FileRewardDelayUpdated(uint256)": {
        "notice": "Triggered when the fileRewardDelay has been updated"
      },
      "FileRewardFactorUpdated(uint256)": {
        "notice": "Triggered when the fileRewardFactor has been updated"
      },
      "FileVerified(address,uint256,uint256)": {
        "notice": "Triggered when a file has been verified"
      },
      "MasterKeySet(string)": {
        "notice": "Triggered when a master key has been set"
      },
      "MaxNumberOfValidatorsUpdated(uint256)": {
        "notice": "Triggered when the max number of validators has been updated"
      },
      "MinStakeAmountUpdated(uint256)": {
        "notice": "Triggered when the minStakeAmount has been updated"
      },
      "Staked(address,uint256,uint256)": {
        "notice": "Triggered when a validator has staked some DAT"
      },
      "Unstaked(address,uint256)": {
        "notice": "Triggered when a validator has unstaked some DAT"
      },
      "ValidationPeriodUpdated(uint256)": {
        "notice": "Triggered when the validation period has been updated"
      },
      "ValidatorApproved(address)": {
        "notice": "Triggered when a validator has been approved"
      },
      "ValidatorDeregistered(address)": {
        "notice": "Triggered when a validator has been deregistered"
      },
      "ValidatorDeregisteredByOwner(address,uint256,uint256)": {
        "notice": "Triggered when a validator has been deregistered by the dlp owner"
      },
      "ValidatorRegistered(address,address,uint256)": {
        "notice": "Triggered when a validator has registered"
      },
      "ValidatorScoreKappaUpdated(uint256)": {
        "notice": "Triggered when the validatorScoreKappa has been updated"
      },
      "ValidatorScoreMinTrustUpdated(uint256)": {
        "notice": "Triggered when the validatorScoreMinTrust has been updated"
      },
      "ValidatorScoreRhoUpdated(uint256)": {
        "notice": "Triggered when the validatorScoreRho has been updated"
      },
      "ValidatorUnregistered(address)": {
        "notice": "Triggered when a validator has been unregistered"
      },
      "WeightsUpdated(address,address[],uint256[])": {
        "notice": "Triggered when a validator has updated its weights"
      }
    },
    "kind": "user",
    "methods": {
      "activeValidatorsLists(uint256)": {
        "notice": "Get active validator list by listId"
      },
      "addFile(string,string)": {
        "notice": "Add a file to the pool"
      },
      "addRewardForValidators(uint256)": {
        "notice": "Add rewards for validators"
      },
      "addRewardsForContributors(uint256)": {
        "notice": "Add rewards for contributors"
      },
      "contributorFiles(address,uint256)": {
        "notice": "Get the contributor files"
      },
      "contributorInfo(address)": {
        "notice": "Get the contributor information"
      },
      "contributors(uint256)": {
        "notice": "Get the contributor information"
      },
      "createEpochs()": {
        "notice": "Create epochs used when the last epoch has ended"
      },
      "createEpochsUntilBlockNumber(uint256)": {
        "notice": "Create epochs used when the last epoch has ended"
      },
      "deregisterValidator(address)": {
        "notice": "Deregister validator"
      },
      "deregisterValidatorByOwner(address,uint256)": {
        "notice": "Deregister validator and withdraw stake amount"
      },
      "epochRewards(uint256)": {
        "notice": "Get the epoch rewards"
      },
      "epochs(uint256)": {
        "notice": "Get epoch information"
      },
      "fileScores(uint256,address)": {
        "notice": "Get the file scores for a validator"
      },
      "files(uint256)": {
        "notice": "Get the file information"
      },
      "filesCount()": {
        "notice": "Get the number of files"
      },
      "getEmissionScores(uint256)": {
        "notice": "Get the emission scores for the validators"
      },
      "getNextFileToVerify(address)": {
        "notice": "Get the next file to verify"
      },
      "initialize((string,address,address,uint256,uint256,uint256,uint256,uint256,uint256,uint256,uint256,uint256,uint256,uint256))": {
        "notice": "Initialize the contract"
      },
      "rationalSigmoid(uint256,uint256,uint256,uint256,uint256)": {
        "notice": "Set the emission scores for the validators Approximate sigmoid function using rational approximation and WAD Modeled after https://bittensor.com/whitepaper Designed via https://www.desmos.com/calculator/npx9o19sre"
      },
      "registerValidator(address,address,uint256)": {
        "notice": "Register a validator"
      },
      "setMasterKey(string)": {
        "notice": "Set the master key"
      },
      "updateEpochRewardAmount(uint256)": {
        "notice": "Update the epochRewardAmount"
      },
      "updateEpochSize(uint256)": {
        "notice": "Update the epoch size"
      },
      "updateFileRewardDelay(uint256)": {
        "notice": "Update the fileRewardDelay"
      },
      "updateFileRewardFactor(uint256)": {
        "notice": "Update the fileRewardFactor"
      },
      "updateMaxNumberOfValidators(uint256)": {
        "notice": "Update the maximum number of validators"
      },
      "updateMinStakeAmount(uint256)": {
        "notice": "Update the minStakeAmount"
      },
      "updateValidationPeriod(uint256)": {
        "notice": "Update the validation period"
      },
      "updateValidatorScoreKappa(uint256)": {
        "notice": "Update the validatorScoreKappa"
      },
      "updateValidatorScoreMinTrust(uint256)": {
        "notice": "Update the validatorScoreMinTrust"
      },
      "updateValidatorScoreRho(uint256)": {
        "notice": "Update the validatorScoreRho"
      },
      "updateWeights(address[],uint256[])": {
        "notice": "Set the weights for the validators"
      },
      "validatorWeights(address)": {
        "notice": "Get weights assigned by the validator"
      },
      "validators(uint256)": {
        "notice": "Get the validator information"
      },
      "validatorsInfo(address)": {
        "notice": "Get the validator information"
      },
      "verifyFile(uint256,bool,uint256,uint256,uint256,uint256,uint256)": {
        "notice": "Verify a file"
      },
      "version()": {
        "notice": "return the version of the contract"
      }
    },
    "version": 1
  },
  "storageLayout": {
    "storage": [
      {
        "astId": 14700,
        "contract": "contracts/dlp/DataLiquidityPoolImplementation.sol:DataLiquidityPoolImplementation",
        "label": "name",
        "offset": 0,
        "slot": "0",
        "type": "t_string_storage"
      },
      {
        "astId": 14704,
        "contract": "contracts/dlp/DataLiquidityPoolImplementation.sol:DataLiquidityPoolImplementation",
        "label": "token",
        "offset": 0,
        "slot": "1",
        "type": "t_contract(IERC20)3646"
      },
      {
        "astId": 14707,
        "contract": "contracts/dlp/DataLiquidityPoolImplementation.sol:DataLiquidityPoolImplementation",
        "label": "masterKey",
        "offset": 0,
        "slot": "2",
        "type": "t_string_storage"
      },
      {
        "astId": 14710,
        "contract": "contracts/dlp/DataLiquidityPoolImplementation.sol:DataLiquidityPoolImplementation",
        "label": "maxNumberOfValidators",
        "offset": 0,
        "slot": "3",
        "type": "t_uint256"
      },
      {
        "astId": 14713,
        "contract": "contracts/dlp/DataLiquidityPoolImplementation.sol:DataLiquidityPoolImplementation",
        "label": "minStakeAmount",
        "offset": 0,
        "slot": "4",
        "type": "t_uint256"
      },
      {
        "astId": 14716,
        "contract": "contracts/dlp/DataLiquidityPoolImplementation.sol:DataLiquidityPoolImplementation",
        "label": "totalStaked",
        "offset": 0,
        "slot": "5",
        "type": "t_uint256"
      },
      {
        "astId": 14719,
        "contract": "contracts/dlp/DataLiquidityPoolImplementation.sol:DataLiquidityPoolImplementation",
        "label": "totalValidatorsRewardAmount",
        "offset": 0,
        "slot": "6",
        "type": "t_uint256"
      },
      {
        "astId": 14722,
        "contract": "contracts/dlp/DataLiquidityPoolImplementation.sol:DataLiquidityPoolImplementation",
        "label": "totalContributorsRewardAmount",
        "offset": 0,
        "slot": "7",
        "type": "t_uint256"
      },
      {
        "astId": 14725,
        "contract": "contracts/dlp/DataLiquidityPoolImplementation.sol:DataLiquidityPoolImplementation",
        "label": "epochRewardAmount",
        "offset": 0,
        "slot": "8",
        "type": "t_uint256"
      },
      {
        "astId": 14728,
        "contract": "contracts/dlp/DataLiquidityPoolImplementation.sol:DataLiquidityPoolImplementation",
        "label": "epochSize",
        "offset": 0,
        "slot": "9",
        "type": "t_uint256"
      },
      {
        "astId": 14731,
        "contract": "contracts/dlp/DataLiquidityPoolImplementation.sol:DataLiquidityPoolImplementation",
        "label": "fileRewardFactor",
        "offset": 0,
        "slot": "10",
        "type": "t_uint256"
      },
      {
        "astId": 14734,
        "contract": "contracts/dlp/DataLiquidityPoolImplementation.sol:DataLiquidityPoolImplementation",
        "label": "validationPeriod",
        "offset": 0,
        "slot": "11",
        "type": "t_uint256"
      },
      {
        "astId": 14737,
        "contract": "contracts/dlp/DataLiquidityPoolImplementation.sol:DataLiquidityPoolImplementation",
        "label": "validatorScoreMinTrust",
        "offset": 0,
        "slot": "12",
        "type": "t_uint256"
      },
      {
        "astId": 14740,
        "contract": "contracts/dlp/DataLiquidityPoolImplementation.sol:DataLiquidityPoolImplementation",
        "label": "validatorScoreKappa",
        "offset": 0,
        "slot": "13",
        "type": "t_uint256"
      },
      {
        "astId": 14743,
        "contract": "contracts/dlp/DataLiquidityPoolImplementation.sol:DataLiquidityPoolImplementation",
        "label": "validatorScoreRho",
        "offset": 0,
        "slot": "14",
        "type": "t_uint256"
      },
      {
        "astId": 14746,
        "contract": "contracts/dlp/DataLiquidityPoolImplementation.sol:DataLiquidityPoolImplementation",
        "label": "fileRewardDelay",
        "offset": 0,
        "slot": "15",
        "type": "t_uint256"
      },
      {
        "astId": 14749,
        "contract": "contracts/dlp/DataLiquidityPoolImplementation.sol:DataLiquidityPoolImplementation",
        "label": "lastFinalizedFileId",
        "offset": 0,
        "slot": "16",
        "type": "t_uint256"
      },
      {
        "astId": 14752,
        "contract": "contracts/dlp/DataLiquidityPoolImplementation.sol:DataLiquidityPoolImplementation",
        "label": "validatorsCount",
        "offset": 0,
        "slot": "17",
        "type": "t_uint256"
      },
      {
        "astId": 14756,
        "contract": "contracts/dlp/DataLiquidityPoolImplementation.sol:DataLiquidityPoolImplementation",
        "label": "_validators",
        "offset": 0,
        "slot": "18",
        "type": "t_mapping(t_uint256,t_address)"
      },
      {
        "astId": 14761,
        "contract": "contracts/dlp/DataLiquidityPoolImplementation.sol:DataLiquidityPoolImplementation",
        "label": "_validatorsInfo",
        "offset": 0,
        "slot": "19",
        "type": "t_mapping(t_address,t_struct(ValidatorInfo)14829_storage)"
      },
      {
        "astId": 14764,
        "contract": "contracts/dlp/DataLiquidityPoolImplementation.sol:DataLiquidityPoolImplementation",
        "label": "activeValidatorsListsCount",
        "offset": 0,
        "slot": "20",
        "type": "t_uint256"
      },
      {
        "astId": 14769,
        "contract": "contracts/dlp/DataLiquidityPoolImplementation.sol:DataLiquidityPoolImplementation",
        "label": "_activeValidatorsLists",
        "offset": 0,
        "slot": "21",
        "type": "t_mapping(t_uint256,t_struct(AddressSet)10690_storage)"
      },
      {
        "astId": 14774,
        "contract": "contracts/dlp/DataLiquidityPoolImplementation.sol:DataLiquidityPoolImplementation",
        "label": "_files",
        "offset": 0,
        "slot": "22",
        "type": "t_mapping(t_uint256,t_struct(File)14882_storage)"
      },
      {
        "astId": 14777,
        "contract": "contracts/dlp/DataLiquidityPoolImplementation.sol:DataLiquidityPoolImplementation",
        "label": "_fileUrlHashes",
        "offset": 0,
        "slot": "23",
        "type": "t_struct(Bytes32Set)10569_storage"
      },
      {
        "astId": 14780,
        "contract": "contracts/dlp/DataLiquidityPoolImplementation.sol:DataLiquidityPoolImplementation",
        "label": "epochsCount",
        "offset": 0,
        "slot": "25",
        "type": "t_uint256"
      },
      {
        "astId": 14785,
        "contract": "contracts/dlp/DataLiquidityPoolImplementation.sol:DataLiquidityPoolImplementation",
        "label": "_epochs",
        "offset": 0,
        "slot": "26",
        "type": "t_mapping(t_uint256,t_struct(Epoch)14901_storage)"
      },
      {
        "astId": 14788,
        "contract": "contracts/dlp/DataLiquidityPoolImplementation.sol:DataLiquidityPoolImplementation",
        "label": "contributorsCount",
        "offset": 0,
        "slot": "27",
        "type": "t_uint256"
      },
      {
        "astId": 14792,
        "contract": "contracts/dlp/DataLiquidityPoolImplementation.sol:DataLiquidityPoolImplementation",
        "label": "_contributors",
        "offset": 0,
        "slot": "28",
        "type": "t_mapping(t_uint256,t_address)"
      },
      {
        "astId": 14797,
        "contract": "contracts/dlp/DataLiquidityPoolImplementation.sol:DataLiquidityPoolImplementation",
        "label": "_contributorInfo",
        "offset": 0,
        "slot": "29",
        "type": "t_mapping(t_address,t_struct(ContributorInfo)14908_storage)"
      }
    ],
    "types": {
      "t_address": {
        "encoding": "inplace",
        "label": "address",
        "numberOfBytes": "20"
      },
      "t_array(t_bytes32)dyn_storage": {
        "base": "t_bytes32",
        "encoding": "dynamic_array",
        "label": "bytes32[]",
        "numberOfBytes": "32"
      },
      "t_bool": {
        "encoding": "inplace",
        "label": "bool",
        "numberOfBytes": "1"
      },
      "t_bytes32": {
        "encoding": "inplace",
        "label": "bytes32",
        "numberOfBytes": "32"
      },
      "t_contract(IERC20)3646": {
        "encoding": "inplace",
        "label": "contract IERC20",
        "numberOfBytes": "20"
      },
      "t_enum(ValidatorStatus)14809": {
        "encoding": "inplace",
        "label": "enum IDataLiquidityPool.ValidatorStatus",
        "numberOfBytes": "1"
      },
      "t_mapping(t_address,t_struct(ContributorInfo)14908_storage)": {
        "encoding": "mapping",
        "key": "t_address",
        "label": "mapping(address => struct IDataLiquidityPool.ContributorInfo)",
        "numberOfBytes": "32",
        "value": "t_struct(ContributorInfo)14908_storage"
      },
      "t_mapping(t_address,t_struct(FileScore)14844_storage)": {
        "encoding": "mapping",
        "key": "t_address",
        "label": "mapping(address => struct IDataLiquidityPool.FileScore)",
        "numberOfBytes": "32",
        "value": "t_struct(FileScore)14844_storage"
      },
      "t_mapping(t_address,t_struct(ValidatorInfo)14829_storage)": {
        "encoding": "mapping",
        "key": "t_address",
        "label": "mapping(address => struct IDataLiquidityPool.ValidatorInfo)",
        "numberOfBytes": "32",
        "value": "t_struct(ValidatorInfo)14829_storage"
      },
      "t_mapping(t_address,t_struct(ValidatorReward)14887_storage)": {
        "encoding": "mapping",
        "key": "t_address",
        "label": "mapping(address => struct IDataLiquidityPool.ValidatorReward)",
        "numberOfBytes": "32",
        "value": "t_struct(ValidatorReward)14887_storage"
      },
      "t_mapping(t_address,t_uint256)": {
        "encoding": "mapping",
        "key": "t_address",
        "label": "mapping(address => uint256)",
        "numberOfBytes": "32",
        "value": "t_uint256"
      },
      "t_mapping(t_bytes32,t_uint256)": {
        "encoding": "mapping",
        "key": "t_bytes32",
        "label": "mapping(bytes32 => uint256)",
        "numberOfBytes": "32",
        "value": "t_uint256"
      },
      "t_mapping(t_uint256,t_address)": {
        "encoding": "mapping",
        "key": "t_uint256",
        "label": "mapping(uint256 => address)",
        "numberOfBytes": "32",
        "value": "t_address"
      },
      "t_mapping(t_uint256,t_struct(AddressSet)10690_storage)": {
        "encoding": "mapping",
        "key": "t_uint256",
        "label": "mapping(uint256 => struct EnumerableSet.AddressSet)",
        "numberOfBytes": "32",
        "value": "t_struct(AddressSet)10690_storage"
      },
      "t_mapping(t_uint256,t_struct(Epoch)14901_storage)": {
        "encoding": "mapping",
        "key": "t_uint256",
        "label": "mapping(uint256 => struct IDataLiquidityPool.Epoch)",
        "numberOfBytes": "32",
        "value": "t_struct(Epoch)14901_storage"
      },
      "t_mapping(t_uint256,t_struct(File)14882_storage)": {
        "encoding": "mapping",
        "key": "t_uint256",
        "label": "mapping(uint256 => struct IDataLiquidityPool.File)",
        "numberOfBytes": "32",
        "value": "t_struct(File)14882_storage"
      },
      "t_mapping(t_uint256,t_uint256)": {
        "encoding": "mapping",
        "key": "t_uint256",
        "label": "mapping(uint256 => uint256)",
        "numberOfBytes": "32",
        "value": "t_uint256"
      },
      "t_string_storage": {
        "encoding": "bytes",
        "label": "string",
        "numberOfBytes": "32"
      },
      "t_struct(AddressSet)10690_storage": {
        "encoding": "inplace",
        "label": "struct EnumerableSet.AddressSet",
        "members": [
          {
            "astId": 10689,
            "contract": "contracts/dlp/DataLiquidityPoolImplementation.sol:DataLiquidityPoolImplementation",
            "label": "_inner",
            "offset": 0,
            "slot": "0",
            "type": "t_struct(Set)10375_storage"
          }
        ],
        "numberOfBytes": "64"
      },
      "t_struct(Bytes32Set)10569_storage": {
        "encoding": "inplace",
        "label": "struct EnumerableSet.Bytes32Set",
        "members": [
          {
            "astId": 10568,
            "contract": "contracts/dlp/DataLiquidityPoolImplementation.sol:DataLiquidityPoolImplementation",
            "label": "_inner",
            "offset": 0,
            "slot": "0",
            "type": "t_struct(Set)10375_storage"
          }
        ],
        "numberOfBytes": "64"
      },
      "t_struct(ContributorInfo)14908_storage": {
        "encoding": "inplace",
        "label": "struct IDataLiquidityPool.ContributorInfo",
        "members": [
          {
            "astId": 14903,
            "contract": "contracts/dlp/DataLiquidityPoolImplementation.sol:DataLiquidityPoolImplementation",
            "label": "fileIdsCount",
            "offset": 0,
            "slot": "0",
            "type": "t_uint256"
          },
          {
            "astId": 14907,
            "contract": "contracts/dlp/DataLiquidityPoolImplementation.sol:DataLiquidityPoolImplementation",
            "label": "fileIds",
            "offset": 0,
            "slot": "1",
            "type": "t_mapping(t_uint256,t_uint256)"
          }
        ],
        "numberOfBytes": "64"
      },
      "t_struct(Epoch)14901_storage": {
        "encoding": "inplace",
        "label": "struct IDataLiquidityPool.Epoch",
        "members": [
          {
            "astId": 14889,
            "contract": "contracts/dlp/DataLiquidityPoolImplementation.sol:DataLiquidityPoolImplementation",
            "label": "startBlock",
            "offset": 0,
            "slot": "0",
            "type": "t_uint256"
          },
          {
            "astId": 14891,
            "contract": "contracts/dlp/DataLiquidityPoolImplementation.sol:DataLiquidityPoolImplementation",
            "label": "endBlock",
            "offset": 0,
            "slot": "1",
            "type": "t_uint256"
          },
          {
            "astId": 14893,
            "contract": "contracts/dlp/DataLiquidityPoolImplementation.sol:DataLiquidityPoolImplementation",
            "label": "reward",
            "offset": 0,
            "slot": "2",
            "type": "t_uint256"
          },
          {
            "astId": 14895,
            "contract": "contracts/dlp/DataLiquidityPoolImplementation.sol:DataLiquidityPoolImplementation",
            "label": "validatorsListId",
            "offset": 0,
            "slot": "3",
            "type": "t_uint256"
          },
          {
            "astId": 14900,
            "contract": "contracts/dlp/DataLiquidityPoolImplementation.sol:DataLiquidityPoolImplementation",
            "label": "validatorRewards",
            "offset": 0,
            "slot": "4",
            "type": "t_mapping(t_address,t_struct(ValidatorReward)14887_storage)"
          }
        ],
        "numberOfBytes": "160"
      },
      "t_struct(File)14882_storage": {
        "encoding": "inplace",
        "label": "struct IDataLiquidityPool.File",
        "members": [
          {
            "astId": 14846,
            "contract": "contracts/dlp/DataLiquidityPoolImplementation.sol:DataLiquidityPoolImplementation",
            "label": "ownerAddress",
            "offset": 0,
            "slot": "0",
            "type": "t_address"
          },
          {
            "astId": 14848,
            "contract": "contracts/dlp/DataLiquidityPoolImplementation.sol:DataLiquidityPoolImplementation",
            "label": "url",
            "offset": 0,
            "slot": "1",
            "type": "t_string_storage"
          },
          {
            "astId": 14850,
            "contract": "contracts/dlp/DataLiquidityPoolImplementation.sol:DataLiquidityPoolImplementation",
            "label": "encryptedKey",
            "offset": 0,
            "slot": "2",
            "type": "t_string_storage"
          },
          {
            "astId": 14852,
            "contract": "contracts/dlp/DataLiquidityPoolImplementation.sol:DataLiquidityPoolImplementation",
            "label": "addedTimestamp",
            "offset": 0,
            "slot": "3",
            "type": "t_uint256"
          },
          {
            "astId": 14854,
            "contract": "contracts/dlp/DataLiquidityPoolImplementation.sol:DataLiquidityPoolImplementation",
            "label": "verificationsCount",
            "offset": 0,
            "slot": "4",
            "type": "t_uint256"
          },
          {
            "astId": 14856,
            "contract": "contracts/dlp/DataLiquidityPoolImplementation.sol:DataLiquidityPoolImplementation",
            "label": "addedAtBlock",
            "offset": 0,
            "slot": "5",
            "type": "t_uint256"
          },
          {
            "astId": 14858,
            "contract": "contracts/dlp/DataLiquidityPoolImplementation.sol:DataLiquidityPoolImplementation",
            "label": "valid",
            "offset": 0,
            "slot": "6",
            "type": "t_bool"
          },
          {
            "astId": 14860,
            "contract": "contracts/dlp/DataLiquidityPoolImplementation.sol:DataLiquidityPoolImplementation",
            "label": "finalized",
            "offset": 1,
            "slot": "6",
            "type": "t_bool"
          },
          {
            "astId": 14862,
            "contract": "contracts/dlp/DataLiquidityPoolImplementation.sol:DataLiquidityPoolImplementation",
            "label": "score",
            "offset": 0,
            "slot": "7",
            "type": "t_uint256"
          },
          {
            "astId": 14864,
            "contract": "contracts/dlp/DataLiquidityPoolImplementation.sol:DataLiquidityPoolImplementation",
            "label": "authenticity",
            "offset": 0,
            "slot": "8",
            "type": "t_uint256"
          },
          {
            "astId": 14866,
            "contract": "contracts/dlp/DataLiquidityPoolImplementation.sol:DataLiquidityPoolImplementation",
            "label": "ownership",
            "offset": 0,
            "slot": "9",
            "type": "t_uint256"
          },
          {
            "astId": 14868,
            "contract": "contracts/dlp/DataLiquidityPoolImplementation.sol:DataLiquidityPoolImplementation",
            "label": "quality",
            "offset": 0,
            "slot": "10",
            "type": "t_uint256"
          },
          {
            "astId": 14870,
            "contract": "contracts/dlp/DataLiquidityPoolImplementation.sol:DataLiquidityPoolImplementation",
            "label": "uniqueness",
            "offset": 0,
            "slot": "11",
            "type": "t_uint256"
          },
          {
            "astId": 14875,
            "contract": "contracts/dlp/DataLiquidityPoolImplementation.sol:DataLiquidityPoolImplementation",
            "label": "scores",
            "offset": 0,
            "slot": "12",
            "type": "t_mapping(t_address,t_struct(FileScore)14844_storage)"
          },
          {
            "astId": 14877,
            "contract": "contracts/dlp/DataLiquidityPoolImplementation.sol:DataLiquidityPoolImplementation",
            "label": "reward",
            "offset": 0,
            "slot": "13",
            "type": "t_uint256"
          },
          {
            "astId": 14879,
            "contract": "contracts/dlp/DataLiquidityPoolImplementation.sol:DataLiquidityPoolImplementation",
            "label": "rewardWithdrawn",
            "offset": 0,
            "slot": "14",
            "type": "t_uint256"
          },
          {
            "astId": 14881,
            "contract": "contracts/dlp/DataLiquidityPoolImplementation.sol:DataLiquidityPoolImplementation",
            "label": "validatorScoreCount",
            "offset": 0,
            "slot": "15",
            "type": "t_uint256"
          }
        ],
        "numberOfBytes": "512"
      },
      "t_struct(FileScore)14844_storage": {
        "encoding": "inplace",
        "label": "struct IDataLiquidityPool.FileScore",
        "members": [
          {
            "astId": 14831,
            "contract": "contracts/dlp/DataLiquidityPoolImplementation.sol:DataLiquidityPoolImplementation",
            "label": "valid",
            "offset": 0,
            "slot": "0",
            "type": "t_bool"
          },
          {
            "astId": 14833,
            "contract": "contracts/dlp/DataLiquidityPoolImplementation.sol:DataLiquidityPoolImplementation",
            "label": "score",
            "offset": 0,
            "slot": "1",
            "type": "t_uint256"
          },
          {
            "astId": 14835,
            "contract": "contracts/dlp/DataLiquidityPoolImplementation.sol:DataLiquidityPoolImplementation",
            "label": "reportedAtBlock",
            "offset": 0,
            "slot": "2",
            "type": "t_uint256"
          },
          {
            "astId": 14837,
            "contract": "contracts/dlp/DataLiquidityPoolImplementation.sol:DataLiquidityPoolImplementation",
            "label": "authenticity",
            "offset": 0,
            "slot": "3",
            "type": "t_uint256"
          },
          {
            "astId": 14839,
            "contract": "contracts/dlp/DataLiquidityPoolImplementation.sol:DataLiquidityPoolImplementation",
            "label": "ownership",
            "offset": 0,
            "slot": "4",
            "type": "t_uint256"
          },
          {
            "astId": 14841,
            "contract": "contracts/dlp/DataLiquidityPoolImplementation.sol:DataLiquidityPoolImplementation",
            "label": "quality",
            "offset": 0,
            "slot": "5",
            "type": "t_uint256"
          },
          {
            "astId": 14843,
            "contract": "contracts/dlp/DataLiquidityPoolImplementation.sol:DataLiquidityPoolImplementation",
            "label": "uniqueness",
            "offset": 0,
            "slot": "6",
            "type": "t_uint256"
          }
        ],
        "numberOfBytes": "224"
      },
      "t_struct(Set)10375_storage": {
        "encoding": "inplace",
        "label": "struct EnumerableSet.Set",
        "members": [
          {
            "astId": 10370,
            "contract": "contracts/dlp/DataLiquidityPoolImplementation.sol:DataLiquidityPoolImplementation",
            "label": "_values",
            "offset": 0,
            "slot": "0",
            "type": "t_array(t_bytes32)dyn_storage"
          },
          {
            "astId": 10374,
            "contract": "contracts/dlp/DataLiquidityPoolImplementation.sol:DataLiquidityPoolImplementation",
            "label": "_positions",
            "offset": 0,
            "slot": "1",
            "type": "t_mapping(t_bytes32,t_uint256)"
          }
        ],
        "numberOfBytes": "64"
      },
      "t_struct(ValidatorInfo)14829_storage": {
        "encoding": "inplace",
        "label": "struct IDataLiquidityPool.ValidatorInfo",
        "members": [
          {
            "astId": 14811,
            "contract": "contracts/dlp/DataLiquidityPoolImplementation.sol:DataLiquidityPoolImplementation",
            "label": "ownerAddress",
            "offset": 0,
            "slot": "0",
            "type": "t_address"
          },
          {
            "astId": 14813,
            "contract": "contracts/dlp/DataLiquidityPoolImplementation.sol:DataLiquidityPoolImplementation",
            "label": "stakeAmount",
            "offset": 0,
            "slot": "1",
            "type": "t_uint256"
          },
          {
            "astId": 14816,
            "contract": "contracts/dlp/DataLiquidityPoolImplementation.sol:DataLiquidityPoolImplementation",
            "label": "status",
            "offset": 0,
            "slot": "2",
            "type": "t_enum(ValidatorStatus)14809"
          },
          {
            "astId": 14818,
            "contract": "contracts/dlp/DataLiquidityPoolImplementation.sol:DataLiquidityPoolImplementation",
            "label": "firstBlockNumber",
            "offset": 0,
            "slot": "3",
            "type": "t_uint256"
          },
          {
            "astId": 14820,
            "contract": "contracts/dlp/DataLiquidityPoolImplementation.sol:DataLiquidityPoolImplementation",
            "label": "lastBlockNumber",
            "offset": 0,
            "slot": "4",
            "type": "t_uint256"
          },
          {
            "astId": 14822,
            "contract": "contracts/dlp/DataLiquidityPoolImplementation.sol:DataLiquidityPoolImplementation",
            "label": "grantedAmount",
            "offset": 0,
            "slot": "5",
            "type": "t_uint256"
          },
          {
            "astId": 14824,
            "contract": "contracts/dlp/DataLiquidityPoolImplementation.sol:DataLiquidityPoolImplementation",
            "label": "lastVerifiedFile",
            "offset": 0,
            "slot": "6",
            "type": "t_uint256"
          },
          {
            "astId": 14828,
            "contract": "contracts/dlp/DataLiquidityPoolImplementation.sol:DataLiquidityPoolImplementation",
            "label": "weights",
            "offset": 0,
            "slot": "7",
            "type": "t_mapping(t_address,t_uint256)"
          }
        ],
        "numberOfBytes": "256"
      },
      "t_struct(ValidatorReward)14887_storage": {
        "encoding": "inplace",
        "label": "struct IDataLiquidityPool.ValidatorReward",
        "members": [
          {
            "astId": 14884,
            "contract": "contracts/dlp/DataLiquidityPoolImplementation.sol:DataLiquidityPoolImplementation",
            "label": "score",
            "offset": 0,
            "slot": "0",
            "type": "t_uint256"
          },
          {
            "astId": 14886,
            "contract": "contracts/dlp/DataLiquidityPoolImplementation.sol:DataLiquidityPoolImplementation",
            "label": "withdrawnAmount",
            "offset": 0,
            "slot": "1",
            "type": "t_uint256"
          }
        ],
        "numberOfBytes": "64"
      },
      "t_uint256": {
        "encoding": "inplace",
        "label": "uint256",
        "numberOfBytes": "32"
      }
    }
  }
}