{
  "address": "0xe2f9f4C758A265F792762Bc7e5FB699c5f63B5FD",
  "abi": [
    {
      "inputs": [],
      "name": "AccessControlBadConfirmation",
      "type": "error"
    },
    {
      "inputs": [
        {
          "internalType": "address",
          "name": "account",
          "type": "address"
        },
        {
          "internalType": "bytes32",
          "name": "neededRole",
          "type": "bytes32"
        }
      ],
      "name": "AccessControlUnauthorizedAccount",
      "type": "error"
    },
    {
      "inputs": [
        {
          "internalType": "address",
          "name": "target",
          "type": "address"
        }
      ],
      "name": "AddressEmptyCode",
      "type": "error"
    },
    {
      "inputs": [
        {
          "internalType": "address",
          "name": "account",
          "type": "address"
        }
      ],
      "name": "AddressInsufficientBalance",
      "type": "error"
    },
    {
      "inputs": [],
      "name": "ArityMismatch",
      "type": "error"
    },
    {
      "inputs": [],
      "name": "CurrentEpochNotInitialized",
      "type": "error"
    },
    {
      "inputs": [
        {
          "internalType": "address",
          "name": "implementation",
          "type": "address"
        }
      ],
      "name": "ERC1967InvalidImplementation",
      "type": "error"
    },
    {
      "inputs": [],
      "name": "ERC1967NonPayable",
      "type": "error"
    },
    {
      "inputs": [],
      "name": "EnforcedPause",
      "type": "error"
    },
    {
      "inputs": [],
      "name": "EpochPerformancesAlreadySet",
      "type": "error"
    },
    {
      "inputs": [],
      "name": "ExpectedPause",
      "type": "error"
    },
    {
      "inputs": [],
      "name": "FailedInnerCall",
      "type": "error"
    },
    {
      "inputs": [],
      "name": "InvalidDlpStatus",
      "type": "error"
    },
    {
      "inputs": [],
      "name": "InvalidInitialization",
      "type": "error"
    },
    {
      "inputs": [],
      "name": "InvalidPerformances",
      "type": "error"
    },
    {
      "inputs": [],
      "name": "InvalidStakeAmount",
      "type": "error"
    },
    {
      "inputs": [],
      "name": "InvalidUnstakeAmount",
      "type": "error"
    },
    {
      "inputs": [],
      "name": "NotAllowed",
      "type": "error"
    },
    {
      "inputs": [],
      "name": "NotDlpOwner",
      "type": "error"
    },
    {
      "inputs": [],
      "name": "NotInitializing",
      "type": "error"
    },
    {
      "inputs": [],
      "name": "NothingToClaim",
      "type": "error"
    },
    {
      "inputs": [
        {
          "internalType": "address",
          "name": "owner",
          "type": "address"
        }
      ],
      "name": "OwnableInvalidOwner",
      "type": "error"
    },
    {
      "inputs": [
        {
          "internalType": "address",
          "name": "account",
          "type": "address"
        }
      ],
      "name": "OwnableUnauthorizedAccount",
      "type": "error"
    },
    {
      "inputs": [],
      "name": "ReentrancyGuardReentrantCall",
      "type": "error"
    },
    {
      "inputs": [
        {
          "internalType": "address",
          "name": "token",
          "type": "address"
        }
      ],
      "name": "SafeERC20FailedOperation",
      "type": "error"
    },
    {
      "inputs": [],
      "name": "TooManyDlps",
      "type": "error"
    },
    {
      "inputs": [],
      "name": "UUPSUnauthorizedCallContext",
      "type": "error"
    },
    {
      "inputs": [
        {
          "internalType": "bytes32",
          "name": "slot",
          "type": "bytes32"
        }
      ],
      "name": "UUPSUnsupportedProxiableUUID",
      "type": "error"
    },
    {
      "inputs": [],
      "name": "WithdrawNotAllowed",
      "type": "error"
    },
    {
      "anonymous": false,
      "inputs": [
        {
          "indexed": true,
          "internalType": "uint256",
          "name": "dlpId",
          "type": "uint256"
        }
      ],
      "name": "DlpDeregistered",
      "type": "event"
    },
    {
      "anonymous": false,
      "inputs": [
        {
          "indexed": true,
          "internalType": "uint256",
          "name": "dlpId",
          "type": "uint256"
        },
        {
          "indexed": false,
          "internalType": "uint256",
          "name": "unstakedAmount",
          "type": "uint256"
        },
        {
          "indexed": false,
          "internalType": "uint256",
          "name": "penaltyAmount",
          "type": "uint256"
        }
      ],
      "name": "DlpDeregisteredByOwner",
      "type": "event"
    },
    {
      "anonymous": false,
      "inputs": [
        {
          "indexed": true,
          "internalType": "uint256",
          "name": "dlpId",
          "type": "uint256"
        },
        {
          "indexed": true,
          "internalType": "address",
          "name": "dlpAddress",
          "type": "address"
        },
        {
          "indexed": true,
          "internalType": "address",
          "name": "ownerAddress",
          "type": "address"
        }
      ],
      "name": "DlpRegistered",
      "type": "event"
    },
    {
      "anonymous": false,
      "inputs": [
        {
          "indexed": false,
          "internalType": "uint256",
          "name": "epochId",
          "type": "uint256"
        }
      ],
      "name": "EpochCreated",
      "type": "event"
    },
    {
      "anonymous": false,
      "inputs": [
        {
          "indexed": false,
          "internalType": "uint256",
          "name": "epochId",
          "type": "uint256"
        }
      ],
      "name": "EpochPerformancesSaved",
      "type": "event"
    },
    {
      "anonymous": false,
      "inputs": [
        {
          "indexed": false,
          "internalType": "uint256",
          "name": "newEpochRewardAmount",
          "type": "uint256"
        }
      ],
      "name": "EpochRewardAmountUpdated",
      "type": "event"
    },
    {
      "anonymous": false,
      "inputs": [
        {
          "indexed": false,
          "internalType": "address",
          "name": "staker",
          "type": "address"
        },
        {
          "indexed": false,
          "internalType": "uint256",
          "name": "epochId",
          "type": "uint256"
        },
        {
          "indexed": false,
          "internalType": "uint256",
          "name": "dlpId",
          "type": "uint256"
        },
        {
          "indexed": false,
          "internalType": "uint256",
          "name": "claimAmount",
          "type": "uint256"
        }
      ],
      "name": "EpochRewardClaimed",
      "type": "event"
    },
    {
      "anonymous": false,
      "inputs": [
        {
          "indexed": false,
          "internalType": "uint256",
          "name": "newEpochSize",
          "type": "uint256"
        }
      ],
      "name": "EpochSizeUpdated",
      "type": "event"
    },
    {
      "anonymous": false,
      "inputs": [
        {
          "indexed": false,
          "internalType": "uint64",
          "name": "version",
          "type": "uint64"
        }
      ],
      "name": "Initialized",
      "type": "event"
    },
    {
      "anonymous": false,
      "inputs": [
        {
          "indexed": false,
          "internalType": "uint256",
          "name": "newMaxNumberOfDlps",
          "type": "uint256"
        }
      ],
      "name": "MaxNumberOfDlpsUpdated",
      "type": "event"
    },
    {
      "anonymous": false,
      "inputs": [
        {
          "indexed": false,
          "internalType": "uint256",
          "name": "newMinDlpStakeAmount",
          "type": "uint256"
        }
      ],
      "name": "MinDlpStakeAmountUpdated",
      "type": "event"
    },
    {
      "anonymous": false,
      "inputs": [
        {
          "indexed": true,
          "internalType": "address",
          "name": "previousOwner",
          "type": "address"
        },
        {
          "indexed": true,
          "internalType": "address",
          "name": "newOwner",
          "type": "address"
        }
      ],
      "name": "OwnershipTransferStarted",
      "type": "event"
    },
    {
      "anonymous": false,
      "inputs": [
        {
          "indexed": true,
          "internalType": "address",
          "name": "previousOwner",
          "type": "address"
        },
        {
          "indexed": true,
          "internalType": "address",
          "name": "newOwner",
          "type": "address"
        }
      ],
      "name": "OwnershipTransferred",
      "type": "event"
    },
    {
      "anonymous": false,
      "inputs": [
        {
          "indexed": false,
          "internalType": "address",
          "name": "account",
          "type": "address"
        }
      ],
      "name": "Paused",
      "type": "event"
    },
    {
      "anonymous": false,
      "inputs": [
        {
          "indexed": true,
          "internalType": "bytes32",
          "name": "role",
          "type": "bytes32"
        },
        {
          "indexed": true,
          "internalType": "bytes32",
          "name": "previousAdminRole",
          "type": "bytes32"
        },
        {
          "indexed": true,
          "internalType": "bytes32",
          "name": "newAdminRole",
          "type": "bytes32"
        }
      ],
      "name": "RoleAdminChanged",
      "type": "event"
    },
    {
      "anonymous": false,
      "inputs": [
        {
          "indexed": true,
          "internalType": "bytes32",
          "name": "role",
          "type": "bytes32"
        },
        {
          "indexed": true,
          "internalType": "address",
          "name": "account",
          "type": "address"
        },
        {
          "indexed": true,
          "internalType": "address",
          "name": "sender",
          "type": "address"
        }
      ],
      "name": "RoleGranted",
      "type": "event"
    },
    {
      "anonymous": false,
      "inputs": [
        {
          "indexed": true,
          "internalType": "bytes32",
          "name": "role",
          "type": "bytes32"
        },
        {
          "indexed": true,
          "internalType": "address",
          "name": "account",
          "type": "address"
        },
        {
          "indexed": true,
          "internalType": "address",
          "name": "sender",
          "type": "address"
        }
      ],
      "name": "RoleRevoked",
      "type": "event"
    },
    {
      "anonymous": false,
      "inputs": [
        {
          "indexed": false,
          "internalType": "uint256[]",
          "name": "dlpIds",
          "type": "uint256[]"
        },
        {
          "indexed": false,
          "internalType": "uint256[]",
          "name": "scores",
          "type": "uint256[]"
        }
      ],
      "name": "ScoresUpdated",
      "type": "event"
    },
    {
      "anonymous": false,
      "inputs": [
        {
          "indexed": true,
          "internalType": "address",
          "name": "staker",
          "type": "address"
        },
        {
          "indexed": true,
          "internalType": "uint256",
          "name": "dlpId",
          "type": "uint256"
        },
        {
          "indexed": false,
          "internalType": "uint256",
          "name": "amount",
          "type": "uint256"
        }
      ],
      "name": "Staked",
      "type": "event"
    },
    {
      "anonymous": false,
      "inputs": [
        {
          "indexed": false,
          "internalType": "address",
          "name": "account",
          "type": "address"
        }
      ],
      "name": "Unpaused",
      "type": "event"
    },
    {
      "anonymous": false,
      "inputs": [
        {
          "indexed": true,
          "internalType": "address",
          "name": "staker",
          "type": "address"
        },
        {
          "indexed": true,
          "internalType": "uint256",
          "name": "dlpId",
          "type": "uint256"
        },
        {
          "indexed": false,
          "internalType": "uint256",
          "name": "amount",
          "type": "uint256"
        }
      ],
      "name": "Unstaked",
      "type": "event"
    },
    {
      "anonymous": false,
      "inputs": [
        {
          "indexed": true,
          "internalType": "address",
          "name": "implementation",
          "type": "address"
        }
      ],
      "name": "Upgraded",
      "type": "event"
    },
    {
      "inputs": [],
      "name": "DEFAULT_ADMIN_ROLE",
      "outputs": [
        {
          "internalType": "bytes32",
          "name": "",
          "type": "bytes32"
        }
      ],
      "stateMutability": "view",
      "type": "function"
    },
    {
      "inputs": [],
      "name": "UPGRADE_INTERFACE_VERSION",
      "outputs": [
        {
          "internalType": "string",
          "name": "",
          "type": "string"
        }
      ],
      "stateMutability": "view",
      "type": "function"
    },
    {
      "inputs": [],
      "name": "acceptOwnership",
      "outputs": [],
      "stateMutability": "nonpayable",
      "type": "function"
    },
    {
      "inputs": [],
      "name": "addRewardForDlps",
      "outputs": [],
      "stateMutability": "payable",
      "type": "function"
    },
    {
      "inputs": [
        {
          "internalType": "uint256",
          "name": "epochNumber",
          "type": "uint256"
        },
        {
          "internalType": "uint256",
          "name": "dlpId",
          "type": "uint256"
        }
      ],
      "name": "claimReward",
      "outputs": [],
      "stateMutability": "nonpayable",
      "type": "function"
    },
    {
      "inputs": [],
      "name": "createEpochs",
      "outputs": [],
      "stateMutability": "nonpayable",
      "type": "function"
    },
    {
      "inputs": [
        {
          "internalType": "uint256",
          "name": "blockNumber",
          "type": "uint256"
        }
      ],
      "name": "createEpochsUntilBlockNumber",
      "outputs": [],
      "stateMutability": "nonpayable",
      "type": "function"
    },
    {
      "inputs": [
        {
          "internalType": "uint256",
          "name": "dlpId",
          "type": "uint256"
        }
      ],
      "name": "deregisterDlp",
      "outputs": [],
      "stateMutability": "nonpayable",
      "type": "function"
    },
    {
      "inputs": [
        {
          "internalType": "uint256",
          "name": "dlpId",
          "type": "uint256"
        },
        {
          "internalType": "uint256",
          "name": "unstakeAmount",
          "type": "uint256"
        }
      ],
      "name": "deregisterDlpByOwner",
      "outputs": [],
      "stateMutability": "nonpayable",
      "type": "function"
    },
    {
      "inputs": [
        {
          "internalType": "address",
          "name": "",
          "type": "address"
        }
      ],
      "name": "dlpIds",
      "outputs": [
        {
          "internalType": "uint256",
          "name": "",
          "type": "uint256"
        }
      ],
      "stateMutability": "view",
      "type": "function"
    },
    {
      "inputs": [
        {
          "internalType": "uint256",
          "name": "dlpId",
          "type": "uint256"
        }
      ],
      "name": "dlps",
      "outputs": [
        {
          "components": [
            {
              "internalType": "uint256",
              "name": "id",
              "type": "uint256"
            },
            {
              "internalType": "address",
              "name": "dlpAddress",
              "type": "address"
            },
            {
              "internalType": "address",
              "name": "ownerAddress",
              "type": "address"
            },
            {
              "internalType": "uint256",
              "name": "stakeAmount",
              "type": "uint256"
            },
            {
              "internalType": "enum IDataLiquidityPoolsRoot.DlpStatus",
              "name": "status",
              "type": "uint8"
            },
            {
              "internalType": "uint256",
              "name": "registrationBlockNumber",
              "type": "uint256"
            },
            {
              "internalType": "uint256",
              "name": "grantedAmount",
              "type": "uint256"
            }
          ],
          "internalType": "struct IDataLiquidityPoolsRoot.DlpResponse",
          "name": "",
          "type": "tuple"
        }
      ],
      "stateMutability": "view",
      "type": "function"
    },
    {
      "inputs": [
        {
          "internalType": "address",
          "name": "dlpAddress",
          "type": "address"
        }
      ],
      "name": "dlpsByAddress",
      "outputs": [
        {
          "components": [
            {
              "internalType": "uint256",
              "name": "id",
              "type": "uint256"
            },
            {
              "internalType": "address",
              "name": "dlpAddress",
              "type": "address"
            },
            {
              "internalType": "address",
              "name": "ownerAddress",
              "type": "address"
            },
            {
              "internalType": "uint256",
              "name": "stakeAmount",
              "type": "uint256"
            },
            {
              "internalType": "enum IDataLiquidityPoolsRoot.DlpStatus",
              "name": "status",
              "type": "uint8"
            },
            {
              "internalType": "uint256",
              "name": "registrationBlockNumber",
              "type": "uint256"
            },
            {
              "internalType": "uint256",
              "name": "grantedAmount",
              "type": "uint256"
            }
          ],
          "internalType": "struct IDataLiquidityPoolsRoot.DlpResponse",
          "name": "",
          "type": "tuple"
        }
      ],
      "stateMutability": "view",
      "type": "function"
    },
    {
      "inputs": [],
      "name": "dlpsCount",
      "outputs": [
        {
          "internalType": "uint256",
          "name": "",
          "type": "uint256"
        }
      ],
      "stateMutability": "view",
      "type": "function"
    },
    {
      "inputs": [
        {
          "internalType": "uint256",
          "name": "epochId",
          "type": "uint256"
        },
        {
          "internalType": "uint256",
          "name": "dlpId",
          "type": "uint256"
        }
      ],
      "name": "epochDlps",
      "outputs": [
        {
          "components": [
            {
              "internalType": "uint256",
              "name": "ttf",
              "type": "uint256"
            },
            {
              "internalType": "uint256",
              "name": "tfc",
              "type": "uint256"
            },
            {
              "internalType": "uint256",
              "name": "vdu",
              "type": "uint256"
            },
            {
              "internalType": "uint256",
              "name": "uw",
              "type": "uint256"
            },
            {
              "internalType": "uint256",
              "name": "stakedAmount",
              "type": "uint256"
            },
            {
              "internalType": "uint256",
              "name": "rewardAmount",
              "type": "uint256"
            }
          ],
          "internalType": "struct IDataLiquidityPoolsRoot.EpochDlp",
          "name": "",
          "type": "tuple"
        }
      ],
      "stateMutability": "view",
      "type": "function"
    },
    {
      "inputs": [],
      "name": "epochRewardAmount",
      "outputs": [
        {
          "internalType": "uint256",
          "name": "",
          "type": "uint256"
        }
      ],
      "stateMutability": "view",
      "type": "function"
    },
    {
      "inputs": [],
      "name": "epochSize",
      "outputs": [
        {
          "internalType": "uint256",
          "name": "",
          "type": "uint256"
        }
      ],
      "stateMutability": "view",
      "type": "function"
    },
    {
      "inputs": [
        {
          "internalType": "uint256",
          "name": "epochId",
          "type": "uint256"
        }
      ],
      "name": "epochs",
      "outputs": [
        {
          "components": [
            {
              "internalType": "uint256",
              "name": "startBlock",
              "type": "uint256"
            },
            {
              "internalType": "uint256",
              "name": "endBlock",
              "type": "uint256"
            },
            {
              "internalType": "uint256",
              "name": "reward",
              "type": "uint256"
            },
            {
              "internalType": "uint256[]",
              "name": "dlpIds",
              "type": "uint256[]"
            }
          ],
          "internalType": "struct IDataLiquidityPoolsRoot.EpochResponse",
          "name": "",
          "type": "tuple"
        }
      ],
      "stateMutability": "view",
      "type": "function"
    },
    {
      "inputs": [],
      "name": "epochsCount",
      "outputs": [
        {
          "internalType": "uint256",
          "name": "",
          "type": "uint256"
        }
      ],
      "stateMutability": "view",
      "type": "function"
    },
    {
      "inputs": [
        {
          "internalType": "bytes32",
          "name": "role",
          "type": "bytes32"
        }
      ],
      "name": "getRoleAdmin",
      "outputs": [
        {
          "internalType": "bytes32",
          "name": "",
          "type": "bytes32"
        }
      ],
      "stateMutability": "view",
      "type": "function"
    },
    {
      "inputs": [
        {
          "internalType": "uint256",
          "name": "numberOfDlps",
          "type": "uint256"
        }
      ],
      "name": "getTopDlpsIds",
      "outputs": [
        {
          "internalType": "uint256[]",
          "name": "",
          "type": "uint256[]"
        }
      ],
      "stateMutability": "view",
      "type": "function"
    },
    {
      "inputs": [
        {
          "internalType": "bytes32",
          "name": "role",
          "type": "bytes32"
        },
        {
          "internalType": "address",
          "name": "account",
          "type": "address"
        }
      ],
      "name": "grantRole",
      "outputs": [],
      "stateMutability": "nonpayable",
      "type": "function"
    },
    {
      "inputs": [
        {
          "internalType": "bytes32",
          "name": "role",
          "type": "bytes32"
        },
        {
          "internalType": "address",
          "name": "account",
          "type": "address"
        }
      ],
      "name": "hasRole",
      "outputs": [
        {
          "internalType": "bool",
          "name": "",
          "type": "bool"
        }
      ],
      "stateMutability": "view",
      "type": "function"
    },
    {
      "inputs": [
        {
          "components": [
            {
              "internalType": "address payable",
              "name": "ownerAddress",
              "type": "address"
            },
            {
              "internalType": "uint256",
              "name": "newMaxNumberOfDlps",
              "type": "uint256"
            },
            {
              "internalType": "uint256",
              "name": "newMinDlpStakeAmount",
              "type": "uint256"
            },
            {
              "internalType": "uint256",
              "name": "startBlock",
              "type": "uint256"
            },
            {
              "internalType": "uint256",
              "name": "newEpochSize",
              "type": "uint256"
            },
            {
              "internalType": "uint256",
              "name": "newEpochRewardAmount",
              "type": "uint256"
            }
          ],
          "internalType": "struct DataLiquidityPoolsRootImplementation.InitParams",
          "name": "params",
          "type": "tuple"
        }
      ],
      "name": "initialize",
      "outputs": [],
      "stateMutability": "nonpayable",
      "type": "function"
    },
    {
      "inputs": [],
      "name": "maxNumberOfDlps",
      "outputs": [
        {
          "internalType": "uint256",
          "name": "",
          "type": "uint256"
        }
      ],
      "stateMutability": "view",
      "type": "function"
    },
    {
      "inputs": [],
      "name": "minDlpStakeAmount",
      "outputs": [
        {
          "internalType": "uint256",
          "name": "",
          "type": "uint256"
        }
      ],
      "stateMutability": "view",
      "type": "function"
    },
    {
      "inputs": [],
      "name": "owner",
      "outputs": [
        {
          "internalType": "address",
          "name": "",
          "type": "address"
        }
      ],
      "stateMutability": "view",
      "type": "function"
    },
    {
      "inputs": [],
      "name": "pause",
      "outputs": [],
      "stateMutability": "nonpayable",
      "type": "function"
    },
    {
      "inputs": [],
      "name": "paused",
      "outputs": [
        {
          "internalType": "bool",
          "name": "",
          "type": "bool"
        }
      ],
      "stateMutability": "view",
      "type": "function"
    },
    {
      "inputs": [],
      "name": "pendingOwner",
      "outputs": [
        {
          "internalType": "address",
          "name": "",
          "type": "address"
        }
      ],
      "stateMutability": "view",
      "type": "function"
    },
    {
      "inputs": [],
      "name": "proxiableUUID",
      "outputs": [
        {
          "internalType": "bytes32",
          "name": "",
          "type": "bytes32"
        }
      ],
      "stateMutability": "view",
      "type": "function"
    },
    {
      "inputs": [
        {
          "internalType": "address",
          "name": "dlpAddress",
          "type": "address"
        },
        {
          "internalType": "address payable",
          "name": "dlpOwnerAddress",
          "type": "address"
        },
        {
          "internalType": "bool",
          "name": "granted",
          "type": "bool"
        }
      ],
      "name": "registerDlp",
      "outputs": [],
      "stateMutability": "payable",
      "type": "function"
    },
    {
      "inputs": [],
      "name": "registeredDlps",
      "outputs": [
        {
          "internalType": "uint256[]",
          "name": "",
          "type": "uint256[]"
        }
      ],
      "stateMutability": "view",
      "type": "function"
    },
    {
      "inputs": [],
      "name": "renounceOwnership",
      "outputs": [],
      "stateMutability": "nonpayable",
      "type": "function"
    },
    {
      "inputs": [
        {
          "internalType": "bytes32",
          "name": "role",
          "type": "bytes32"
        },
        {
          "internalType": "address",
          "name": "callerConfirmation",
          "type": "address"
        }
      ],
      "name": "renounceRole",
      "outputs": [],
      "stateMutability": "nonpayable",
      "type": "function"
    },
    {
      "inputs": [
        {
          "internalType": "bytes32",
          "name": "role",
          "type": "bytes32"
        },
        {
          "internalType": "address",
          "name": "account",
          "type": "address"
        }
      ],
      "name": "revokeRole",
      "outputs": [],
      "stateMutability": "nonpayable",
      "type": "function"
    },
    {
      "inputs": [
        {
          "internalType": "uint256",
          "name": "epochId",
          "type": "uint256"
        },
        {
          "components": [
            {
              "internalType": "uint256",
              "name": "dlpId",
              "type": "uint256"
            },
            {
              "internalType": "uint256",
              "name": "ttf",
              "type": "uint256"
            },
            {
              "internalType": "uint256",
              "name": "tfc",
              "type": "uint256"
            },
            {
              "internalType": "uint256",
              "name": "vdu",
              "type": "uint256"
            },
            {
              "internalType": "uint256",
              "name": "uw",
              "type": "uint256"
            }
          ],
          "internalType": "struct IDataLiquidityPoolsRoot.DlpPerformance[]",
          "name": "dlpPerformances",
          "type": "tuple[]"
        }
      ],
      "name": "saveEpochPerformances",
      "outputs": [],
      "stateMutability": "nonpayable",
      "type": "function"
    },
    {
      "inputs": [
        {
          "internalType": "uint256",
          "name": "dlpId",
          "type": "uint256"
        }
      ],
      "name": "stake",
      "outputs": [],
      "stateMutability": "payable",
      "type": "function"
    },
    {
      "inputs": [
        {
          "internalType": "address",
          "name": "staker",
          "type": "address"
        },
        {
          "internalType": "uint256",
          "name": "dlpId",
          "type": "uint256"
        },
        {
          "internalType": "uint256",
          "name": "epochId",
          "type": "uint256"
        }
      ],
      "name": "stakerDlpEpochs",
      "outputs": [
        {
          "components": [
            {
              "internalType": "uint256",
              "name": "stakedAmount",
              "type": "uint256"
            },
            {
              "internalType": "uint256",
              "name": "withdrawnReward",
              "type": "uint256"
            }
          ],
          "internalType": "struct IDataLiquidityPoolsRoot.StakerDlpEpoch",
          "name": "",
          "type": "tuple"
        }
      ],
      "stateMutability": "view",
      "type": "function"
    },
    {
      "inputs": [
        {
          "internalType": "address",
          "name": "staker",
          "type": "address"
        },
        {
          "internalType": "uint256",
          "name": "dlpId",
          "type": "uint256"
        }
      ],
      "name": "stakerDlps",
      "outputs": [
        {
          "internalType": "uint256",
          "name": "",
          "type": "uint256"
        }
      ],
      "stateMutability": "view",
      "type": "function"
    },
    {
      "inputs": [
        {
          "internalType": "address",
          "name": "staker",
          "type": "address"
        }
      ],
      "name": "stakers",
      "outputs": [
        {
          "internalType": "uint256",
          "name": "",
          "type": "uint256"
        }
      ],
      "stateMutability": "view",
      "type": "function"
    },
    {
      "inputs": [
        {
          "internalType": "bytes4",
          "name": "interfaceId",
          "type": "bytes4"
        }
      ],
      "name": "supportsInterface",
      "outputs": [
        {
          "internalType": "bool",
          "name": "",
          "type": "bool"
        }
      ],
      "stateMutability": "view",
      "type": "function"
    },
    {
      "inputs": [],
      "name": "totalDlpsRewardAmount",
      "outputs": [
        {
          "internalType": "uint256",
          "name": "",
          "type": "uint256"
        }
      ],
      "stateMutability": "view",
      "type": "function"
    },
    {
      "inputs": [
        {
          "internalType": "address",
          "name": "newOwner",
          "type": "address"
        }
      ],
      "name": "transferOwnership",
      "outputs": [],
      "stateMutability": "nonpayable",
      "type": "function"
    },
    {
      "inputs": [],
      "name": "unpause",
      "outputs": [],
      "stateMutability": "nonpayable",
      "type": "function"
    },
    {
      "inputs": [
        {
          "internalType": "uint256",
          "name": "dlpId",
          "type": "uint256"
        },
        {
          "internalType": "uint256",
          "name": "amount",
          "type": "uint256"
        }
      ],
      "name": "unstake",
      "outputs": [],
      "stateMutability": "nonpayable",
      "type": "function"
    },
    {
      "inputs": [
        {
          "internalType": "uint256",
          "name": "newEpochRewardAmount",
          "type": "uint256"
        }
      ],
      "name": "updateEpochRewardAmount",
      "outputs": [],
      "stateMutability": "nonpayable",
      "type": "function"
    },
    {
      "inputs": [
        {
          "internalType": "uint256",
          "name": "newEpochSize",
          "type": "uint256"
        }
      ],
      "name": "updateEpochSize",
      "outputs": [],
      "stateMutability": "nonpayable",
      "type": "function"
    },
    {
      "inputs": [
        {
          "internalType": "uint256",
          "name": "newMaxNumberOfDlps",
          "type": "uint256"
        }
      ],
      "name": "updateMaxNumberOfDlps",
      "outputs": [],
      "stateMutability": "nonpayable",
      "type": "function"
    },
    {
      "inputs": [
        {
          "internalType": "uint256",
          "name": "newMinDlpStakeAmount",
          "type": "uint256"
        }
      ],
      "name": "updateMinDlpStakeAmount",
      "outputs": [],
      "stateMutability": "nonpayable",
      "type": "function"
    },
    {
      "inputs": [
        {
          "internalType": "address",
          "name": "newImplementation",
          "type": "address"
        },
        {
          "internalType": "bytes",
          "name": "data",
          "type": "bytes"
        }
      ],
      "name": "upgradeToAndCall",
      "outputs": [],
      "stateMutability": "payable",
      "type": "function"
    },
    {
      "inputs": [],
      "name": "version",
      "outputs": [
        {
          "internalType": "uint256",
          "name": "",
          "type": "uint256"
        }
      ],
      "stateMutability": "pure",
      "type": "function"
    },
    {
      "inputs": [
        {
          "internalType": "address",
          "name": "_token",
          "type": "address"
        },
        {
          "internalType": "address",
          "name": "_to",
          "type": "address"
        },
        {
          "internalType": "uint256",
          "name": "_amount",
          "type": "uint256"
        }
      ],
      "name": "withdraw",
      "outputs": [
        {
          "internalType": "bool",
          "name": "success",
          "type": "bool"
        }
      ],
      "stateMutability": "nonpayable",
      "type": "function"
    }
  ],
  "transactionHash": "0x1cc206676d783ab9fc7aa896e91d4ebcda3baa7652c8497f7f4964e012cb1fed",
  "args": [],
  "numDeployments": 1,
  "solcInputHash": "6386c50b05ab32115f0a06c22f22f29f",
  "bytecode": "0x60a06040523060805234801561001457600080fd5b50608051613a3a61003e6000396000818161274e0152818161277701526128b80152613a3a6000f3fe6080604052600436106102ff5760003560e01c806379ba509711610190578063b3a7b9da116100dc578063d547741f11610095578063e7a622761161006f578063e7a6227614610922578063ea83e47b146109b3578063eaeb2ec8146109d3578063f2fde38b146109f357600080fd5b8063d547741f146108cd578063d9caed12146108ed578063e30c39781461090d57600080fd5b8063b3a7b9da146107b1578063b4fcea1d1461081d578063c06020b01461083d578063c6b61e4c1461086a578063ca4ab3a214610897578063d4e01872146108ad57600080fd5b806391d1485411610149578063a4e9196a11610123578063a4e9196a1461072d578063a694fc3a1461074d578063aca456be14610760578063ad3cb1cc1461077357600080fd5b806391d14854146106d85780639e2c8a5b146106f8578063a217fddf1461071857600080fd5b806379ba5097146106155780638456cb591461062a57806386bb8f371461063f5780638da5cb5b1461065f5780639168ae721461068c578063916e1c57146106c257600080fd5b80634f1ef2861161024f5780635c975abb11610208578063715018a6116101e2578063715018a6146105ab57806373824a0e146105c0578063765bdea0146105e057806376bc98691461060057600080fd5b80635c975abb1461055057806368ed41ed146105755780636b289f5b1461058b57600080fd5b80634f1ef286146104c857806351c144a4146104db578063526fda59146104f157806352d1902d1461051157806354fd4d5014610526578063572d356e1461053a57600080fd5b80632523ca7f116102bc5780633f2f924f116102965780633f2f924f146104445780633f4ba83a14610466578063439b37561461047b57806349175e76146104a857600080fd5b80632523ca7f146103ee5780632f2ff15d1461040457806336568abe1461042457600080fd5b806301ffc9a71461030457806307813e061461033957806308a3002b1461038e578063132c58e9146103b05780631430091c146103c6578063248a9ca3146103ce575b600080fd5b34801561031057600080fd5b5061032461031f366004613273565b610a13565b60405190151581526020015b60405180910390f35b34801561034557600080fd5b506103806103543660046132b2565b6001600160a01b03919091166000908152600c6020908152604080832093835260019093019052205490565b604051908152602001610330565b34801561039a57600080fd5b506103ae6103a936600461334e565b610a4a565b005b3480156103bc57600080fd5b5061038060035481565b6103ae610c05565b3480156103da57600080fd5b506103806103e93660046133d1565b610c3a565b3480156103fa57600080fd5b5061038060005481565b34801561041057600080fd5b506103ae61041f3660046133ea565b610c5c565b34801561043057600080fd5b506103ae61043f3660046133ea565b610c7e565b34801561045057600080fd5b50610459610cb6565b604051610330919061341a565b34801561047257600080fd5b506103ae610cc7565b34801561048757600080fd5b5061049b61049636600461345e565b610cd7565b6040516103309190613491565b3480156104b457600080fd5b506103ae6104c336600461350d565b610d39565b6103ae6104d636600461352f565b610fb6565b3480156104e757600080fd5b5061038060015481565b3480156104fd57600080fd5b506103ae61050c3660046133d1565b610fd1565b34801561051d57600080fd5b50610380611015565b34801561053257600080fd5b506001610380565b34801561054657600080fd5b5061038060045481565b34801561055c57600080fd5b506000805160206139c58339815191525460ff16610324565b34801561058157600080fd5b5061038060055481565b34801561059757600080fd5b506103ae6105a63660046133d1565b611032565b3480156105b757600080fd5b506103ae611077565b3480156105cc57600080fd5b506104596105db3660046133d1565b611089565b3480156105ec57600080fd5b506103ae6105fb3660046135d7565b6114a4565b34801561060c57600080fd5b506103ae61189f565b34801561062157600080fd5b506103ae6118a8565b34801561063657600080fd5b506103ae6118f5565b34801561064b57600080fd5b506103ae61065a36600461350d565b611905565b34801561066b57600080fd5b50610674611a74565b6040516001600160a01b039091168152602001610330565b34801561069857600080fd5b506103806106a736600461345e565b6001600160a01b03166000908152600c602052604090205490565b3480156106ce57600080fd5b50610380600a5481565b3480156106e457600080fd5b506103246106f33660046133ea565b611aa9565b34801561070457600080fd5b506103ae61071336600461350d565b611ae1565b34801561072457600080fd5b50610380600081565b34801561073957600080fd5b506103ae6107483660046133d1565b611b5f565b6103ae61075b3660046133d1565b611b9c565b6103ae61076e3660046136d9565b611bdc565b34801561077f57600080fd5b506107a4604051806040016040528060058152602001640352e302e360dc1b81525081565b6040516103309190613748565b3480156107bd57600080fd5b506107d16107cc36600461350d565b611d82565b6040516103309190600060c082019050825182526020830151602083015260408301516040830152606083015160608301526080830151608083015260a083015160a083015292915050565b34801561082957600080fd5b506103ae6108383660046133d1565b611e1e565b34801561084957600080fd5b5061038061085836600461345e565b60076020526000908152604090205481565b34801561087657600080fd5b5061088a6108853660046133d1565b611f0b565b604051610330919061377b565b3480156108a357600080fd5b5061038060025481565b3480156108b957600080fd5b506103ae6108c83660046133d1565b611f88565b3480156108d957600080fd5b506103ae6108e83660046133ea565b611fc5565b3480156108f957600080fd5b506103246109083660046137eb565b611fe1565b34801561091957600080fd5b50610674612090565b34801561092e57600080fd5b5061099861093d36600461382c565b604080518082018252600080825260209182018190526001600160a01b03959095168552600c815281852093855260019384018152818520928552918301825292839020835180850190945280548452909101549082015290565b60408051825181526020928301519281019290925201610330565b3480156109bf57600080fd5b5061049b6109ce3660046133d1565b6120b9565b3480156109df57600080fd5b506103ae6109ee3660046133d1565b61220f565b3480156109ff57600080fd5b506103ae610a0e36600461345e565b61239f565b60006001600160e01b03198216637965db0b60e01b1480610a4457506301ffc9a760e01b6001600160e01b03198316145b92915050565b7ff0c57e16840df040f15088dc2f81fe391c3923bec73e23a9662efc9c229c6a008054600160401b810460ff16159067ffffffffffffffff16600081158015610a905750825b905060008267ffffffffffffffff166001148015610aad5750303b155b905081158015610abb575080155b15610ad95760405163f92ee8a960e01b815260040160405180910390fd5b845467ffffffffffffffff191660011785558315610b0357845460ff60401b1916600160401b1785555b610b0b612424565b610b13612424565b610b1b61242c565b610b2361243c565b610b2b612424565b602080870151600090815560408801516001908155608089015160045560a0890151600355908052600b90915260608701517fdf7de25b7f1fd6d0b5205f0e18f1f35bd7b8d84cce336588d184533ce43a6f7691610b9391610b8d9190613877565b4361244c565b81556060870151610ba690600190613877565b60018201558651610bb690612462565b508315610bfd57845460ff60401b19168555604051600181527fc7f505b2f371ae2175ee4913f4499e1f2633a7b5936321eed1cdaeb6115181d29060200160405180910390a15b505050505050565b610c0d61249a565b3460026000828254610c1f919061388a565b909155505060016000805160206139e583398151915255565b565b60009081526000805160206139a5833981519152602052604090206001015490565b610c6582610c3a565b610c6e816124e6565b610c7883836124f0565b50505050565b6001600160a01b0381163314610ca75760405163334bd91960e11b815260040160405180910390fd5b610cb18282612595565b505050565b6060610cc26008612611565b905090565b610ccf61261e565b610c38612650565b610d176040805160e08101825260008082526020820181905291810182905260608101829052906080820190815260200160008152602001600081525090565b6001600160a01b038216600090815260076020526040902054610a44906120b9565b610d4161261e565b610d4961249a565b610d5161189f565b60008281526006602052604090206003810154821115610d8457604051630103be3b60e21b815260040160405180910390fd5b6001600482015460ff166002811115610d9f57610d9f61347b565b03610dad57610dad836126aa565b6002600482015460ff166002811115610dc857610dc861347b565b14610de657604051636e1ed6c560e11b815260040160405180910390fd5b6000828260030154610df89190613877565b60028301546001600160a01b03166000908152600c602090815260408083208884526001810190925282205460038601805494955091939092839291610e3f908490613877565b9091555050815481908390600090610e58908490613877565b90915550508354600090815260018084016020908152604080842084905587548452808420600a54855290920190528120558215610ed257610e98611a74565b6001600160a01b03166108fc849081150290604051600060405180830381858888f19350505050158015610ed0573d6000803e3d6000fd5b505b8415610f165760028401546040516001600160a01b039091169086156108fc029087906000818181858888f19350505050158015610f14573d6000803e3d6000fd5b505b835460028501546040518781526001600160a01b03909116907f7fc4727e062e336010f2c282598ef5f14facb3de68cf8195c2f23e1454b2b74e9060200160405180910390a3604080518681526020810185905287917f682386a255f3de85d6d6f2b2dfd88a7cd2e198e99702f6d590d199d5353a1017910160405180910390a250505050610fb260016000805160206139e583398151915255565b5050565b610fbe612743565b610fc7826127e8565b610fb282826127f0565b610fd961261e565b60008190556040518181527fad333ea03ce4e657f8ef5f2f2480d4165184eb4c94bc6011e3bab314bf7791b7906020015b60405180910390a150565b600061101f6128ad565b5060008051602061398583398151915290565b61103a61261e565b61104261189f565b60038190556040518181527f2fe8cb48ce95af273ee232223c3a0fbda25a65208753e99801ce508751f2b7fb9060200161100a565b61107f61261e565b610c386000612462565b606060006110976008612611565b80519091506110a6848261244c565b935060008467ffffffffffffffff8111156110c3576110c36132de565b6040519080825280602002602001820160405280156110ec578160200160208202803683370190505b509050846000036110ff57949350505050565b600080846000815181106111155761111561389d565b6020026020010151836000815181106111305761113061389d565b602002602001018181525050600080600193505b888410156112b957839250600660008886815181106111655761116561389d565b602002602001015181526020019081526020016000209150600660008660018661118f9190613877565b8151811061119f5761119f61389d565b6020026020010151815260200190815260200160002090505b8160030154816003015410806111e15750816003015481600301541480156111e1575081548154115b1561127757846111f2600185613877565b815181106112025761120261389d565b602002602001015185848151811061121c5761121c61389d565b602090810291909101015282611231816138b3565b935050821561127757600660008661124a600187613877565b8151811061125a5761125a61389d565b6020026020010151815260200190815260200160002090506111b8565b8684815181106112895761128961389d565b60200260200101518584815181106112a3576112a361389d565b6020908102919091010152600190930192611144565b8893505b85841015611497576112d060018a613877565b9250600660008886815181106112e8576112e861389d565b602002602001015181526020019081526020016000209150600660008685815181106113165761131661389d565b602002602001015181526020019081526020016000209050816003015481600301541180611357575081600301548160030154148015611357575081548154105b61148c57600660008661136b600187613877565b8151811061137b5761137b61389d565b6020026020010151815260200190815260200160002090505b8160030154816003015410806113bd5750816003015481600301541480156113bd575081548154115b1561145357846113ce600185613877565b815181106113de576113de61389d565b60200260200101518584815181106113f8576113f861389d565b60209081029190910101528261140d816138b3565b9350508215611453576006600086611426600187613877565b815181106114365761143661389d565b602002602001015181526020019081526020016000209050611394565b8684815181106114655761146561389d565b602002602001015185848151811061147f5761147f61389d565b6020026020010181815250505b6001909301926112bd565b5092979650505050505050565b6114ac61261e565b6000828152600b60205260408120600301906114c7826128f6565b9050825181146114ea5760405163c21fe6bf60e01b815260040160405180910390fd5b6000848152600b6020526040812081805b848410156116f95782600501600088868151811061151b5761151b61389d565b6020026020010151600001518152602001908152602001600020915061156787858151811061154c5761154c61389d565b6020026020010151600001518761290090919063ffffffff16565b611584576040516309ffae9760e01b815260040160405180910390fd5b8684815181106115965761159661389d565b60200260200101516020015182600001819055508684815181106115bc576115bc61389d565b60200260200101516040015182600101819055508684815181106115e2576115e261389d565b60200260200101516060015182600201819055508684815181106116085761160861389d565b602002602001015160800151826003018190555086848151811061162e5761162e61389d565b602002602001015160800151601461164691906138ca565b8785815181106116585761165861389d565b602002602001015160600151603261167091906138ca565b8886815181106116825761168261389d565b602002602001015160400151600f61169a91906138ca565b8987815181106116ac576116ac61389d565b602002602001015160200151600f6116c491906138ca565b6116ce919061388a565b6116d8919061388a565b6116e2919061388a565b6116ec908261388a565b60019094019390506114fb565b8060000361170b575050505050505050565b600093505b84841015611862578260050160008886815181106117305761173061389d565b60200260200101516000015181526020019081526020016000209150600082600501541115611772576040516342b9c64560e11b815260040160405180910390fd5b80836002015488868151811061178a5761178a61389d565b60200260200101516080015160146117a291906138ca565b8987815181106117b4576117b461389d565b60200260200101516060015160326117cc91906138ca565b8a88815181106117de576117de61389d565b602002602001015160400151600f6117f691906138ca565b8b89815181106118085761180861389d565b602002602001015160200151600f61182091906138ca565b61182a919061388a565b611834919061388a565b61183e919061388a565b61184891906138ca565b61185291906138e1565b6005830155600190930192611710565b6040518881527f063c789bc6ffc3acfffa8901b15f268313f725599065c914f9607f7494c9fb919060200160405180910390a15050505050505050565b610c384361220f565b33806118b2612090565b6001600160a01b0316146118e95760405163118cdaa760e01b81526001600160a01b03821660048201526024015b60405180910390fd5b6118f281612462565b50565b6118fd61261e565b610c38612918565b61190d61249a565b6000828152600b60209081526040808320848452600590810183528184200154338452600c83528184208585526001908101845282852087865290810190935290832080548354929491926119629190613877565b9050801580611975575060008260010154115b8061197e575083155b1561199c576040516312d37ee560e31b815260040160405180910390fd5b6000868152600b602090815260408083208884526005810190925282206004810154919290916119cc88866138ca565b6119d691906138e1565b60018601819055604051909150339082156108fc029083906000818181858888f19350505050158015611a0d573d6000803e3d6000fd5b5060408051338152602081018b9052908101899052606081018290527f906ba14012f5d73ff502fc20c2a6341bed45709bd352aaee5bccd4ab73ad48ee9060800160405180910390a150505050505050610fb260016000805160206139e583398151915255565b6000807f9016d09d72d40fdae2fd8ceac6b6234c7706214fd39c1cd1e609a0528c1993005b546001600160a01b031692915050565b60009182526000805160206139a5833981519152602090815260408084206001600160a01b0393909316845291905290205460ff1690565b600a546000908152600b6020526040902060010154431115611b1657604051633970b5f360e01b815260040160405180910390fd5b336000908152600c60209081526040808320858452600101909152902054811115611b54576040516314fea1a960e11b815260040160405180910390fd5b610fb2338383612961565b611b6761261e565b60018190556040518181527fe9a6d1b35cdb834e1d3cfe94b7199407fc9dbb6d64ba6c59b30295425d86d4c19060200161100a565b600a546000908152600b6020526040902060010154431115611bd157604051633970b5f360e01b815260040160405180910390fd5b6118f2338234612ae3565b611be4612c15565b611bec61249a565b600a546000908152600b6020526040902060010154431115611c2157604051633970b5f360e01b815260040160405180910390fd5b6001600160a01b03831660009081526007602052604090205415611c5857604051636e1ed6c560e11b815260040160405180910390fd5b60058054906000611c6883613903565b90915550506005546000908152600660205260409020600154341015611ca157604051630103be3b60e21b815260040160405180910390fd5b8115611cae573460068201555b6005805482556002820180546001600160a01b038681166001600160a01b0319928316179092556001808501805493891693909216831790915560048401805460ff191690911790559054600091825260076020526040909120819055611d1790849034612ae3565b600554611d2690600890612c46565b50826001600160a01b0316846001600160a01b03166005547fe5c2985d22a121f4f7b534ee3a7ab105a620e670bb02f5d1188e20a8670f401e60405160405180910390a450610cb160016000805160206139e583398151915255565b611dbb6040518060c001604052806000815260200160008152602001600081526020016000815260200160008152602001600081525090565b506000918252600b602090815260408084209284526005928301825292839020835160c08101855281548152600182015492810192909252600281015493820193909352600383015460608201526004830154608082015291015460a082015290565b60008181526006602052604090206002015481906001600160a01b03163314611e5a57604051633387d70760e01b815260040160405180910390fd5b611e6261249a565b600a546000908152600b6020526040902060010154431115611e9757604051633970b5f360e01b815260040160405180910390fd5b6000828152600660205260409020611eae836126aa565b8060060154600003611ef357600281015481546001600160a01b039091166000818152600c60209081526040808320888452600101909152902054611ef39290612961565b50610fb260016000805160206139e583398151915255565b611f366040518060800160405280600081526020016000815260200160008152602001606081525090565b604080516080810182526000848152600b602081815284832080548552600181015482860152600281015495850195909552918690529052906060820190611f8090600301612611565b905292915050565b611f9061261e565b60048190556040518181527f3cd59cf395448ba3bfd2541dcb31ccd800b9e303281df0888a62ae5d5f673f589060200161100a565b611fce82610c3a565b611fd7816124e6565b610c788383612595565b6000611feb61261e565b611ff361249a565b6001600160a01b03841661205a576040516001600160a01b038416908390600081818185875af1925050503d806000811461204a576040519150601f19603f3d011682016040523d82523d6000602084013e61204f565b606091505b505080915050612072565b61206e6001600160a01b0385168484612c52565b5060015b61208960016000805160206139e583398151915255565b9392505050565b6000807f237e158222e3e6968b72b9db0d8043aacf074ad9f650f0d1606b4d82ee432c00611a99565b6120f96040805160e08101825260008082526020820181905291810182905260608101829052906080820190815260200160008152602001600081525090565b6000828152600660209081526040808320815160e0810183528154815260018201546001600160a01b03908116948201949094526002808301549094169281019290925260038101546060830152600481015491929091608084019160ff9091169081111561216a5761216a61347b565b600281111561217b5761217b61347b565b81526020016005820154815260200160068201548152505090506040518060e001604052808260000151815260200182602001516001600160a01b0316815260200182604001516001600160a01b0316815260200182606001518152602001826080015160028111156121f0576121f061347b565b81526020018260a0015181526020018260c00151815250915050919050565b600a546000908152600b602052604090206001810154821161222f575050565b600a545b8282600101541015612398578061224981613903565b6000818152600b6020526040902060018086015492945090925061226d919061388a565b808255600454600191612280919061388a565b61228a9190613877565b6001820155600354600282015560008054919350839181906122ab90611089565b9050600091505b805182101561235d576122ea8183815181106122d0576122d061389d565b602002602001015184600301612c4690919063ffffffff16565b50600660008284815181106123015761230161389d565b60200260200101518152602001908152602001600020600301548360050160008385815181106123335761233361389d565b602002602001015181526020019081526020016000206004018190555081806001019250506122b2565b6040518481527f0129593a287c7be892e56181ff1238eb466a2c952dc53a3029140d1f3ddc4a8d9060200160405180910390a1505050612233565b600a555050565b6123a761261e565b7f237e158222e3e6968b72b9db0d8043aacf074ad9f650f0d1606b4d82ee432c0080546001600160a01b0319166001600160a01b03831690811782556123eb611a74565b6001600160a01b03167f38d16b8cac22d99fc7c124b9cd0de2d3fa1faef420bfe791d8c362d765e2270060405160405180910390a35050565b610c38612ca4565b612434612ca4565b610c38612ced565b612444612ca4565b610c38612cf5565b600081831061245b5781612089565b5090919050565b7f237e158222e3e6968b72b9db0d8043aacf074ad9f650f0d1606b4d82ee432c0080546001600160a01b0319168155610fb282612d16565b6000805160206139e58339815191528054600119016124cc57604051633ee5aeb560e01b815260040160405180910390fd5b60029055565b60016000805160206139e583398151915255565b6118f28133612d87565b60006000805160206139a583398151915261250b8484611aa9565b61258b576000848152602082815260408083206001600160a01b03871684529091529020805460ff191660011790556125413390565b6001600160a01b0316836001600160a01b0316857f2f8788117e7eff1d82e926ec794901d17c78024a50270940304540a733656f0d60405160405180910390a46001915050610a44565b6000915050610a44565b60006000805160206139a58339815191526125b08484611aa9565b1561258b576000848152602082815260408083206001600160a01b0387168085529252808320805460ff1916905551339287917ff6391f5c32d9c69d2a47ea670b442974b53935d1edc7fd64eb21e047a839171b9190a46001915050610a44565b6060600061208983612dc0565b33612627611a74565b6001600160a01b031614610c385760405163118cdaa760e01b81523360048201526024016118e0565b612658612e1c565b6000805160206139c5833981519152805460ff191681557f5db9ee0a495bf2e6ff9c91a7834c1ba4fdd244a5e8aa4e537bd38aeae4b073aa335b6040516001600160a01b03909116815260200161100a565b6126b261189f565b60008181526006602052604090206001600482015460ff1660028111156126db576126db61347b565b146126f957604051636e1ed6c560e11b815260040160405180910390fd5b60048101805460ff19166002179055612713600883612e4c565b5060405182907fc3f4c6824ace066416e91f60e8762e0257019e0eb2e83afa4cdf62d23991e73990600090a25050565b306001600160a01b037f00000000000000000000000000000000000000000000000000000000000000001614806127ca57507f00000000000000000000000000000000000000000000000000000000000000006001600160a01b03166127be600080516020613985833981519152546001600160a01b031690565b6001600160a01b031614155b15610c385760405163703e46dd60e11b815260040160405180910390fd5b6118f261261e565b816001600160a01b03166352d1902d6040518163ffffffff1660e01b8152600401602060405180830381865afa92505050801561284a575060408051601f3d908101601f191682019092526128479181019061391c565b60015b61287257604051634c9c8ce360e01b81526001600160a01b03831660048201526024016118e0565b60008051602061398583398151915281146128a357604051632a87526960e21b8152600481018290526024016118e0565b610cb18383612e58565b306001600160a01b037f00000000000000000000000000000000000000000000000000000000000000001614610c385760405163703e46dd60e11b815260040160405180910390fd5b6000610a44825490565b60008181526001830160205260408120541515612089565b612920612c15565b6000805160206139c5833981519152805460ff191660011781557f62e78cea01bee320cd4e420270b5ea74000d11b0c9f74754ebdbfc544b05a25833612692565b6001600160a01b0383166000908152600c6020526040812080549091839183919061298d908490613877565b90915550506000838152600182016020526040812080548492906129b2908490613877565b90915550506000838152600180830160209081526040808420600a5485529092019052902054821015612a1a576000838152600180830160209081526040808420600a548552909201905281208054849290612a0f908490613877565b90915550612a3c9050565b6000838152600180830160209081526040808420600a54855290920190528120555b60008381526006602052604081206003018054849290612a5d908490613877565b90915550506040516001600160a01b0385169083156108fc029084906000818181858888f19350505050158015612a98573d6000803e3d6000fd5b5082846001600160a01b03167f7fc4727e062e336010f2c282598ef5f14facb3de68cf8195c2f23e1454b2b74e84604051612ad591815260200190565b60405180910390a350505050565b60008281526006602052604090206001600482015460ff166002811115612b0c57612b0c61347b565b14612b2a57604051636e1ed6c560e11b815260040160405180910390fd5b81816003016000828254612b3e919061388a565b90915550506001600160a01b0384166000908152600c60205260408120805490918491839190612b6f90849061388a565b9091555050600084815260018201602052604081208054859290612b9490849061388a565b90915550506000848152600180830160209081526040808420600a548552909201905281208054859290612bc990849061388a565b909155505060405183815284906001600160a01b038716907f1449c6dd7851abc30abf37f57715f492010519147cc2652fbc38202c18a6ee909060200160405180910390a35050505050565b6000805160206139c58339815191525460ff1615610c385760405163d93c066560e01b815260040160405180910390fd5b60006120898383612eae565b604080516001600160a01b038416602482015260448082018490528251808303909101815260649091019091526020810180516001600160e01b031663a9059cbb60e01b179052610cb1908490612efd565b7ff0c57e16840df040f15088dc2f81fe391c3923bec73e23a9662efc9c229c6a0054600160401b900460ff16610c3857604051631afcd79f60e31b815260040160405180910390fd5b6124d2612ca4565b612cfd612ca4565b6000805160206139c5833981519152805460ff19169055565b7f9016d09d72d40fdae2fd8ceac6b6234c7706214fd39c1cd1e609a0528c19930080546001600160a01b031981166001600160a01b03848116918217845560405192169182907f8be0079c531659141344cd1fd0a4f28419497f9722a3daafe3b4186f6b6457e090600090a3505050565b612d918282611aa9565b610fb25760405163e2517d3f60e01b81526001600160a01b0382166004820152602481018390526044016118e0565b606081600001805480602002602001604051908101604052809291908181526020018280548015612e1057602002820191906000526020600020905b815481526020019060010190808311612dfc575b50505050509050919050565b6000805160206139c58339815191525460ff16610c3857604051638dfc202b60e01b815260040160405180910390fd5b60006120898383612f60565b612e6182613049565b6040516001600160a01b038316907fbc7cd75a20ee27fd9adebab32041f755214dbc6bffa90cc0225b39da2e5c2d3b90600090a2805115612ea657610cb182826130ae565b610fb2613124565b6000818152600183016020526040812054612ef557508154600181810184556000848152602080822090930184905584548482528286019093526040902091909155610a44565b506000610a44565b6000612f126001600160a01b03841683613143565b90508051600014158015612f37575080806020019051810190612f359190613935565b155b15610cb157604051635274afe760e01b81526001600160a01b03841660048201526024016118e0565b6000818152600183016020526040812054801561258b576000612f84600183613877565b8554909150600090612f9890600190613877565b9050808214612ffd576000866000018281548110612fb857612fb861389d565b9060005260206000200154905080876000018481548110612fdb57612fdb61389d565b6000918252602080832090910192909255918252600188019052604090208390555b855486908061300e5761300e613952565b600190038181906000526020600020016000905590558560010160008681526020019081526020016000206000905560019350505050610a44565b806001600160a01b03163b60000361307f57604051634c9c8ce360e01b81526001600160a01b03821660048201526024016118e0565b60008051602061398583398151915280546001600160a01b0319166001600160a01b0392909216919091179055565b6060600080846001600160a01b0316846040516130cb9190613968565b600060405180830381855af49150503d8060008114613106576040519150601f19603f3d011682016040523d82523d6000602084013e61310b565b606091505b509150915061311b858383613151565b95945050505050565b3415610c385760405163b398979f60e01b815260040160405180910390fd5b6060612089838360006131ad565b606082613166576131618261324a565b612089565b815115801561317d57506001600160a01b0384163b155b156131a657604051639996b31560e01b81526001600160a01b03851660048201526024016118e0565b5080612089565b6060814710156131d25760405163cd78605960e01b81523060048201526024016118e0565b600080856001600160a01b031684866040516131ee9190613968565b60006040518083038185875af1925050503d806000811461322b576040519150601f19603f3d011682016040523d82523d6000602084013e613230565b606091505b5091509150613240868383613151565b9695505050505050565b80511561325a5780518082602001fd5b604051630a12f52160e11b815260040160405180910390fd5b60006020828403121561328557600080fd5b81356001600160e01b03198116811461208957600080fd5b6001600160a01b03811681146118f257600080fd5b600080604083850312156132c557600080fd5b82356132d08161329d565b946020939093013593505050565b634e487b7160e01b600052604160045260246000fd5b60405160a0810167ffffffffffffffff81118282101715613317576133176132de565b60405290565b604051601f8201601f1916810167ffffffffffffffff81118282101715613346576133466132de565b604052919050565b600060c0828403121561336057600080fd5b60405160c0810181811067ffffffffffffffff82111715613383576133836132de565b60405282356133918161329d565b808252506020830135602082015260408301356040820152606083013560608201526080830135608082015260a083013560a08201528091505092915050565b6000602082840312156133e357600080fd5b5035919050565b600080604083850312156133fd57600080fd5b82359150602083013561340f8161329d565b809150509250929050565b6020808252825182820181905260009190848201906040850190845b8181101561345257835183529284019291840191600101613436565b50909695505050505050565b60006020828403121561347057600080fd5b81356120898161329d565b634e487b7160e01b600052602160045260246000fd5b815181526020808301516001600160a01b03908116918301919091526040808401519091169082015260608083015190820152608082015160e0820190600381106134ec57634e487b7160e01b600052602160045260246000fd5b8060808401525060a083015160a083015260c083015160c083015292915050565b6000806040838503121561352057600080fd5b50508035926020909101359150565b6000806040838503121561354257600080fd5b823561354d8161329d565b915060208381013567ffffffffffffffff8082111561356b57600080fd5b818601915086601f83011261357f57600080fd5b813581811115613591576135916132de565b6135a3601f8201601f1916850161331d565b915080825287848285010111156135b957600080fd5b80848401858401376000848284010152508093505050509250929050565b60008060408084860312156135eb57600080fd5b8335925060208085013567ffffffffffffffff8082111561360b57600080fd5b818701915087601f83011261361f57600080fd5b813581811115613631576136316132de565b61363f848260051b0161331d565b818152848101925060a091820284018501918a83111561365e57600080fd5b938501935b828510156136ba5780858c03121561367b5760008081fd5b6136836132f4565b8535815286860135878201528786013588820152606080870135908201526080808701359082015284529384019392850192613663565b508096505050505050509250929050565b80151581146118f257600080fd5b6000806000606084860312156136ee57600080fd5b83356136f98161329d565b925060208401356137098161329d565b91506040840135613719816136cb565b809150509250925092565b60005b8381101561373f578181015183820152602001613727565b50506000910152565b6020815260008251806020840152613767816040850160208701613724565b601f01601f19169190910160400192915050565b6000602080835260a0830184518285015281850151604085015260408501516060850152606085015160808086015281815180845260c0870191508483019350600092505b808310156137e057835182529284019260019290920191908401906137c0565b509695505050505050565b60008060006060848603121561380057600080fd5b833561380b8161329d565b9250602084013561381b8161329d565b929592945050506040919091013590565b60008060006060848603121561384157600080fd5b833561384c8161329d565b95602085013595506040909401359392505050565b634e487b7160e01b600052601160045260246000fd5b81810381811115610a4457610a44613861565b80820180821115610a4457610a44613861565b634e487b7160e01b600052603260045260246000fd5b6000816138c2576138c2613861565b506000190190565b8082028115828204841417610a4457610a44613861565b6000826138fe57634e487b7160e01b600052601260045260246000fd5b500490565b60006001820161391557613915613861565b5060010190565b60006020828403121561392e57600080fd5b5051919050565b60006020828403121561394757600080fd5b8151612089816136cb565b634e487b7160e01b600052603160045260246000fd5b6000825161397a818460208701613724565b919091019291505056fe360894a13ba1a3210667c828492db98dca3e2076cc3735a920a3ca505d382bbc02dd7bc7dec4dceedda775e58dd541e08a116c6c53815c0bd028192f7b626800cd5ed15c6e187e77e9aee88184c21f4f2182ab5827cb3b7e07fbedcd63f033009b779b17422d0df92223018b32b4d1fa46e071723d6817e2486d003becc55f00a2646970667358221220b986e42604f442824d0ea39f58bbd15beb985e4ddd852e784dd3d1e43f95998f64736f6c63430008180033",
  "devdoc": {
    "errors": {
      "AccessControlBadConfirmation()": [
        {
          "details": "The caller of a function is not the expected one. NOTE: Don't confuse with {AccessControlUnauthorizedAccount}."
        }
      ],
      "AccessControlUnauthorizedAccount(address,bytes32)": [
        {
          "details": "The `account` is missing a role."
        }
      ],
      "AddressEmptyCode(address)": [
        {
          "details": "There's no code at `target` (it is not a contract)."
        }
      ],
      "AddressInsufficientBalance(address)": [
        {
          "details": "The ETH balance of the account is not enough to perform the operation."
        }
      ],
      "ERC1967InvalidImplementation(address)": [
        {
          "details": "The `implementation` of the proxy is invalid."
        }
      ],
      "ERC1967NonPayable()": [
        {
          "details": "An upgrade function sees `msg.value > 0` that may be lost."
        }
      ],
      "EnforcedPause()": [
        {
          "details": "The operation failed because the contract is paused."
        }
      ],
      "ExpectedPause()": [
        {
          "details": "The operation failed because the contract is not paused."
        }
      ],
      "FailedInnerCall()": [
        {
          "details": "A call to an address target failed. The target may have reverted."
        }
      ],
      "InvalidInitialization()": [
        {
          "details": "The contract is already initialized."
        }
      ],
      "NotInitializing()": [
        {
          "details": "The contract is not initializing."
        }
      ],
      "OwnableInvalidOwner(address)": [
        {
          "details": "The owner is not a valid owner account. (eg. `address(0)`)"
        }
      ],
      "OwnableUnauthorizedAccount(address)": [
        {
          "details": "The caller account is not authorized to perform an operation."
        }
      ],
      "ReentrancyGuardReentrantCall()": [
        {
          "details": "Unauthorized reentrant call."
        }
      ],
      "SafeERC20FailedOperation(address)": [
        {
          "details": "An operation with an ERC20 token failed."
        }
      ],
      "UUPSUnauthorizedCallContext()": [
        {
          "details": "The call is from an unauthorized context."
        }
      ],
      "UUPSUnsupportedProxiableUUID(bytes32)": [
        {
          "details": "The storage `slot` is unsupported as a UUID."
        }
      ]
    },
    "events": {
      "DlpDeregistered(uint256)": {
        "params": {
          "dlpId": "id of the dlp"
        }
      },
      "DlpDeregisteredByOwner(uint256,uint256,uint256)": {
        "params": {
          "dlpId": "id of the dlp",
          "penaltyAmount": "penalty amount",
          "unstakedAmount": "amount unstaked"
        }
      },
      "DlpRegistered(uint256,address,address)": {
        "params": {
          "dlpAddress": "address of the dlp",
          "dlpId": "id of the dlp",
          "ownerAddress": "owner of the dlp"
        }
      },
      "EpochCreated(uint256)": {
        "params": {
          "epochId": "reward epoch id"
        }
      },
      "EpochPerformancesSaved(uint256)": {
        "params": {
          "epochId": "epoch id"
        }
      },
      "EpochRewardAmountUpdated(uint256)": {
        "params": {
          "newEpochRewardAmount": "new epoch reward amount"
        }
      },
      "EpochRewardClaimed(address,uint256,uint256,uint256)": {
        "params": {
          "claimAmount": "amount claimed",
          "dlpId": "id of the dlp",
          "epochId": "epoch id",
          "staker": "address of the staker"
        }
      },
      "EpochSizeUpdated(uint256)": {
        "params": {
          "newEpochSize": "new epoch size"
        }
      },
      "Initialized(uint64)": {
        "details": "Triggered when the contract has been initialized or reinitialized."
      },
      "MaxNumberOfDlpsUpdated(uint256)": {
        "params": {
          "newMaxNumberOfDlps": "new max number of dlps"
        }
      },
      "MinDlpStakeAmountUpdated(uint256)": {
        "params": {
          "newMinDlpStakeAmount": "new minDlpStakeAmount"
        }
      },
      "Paused(address)": {
        "details": "Emitted when the pause is triggered by `account`."
      },
      "RoleAdminChanged(bytes32,bytes32,bytes32)": {
        "details": "Emitted when `newAdminRole` is set as ``role``'s admin role, replacing `previousAdminRole` `DEFAULT_ADMIN_ROLE` is the starting admin for all roles, despite {RoleAdminChanged} not being emitted signaling this."
      },
      "RoleGranted(bytes32,address,address)": {
        "details": "Emitted when `account` is granted `role`. `sender` is the account that originated the contract call, an admin role bearer except when using {AccessControl-_setupRole}."
      },
      "RoleRevoked(bytes32,address,address)": {
        "details": "Emitted when `account` is revoked `role`. `sender` is the account that originated the contract call:   - if using `revokeRole`, it is the admin role bearer   - if using `renounceRole`, it is the role bearer (i.e. `account`)"
      },
      "ScoresUpdated(uint256[],uint256[])": {
        "params": {
          "dlpIds": "dlp ids",
          "scores": "dlp scores"
        }
      },
      "Staked(address,uint256,uint256)": {
        "params": {
          "amount": "amount staked",
          "dlpId": "id of the dlp",
          "staker": "address of the staker"
        }
      },
      "Unpaused(address)": {
        "details": "Emitted when the pause is lifted by `account`."
      },
      "Unstaked(address,uint256,uint256)": {
        "params": {
          "amount": "amount unstaked",
          "dlpId": "id of the dlp",
          "staker": "address of the staker"
        }
      },
      "Upgraded(address)": {
        "details": "Emitted when the implementation is upgraded."
      }
    },
    "kind": "dev",
    "methods": {
      "acceptOwnership()": {
        "details": "The new owner accepts the ownership transfer."
      },
      "claimReward(uint256,uint256)": {
        "params": {
          "dlpId": "dlp id",
          "epochNumber": "epoch number"
        }
      },
      "deregisterDlp(uint256)": {
        "params": {
          "dlpId": "dlp id"
        }
      },
      "deregisterDlpByOwner(uint256,uint256)": {
        "params": {
          "dlpId": "dlp id",
          "unstakeAmount": "amount to sent to dlp owner"
        }
      },
      "dlps(uint256)": {
        "params": {
          "dlpId": "id of the dlp"
        }
      },
      "dlpsByAddress(address)": {
        "params": {
          "dlpAddress": "address of the dlp"
        }
      },
      "epochDlps(uint256,uint256)": {
        "params": {
          "dlpId": "id of the dlp",
          "epochId": "epoch id"
        }
      },
      "epochs(uint256)": {
        "params": {
          "epochId": "epoch id"
        }
      },
      "getRoleAdmin(bytes32)": {
        "details": "Returns the admin role that controls `role`. See {grantRole} and {revokeRole}. To change a role's admin, use {_setRoleAdmin}."
      },
      "grantRole(bytes32,address)": {
        "details": "Grants `role` to `account`. If `account` had not been already granted `role`, emits a {RoleGranted} event. Requirements: - the caller must have ``role``'s admin role. May emit a {RoleGranted} event."
      },
      "hasRole(bytes32,address)": {
        "details": "Returns `true` if `account` has been granted `role`."
      },
      "initialize((address,uint256,uint256,uint256,uint256,uint256))": {
        "params": {
          "params": "initialization parameters"
        }
      },
      "owner()": {
        "details": "Returns the address of the current owner."
      },
      "pause()": {
        "details": "Pauses the contract"
      },
      "paused()": {
        "details": "Returns true if the contract is paused, and false otherwise."
      },
      "pendingOwner()": {
        "details": "Returns the address of the pending owner."
      },
      "proxiableUUID()": {
        "details": "Implementation of the ERC1822 {proxiableUUID} function. This returns the storage slot used by the implementation. It is used to validate the implementation's compatibility when performing an upgrade. IMPORTANT: A proxy pointing at a proxiable contract should not be considered proxiable itself, because this risks bricking a proxy that upgrades to it, by delegating to itself until out of gas. Thus it is critical that this function revert if invoked through a proxy. This is guaranteed by the `notDelegated` modifier."
      },
      "registerDlp(address,address,bool)": {
        "params": {
          "dlpAddress": "address of the dlp",
          "dlpOwnerAddress": "owner of the dlp",
          "granted": "if the dlp is granted"
        }
      },
      "renounceOwnership()": {
        "details": "Leaves the contract without owner. It will not be possible to call `onlyOwner` functions. Can only be called by the current owner. NOTE: Renouncing ownership will leave the contract without an owner, thereby disabling any functionality that is only available to the owner."
      },
      "renounceRole(bytes32,address)": {
        "details": "Revokes `role` from the calling account. Roles are often managed via {grantRole} and {revokeRole}: this function's purpose is to provide a mechanism for accounts to lose their privileges if they are compromised (such as when a trusted device is misplaced). If the calling account had been revoked `role`, emits a {RoleRevoked} event. Requirements: - the caller must be `callerConfirmation`. May emit a {RoleRevoked} event."
      },
      "revokeRole(bytes32,address)": {
        "details": "Revokes `role` from `account`. If `account` had been granted `role`, emits a {RoleRevoked} event. Requirements: - the caller must have ``role``'s admin role. May emit a {RoleRevoked} event."
      },
      "saveEpochPerformances(uint256,(uint256,uint256,uint256,uint256,uint256)[])": {
        "params": {
          "dlpPerformances": "An array of DLPPerformance structs containing the performance metrics of the DLPs",
          "epochId": "The ID of the epoch"
        }
      },
      "stakerDlpEpochs(address,uint256,uint256)": {
        "params": {
          "dlpId": "id of the dlp",
          "epochId": "epoch id",
          "staker": "address of the staker"
        }
      },
      "stakerDlps(address,uint256)": {
        "params": {
          "dlpId": "id of the dlp",
          "staker": "address of the staker"
        }
      },
      "stakers(address)": {
        "params": {
          "staker": "address of the staker"
        }
      },
      "supportsInterface(bytes4)": {
        "details": "See {IERC165-supportsInterface}."
      },
      "transferOwnership(address)": {
        "details": "Starts the ownership transfer of the contract to a new account. Replaces the pending transfer if there is one. Can only be called by the current owner."
      },
      "unpause()": {
        "details": "Unpauses the contract"
      },
      "updateEpochRewardAmount(uint256)": {
        "params": {
          "newEpochRewardAmount": "new epoch size"
        }
      },
      "updateEpochSize(uint256)": {
        "params": {
          "newEpochSize": "new epoch size"
        }
      },
      "updateMaxNumberOfDlps(uint256)": {
        "params": {
          "newMaxNumberOfDlps": "new maximum number of dlps"
        }
      },
      "updateMinDlpStakeAmount(uint256)": {
        "params": {
          "newMinDlpStakeAmount": "new minDlpStakeAmount"
        }
      },
      "upgradeToAndCall(address,bytes)": {
        "custom:oz-upgrades-unsafe-allow-reachable": "delegatecall",
        "details": "Upgrade the implementation of the proxy to `newImplementation`, and subsequently execute the function call encoded in `data`. Calls {_authorizeUpgrade}. Emits an {Upgraded} event."
      },
      "withdraw(address,address,uint256)": {
        "params": {
          "_amount": "amount to withdraw",
          "_to": "address where the token will be send",
          "_token": "address of the token to withdraw use address(0) for VANA"
        }
      }
    },
    "version": 1
  },
  "userdoc": {
    "events": {
      "DlpDeregistered(uint256)": {
        "notice": "Triggered when a dlp has been deregistered"
      },
      "DlpDeregisteredByOwner(uint256,uint256,uint256)": {
        "notice": "Triggered when a dlp has been deregistered by the dlp owner"
      },
      "DlpRegistered(uint256,address,address)": {
        "notice": "Triggered when a dlp has registered"
      },
      "EpochCreated(uint256)": {
        "notice": "Triggered when a epoch has been created"
      },
      "EpochPerformancesSaved(uint256)": {
        "notice": "Triggered when epoch performances have been saved"
      },
      "EpochRewardAmountUpdated(uint256)": {
        "notice": "Triggered when the epoch reward amount has been updated"
      },
      "EpochRewardClaimed(address,uint256,uint256,uint256)": {
        "notice": "Triggered when a dlp has claimed un unsent reward"
      },
      "EpochSizeUpdated(uint256)": {
        "notice": "Triggered when the epoch size has been updated"
      },
      "MaxNumberOfDlpsUpdated(uint256)": {
        "notice": "Triggered when the max number of dlps has been updated"
      },
      "MinDlpStakeAmountUpdated(uint256)": {
        "notice": "Triggered when the minDlpStakeAmount has been updated"
      },
      "ScoresUpdated(uint256[],uint256[])": {
        "notice": "Triggered when owner has updated its scores"
      },
      "Staked(address,uint256,uint256)": {
        "notice": "Triggered when user has staked some DAT for a DLP"
      },
      "Unstaked(address,uint256,uint256)": {
        "notice": "Triggered when user has unstaked some DAT from a DLP"
      }
    },
    "kind": "user",
    "methods": {
      "addRewardForDlps()": {
        "notice": "Add rewards for dlps"
      },
      "claimReward(uint256,uint256)": {
        "notice": "Staker claim reward for a dlp in an epoch"
      },
      "createEpochs()": {
        "notice": "Create epochs used when the last epoch has ended"
      },
      "createEpochsUntilBlockNumber(uint256)": {
        "notice": "Create epochs used when the last epoch has ended"
      },
      "deregisterDlp(uint256)": {
        "notice": "Deregister dlp"
      },
      "deregisterDlpByOwner(uint256,uint256)": {
        "notice": "Deregister dlp and withdraw stake amount"
      },
      "dlps(uint256)": {
        "notice": "Get the dlp information"
      },
      "dlpsByAddress(address)": {
        "notice": "Get the dlp information"
      },
      "epochDlps(uint256,uint256)": {
        "notice": "Get epoch dlp information"
      },
      "epochs(uint256)": {
        "notice": "Get epoch information"
      },
      "initialize((address,uint256,uint256,uint256,uint256,uint256))": {
        "notice": "Initialize the contract"
      },
      "registerDlp(address,address,bool)": {
        "notice": "Register a dlp"
      },
      "registeredDlps()": {
        "notice": "Get registered dlps list"
      },
      "saveEpochPerformances(uint256,(uint256,uint256,uint256,uint256,uint256)[])": {
        "notice": "Saves the performances of DLPs for a specific epoch"
      },
      "stakerDlpEpochs(address,uint256,uint256)": {
        "notice": "Get the staker epoch dlp"
      },
      "stakerDlps(address,uint256)": {
        "notice": "Get the dlp stakers"
      },
      "stakers(address)": {
        "notice": "Get the staker information"
      },
      "updateEpochRewardAmount(uint256)": {
        "notice": "Update the epochRewardAmount"
      },
      "updateEpochSize(uint256)": {
        "notice": "Update the epoch size"
      },
      "updateMaxNumberOfDlps(uint256)": {
        "notice": "Update the maximum number of dlps"
      },
      "updateMinDlpStakeAmount(uint256)": {
        "notice": "Update the minDlpStakeAmount"
      },
      "version()": {
        "notice": "return the version of the contract"
      },
      "withdraw(address,address,uint256)": {
        "notice": "Allows the owner to withdraw tokens from the contract"
      }
    },
    "version": 1
  },
  "storageLayout": {
    "storage": [
      {
        "astId": 17856,
        "contract": "contracts/root/DataLiquidityPoolsRootImplementation.sol:DataLiquidityPoolsRootImplementation",
        "label": "maxNumberOfDlps",
        "offset": 0,
        "slot": "0",
        "type": "t_uint256"
      },
      {
        "astId": 17859,
        "contract": "contracts/root/DataLiquidityPoolsRootImplementation.sol:DataLiquidityPoolsRootImplementation",
        "label": "minDlpStakeAmount",
        "offset": 0,
        "slot": "1",
        "type": "t_uint256"
      },
      {
        "astId": 17862,
        "contract": "contracts/root/DataLiquidityPoolsRootImplementation.sol:DataLiquidityPoolsRootImplementation",
        "label": "totalDlpsRewardAmount",
        "offset": 0,
        "slot": "2",
        "type": "t_uint256"
      },
      {
        "astId": 17865,
        "contract": "contracts/root/DataLiquidityPoolsRootImplementation.sol:DataLiquidityPoolsRootImplementation",
        "label": "epochRewardAmount",
        "offset": 0,
        "slot": "3",
        "type": "t_uint256"
      },
      {
        "astId": 17868,
        "contract": "contracts/root/DataLiquidityPoolsRootImplementation.sol:DataLiquidityPoolsRootImplementation",
        "label": "epochSize",
        "offset": 0,
        "slot": "4",
        "type": "t_uint256"
      },
      {
        "astId": 17871,
        "contract": "contracts/root/DataLiquidityPoolsRootImplementation.sol:DataLiquidityPoolsRootImplementation",
        "label": "dlpsCount",
        "offset": 0,
        "slot": "5",
        "type": "t_uint256"
      },
      {
        "astId": 17876,
        "contract": "contracts/root/DataLiquidityPoolsRootImplementation.sol:DataLiquidityPoolsRootImplementation",
        "label": "_dlps",
        "offset": 0,
        "slot": "6",
        "type": "t_mapping(t_uint256,t_struct(Dlp)17939_storage)"
      },
      {
        "astId": 17881,
        "contract": "contracts/root/DataLiquidityPoolsRootImplementation.sol:DataLiquidityPoolsRootImplementation",
        "label": "dlpIds",
        "offset": 0,
        "slot": "7",
        "type": "t_mapping(t_address,t_uint256)"
      },
      {
        "astId": 17884,
        "contract": "contracts/root/DataLiquidityPoolsRootImplementation.sol:DataLiquidityPoolsRootImplementation",
        "label": "_registeredDlps",
        "offset": 0,
        "slot": "8",
        "type": "t_struct(UintSet)10847_storage"
      },
      {
        "astId": 17887,
        "contract": "contracts/root/DataLiquidityPoolsRootImplementation.sol:DataLiquidityPoolsRootImplementation",
        "label": "epochsCount",
        "offset": 0,
        "slot": "10",
        "type": "t_uint256"
      },
      {
        "astId": 17892,
        "contract": "contracts/root/DataLiquidityPoolsRootImplementation.sol:DataLiquidityPoolsRootImplementation",
        "label": "_epochs",
        "offset": 0,
        "slot": "11",
        "type": "t_mapping(t_uint256,t_struct(Epoch)17923_storage)"
      },
      {
        "astId": 17897,
        "contract": "contracts/root/DataLiquidityPoolsRootImplementation.sol:DataLiquidityPoolsRootImplementation",
        "label": "_stakers",
        "offset": 0,
        "slot": "12",
        "type": "t_mapping(t_address,t_struct(Staker)17973_storage)"
      }
    ],
    "types": {
      "t_address": {
        "encoding": "inplace",
        "label": "address",
        "numberOfBytes": "20"
      },
      "t_address_payable": {
        "encoding": "inplace",
        "label": "address payable",
        "numberOfBytes": "20"
      },
      "t_array(t_bytes32)dyn_storage": {
        "base": "t_bytes32",
        "encoding": "dynamic_array",
        "label": "bytes32[]",
        "numberOfBytes": "32"
      },
      "t_bytes32": {
        "encoding": "inplace",
        "label": "bytes32",
        "numberOfBytes": "32"
      },
      "t_enum(DlpStatus)17908": {
        "encoding": "inplace",
        "label": "enum IDataLiquidityPoolsRoot.DlpStatus",
        "numberOfBytes": "1"
      },
      "t_mapping(t_address,t_struct(Staker)17973_storage)": {
        "encoding": "mapping",
        "key": "t_address",
        "label": "mapping(address => struct IDataLiquidityPoolsRoot.Staker)",
        "numberOfBytes": "32",
        "value": "t_struct(Staker)17973_storage"
      },
      "t_mapping(t_address,t_uint256)": {
        "encoding": "mapping",
        "key": "t_address",
        "label": "mapping(address => uint256)",
        "numberOfBytes": "32",
        "value": "t_uint256"
      },
      "t_mapping(t_bytes32,t_uint256)": {
        "encoding": "mapping",
        "key": "t_bytes32",
        "label": "mapping(bytes32 => uint256)",
        "numberOfBytes": "32",
        "value": "t_uint256"
      },
      "t_mapping(t_uint256,t_struct(Dlp)17939_storage)": {
        "encoding": "mapping",
        "key": "t_uint256",
        "label": "mapping(uint256 => struct IDataLiquidityPoolsRoot.Dlp)",
        "numberOfBytes": "32",
        "value": "t_struct(Dlp)17939_storage"
      },
      "t_mapping(t_uint256,t_struct(Epoch)17923_storage)": {
        "encoding": "mapping",
        "key": "t_uint256",
        "label": "mapping(uint256 => struct IDataLiquidityPoolsRoot.Epoch)",
        "numberOfBytes": "32",
        "value": "t_struct(Epoch)17923_storage"
      },
      "t_mapping(t_uint256,t_struct(EpochDlp)17952_storage)": {
        "encoding": "mapping",
        "key": "t_uint256",
        "label": "mapping(uint256 => struct IDataLiquidityPoolsRoot.EpochDlp)",
        "numberOfBytes": "32",
        "value": "t_struct(EpochDlp)17952_storage"
      },
      "t_mapping(t_uint256,t_struct(StakerDlp)17965_storage)": {
        "encoding": "mapping",
        "key": "t_uint256",
        "label": "mapping(uint256 => struct IDataLiquidityPoolsRoot.StakerDlp)",
        "numberOfBytes": "32",
        "value": "t_struct(StakerDlp)17965_storage"
      },
      "t_mapping(t_uint256,t_struct(StakerDlpEpoch)17957_storage)": {
        "encoding": "mapping",
        "key": "t_uint256",
        "label": "mapping(uint256 => struct IDataLiquidityPoolsRoot.StakerDlpEpoch)",
        "numberOfBytes": "32",
        "value": "t_struct(StakerDlpEpoch)17957_storage"
      },
      "t_struct(Dlp)17939_storage": {
        "encoding": "inplace",
        "label": "struct IDataLiquidityPoolsRoot.Dlp",
        "members": [
          {
            "astId": 17925,
            "contract": "contracts/root/DataLiquidityPoolsRootImplementation.sol:DataLiquidityPoolsRootImplementation",
            "label": "id",
            "offset": 0,
            "slot": "0",
            "type": "t_uint256"
          },
          {
            "astId": 17927,
            "contract": "contracts/root/DataLiquidityPoolsRootImplementation.sol:DataLiquidityPoolsRootImplementation",
            "label": "dlpAddress",
            "offset": 0,
            "slot": "1",
            "type": "t_address"
          },
          {
            "astId": 17929,
            "contract": "contracts/root/DataLiquidityPoolsRootImplementation.sol:DataLiquidityPoolsRootImplementation",
            "label": "ownerAddress",
            "offset": 0,
            "slot": "2",
            "type": "t_address_payable"
          },
          {
            "astId": 17931,
            "contract": "contracts/root/DataLiquidityPoolsRootImplementation.sol:DataLiquidityPoolsRootImplementation",
            "label": "stakeAmount",
            "offset": 0,
            "slot": "3",
            "type": "t_uint256"
          },
          {
            "astId": 17934,
            "contract": "contracts/root/DataLiquidityPoolsRootImplementation.sol:DataLiquidityPoolsRootImplementation",
            "label": "status",
            "offset": 0,
            "slot": "4",
            "type": "t_enum(DlpStatus)17908"
          },
          {
            "astId": 17936,
            "contract": "contracts/root/DataLiquidityPoolsRootImplementation.sol:DataLiquidityPoolsRootImplementation",
            "label": "registrationBlockNumber",
            "offset": 0,
            "slot": "5",
            "type": "t_uint256"
          },
          {
            "astId": 17938,
            "contract": "contracts/root/DataLiquidityPoolsRootImplementation.sol:DataLiquidityPoolsRootImplementation",
            "label": "grantedAmount",
            "offset": 0,
            "slot": "6",
            "type": "t_uint256"
          }
        ],
        "numberOfBytes": "224"
      },
      "t_struct(Epoch)17923_storage": {
        "encoding": "inplace",
        "label": "struct IDataLiquidityPoolsRoot.Epoch",
        "members": [
          {
            "astId": 17910,
            "contract": "contracts/root/DataLiquidityPoolsRootImplementation.sol:DataLiquidityPoolsRootImplementation",
            "label": "startBlock",
            "offset": 0,
            "slot": "0",
            "type": "t_uint256"
          },
          {
            "astId": 17912,
            "contract": "contracts/root/DataLiquidityPoolsRootImplementation.sol:DataLiquidityPoolsRootImplementation",
            "label": "endBlock",
            "offset": 0,
            "slot": "1",
            "type": "t_uint256"
          },
          {
            "astId": 17914,
            "contract": "contracts/root/DataLiquidityPoolsRootImplementation.sol:DataLiquidityPoolsRootImplementation",
            "label": "reward",
            "offset": 0,
            "slot": "2",
            "type": "t_uint256"
          },
          {
            "astId": 17917,
            "contract": "contracts/root/DataLiquidityPoolsRootImplementation.sol:DataLiquidityPoolsRootImplementation",
            "label": "dlpIds",
            "offset": 0,
            "slot": "3",
            "type": "t_struct(UintSet)10847_storage"
          },
          {
            "astId": 17922,
            "contract": "contracts/root/DataLiquidityPoolsRootImplementation.sol:DataLiquidityPoolsRootImplementation",
            "label": "dlps",
            "offset": 0,
            "slot": "5",
            "type": "t_mapping(t_uint256,t_struct(EpochDlp)17952_storage)"
          }
        ],
        "numberOfBytes": "192"
      },
      "t_struct(EpochDlp)17952_storage": {
        "encoding": "inplace",
        "label": "struct IDataLiquidityPoolsRoot.EpochDlp",
        "members": [
          {
            "astId": 17941,
            "contract": "contracts/root/DataLiquidityPoolsRootImplementation.sol:DataLiquidityPoolsRootImplementation",
            "label": "ttf",
            "offset": 0,
            "slot": "0",
            "type": "t_uint256"
          },
          {
            "astId": 17943,
            "contract": "contracts/root/DataLiquidityPoolsRootImplementation.sol:DataLiquidityPoolsRootImplementation",
            "label": "tfc",
            "offset": 0,
            "slot": "1",
            "type": "t_uint256"
          },
          {
            "astId": 17945,
            "contract": "contracts/root/DataLiquidityPoolsRootImplementation.sol:DataLiquidityPoolsRootImplementation",
            "label": "vdu",
            "offset": 0,
            "slot": "2",
            "type": "t_uint256"
          },
          {
            "astId": 17947,
            "contract": "contracts/root/DataLiquidityPoolsRootImplementation.sol:DataLiquidityPoolsRootImplementation",
            "label": "uw",
            "offset": 0,
            "slot": "3",
            "type": "t_uint256"
          },
          {
            "astId": 17949,
            "contract": "contracts/root/DataLiquidityPoolsRootImplementation.sol:DataLiquidityPoolsRootImplementation",
            "label": "stakedAmount",
            "offset": 0,
            "slot": "4",
            "type": "t_uint256"
          },
          {
            "astId": 17951,
            "contract": "contracts/root/DataLiquidityPoolsRootImplementation.sol:DataLiquidityPoolsRootImplementation",
            "label": "rewardAmount",
            "offset": 0,
            "slot": "5",
            "type": "t_uint256"
          }
        ],
        "numberOfBytes": "192"
      },
      "t_struct(Set)10375_storage": {
        "encoding": "inplace",
        "label": "struct EnumerableSet.Set",
        "members": [
          {
            "astId": 10370,
            "contract": "contracts/root/DataLiquidityPoolsRootImplementation.sol:DataLiquidityPoolsRootImplementation",
            "label": "_values",
            "offset": 0,
            "slot": "0",
            "type": "t_array(t_bytes32)dyn_storage"
          },
          {
            "astId": 10374,
            "contract": "contracts/root/DataLiquidityPoolsRootImplementation.sol:DataLiquidityPoolsRootImplementation",
            "label": "_positions",
            "offset": 0,
            "slot": "1",
            "type": "t_mapping(t_bytes32,t_uint256)"
          }
        ],
        "numberOfBytes": "64"
      },
      "t_struct(Staker)17973_storage": {
        "encoding": "inplace",
        "label": "struct IDataLiquidityPoolsRoot.Staker",
        "members": [
          {
            "astId": 17967,
            "contract": "contracts/root/DataLiquidityPoolsRootImplementation.sol:DataLiquidityPoolsRootImplementation",
            "label": "totalStaked",
            "offset": 0,
            "slot": "0",
            "type": "t_uint256"
          },
          {
            "astId": 17972,
            "contract": "contracts/root/DataLiquidityPoolsRootImplementation.sol:DataLiquidityPoolsRootImplementation",
            "label": "dlps",
            "offset": 0,
            "slot": "1",
            "type": "t_mapping(t_uint256,t_struct(StakerDlp)17965_storage)"
          }
        ],
        "numberOfBytes": "64"
      },
      "t_struct(StakerDlp)17965_storage": {
        "encoding": "inplace",
        "label": "struct IDataLiquidityPoolsRoot.StakerDlp",
        "members": [
          {
            "astId": 17959,
            "contract": "contracts/root/DataLiquidityPoolsRootImplementation.sol:DataLiquidityPoolsRootImplementation",
            "label": "stakedAmount",
            "offset": 0,
            "slot": "0",
            "type": "t_uint256"
          },
          {
            "astId": 17964,
            "contract": "contracts/root/DataLiquidityPoolsRootImplementation.sol:DataLiquidityPoolsRootImplementation",
            "label": "epochs",
            "offset": 0,
            "slot": "1",
            "type": "t_mapping(t_uint256,t_struct(StakerDlpEpoch)17957_storage)"
          }
        ],
        "numberOfBytes": "64"
      },
      "t_struct(StakerDlpEpoch)17957_storage": {
        "encoding": "inplace",
        "label": "struct IDataLiquidityPoolsRoot.StakerDlpEpoch",
        "members": [
          {
            "astId": 17954,
            "contract": "contracts/root/DataLiquidityPoolsRootImplementation.sol:DataLiquidityPoolsRootImplementation",
            "label": "stakedAmount",
            "offset": 0,
            "slot": "0",
            "type": "t_uint256"
          },
          {
            "astId": 17956,
            "contract": "contracts/root/DataLiquidityPoolsRootImplementation.sol:DataLiquidityPoolsRootImplementation",
            "label": "withdrawnReward",
            "offset": 0,
            "slot": "1",
            "type": "t_uint256"
          }
        ],
        "numberOfBytes": "64"
      },
      "t_struct(UintSet)10847_storage": {
        "encoding": "inplace",
        "label": "struct EnumerableSet.UintSet",
        "members": [
          {
            "astId": 10846,
            "contract": "contracts/root/DataLiquidityPoolsRootImplementation.sol:DataLiquidityPoolsRootImplementation",
            "label": "_inner",
            "offset": 0,
            "slot": "0",
            "type": "t_struct(Set)10375_storage"
          }
        ],
        "numberOfBytes": "64"
      },
      "t_uint256": {
        "encoding": "inplace",
        "label": "uint256",
        "numberOfBytes": "32"
      }
    }
  }
}