{
  "address": "0x3BA6D9136725cFD3834DC0e4BEDd1875891B3fE3",
  "abi": [
    {
      "inputs": [],
      "name": "AccessControlBadConfirmation",
      "type": "error"
    },
    {
      "inputs": [
        {
          "internalType": "address",
          "name": "account",
          "type": "address"
        },
        {
          "internalType": "bytes32",
          "name": "neededRole",
          "type": "bytes32"
        }
      ],
      "name": "AccessControlUnauthorizedAccount",
      "type": "error"
    },
    {
      "inputs": [
        {
          "internalType": "address",
          "name": "target",
          "type": "address"
        }
      ],
      "name": "AddressEmptyCode",
      "type": "error"
    },
    {
      "inputs": [],
      "name": "ECDSAInvalidSignature",
      "type": "error"
    },
    {
      "inputs": [
        {
          "internalType": "uint256",
          "name": "length",
          "type": "uint256"
        }
      ],
      "name": "ECDSAInvalidSignatureLength",
      "type": "error"
    },
    {
      "inputs": [
        {
          "internalType": "bytes32",
          "name": "s",
          "type": "bytes32"
        }
      ],
      "name": "ECDSAInvalidSignatureS",
      "type": "error"
    },
    {
      "inputs": [
        {
          "internalType": "address",
          "name": "implementation",
          "type": "address"
        }
      ],
      "name": "ERC1967InvalidImplementation",
      "type": "error"
    },
    {
      "inputs": [],
      "name": "ERC1967NonPayable",
      "type": "error"
    },
    {
      "inputs": [],
      "name": "EnforcedPause",
      "type": "error"
    },
    {
      "inputs": [],
      "name": "ExpectedPause",
      "type": "error"
    },
    {
      "inputs": [],
      "name": "FailedInnerCall",
      "type": "error"
    },
    {
      "inputs": [],
      "name": "InvalidInitialization",
      "type": "error"
    },
    {
      "inputs": [],
      "name": "NotFileAttestator",
      "type": "error"
    },
    {
      "inputs": [],
      "name": "NotFileOwner",
      "type": "error"
    },
    {
      "inputs": [],
      "name": "NotInitializing",
      "type": "error"
    },
    {
      "inputs": [
        {
          "internalType": "address",
          "name": "owner",
          "type": "address"
        }
      ],
      "name": "OwnableInvalidOwner",
      "type": "error"
    },
    {
      "inputs": [
        {
          "internalType": "address",
          "name": "account",
          "type": "address"
        }
      ],
      "name": "OwnableUnauthorizedAccount",
      "type": "error"
    },
    {
      "inputs": [],
      "name": "UUPSUnauthorizedCallContext",
      "type": "error"
    },
    {
      "inputs": [
        {
          "internalType": "bytes32",
          "name": "slot",
          "type": "bytes32"
        }
      ],
      "name": "UUPSUnsupportedProxiableUUID",
      "type": "error"
    },
    {
      "anonymous": false,
      "inputs": [
        {
          "indexed": true,
          "internalType": "uint256",
          "name": "fileId",
          "type": "uint256"
        },
        {
          "indexed": true,
          "internalType": "address",
          "name": "ownerAddress",
          "type": "address"
        },
        {
          "indexed": false,
          "internalType": "string",
          "name": "url",
          "type": "string"
        }
      ],
      "name": "FileAdded",
      "type": "event"
    },
    {
      "anonymous": false,
      "inputs": [
        {
          "indexed": false,
          "internalType": "uint64",
          "name": "version",
          "type": "uint64"
        }
      ],
      "name": "Initialized",
      "type": "event"
    },
    {
      "anonymous": false,
      "inputs": [
        {
          "indexed": true,
          "internalType": "address",
          "name": "previousOwner",
          "type": "address"
        },
        {
          "indexed": true,
          "internalType": "address",
          "name": "newOwner",
          "type": "address"
        }
      ],
      "name": "OwnershipTransferStarted",
      "type": "event"
    },
    {
      "anonymous": false,
      "inputs": [
        {
          "indexed": true,
          "internalType": "address",
          "name": "previousOwner",
          "type": "address"
        },
        {
          "indexed": true,
          "internalType": "address",
          "name": "newOwner",
          "type": "address"
        }
      ],
      "name": "OwnershipTransferred",
      "type": "event"
    },
    {
      "anonymous": false,
      "inputs": [
        {
          "indexed": false,
          "internalType": "address",
          "name": "account",
          "type": "address"
        }
      ],
      "name": "Paused",
      "type": "event"
    },
    {
      "anonymous": false,
      "inputs": [
        {
          "indexed": true,
          "internalType": "uint256",
          "name": "fileId",
          "type": "uint256"
        },
        {
          "indexed": true,
          "internalType": "address",
          "name": "account",
          "type": "address"
        }
      ],
      "name": "PermissionGranted",
      "type": "event"
    },
    {
      "anonymous": false,
      "inputs": [
        {
          "indexed": true,
          "internalType": "uint256",
          "name": "fileId",
          "type": "uint256"
        },
        {
          "indexed": true,
          "internalType": "address",
          "name": "account",
          "type": "address"
        }
      ],
      "name": "PermissionRequested",
      "type": "event"
    },
    {
      "anonymous": false,
      "inputs": [
        {
          "indexed": true,
          "internalType": "uint256",
          "name": "fileId",
          "type": "uint256"
        },
        {
          "indexed": true,
          "internalType": "address",
          "name": "account",
          "type": "address"
        }
      ],
      "name": "ProofAdded",
      "type": "event"
    },
    {
      "anonymous": false,
      "inputs": [
        {
          "indexed": true,
          "internalType": "bytes32",
          "name": "role",
          "type": "bytes32"
        },
        {
          "indexed": true,
          "internalType": "bytes32",
          "name": "previousAdminRole",
          "type": "bytes32"
        },
        {
          "indexed": true,
          "internalType": "bytes32",
          "name": "newAdminRole",
          "type": "bytes32"
        }
      ],
      "name": "RoleAdminChanged",
      "type": "event"
    },
    {
      "anonymous": false,
      "inputs": [
        {
          "indexed": true,
          "internalType": "bytes32",
          "name": "role",
          "type": "bytes32"
        },
        {
          "indexed": true,
          "internalType": "address",
          "name": "account",
          "type": "address"
        },
        {
          "indexed": true,
          "internalType": "address",
          "name": "sender",
          "type": "address"
        }
      ],
      "name": "RoleGranted",
      "type": "event"
    },
    {
      "anonymous": false,
      "inputs": [
        {
          "indexed": true,
          "internalType": "bytes32",
          "name": "role",
          "type": "bytes32"
        },
        {
          "indexed": true,
          "internalType": "address",
          "name": "account",
          "type": "address"
        },
        {
          "indexed": true,
          "internalType": "address",
          "name": "sender",
          "type": "address"
        }
      ],
      "name": "RoleRevoked",
      "type": "event"
    },
    {
      "anonymous": false,
      "inputs": [
        {
          "indexed": false,
          "internalType": "address",
          "name": "account",
          "type": "address"
        }
      ],
      "name": "Unpaused",
      "type": "event"
    },
    {
      "anonymous": false,
      "inputs": [
        {
          "indexed": true,
          "internalType": "address",
          "name": "implementation",
          "type": "address"
        }
      ],
      "name": "Upgraded",
      "type": "event"
    },
    {
      "inputs": [],
      "name": "DEFAULT_ADMIN_ROLE",
      "outputs": [
        {
          "internalType": "bytes32",
          "name": "",
          "type": "bytes32"
        }
      ],
      "stateMutability": "view",
      "type": "function"
    },
    {
      "inputs": [],
      "name": "UPGRADE_INTERFACE_VERSION",
      "outputs": [
        {
          "internalType": "string",
          "name": "",
          "type": "string"
        }
      ],
      "stateMutability": "view",
      "type": "function"
    },
    {
      "inputs": [
        {
          "internalType": "uint256",
          "name": "",
          "type": "uint256"
        }
      ],
      "name": "_files",
      "outputs": [
        {
          "internalType": "address",
          "name": "ownerAddress",
          "type": "address"
        },
        {
          "internalType": "string",
          "name": "url",
          "type": "string"
        },
        {
          "internalType": "uint256",
          "name": "addedAtBlock",
          "type": "uint256"
        },
        {
          "internalType": "uint256",
          "name": "permissionRequestsCount",
          "type": "uint256"
        },
        {
          "internalType": "uint256",
          "name": "proofsCount",
          "type": "uint256"
        }
      ],
      "stateMutability": "view",
      "type": "function"
    },
    {
      "inputs": [],
      "name": "acceptOwnership",
      "outputs": [],
      "stateMutability": "nonpayable",
      "type": "function"
    },
    {
      "inputs": [
        {
          "internalType": "string",
          "name": "url",
          "type": "string"
        }
      ],
      "name": "addFile",
      "outputs": [
        {
          "internalType": "uint256",
          "name": "",
          "type": "uint256"
        }
      ],
      "stateMutability": "nonpayable",
      "type": "function"
    },
    {
      "inputs": [
        {
          "internalType": "string",
          "name": "url",
          "type": "string"
        },
        {
          "components": [
            {
              "internalType": "address",
              "name": "account",
              "type": "address"
            },
            {
              "internalType": "string",
              "name": "key",
              "type": "string"
            }
          ],
          "internalType": "struct IFileRegistry.FilePermissions[]",
          "name": "permissions",
          "type": "tuple[]"
        }
      ],
      "name": "addFileWithPermissions",
      "outputs": [
        {
          "internalType": "uint256",
          "name": "",
          "type": "uint256"
        }
      ],
      "stateMutability": "nonpayable",
      "type": "function"
    },
    {
      "inputs": [
        {
          "internalType": "uint256",
          "name": "fileId",
          "type": "uint256"
        },
        {
          "components": [
            {
              "internalType": "address",
              "name": "account",
              "type": "address"
            },
            {
              "internalType": "string",
              "name": "key",
              "type": "string"
            }
          ],
          "internalType": "struct IFileRegistry.FilePermissions[]",
          "name": "permissions",
          "type": "tuple[]"
        }
      ],
      "name": "addPermissions",
      "outputs": [],
      "stateMutability": "nonpayable",
      "type": "function"
    },
    {
      "inputs": [
        {
          "internalType": "uint256",
          "name": "fileId",
          "type": "uint256"
        },
        {
          "components": [
            {
              "internalType": "bytes",
              "name": "signature",
              "type": "bytes"
            },
            {
              "components": [
                {
                  "internalType": "uint256",
                  "name": "timestamp",
                  "type": "uint256"
                },
                {
                  "internalType": "string",
                  "name": "decryptedFileChecksum",
                  "type": "string"
                },
                {
                  "internalType": "string",
                  "name": "encryptedFileChecksum",
                  "type": "string"
                },
                {
                  "internalType": "string",
                  "name": "fingerprint",
                  "type": "string"
                },
                {
                  "internalType": "address",
                  "name": "ownerAddress",
                  "type": "address"
                },
                {
                  "internalType": "bytes32",
                  "name": "signedMessage",
                  "type": "bytes32"
                },
                {
                  "components": [
                    {
                      "internalType": "string",
                      "name": "entrypoint",
                      "type": "string"
                    },
                    {
                      "internalType": "string",
                      "name": "url",
                      "type": "string"
                    }
                  ],
                  "internalType": "struct IFileRegistry.Instruction",
                  "name": "instruction",
                  "type": "tuple"
                },
                {
                  "internalType": "bool",
                  "name": "valid",
                  "type": "bool"
                },
                {
                  "internalType": "uint256",
                  "name": "score",
                  "type": "uint256"
                },
                {
                  "internalType": "uint256",
                  "name": "authenticity",
                  "type": "uint256"
                },
                {
                  "internalType": "uint256",
                  "name": "ownership",
                  "type": "uint256"
                },
                {
                  "internalType": "uint256",
                  "name": "quality",
                  "type": "uint256"
                },
                {
                  "internalType": "uint256",
                  "name": "uniqueness",
                  "type": "uint256"
                },
                {
                  "internalType": "string",
                  "name": "metadata",
                  "type": "string"
                }
              ],
              "internalType": "struct IFileRegistry.ProofData",
              "name": "data",
              "type": "tuple"
            }
          ],
          "internalType": "struct IFileRegistry.Proof",
          "name": "proof",
          "type": "tuple"
        }
      ],
      "name": "addProof",
      "outputs": [],
      "stateMutability": "nonpayable",
      "type": "function"
    },
    {
      "inputs": [
        {
          "internalType": "uint256",
          "name": "fileId",
          "type": "uint256"
        },
        {
          "components": [
            {
              "internalType": "bytes",
              "name": "signature",
              "type": "bytes"
            },
            {
              "components": [
                {
                  "internalType": "uint256",
                  "name": "timestamp",
                  "type": "uint256"
                },
                {
                  "internalType": "string",
                  "name": "decryptedFileChecksum",
                  "type": "string"
                },
                {
                  "internalType": "string",
                  "name": "encryptedFileChecksum",
                  "type": "string"
                },
                {
                  "internalType": "string",
                  "name": "fingerprint",
                  "type": "string"
                },
                {
                  "internalType": "address",
                  "name": "ownerAddress",
                  "type": "address"
                },
                {
                  "internalType": "bytes32",
                  "name": "signedMessage",
                  "type": "bytes32"
                },
                {
                  "components": [
                    {
                      "internalType": "string",
                      "name": "entrypoint",
                      "type": "string"
                    },
                    {
                      "internalType": "string",
                      "name": "url",
                      "type": "string"
                    }
                  ],
                  "internalType": "struct IFileRegistry.Instruction",
                  "name": "instruction",
                  "type": "tuple"
                },
                {
                  "internalType": "bool",
                  "name": "valid",
                  "type": "bool"
                },
                {
                  "internalType": "uint256",
                  "name": "score",
                  "type": "uint256"
                },
                {
                  "internalType": "uint256",
                  "name": "authenticity",
                  "type": "uint256"
                },
                {
                  "internalType": "uint256",
                  "name": "ownership",
                  "type": "uint256"
                },
                {
                  "internalType": "uint256",
                  "name": "quality",
                  "type": "uint256"
                },
                {
                  "internalType": "uint256",
                  "name": "uniqueness",
                  "type": "uint256"
                },
                {
                  "internalType": "string",
                  "name": "metadata",
                  "type": "string"
                }
              ],
              "internalType": "struct IFileRegistry.ProofData",
              "name": "data",
              "type": "tuple"
            }
          ],
          "internalType": "struct IFileRegistry.Proof",
          "name": "proof",
          "type": "tuple"
        }
      ],
      "name": "addProofOrigin",
      "outputs": [],
      "stateMutability": "nonpayable",
      "type": "function"
    },
    {
      "inputs": [
        {
          "internalType": "uint256",
          "name": "fileId",
          "type": "uint256"
        },
        {
          "internalType": "uint256",
          "name": "index",
          "type": "uint256"
        }
      ],
      "name": "filePermissionRequests",
      "outputs": [
        {
          "internalType": "address",
          "name": "",
          "type": "address"
        }
      ],
      "stateMutability": "view",
      "type": "function"
    },
    {
      "inputs": [
        {
          "internalType": "uint256",
          "name": "fileId",
          "type": "uint256"
        },
        {
          "internalType": "address",
          "name": "account",
          "type": "address"
        }
      ],
      "name": "filePermissions",
      "outputs": [
        {
          "internalType": "string",
          "name": "",
          "type": "string"
        }
      ],
      "stateMutability": "view",
      "type": "function"
    },
    {
      "inputs": [
        {
          "internalType": "uint256",
          "name": "fileId",
          "type": "uint256"
        },
        {
          "internalType": "uint256",
          "name": "index",
          "type": "uint256"
        }
      ],
      "name": "fileProofs",
      "outputs": [
        {
          "components": [
            {
              "internalType": "bytes",
              "name": "signature",
              "type": "bytes"
            },
            {
              "components": [
                {
                  "internalType": "uint256",
                  "name": "timestamp",
                  "type": "uint256"
                },
                {
                  "internalType": "string",
                  "name": "decryptedFileChecksum",
                  "type": "string"
                },
                {
                  "internalType": "string",
                  "name": "encryptedFileChecksum",
                  "type": "string"
                },
                {
                  "internalType": "string",
                  "name": "fingerprint",
                  "type": "string"
                },
                {
                  "internalType": "address",
                  "name": "ownerAddress",
                  "type": "address"
                },
                {
                  "internalType": "bytes32",
                  "name": "signedMessage",
                  "type": "bytes32"
                },
                {
                  "components": [
                    {
                      "internalType": "string",
                      "name": "entrypoint",
                      "type": "string"
                    },
                    {
                      "internalType": "string",
                      "name": "url",
                      "type": "string"
                    }
                  ],
                  "internalType": "struct IFileRegistry.Instruction",
                  "name": "instruction",
                  "type": "tuple"
                },
                {
                  "internalType": "bool",
                  "name": "valid",
                  "type": "bool"
                },
                {
                  "internalType": "uint256",
                  "name": "score",
                  "type": "uint256"
                },
                {
                  "internalType": "uint256",
                  "name": "authenticity",
                  "type": "uint256"
                },
                {
                  "internalType": "uint256",
                  "name": "ownership",
                  "type": "uint256"
                },
                {
                  "internalType": "uint256",
                  "name": "quality",
                  "type": "uint256"
                },
                {
                  "internalType": "uint256",
                  "name": "uniqueness",
                  "type": "uint256"
                },
                {
                  "internalType": "string",
                  "name": "metadata",
                  "type": "string"
                }
              ],
              "internalType": "struct IFileRegistry.ProofData",
              "name": "data",
              "type": "tuple"
            }
          ],
          "internalType": "struct IFileRegistry.Proof",
          "name": "",
          "type": "tuple"
        }
      ],
      "stateMutability": "view",
      "type": "function"
    },
    {
      "inputs": [
        {
          "internalType": "uint256",
          "name": "fileId",
          "type": "uint256"
        }
      ],
      "name": "files",
      "outputs": [
        {
          "components": [
            {
              "internalType": "uint256",
              "name": "id",
              "type": "uint256"
            },
            {
              "internalType": "address",
              "name": "ownerAddress",
              "type": "address"
            },
            {
              "internalType": "string",
              "name": "url",
              "type": "string"
            },
            {
              "internalType": "uint256",
              "name": "addedAtBlock",
              "type": "uint256"
            },
            {
              "internalType": "uint256",
              "name": "permissionRequestsCount",
              "type": "uint256"
            }
          ],
          "internalType": "struct IFileRegistry.FileResponse",
          "name": "",
          "type": "tuple"
        }
      ],
      "stateMutability": "view",
      "type": "function"
    },
    {
      "inputs": [],
      "name": "filesCount",
      "outputs": [
        {
          "internalType": "uint256",
          "name": "",
          "type": "uint256"
        }
      ],
      "stateMutability": "view",
      "type": "function"
    },
    {
      "inputs": [
        {
          "internalType": "bytes32",
          "name": "role",
          "type": "bytes32"
        }
      ],
      "name": "getRoleAdmin",
      "outputs": [
        {
          "internalType": "bytes32",
          "name": "",
          "type": "bytes32"
        }
      ],
      "stateMutability": "view",
      "type": "function"
    },
    {
      "inputs": [
        {
          "internalType": "bytes32",
          "name": "role",
          "type": "bytes32"
        },
        {
          "internalType": "address",
          "name": "account",
          "type": "address"
        }
      ],
      "name": "grantRole",
      "outputs": [],
      "stateMutability": "nonpayable",
      "type": "function"
    },
    {
      "inputs": [
        {
          "internalType": "bytes32",
          "name": "role",
          "type": "bytes32"
        },
        {
          "internalType": "address",
          "name": "account",
          "type": "address"
        }
      ],
      "name": "hasRole",
      "outputs": [
        {
          "internalType": "bool",
          "name": "",
          "type": "bool"
        }
      ],
      "stateMutability": "view",
      "type": "function"
    },
    {
      "inputs": [
        {
          "internalType": "address",
          "name": "ownerAddress",
          "type": "address"
        }
      ],
      "name": "initialize",
      "outputs": [],
      "stateMutability": "nonpayable",
      "type": "function"
    },
    {
      "inputs": [],
      "name": "owner",
      "outputs": [
        {
          "internalType": "address",
          "name": "",
          "type": "address"
        }
      ],
      "stateMutability": "view",
      "type": "function"
    },
    {
      "inputs": [],
      "name": "pause",
      "outputs": [],
      "stateMutability": "nonpayable",
      "type": "function"
    },
    {
      "inputs": [],
      "name": "paused",
      "outputs": [
        {
          "internalType": "bool",
          "name": "",
          "type": "bool"
        }
      ],
      "stateMutability": "view",
      "type": "function"
    },
    {
      "inputs": [],
      "name": "pendingOwner",
      "outputs": [
        {
          "internalType": "address",
          "name": "",
          "type": "address"
        }
      ],
      "stateMutability": "view",
      "type": "function"
    },
    {
      "inputs": [],
      "name": "proxiableUUID",
      "outputs": [
        {
          "internalType": "bytes32",
          "name": "",
          "type": "bytes32"
        }
      ],
      "stateMutability": "view",
      "type": "function"
    },
    {
      "inputs": [],
      "name": "renounceOwnership",
      "outputs": [],
      "stateMutability": "nonpayable",
      "type": "function"
    },
    {
      "inputs": [
        {
          "internalType": "bytes32",
          "name": "role",
          "type": "bytes32"
        },
        {
          "internalType": "address",
          "name": "callerConfirmation",
          "type": "address"
        }
      ],
      "name": "renounceRole",
      "outputs": [],
      "stateMutability": "nonpayable",
      "type": "function"
    },
    {
      "inputs": [
        {
          "internalType": "uint256",
          "name": "fileId",
          "type": "uint256"
        }
      ],
      "name": "requestPermission",
      "outputs": [],
      "stateMutability": "nonpayable",
      "type": "function"
    },
    {
      "inputs": [
        {
          "internalType": "bytes32",
          "name": "role",
          "type": "bytes32"
        },
        {
          "internalType": "address",
          "name": "account",
          "type": "address"
        }
      ],
      "name": "revokeRole",
      "outputs": [],
      "stateMutability": "nonpayable",
      "type": "function"
    },
    {
      "inputs": [
        {
          "internalType": "bytes4",
          "name": "interfaceId",
          "type": "bytes4"
        }
      ],
      "name": "supportsInterface",
      "outputs": [
        {
          "internalType": "bool",
          "name": "",
          "type": "bool"
        }
      ],
      "stateMutability": "view",
      "type": "function"
    },
    {
      "inputs": [
        {
          "internalType": "uint256",
          "name": "fileId",
          "type": "uint256"
        },
        {
          "internalType": "uint256",
          "name": "proofIndex",
          "type": "uint256"
        }
      ],
      "name": "testSignature",
      "outputs": [
        {
          "internalType": "address",
          "name": "",
          "type": "address"
        }
      ],
      "stateMutability": "view",
      "type": "function"
    },
    {
      "inputs": [
        {
          "internalType": "address",
          "name": "newOwner",
          "type": "address"
        }
      ],
      "name": "transferOwnership",
      "outputs": [],
      "stateMutability": "nonpayable",
      "type": "function"
    },
    {
      "inputs": [],
      "name": "unpause",
      "outputs": [],
      "stateMutability": "nonpayable",
      "type": "function"
    },
    {
      "inputs": [
        {
          "internalType": "address",
          "name": "newImplementation",
          "type": "address"
        },
        {
          "internalType": "bytes",
          "name": "data",
          "type": "bytes"
        }
      ],
      "name": "upgradeToAndCall",
      "outputs": [],
      "stateMutability": "payable",
      "type": "function"
    },
    {
      "inputs": [],
      "name": "version",
      "outputs": [
        {
          "internalType": "uint256",
          "name": "",
          "type": "uint256"
        }
      ],
      "stateMutability": "pure",
      "type": "function"
    }
  ],
  "transactionHash": "0x1a5df0b35e1cc978cf248f4d17db92bf22c84c0adfcfdd9876ad2e8de4d9cb39",
  "args": [],
  "numDeployments": 3,
  "solcInputHash": "8c022f360da7307219d5504811418790",
  "bytecode": "0x60a0806040523461002a57306080526129349081610030823960805181818161105001526110f80152f35b600080fdfe608080604052600436101561001357600080fd5b60003560e01c90816301ffc9a7146114d2575080631d040503146114b2578063248a9ca3146114765780632f2ff15d1461142a57806336568abe146113e35780633f4ba83a1461136c5780633ff36d65146112d75780634f1ef286146110ba57806352d1902d1461103d57806354fd4d50146110215780635c975abb14610ff157806360f1c43a14610f8857806367a3f59b14610f4a578063715018a614610ec9578063777fa8cb14610e5557806379ba509714610e025780638456cb5914610d9b5780638da5cb5b14610d6557806391d1485414610d0b578063a217fddf14610cef578063ac1abb6814610c6e578063ad3cb1cc14610c28578063bd5ef49114610bc8578063c4d66de814610a69578063d173020d1461073d578063d547741f146106f1578063db54fe7a146106cf578063dbda68db1461039a578063dfb5e9ba1461037c578063e30c397814610346578063eb9b9b64146102f9578063f2fde38b146102725763f4c714b41461018a57600080fd5b3461026d5760208060031936011261026d57600435600060806040516101af81611572565b82815282858201526060604082015282606082015201528060005260018252604060002060018060a01b039061025c60018383541693600284015494610220600386015495604051986102018a611572565b89528989019283526102196040518096819301611980565b038461158d565b6040870192835260608701958652608087019485526040519788978189525190880152511660408601525160a0606086015260c085019061184b565b915160808401525160a08301520390f35b600080fd5b3461026d57602036600319011261026d5761028b611626565b610293612305565b6000805160206128df83398151915280546001600160a01b0319166001600160a01b0392831690811790915560008051602061287f833981519152549091167f38d16b8cac22d99fc7c124b9cd0de2d3fa1faef420bfe791d8c362d765e22700600080a3005b3461026d57602036600319011261026d576004356001600160401b03811161026d5761032c6103399136906004016115c9565b610334611a3b565b612506565b6020600054604051908152f35b3461026d57600036600319011261026d576000805160206128df833981519152546040516001600160a01b039091168152602090f35b3461026d57600036600319011261026d576020600054604051908152f35b3461026d576103a836611870565b906040516103b581611525565b606081526020604051916103c883611556565b600083526060828401526060604084015260608084015260006080840152600060a08401526040516103f981611525565b6060815260608382015260c0840152600060e08401526000610100840152600061012084015260006101408401526000610160840152600061018084015260606101a0840152015260005260016020526007604060002001906000526020526105d060406000206106cb6040519161047083611525565b604051610488816104818185611980565b038261158d565b835260405161049681611556565b600182015481526040516104b1816104818160028701611980565b60208201526040516104ca816104818160038701611980565b60408201526040516104e3816104818160048701611980565b6060820152600f6105a160018060a01b0393846005820154166080850152600681015460a085015260405161051781611525565b60405161052b816104818160078701611980565b8152604051610541816104818160088701611980565b602082015260c085015260ff600982015416151560e0850152600a810154610100850152600b810154610120850152600c810154610140850152600d810154610160850152600e8101546101808501526104816040518094819301611980565b6101a0820152602084019081526101a0610671604051968796602088525160406020890152606088019061184b565b925193601f198785030160408801526106276106156106036101c0885188526020890151908060208a015288019061184b565b6040880151878203604089015261184b565b6060870151868203606088015261184b565b90608086015116608085015260a085015160a085015260c08501519084810360c08601526020610660835160408452604084019061184b565b92015190602081840391015261184b565b9260e0810151151560e08401526101008101516101008401526101208101516101208401526101408101516101408401526101608101516101608401526101808101516101808401520151906101a081840391015261184b565b0390f35b3461026d576106ef6106e036611650565b906106e9611a3b565b33611abc565b005b3461026d57604036600319011261026d576106ef600435610710611610565b908060005260008051602061289f8339815191526020526107386001604060002001546121a4565b612282565b3461026d5761074b36611870565b906000526001602052604060002060070190600052602052604060002060405161077481611525565b604051806107828185611980565b0361078d908261158d565b815260405161079b81611556565b6001830154815260405190816107b48160028701611980565b036107bf908361158d565b60208101918252604051806107d78160038801611980565b036107e2908261158d565b604082810191825251806107f98160048901611980565b03610804908261158d565b60608301908152600160a01b600190039585876005830154169460808101958652600683015460a082019081526040519061083e82611525565b6040518061084f8160078901611980565b0361085a908261158d565b82526040518061086d8160088901611980565b03610878908261158d565b602083015260c08301918252600985015460ff1660e084019015158152600a860154986101008501998a52600b870154926101208601938452600c880154946101408701958652600d89015496610160810197885280600e8b01549961018082019a8b5260405180600f819e01906108ef91611980565b036108fa908d61158d565b6101a082019b8c5260200152519c519a5199519251915190519283519360200151945115159c51955196519751985199519a6040519e8f9d8e91602083015280516040819301916020019161094e92611828565b8d018151918260408301916020019161096692611828565b018151918260408301916020019161097d92611828565b01916001600160601b03199060601b1660408301526054820152815191826074830191602001916109ad92611828565b01815191826074830191602001916109c492611828565b019760f81b60748901526075880152609587015260b586015260d585015260f584015261011592815191828583019160200191610a0092611828565b010360f58101835201610a13908261158d565b805190602001207f19457468657265756d205369676e6564204d6573736167653a0a333200000000600052601c52603c6000209051610a51916126ca565b610a5d91939293612706565b60405191168152602090f35b3461026d57602036600319011261026d57610a82611626565b7ff0c57e16840df040f15088dc2f81fe391c3923bec73e23a9662efc9c229c6a0090815460ff8160401c1615916001600160401b03821680159081610bc0575b6001149081610bb6575b159081610bad575b50610b9b5767ffffffffffffffff1982166001178455610b399183610b7c575b50610afd612689565b610b05612689565b610b0d612689565b610b15612689565b6000805160206128bf833981519152805460ff19169055610b34612689565b612326565b610b3f57005b68ff00000000000000001981541690557fc7f505b2f371ae2175ee4913f4499e1f2633a7b5936321eed1cdaeb6115181d2602060405160018152a1005b68ffffffffffffffffff19166801000000000000000117845584610af4565b60405163f92ee8a960e01b8152600490fd5b90501585610ad4565b303b159150610acc565b849150610ac2565b3461026d57604036600319011261026d576001600160401b0360043581811161026d57610bf99036906004016115c9565b60243591821161026d57610c20610c17610339933690600401611886565b91610334611a3b565b6000546123be565b3461026d57600036600319011261026d576106cb604051610c4881611525565b60058152640352e302e360dc1b602082015260405191829160208352602083019061184b565b3461026d57602036600319011261026d576004356000526001602052604060002060018060a01b0381541660405191610cae836102198160018501611980565b6002810154906006600382015491015490610cdb604051958695865260a0602087015260a086019061184b565b926040850152606084015260808301520390f35b3461026d57600036600319011261026d57602060405160008152f35b3461026d57604036600319011261026d57610d24611610565b60043560005260008051602061289f83398151915260205260406000209060018060a01b0316600052602052602060ff604060002054166040519015158152f35b3461026d57600036600319011261026d5760008051602061287f833981519152546040516001600160a01b039091168152602090f35b3461026d57600036600319011261026d57610db4612305565b610dbc611a3b565b6000805160206128bf833981519152600160ff198254161790557f62e78cea01bee320cd4e420270b5ea74000d11b0c9f74754ebdbfc544b05a2586020604051338152a1005b3461026d57600036600319011261026d576000805160206128df83398151915254336001600160a01b0390911603610e3d576106ef33612326565b60405163118cdaa760e01b8152336004820152602490fd5b3461026d57604036600319011261026d576004356024356001600160401b03811161026d57610e88903690600401611886565b610e90611a3b565b6000828152600160205260409020546001600160a01b03163303610eb7576106ef916123be565b60405163abea322960e01b8152600490fd5b3461026d57600036600319011261026d57610ee2612305565b6000805160206128df83398151915280546001600160a01b031990811690915560008051602061287f833981519152805491821690556000906001600160a01b03167f8be0079c531659141344cd1fd0a4f28419497f9722a3daafe3b4186f6b6457e08280a3005b3461026d57610f5836611870565b906000526001602052600460406000200190600052602052602060018060a01b0360406000205416604051908152f35b3461026d57604036600319011261026d57610fa1611610565b600435600052600160205260056040600020019060018060a01b03166000526020526106cb610481610fdd604060002060405192838092611980565b60405191829160208352602083019061184b565b3461026d57600036600319011261026d57602060ff6000805160206128bf83398151915254166040519015158152f35b3461026d57600036600319011261026d57602060405160018152f35b3461026d57600036600319011261026d577f00000000000000000000000000000000000000000000000000000000000000006001600160a01b031630036110a85760206040517f360894a13ba1a3210667c828492db98dca3e2076cc3735a920a3ca505d382bbc8152f35b60405163703e46dd60e11b8152600490fd5b604036600319011261026d576110ce611626565b6024356001600160401b03811161026d576110ed9036906004016115c9565b906001600160a01b037f000000000000000000000000000000000000000000000000000000000000000081163081149081156112a9575b506110a857611131612305565b6040516352d1902d60e01b8152908216916020918281600481875afa6000918161127a575b5061117457604051634c9c8ce360e01b815260048101859052602490fd5b9284937f360894a13ba1a3210667c828492db98dca3e2076cc3735a920a3ca505d382bbc908181036112625750823b156112495780546001600160a01b03191682179055604051907fbc7cd75a20ee27fd9adebab32041f755214dbc6bffa90cc0225b39da2e5c2d3b600080a283511561122f575060008084846106ef96519101845af4903d15611226573d611209816115ae565b90611217604051928361158d565b8152600081943d92013e61281b565b6060925061281b565b925050503461123a57005b63b398979f60e01b8152600490fd5b604051634c9c8ce360e01b815260048101839052602490fd5b60249060405190632a87526960e21b82526004820152fd5b9091508381813d83116112a2575b611292818361158d565b8101031261026d57519086611156565b503d611288565b9050817f360894a13ba1a3210667c828492db98dca3e2076cc3735a920a3ca505d382bbc5416141584611124565b3461026d57602036600319011261026d576004356112f3611a3b565b806000526001602052600360406000200161130e8154611a16565b9055806000526001602052600460406000206003810154600052016020526040600020336001600160601b0360a01b82541617905533907f539186f88413c222585ff95ba62e32a55eb0153d0265293bfe5b2c324935a0a4600080a3005b3461026d57600036600319011261026d57611385612305565b6000805160206128bf833981519152805460ff8116156113d15760ff191690557f5db9ee0a495bf2e6ff9c91a7834c1ba4fdd244a5e8aa4e537bd38aeae4b073aa6020604051338152a1005b604051638dfc202b60e01b8152600490fd5b3461026d57604036600319011261026d576113fc611610565b336001600160a01b03821603611418576106ef90600435612282565b60405163334bd91960e11b8152600490fd5b3461026d57604036600319011261026d576106ef600435611449611610565b908060005260008051602061289f8339815191526020526114716001604060002001546121a4565b6121f5565b3461026d57602036600319011261026d5760043560005260008051602061289f8339815191526020526020600160406000200154604051908152f35b3461026d576106ef6114c336611650565b906114cc611a3b565b32611abc565b3461026d57602036600319011261026d576004359063ffffffff60e01b821680920361026d57602091637965db0b60e01b8114908115611514575b5015158152f35b6301ffc9a760e01b1490508361150d565b604081019081106001600160401b0382111761154057604052565b634e487b7160e01b600052604160045260246000fd5b6101c081019081106001600160401b0382111761154057604052565b60a081019081106001600160401b0382111761154057604052565b90601f801991011681019081106001600160401b0382111761154057604052565b6001600160401b03811161154057601f01601f191660200190565b81601f8201121561026d578035906115e0826115ae565b926115ee604051948561158d565b8284526020838301011161026d57816000926020809301838601378301015290565b602435906001600160a01b038216820361026d57565b600435906001600160a01b038216820361026d57565b35906001600160a01b038216820361026d57565b906003196040818401811361026d57600491823594602435936001600160401b0380861161026d578484878503011261026d5784519561168f87611525565b8083013582811161026d5784846116a8928401016115c9565b875260248101359082821161026d5701936101c081868603011261026d578551956116d287611556565b838601358752602486013583811161026d5785856116f2928901016115c9565b6020880152604486013583811161026d578585611711928901016115c9565b81880152606486013583811161026d57858561172f928901016115c9565b60608801526117406084870161163c565b608088015260a486013560a088015260c486013583811161026d578190870192838703011261026d57519061177482611525565b8381013583811161026d57858561178d928401016115c9565b8252602481013583811161026d578486916117a99301016115c9565b602082015260c086015260e4840135801515810361026d5760e08601526101048401356101008601526101248401356101208601526101448401356101408601526101648401356101608601526101848401356101808601526101a484013590811161026d5761181a9301016115c9565b6101a0820152602082015290565b60005b83811061183b5750506000910152565b818101518382015260200161182b565b9060209161186481518092818552858086019101611828565b601f01601f1916010190565b604090600319011261026d576004359060243590565b9080601f8301121561026d578135916020916001600160401b03808511611540578460051b90604090604051966118bf8785018961158d565b875285808801938601019484861161026d57868101935b8685106118e857505050505050505090565b843583811161026d5782019084601f19838903011261026d5784519061190d82611525565b6119188a840161163c565b8252858301359185831161026d57611937898c809695819601016115c9565b838201528152019401936118d6565b90600182811c92168015611976575b602083101461196057565b634e487b7160e01b600052602260045260246000fd5b91607f1691611955565b80546000939261198f82611946565b918282526020936001916001811690816000146119f757506001146119b6575b5050505050565b90939495506000929192528360002092846000945b8386106119e3575050505001019038808080806119af565b8054858701830152940193859082016119cb565b60ff19168685015250505090151560051b0101915038808080806119af565b6000198114611a255760010190565b634e487b7160e01b600052601160045260246000fd5b60ff6000805160206128bf8339815191525416611a5457565b60405163d93c066560e01b8152600490fd5b90601f8111611a7457505050565b6000916000526020600020906020601f850160051c83019410611ab2575b601f0160051c01915b828110611aa757505050565b818155600101611a9b565b9092508290611a92565b90918260005260016020526040906005826000200160018060a01b038416600052602052611aed8260002054611946565b156121935783600052600160205260068260002001611b0c8154611a16565b9055836000526001602052600782600020600681015460005201602052816000209080518051906001600160401b03821161154057611b5582611b4f8654611946565b86611a66565b602090601f8311600114612128579180611b8a9260209594600092611e8e575b50508160011b916000199060031b1c19161790565b83555b015191825160018301556002820160208401518051906001600160401b03821161154057611bc582611bbf8554611946565b85611a66565b602090601f83116001146120c057611bf5929160009183611e8e5750508160011b916000199060031b1c19161790565b90555b820151805160038301916001600160401b03821161154057611c1e82611bbf8554611946565b602090601f831160011461205857611c4e929160009183611e8e5750508160011b916000199060031b1c19161790565b90555b60608201518051906001600160401b03821161154057611c8182611c786004860154611946565b60048601611a66565b602090601f8311600114611fea57611cb1929160009183611e8e5750508160011b916000199060031b1c19161790565b60048201555b6005810160018060a01b036080840151166001600160601b0360a01b82541617905560a0820151600682015560c082015180518051906001600160401b03821161154057611d1582611d0c6007870154611946565b60078701611a66565b602090601f8311600114611f77579180611d499260209594600092611e8e5750508160011b916000199060031b1c19161790565b60078401555b01518051906001600160401b03821161154057611d7c82611d736008860154611946565b60088601611a66565b602090601f8311600114611f015782600f936101a09593611db393600092611e8e5750508160011b916000199060031b1c19161790565b60088201555b6009810160e0850151151560ff80198354169116179055610100840151600a820155610120840151600b820155610140840151600c820155610160840151600d820155610180840151600e820155019101518051906001600160401b03821161154057611e2a82611bbf8554611946565b602090601f8311600114611e9957611e5a929160009183611e8e5750508160011b916000199060031b1c19161790565b90555b6001600160a01b0316907f1f310120c84fb25b6c2653131bfefa18228693a3138d87303ca4a51570f600d2600080a3565b015190503880611b75565b90601f198316918460005260206000209260005b818110611ee95750908460019594939210611ed0575b505050811b019055611e5d565b015160001960f88460031b161c19169055388080611ec3565b92936020600181928786015181550195019301611ead565b906008840160005260206000209160005b601f1985168110611f5f5750926101a09492600192600f9583601f19811610611f46575b505050811b016008820155611db9565b015160001960f88460031b161c19169055388080611f36565b91926020600181928685015181550194019201611f12565b906007850160005260206000209160005b601f1985168110611fd2575091839160019360209695601f19811610611fb9575b505050811b016007840155611d4f565b015160001960f88460031b161c19169055388080611fa9565b91926020600181928685015181550194019201611f88565b90601f198316916004850160005260206000209260005b8181106120405750908460019594939210612027575b505050811b016004820155611cb7565b015160001960f88460031b161c19169055388080612017565b92936020600181928786015181550195019301612001565b90601f198316918460005260206000209260005b8181106120a8575090846001959493921061208f575b505050811b019055611c51565b015160001960f88460031b161c19169055388080612082565b9293602060018192878601518155019501930161206c565b90601f198316918460005260206000209260005b81811061211057509084600195949392106120f7575b505050811b019055611bf8565b015160001960f88460031b161c191690553880806120ea565b929360206001819287860151815501950193016120d4565b90601f198316918560005260206000209260005b81811061217b5750916001939185602097969410612162575b505050811b018355611b8d565b015160001960f88460031b161c19169055388080612155565b9293602060018192878601518155019501930161213c565b8151630e98031160e21b8152600490fd5b8060005260008051602061289f83398151915260205260406000203360005260205260ff60406000205416156121d75750565b6044906040519063e2517d3f60e01b82523360048301526024820152fd5b9060009180835260008051602061289f83398151915280602052604084209260018060a01b03169283855260205260ff6040852054161560001461227c578184526020526040832082845260205260408320600160ff198254161790557f2f8788117e7eff1d82e926ec794901d17c78024a50270940304540a733656f0d339380a4600190565b50505090565b9060009180835260008051602061289f83398151915280602052604084209260018060a01b03169283855260205260ff60408520541660001461227c57818452602052604083208284526020526040832060ff1981541690557ff6391f5c32d9c69d2a47ea670b442974b53935d1edc7fd64eb21e047a839171b339380a4600190565b60008051602061287f833981519152546001600160a01b03163303610e3d57565b6000805160206128df83398151915280546001600160a01b031990811690915560008051602061287f83398151915280549182166001600160a01b0393841690811790915591167f8be0079c531659141344cd1fd0a4f28419497f9722a3daafe3b4186f6b6457e0600080a3565b80518210156123a85760209160051b010190565b634e487b7160e01b600052603260045260246000fd5b600092915b8051841015612500576001600160a01b036123de8583612394565b51511693602094856123f08385612394565b51015195846000526001808252604060058160002001846000528352600020918851916001600160401b0383116115405761242f83611b4f8654611946565b81601f841160011461249757505090806124659260019798999a600092611e8e5750508160011b916000199060031b1c19161790565b90555b847f6e0403ef2b13328247bf9260ad8dd9c18fb5a18b95ea25de817ca991da05929b600080a3019291906123c3565b909291601f1983169a8560005282600020926000905b8d82106124e9575050836001999a9b9c106124d0575b505050811b019055612468565b015160001960f88460031b161c191690553880806124c3565b8087859682949686015181550195019301906124ad565b50509050565b6000906125138254611a16565b808355825260019160209280845260408220336001600160601b0360a01b8254161790558154825280604083200183516001600160401b038111612675576125658161255f8454611946565b84611a66565b85601f82116001146125f057916125b9826125e0959387957f2980b13036c0d9df6b71ea9e9c09536efd24d7dd1868e29aa730f0c3fbd1a0dc98916125e5575b508160011b916000199060031b1c19161790565b90555b8154825285524360026040832001555492604051918291868352339683019061184b565b0390a3565b9050880151386125a5565b82855286852090601f198316865b89828210612661575050927f2980b13036c0d9df6b71ea9e9c09536efd24d7dd1868e29aa730f0c3fbd1a0dc969492869492826125e0989410612648575b5050811b0190556125bc565b89015160001960f88460031b161c19169055388061263c565b8984015185559387019392830192016125fe565b634e487b7160e01b84526041600452602484fd5b60ff7ff0c57e16840df040f15088dc2f81fe391c3923bec73e23a9662efc9c229c6a005460401c16156126b857565b604051631afcd79f60e31b8152600490fd5b81519190604183036126fb576126f492506020820151906060604084015193015160001a9061278b565b9192909190565b505060009160029190565b60048110156127755780612718575050565b600181036127325760405163f645eedf60e01b8152600490fd5b600281036127535760405163fce698f760e01b815260048101839052602490fd5b60031461275d5750565b602490604051906335e2f38360e21b82526004820152fd5b634e487b7160e01b600052602160045260246000fd5b91907f7fffffffffffffffffffffffffffffff5d576e7357a4501ddfe92f46681b20a0841161280f57926020929160ff608095604051948552168484015260408301526060820152600092839182805260015afa156128035780516001600160a01b038116156127fa57918190565b50809160019190565b604051903d90823e3d90fd5b50505060009160039190565b90612842575080511561283057805190602001fd5b604051630a12f52160e11b8152600490fd5b81511580612875575b612853575090565b604051639996b31560e01b81526001600160a01b039091166004820152602490fd5b50803b1561284b56fe9016d09d72d40fdae2fd8ceac6b6234c7706214fd39c1cd1e609a0528c19930002dd7bc7dec4dceedda775e58dd541e08a116c6c53815c0bd028192f7b626800cd5ed15c6e187e77e9aee88184c21f4f2182ab5827cb3b7e07fbedcd63f03300237e158222e3e6968b72b9db0d8043aacf074ad9f650f0d1606b4d82ee432c00a264697066735822122068e4429d09cf321272aff374f7c541a343162dda8b43c5c61c57f129f51b064264736f6c63430008180033",
  "devdoc": {
    "errors": {
      "AccessControlBadConfirmation()": [
        {
          "details": "The caller of a function is not the expected one. NOTE: Don't confuse with {AccessControlUnauthorizedAccount}."
        }
      ],
      "AccessControlUnauthorizedAccount(address,bytes32)": [
        {
          "details": "The `account` is missing a role."
        }
      ],
      "AddressEmptyCode(address)": [
        {
          "details": "There's no code at `target` (it is not a contract)."
        }
      ],
      "ECDSAInvalidSignature()": [
        {
          "details": "The signature derives the `address(0)`."
        }
      ],
      "ECDSAInvalidSignatureLength(uint256)": [
        {
          "details": "The signature has an invalid length."
        }
      ],
      "ECDSAInvalidSignatureS(bytes32)": [
        {
          "details": "The signature has an S value that is in the upper half order."
        }
      ],
      "ERC1967InvalidImplementation(address)": [
        {
          "details": "The `implementation` of the proxy is invalid."
        }
      ],
      "ERC1967NonPayable()": [
        {
          "details": "An upgrade function sees `msg.value > 0` that may be lost."
        }
      ],
      "EnforcedPause()": [
        {
          "details": "The operation failed because the contract is paused."
        }
      ],
      "ExpectedPause()": [
        {
          "details": "The operation failed because the contract is not paused."
        }
      ],
      "FailedInnerCall()": [
        {
          "details": "A call to an address target failed. The target may have reverted."
        }
      ],
      "InvalidInitialization()": [
        {
          "details": "The contract is already initialized."
        }
      ],
      "NotInitializing()": [
        {
          "details": "The contract is not initializing."
        }
      ],
      "OwnableInvalidOwner(address)": [
        {
          "details": "The owner is not a valid owner account. (eg. `address(0)`)"
        }
      ],
      "OwnableUnauthorizedAccount(address)": [
        {
          "details": "The caller account is not authorized to perform an operation."
        }
      ],
      "UUPSUnauthorizedCallContext()": [
        {
          "details": "The call is from an unauthorized context."
        }
      ],
      "UUPSUnsupportedProxiableUUID(bytes32)": [
        {
          "details": "The storage `slot` is unsupported as a UUID."
        }
      ]
    },
    "events": {
      "FileAdded(uint256,address,string)": {
        "params": {
          "fileId": "id of the file",
          "ownerAddress": "address of the owner",
          "url": "url of the file"
        }
      },
      "Initialized(uint64)": {
        "details": "Triggered when the contract has been initialized or reinitialized."
      },
      "Paused(address)": {
        "details": "Emitted when the pause is triggered by `account`."
      },
      "PermissionGranted(uint256,address)": {
        "params": {
          "account": "address of the account",
          "fileId": "id of the file"
        }
      },
      "PermissionRequested(uint256,address)": {
        "params": {
          "account": "address of the account",
          "fileId": "id of the file"
        }
      },
      "ProofAdded(uint256,address)": {
        "params": {
          "account": "address of the account",
          "fileId": "id of the file"
        }
      },
      "RoleAdminChanged(bytes32,bytes32,bytes32)": {
        "details": "Emitted when `newAdminRole` is set as ``role``'s admin role, replacing `previousAdminRole` `DEFAULT_ADMIN_ROLE` is the starting admin for all roles, despite {RoleAdminChanged} not being emitted signaling this."
      },
      "RoleGranted(bytes32,address,address)": {
        "details": "Emitted when `account` is granted `role`. `sender` is the account that originated the contract call, an admin role bearer except when using {AccessControl-_setupRole}."
      },
      "RoleRevoked(bytes32,address,address)": {
        "details": "Emitted when `account` is revoked `role`. `sender` is the account that originated the contract call:   - if using `revokeRole`, it is the admin role bearer   - if using `renounceRole`, it is the role bearer (i.e. `account`)"
      },
      "Unpaused(address)": {
        "details": "Emitted when the pause is lifted by `account`."
      },
      "Upgraded(address)": {
        "details": "Emitted when the implementation is upgraded."
      }
    },
    "kind": "dev",
    "methods": {
      "acceptOwnership()": {
        "details": "The new owner accepts the ownership transfer."
      },
      "addFile(string)": {
        "params": {
          "url": "url of the file"
        },
        "returns": {
          "_0": "uint256                          id of the file"
        }
      },
      "addFileWithPermissions(string,(address,string)[])": {
        "params": {
          "permissions": "permissions for the file",
          "url": "url of the file"
        },
        "returns": {
          "_0": "uint256                          id of the file"
        }
      },
      "addPermissions(uint256,(address,string)[])": {
        "params": {
          "fileId": "id of the file",
          "permissions": "permissions for the file"
        }
      },
      "addProof(uint256,(bytes,(uint256,string,string,string,address,bytes32,(string,string),bool,uint256,uint256,uint256,uint256,uint256,string)))": {
        "params": {
          "fileId": "id of the file",
          "proof": "proof for the file"
        }
      },
      "addProofOrigin(uint256,(bytes,(uint256,string,string,string,address,bytes32,(string,string),bool,uint256,uint256,uint256,uint256,uint256,string)))": {
        "params": {
          "fileId": "id of the file",
          "proof": "proof for the file"
        }
      },
      "filePermissionRequests(uint256,uint256)": {
        "params": {
          "fileId": "id of the file",
          "index": "index of the permission request"
        },
        "returns": {
          "_0": "address                          address of the account who requested permission"
        }
      },
      "filePermissions(uint256,address)": {
        "params": {
          "account": "address of the account",
          "fileId": "id of the file"
        },
        "returns": {
          "_0": "string                           key for the account"
        }
      },
      "files(uint256)": {
        "params": {
          "fileId": "id of the file"
        },
        "returns": {
          "_0": "FileResponse                     information about the file"
        }
      },
      "getRoleAdmin(bytes32)": {
        "details": "Returns the admin role that controls `role`. See {grantRole} and {revokeRole}. To change a role's admin, use {_setRoleAdmin}."
      },
      "grantRole(bytes32,address)": {
        "details": "Grants `role` to `account`. If `account` had not been already granted `role`, emits a {RoleGranted} event. Requirements: - the caller must have ``role``'s admin role. May emit a {RoleGranted} event."
      },
      "hasRole(bytes32,address)": {
        "details": "Returns `true` if `account` has been granted `role`."
      },
      "initialize(address)": {
        "params": {
          "ownerAddress": "address of the owner"
        }
      },
      "owner()": {
        "details": "Returns the address of the current owner."
      },
      "pause()": {
        "details": "Pauses the contract"
      },
      "paused()": {
        "details": "Returns true if the contract is paused, and false otherwise."
      },
      "pendingOwner()": {
        "details": "Returns the address of the pending owner."
      },
      "proxiableUUID()": {
        "details": "Implementation of the ERC1822 {proxiableUUID} function. This returns the storage slot used by the implementation. It is used to validate the implementation's compatibility when performing an upgrade. IMPORTANT: A proxy pointing at a proxiable contract should not be considered proxiable itself, because this risks bricking a proxy that upgrades to it, by delegating to itself until out of gas. Thus it is critical that this function revert if invoked through a proxy. This is guaranteed by the `notDelegated` modifier."
      },
      "renounceOwnership()": {
        "details": "Leaves the contract without owner. It will not be possible to call `onlyOwner` functions. Can only be called by the current owner. NOTE: Renouncing ownership will leave the contract without an owner, thereby disabling any functionality that is only available to the owner."
      },
      "renounceRole(bytes32,address)": {
        "details": "Revokes `role` from the calling account. Roles are often managed via {grantRole} and {revokeRole}: this function's purpose is to provide a mechanism for accounts to lose their privileges if they are compromised (such as when a trusted device is misplaced). If the calling account had been revoked `role`, emits a {RoleRevoked} event. Requirements: - the caller must be `callerConfirmation`. May emit a {RoleRevoked} event."
      },
      "requestPermission(uint256)": {
        "params": {
          "fileId": "id of the file"
        }
      },
      "revokeRole(bytes32,address)": {
        "details": "Revokes `role` from `account`. If `account` had been granted `role`, emits a {RoleRevoked} event. Requirements: - the caller must have ``role``'s admin role. May emit a {RoleRevoked} event."
      },
      "supportsInterface(bytes4)": {
        "details": "See {IERC165-supportsInterface}."
      },
      "transferOwnership(address)": {
        "details": "Starts the ownership transfer of the contract to a new account. Replaces the pending transfer if there is one. Can only be called by the current owner."
      },
      "unpause()": {
        "details": "Unpauses the contract"
      },
      "upgradeToAndCall(address,bytes)": {
        "custom:oz-upgrades-unsafe-allow-reachable": "delegatecall",
        "details": "Upgrade the implementation of the proxy to `newImplementation`, and subsequently execute the function call encoded in `data`. Calls {_authorizeUpgrade}. Emits an {Upgraded} event."
      }
    },
    "version": 1
  },
  "userdoc": {
    "events": {
      "FileAdded(uint256,address,string)": {
        "notice": "Triggered when a file has been added"
      },
      "PermissionGranted(uint256,address)": {
        "notice": "Triggered when user has authorized an account to access the file"
      },
      "PermissionRequested(uint256,address)": {
        "notice": "Triggered when user has requested permission for a file"
      },
      "ProofAdded(uint256,address)": {
        "notice": "Triggered when user has added an proof to the file"
      }
    },
    "kind": "user",
    "methods": {
      "addFile(string)": {
        "notice": "Adds a file to the registry"
      },
      "addFileWithPermissions(string,(address,string)[])": {
        "notice": "Adds a file to the registry"
      },
      "addPermissions(uint256,(address,string)[])": {
        "notice": "Adds permissions for accounts to access the file"
      },
      "addProof(uint256,(bytes,(uint256,string,string,string,address,bytes32,(string,string),bool,uint256,uint256,uint256,uint256,uint256,string)))": {
        "notice": "Adds an proof to the file"
      },
      "addProofOrigin(uint256,(bytes,(uint256,string,string,string,address,bytes32,(string,string),bool,uint256,uint256,uint256,uint256,uint256,string)))": {
        "notice": "Adds an proof to the file"
      },
      "filePermissionRequests(uint256,uint256)": {
        "notice": "Returns permission requests for the file"
      },
      "filePermissions(uint256,address)": {
        "notice": "Returns permissions for the file"
      },
      "files(uint256)": {
        "notice": "Returns information about the file"
      },
      "initialize(address)": {
        "notice": "Initialize the contract"
      },
      "requestPermission(uint256)": {
        "notice": "Requests permission for the file"
      },
      "version()": {
        "notice": "Returns the version of the contract"
      }
    },
    "version": 1
  },
  "storageLayout": {
    "storage": [
      {
        "astId": 4614,
        "contract": "contracts/fileRegistry/FileRegistryImplementation.sol:FileRegistryImplementation",
        "label": "filesCount",
        "offset": 0,
        "slot": "0",
        "type": "t_uint256"
      },
      {
        "astId": 4619,
        "contract": "contracts/fileRegistry/FileRegistryImplementation.sol:FileRegistryImplementation",
        "label": "_files",
        "offset": 0,
        "slot": "1",
        "type": "t_mapping(t_uint256,t_struct(File)4690_storage)"
      }
    ],
    "types": {
      "t_address": {
        "encoding": "inplace",
        "label": "address",
        "numberOfBytes": "20"
      },
      "t_bool": {
        "encoding": "inplace",
        "label": "bool",
        "numberOfBytes": "1"
      },
      "t_bytes32": {
        "encoding": "inplace",
        "label": "bytes32",
        "numberOfBytes": "32"
      },
      "t_bytes_storage": {
        "encoding": "bytes",
        "label": "bytes",
        "numberOfBytes": "32"
      },
      "t_mapping(t_address,t_string_storage)": {
        "encoding": "mapping",
        "key": "t_address",
        "label": "mapping(address => string)",
        "numberOfBytes": "32",
        "value": "t_string_storage"
      },
      "t_mapping(t_uint256,t_address)": {
        "encoding": "mapping",
        "key": "t_uint256",
        "label": "mapping(uint256 => address)",
        "numberOfBytes": "32",
        "value": "t_address"
      },
      "t_mapping(t_uint256,t_struct(File)4690_storage)": {
        "encoding": "mapping",
        "key": "t_uint256",
        "label": "mapping(uint256 => struct IFileRegistry.File)",
        "numberOfBytes": "32",
        "value": "t_struct(File)4690_storage"
      },
      "t_mapping(t_uint256,t_struct(Proof)4666_storage)": {
        "encoding": "mapping",
        "key": "t_uint256",
        "label": "mapping(uint256 => struct IFileRegistry.Proof)",
        "numberOfBytes": "32",
        "value": "t_struct(Proof)4666_storage"
      },
      "t_string_storage": {
        "encoding": "bytes",
        "label": "string",
        "numberOfBytes": "32"
      },
      "t_struct(File)4690_storage": {
        "encoding": "inplace",
        "label": "struct IFileRegistry.File",
        "members": [
          {
            "astId": 4668,
            "contract": "contracts/fileRegistry/FileRegistryImplementation.sol:FileRegistryImplementation",
            "label": "ownerAddress",
            "offset": 0,
            "slot": "0",
            "type": "t_address"
          },
          {
            "astId": 4670,
            "contract": "contracts/fileRegistry/FileRegistryImplementation.sol:FileRegistryImplementation",
            "label": "url",
            "offset": 0,
            "slot": "1",
            "type": "t_string_storage"
          },
          {
            "astId": 4672,
            "contract": "contracts/fileRegistry/FileRegistryImplementation.sol:FileRegistryImplementation",
            "label": "addedAtBlock",
            "offset": 0,
            "slot": "2",
            "type": "t_uint256"
          },
          {
            "astId": 4674,
            "contract": "contracts/fileRegistry/FileRegistryImplementation.sol:FileRegistryImplementation",
            "label": "permissionRequestsCount",
            "offset": 0,
            "slot": "3",
            "type": "t_uint256"
          },
          {
            "astId": 4678,
            "contract": "contracts/fileRegistry/FileRegistryImplementation.sol:FileRegistryImplementation",
            "label": "permissionRequests",
            "offset": 0,
            "slot": "4",
            "type": "t_mapping(t_uint256,t_address)"
          },
          {
            "astId": 4682,
            "contract": "contracts/fileRegistry/FileRegistryImplementation.sol:FileRegistryImplementation",
            "label": "permissions",
            "offset": 0,
            "slot": "5",
            "type": "t_mapping(t_address,t_string_storage)"
          },
          {
            "astId": 4684,
            "contract": "contracts/fileRegistry/FileRegistryImplementation.sol:FileRegistryImplementation",
            "label": "proofsCount",
            "offset": 0,
            "slot": "6",
            "type": "t_uint256"
          },
          {
            "astId": 4689,
            "contract": "contracts/fileRegistry/FileRegistryImplementation.sol:FileRegistryImplementation",
            "label": "proofs",
            "offset": 0,
            "slot": "7",
            "type": "t_mapping(t_uint256,t_struct(Proof)4666_storage)"
          }
        ],
        "numberOfBytes": "256"
      },
      "t_struct(Instruction)4630_storage": {
        "encoding": "inplace",
        "label": "struct IFileRegistry.Instruction",
        "members": [
          {
            "astId": 4627,
            "contract": "contracts/fileRegistry/FileRegistryImplementation.sol:FileRegistryImplementation",
            "label": "entrypoint",
            "offset": 0,
            "slot": "0",
            "type": "t_string_storage"
          },
          {
            "astId": 4629,
            "contract": "contracts/fileRegistry/FileRegistryImplementation.sol:FileRegistryImplementation",
            "label": "url",
            "offset": 0,
            "slot": "1",
            "type": "t_string_storage"
          }
        ],
        "numberOfBytes": "64"
      },
      "t_struct(Proof)4666_storage": {
        "encoding": "inplace",
        "label": "struct IFileRegistry.Proof",
        "members": [
          {
            "astId": 4662,
            "contract": "contracts/fileRegistry/FileRegistryImplementation.sol:FileRegistryImplementation",
            "label": "signature",
            "offset": 0,
            "slot": "0",
            "type": "t_bytes_storage"
          },
          {
            "astId": 4665,
            "contract": "contracts/fileRegistry/FileRegistryImplementation.sol:FileRegistryImplementation",
            "label": "data",
            "offset": 0,
            "slot": "1",
            "type": "t_struct(ProofData)4660_storage"
          }
        ],
        "numberOfBytes": "512"
      },
      "t_struct(ProofData)4660_storage": {
        "encoding": "inplace",
        "label": "struct IFileRegistry.ProofData",
        "members": [
          {
            "astId": 4632,
            "contract": "contracts/fileRegistry/FileRegistryImplementation.sol:FileRegistryImplementation",
            "label": "timestamp",
            "offset": 0,
            "slot": "0",
            "type": "t_uint256"
          },
          {
            "astId": 4634,
            "contract": "contracts/fileRegistry/FileRegistryImplementation.sol:FileRegistryImplementation",
            "label": "decryptedFileChecksum",
            "offset": 0,
            "slot": "1",
            "type": "t_string_storage"
          },
          {
            "astId": 4636,
            "contract": "contracts/fileRegistry/FileRegistryImplementation.sol:FileRegistryImplementation",
            "label": "encryptedFileChecksum",
            "offset": 0,
            "slot": "2",
            "type": "t_string_storage"
          },
          {
            "astId": 4638,
            "contract": "contracts/fileRegistry/FileRegistryImplementation.sol:FileRegistryImplementation",
            "label": "fingerprint",
            "offset": 0,
            "slot": "3",
            "type": "t_string_storage"
          },
          {
            "astId": 4640,
            "contract": "contracts/fileRegistry/FileRegistryImplementation.sol:FileRegistryImplementation",
            "label": "ownerAddress",
            "offset": 0,
            "slot": "4",
            "type": "t_address"
          },
          {
            "astId": 4642,
            "contract": "contracts/fileRegistry/FileRegistryImplementation.sol:FileRegistryImplementation",
            "label": "signedMessage",
            "offset": 0,
            "slot": "5",
            "type": "t_bytes32"
          },
          {
            "astId": 4645,
            "contract": "contracts/fileRegistry/FileRegistryImplementation.sol:FileRegistryImplementation",
            "label": "instruction",
            "offset": 0,
            "slot": "6",
            "type": "t_struct(Instruction)4630_storage"
          },
          {
            "astId": 4647,
            "contract": "contracts/fileRegistry/FileRegistryImplementation.sol:FileRegistryImplementation",
            "label": "valid",
            "offset": 0,
            "slot": "8",
            "type": "t_bool"
          },
          {
            "astId": 4649,
            "contract": "contracts/fileRegistry/FileRegistryImplementation.sol:FileRegistryImplementation",
            "label": "score",
            "offset": 0,
            "slot": "9",
            "type": "t_uint256"
          },
          {
            "astId": 4651,
            "contract": "contracts/fileRegistry/FileRegistryImplementation.sol:FileRegistryImplementation",
            "label": "authenticity",
            "offset": 0,
            "slot": "10",
            "type": "t_uint256"
          },
          {
            "astId": 4653,
            "contract": "contracts/fileRegistry/FileRegistryImplementation.sol:FileRegistryImplementation",
            "label": "ownership",
            "offset": 0,
            "slot": "11",
            "type": "t_uint256"
          },
          {
            "astId": 4655,
            "contract": "contracts/fileRegistry/FileRegistryImplementation.sol:FileRegistryImplementation",
            "label": "quality",
            "offset": 0,
            "slot": "12",
            "type": "t_uint256"
          },
          {
            "astId": 4657,
            "contract": "contracts/fileRegistry/FileRegistryImplementation.sol:FileRegistryImplementation",
            "label": "uniqueness",
            "offset": 0,
            "slot": "13",
            "type": "t_uint256"
          },
          {
            "astId": 4659,
            "contract": "contracts/fileRegistry/FileRegistryImplementation.sol:FileRegistryImplementation",
            "label": "metadata",
            "offset": 0,
            "slot": "14",
            "type": "t_string_storage"
          }
        ],
        "numberOfBytes": "480"
      },
      "t_uint256": {
        "encoding": "inplace",
        "label": "uint256",
        "numberOfBytes": "32"
      }
    }
  }
}