{
  "address": "0x670a6c47dffe77Af56b500e8e6843177C228d72a",
  "abi": [
    {
      "inputs": [
        {
          "internalType": "address",
          "name": "target",
          "type": "address"
        }
      ],
      "name": "AddressEmptyCode",
      "type": "error"
    },
    {
      "inputs": [
        {
          "internalType": "address",
          "name": "implementation",
          "type": "address"
        }
      ],
      "name": "ERC1967InvalidImplementation",
      "type": "error"
    },
    {
      "inputs": [],
      "name": "ERC1967NonPayable",
      "type": "error"
    },
    {
      "inputs": [],
      "name": "EnforcedPause",
      "type": "error"
    },
    {
      "inputs": [],
      "name": "ExpectedPause",
      "type": "error"
    },
    {
      "inputs": [],
      "name": "FailedInnerCall",
      "type": "error"
    },
    {
      "inputs": [],
      "name": "InsufficientFee",
      "type": "error"
    },
    {
      "inputs": [],
      "name": "InvalidInitialization",
      "type": "error"
    },
    {
      "inputs": [],
      "name": "JobCompleted",
      "type": "error"
    },
    {
      "inputs": [],
      "name": "NoActiveTee",
      "type": "error"
    },
    {
      "inputs": [],
      "name": "NotInitializing",
      "type": "error"
    },
    {
      "inputs": [],
      "name": "NothingToClaim",
      "type": "error"
    },
    {
      "inputs": [
        {
          "internalType": "address",
          "name": "owner",
          "type": "address"
        }
      ],
      "name": "OwnableInvalidOwner",
      "type": "error"
    },
    {
      "inputs": [
        {
          "internalType": "address",
          "name": "account",
          "type": "address"
        }
      ],
      "name": "OwnableUnauthorizedAccount",
      "type": "error"
    },
    {
      "inputs": [],
      "name": "ReentrancyGuardReentrantCall",
      "type": "error"
    },
    {
      "inputs": [],
      "name": "TeeAlreadyAdded",
      "type": "error"
    },
    {
      "inputs": [],
      "name": "TeeNotActive",
      "type": "error"
    },
    {
      "inputs": [],
      "name": "UUPSUnauthorizedCallContext",
      "type": "error"
    },
    {
      "inputs": [
        {
          "internalType": "bytes32",
          "name": "slot",
          "type": "bytes32"
        }
      ],
      "name": "UUPSUnsupportedProxiableUUID",
      "type": "error"
    },
    {
      "anonymous": false,
      "inputs": [
        {
          "indexed": true,
          "internalType": "address",
          "name": "teeAddress",
          "type": "address"
        },
        {
          "indexed": false,
          "internalType": "uint256",
          "name": "amount",
          "type": "uint256"
        }
      ],
      "name": "Claimed",
      "type": "event"
    },
    {
      "anonymous": false,
      "inputs": [
        {
          "indexed": false,
          "internalType": "uint64",
          "name": "version",
          "type": "uint64"
        }
      ],
      "name": "Initialized",
      "type": "event"
    },
    {
      "anonymous": false,
      "inputs": [
        {
          "indexed": true,
          "internalType": "uint256",
          "name": "jobId",
          "type": "uint256"
        },
        {
          "indexed": true,
          "internalType": "uint256",
          "name": "fileId",
          "type": "uint256"
        },
        {
          "indexed": false,
          "internalType": "uint256",
          "name": "bidAmount",
          "type": "uint256"
        }
      ],
      "name": "JobSubmitted",
      "type": "event"
    },
    {
      "anonymous": false,
      "inputs": [
        {
          "indexed": true,
          "internalType": "address",
          "name": "previousOwner",
          "type": "address"
        },
        {
          "indexed": true,
          "internalType": "address",
          "name": "newOwner",
          "type": "address"
        }
      ],
      "name": "OwnershipTransferStarted",
      "type": "event"
    },
    {
      "anonymous": false,
      "inputs": [
        {
          "indexed": true,
          "internalType": "address",
          "name": "previousOwner",
          "type": "address"
        },
        {
          "indexed": true,
          "internalType": "address",
          "name": "newOwner",
          "type": "address"
        }
      ],
      "name": "OwnershipTransferred",
      "type": "event"
    },
    {
      "anonymous": false,
      "inputs": [
        {
          "indexed": false,
          "internalType": "address",
          "name": "account",
          "type": "address"
        }
      ],
      "name": "Paused",
      "type": "event"
    },
    {
      "anonymous": false,
      "inputs": [
        {
          "indexed": true,
          "internalType": "address",
          "name": "atestator",
          "type": "address"
        },
        {
          "indexed": true,
          "internalType": "uint256",
          "name": "jobId",
          "type": "uint256"
        },
        {
          "indexed": true,
          "internalType": "uint256",
          "name": "fileId",
          "type": "uint256"
        }
      ],
      "name": "ProofAdded",
      "type": "event"
    },
    {
      "anonymous": false,
      "inputs": [
        {
          "indexed": true,
          "internalType": "address",
          "name": "teeAddress",
          "type": "address"
        }
      ],
      "name": "TeeAdded",
      "type": "event"
    },
    {
      "anonymous": false,
      "inputs": [
        {
          "indexed": true,
          "internalType": "address",
          "name": "teeAddress",
          "type": "address"
        }
      ],
      "name": "TeeRemoved",
      "type": "event"
    },
    {
      "anonymous": false,
      "inputs": [
        {
          "indexed": false,
          "internalType": "address",
          "name": "account",
          "type": "address"
        }
      ],
      "name": "Unpaused",
      "type": "event"
    },
    {
      "anonymous": false,
      "inputs": [
        {
          "indexed": true,
          "internalType": "address",
          "name": "implementation",
          "type": "address"
        }
      ],
      "name": "Upgraded",
      "type": "event"
    },
    {
      "inputs": [],
      "name": "UPGRADE_INTERFACE_VERSION",
      "outputs": [
        {
          "internalType": "string",
          "name": "",
          "type": "string"
        }
      ],
      "stateMutability": "view",
      "type": "function"
    },
    {
      "inputs": [],
      "name": "acceptOwnership",
      "outputs": [],
      "stateMutability": "nonpayable",
      "type": "function"
    },
    {
      "inputs": [],
      "name": "activeTeeList",
      "outputs": [
        {
          "internalType": "address[]",
          "name": "",
          "type": "address[]"
        }
      ],
      "stateMutability": "view",
      "type": "function"
    },
    {
      "inputs": [
        {
          "internalType": "uint256",
          "name": "index",
          "type": "uint256"
        }
      ],
      "name": "activeTeeListAt",
      "outputs": [
        {
          "components": [
            {
              "internalType": "address",
              "name": "teeAddress",
              "type": "address"
            },
            {
              "internalType": "string",
              "name": "url",
              "type": "string"
            },
            {
              "internalType": "enum ITeePool.TeeStatus",
              "name": "status",
              "type": "uint8"
            },
            {
              "internalType": "uint256",
              "name": "amount",
              "type": "uint256"
            },
            {
              "internalType": "uint256",
              "name": "withdrawnAmount",
              "type": "uint256"
            }
          ],
          "internalType": "struct ITeePool.TeeDetails",
          "name": "",
          "type": "tuple"
        }
      ],
      "stateMutability": "view",
      "type": "function"
    },
    {
      "inputs": [],
      "name": "activeTeesCount",
      "outputs": [
        {
          "internalType": "uint256",
          "name": "",
          "type": "uint256"
        }
      ],
      "stateMutability": "view",
      "type": "function"
    },
    {
      "inputs": [
        {
          "internalType": "uint256",
          "name": "jobId",
          "type": "uint256"
        },
        {
          "components": [
            {
              "internalType": "bytes",
              "name": "signature",
              "type": "bytes"
            },
            {
              "components": [
                {
                  "internalType": "uint256",
                  "name": "score",
                  "type": "uint256"
                },
                {
                  "internalType": "uint256",
                  "name": "timestamp",
                  "type": "uint256"
                },
                {
                  "internalType": "string",
                  "name": "metadata",
                  "type": "string"
                },
                {
                  "internalType": "string",
                  "name": "proofUrl",
                  "type": "string"
                },
                {
                  "internalType": "string",
                  "name": "instruction",
                  "type": "string"
                }
              ],
              "internalType": "struct IDataRegistry.ProofData",
              "name": "data",
              "type": "tuple"
            }
          ],
          "internalType": "struct IDataRegistry.Proof",
          "name": "proof",
          "type": "tuple"
        }
      ],
      "name": "addProof",
      "outputs": [],
      "stateMutability": "payable",
      "type": "function"
    },
    {
      "inputs": [
        {
          "internalType": "address",
          "name": "teeAddress",
          "type": "address"
        },
        {
          "internalType": "string",
          "name": "url",
          "type": "string"
        }
      ],
      "name": "addTee",
      "outputs": [],
      "stateMutability": "nonpayable",
      "type": "function"
    },
    {
      "inputs": [],
      "name": "claim",
      "outputs": [],
      "stateMutability": "nonpayable",
      "type": "function"
    },
    {
      "inputs": [],
      "name": "dataRegistry",
      "outputs": [
        {
          "internalType": "contract IDataRegistry",
          "name": "",
          "type": "address"
        }
      ],
      "stateMutability": "view",
      "type": "function"
    },
    {
      "inputs": [
        {
          "internalType": "address",
          "name": "ownerAddress",
          "type": "address"
        },
        {
          "internalType": "address",
          "name": "dataRegistryAddress",
          "type": "address"
        }
      ],
      "name": "initialize",
      "outputs": [],
      "stateMutability": "nonpayable",
      "type": "function"
    },
    {
      "inputs": [
        {
          "internalType": "uint256",
          "name": "jobId",
          "type": "uint256"
        }
      ],
      "name": "jobTee",
      "outputs": [
        {
          "components": [
            {
              "internalType": "address",
              "name": "teeAddress",
              "type": "address"
            },
            {
              "internalType": "string",
              "name": "url",
              "type": "string"
            },
            {
              "internalType": "enum ITeePool.TeeStatus",
              "name": "status",
              "type": "uint8"
            },
            {
              "internalType": "uint256",
              "name": "amount",
              "type": "uint256"
            },
            {
              "internalType": "uint256",
              "name": "withdrawnAmount",
              "type": "uint256"
            }
          ],
          "internalType": "struct ITeePool.TeeDetails",
          "name": "",
          "type": "tuple"
        }
      ],
      "stateMutability": "view",
      "type": "function"
    },
    {
      "inputs": [
        {
          "internalType": "uint256",
          "name": "jobId",
          "type": "uint256"
        }
      ],
      "name": "jobs",
      "outputs": [
        {
          "components": [
            {
              "internalType": "uint256",
              "name": "fileId",
              "type": "uint256"
            },
            {
              "internalType": "uint256",
              "name": "bidAmount",
              "type": "uint256"
            },
            {
              "internalType": "enum ITeePool.JobStatus",
              "name": "status",
              "type": "uint8"
            }
          ],
          "internalType": "struct ITeePool.Job",
          "name": "",
          "type": "tuple"
        }
      ],
      "stateMutability": "view",
      "type": "function"
    },
    {
      "inputs": [],
      "name": "jobsCount",
      "outputs": [
        {
          "internalType": "uint256",
          "name": "",
          "type": "uint256"
        }
      ],
      "stateMutability": "view",
      "type": "function"
    },
    {
      "inputs": [],
      "name": "owner",
      "outputs": [
        {
          "internalType": "address",
          "name": "",
          "type": "address"
        }
      ],
      "stateMutability": "view",
      "type": "function"
    },
    {
      "inputs": [],
      "name": "pause",
      "outputs": [],
      "stateMutability": "nonpayable",
      "type": "function"
    },
    {
      "inputs": [],
      "name": "paused",
      "outputs": [
        {
          "internalType": "bool",
          "name": "",
          "type": "bool"
        }
      ],
      "stateMutability": "view",
      "type": "function"
    },
    {
      "inputs": [],
      "name": "pendingOwner",
      "outputs": [
        {
          "internalType": "address",
          "name": "",
          "type": "address"
        }
      ],
      "stateMutability": "view",
      "type": "function"
    },
    {
      "inputs": [],
      "name": "proxiableUUID",
      "outputs": [
        {
          "internalType": "bytes32",
          "name": "",
          "type": "bytes32"
        }
      ],
      "stateMutability": "view",
      "type": "function"
    },
    {
      "inputs": [
        {
          "internalType": "address",
          "name": "teeAddress",
          "type": "address"
        }
      ],
      "name": "removeTee",
      "outputs": [],
      "stateMutability": "nonpayable",
      "type": "function"
    },
    {
      "inputs": [],
      "name": "renounceOwnership",
      "outputs": [],
      "stateMutability": "nonpayable",
      "type": "function"
    },
    {
      "inputs": [
        {
          "internalType": "uint256",
          "name": "fileId",
          "type": "uint256"
        }
      ],
      "name": "requestContributionProof",
      "outputs": [],
      "stateMutability": "payable",
      "type": "function"
    },
    {
      "inputs": [],
      "name": "teeFee",
      "outputs": [
        {
          "internalType": "uint256",
          "name": "",
          "type": "uint256"
        }
      ],
      "stateMutability": "view",
      "type": "function"
    },
    {
      "inputs": [],
      "name": "teeList",
      "outputs": [
        {
          "internalType": "address[]",
          "name": "",
          "type": "address[]"
        }
      ],
      "stateMutability": "view",
      "type": "function"
    },
    {
      "inputs": [
        {
          "internalType": "uint256",
          "name": "index",
          "type": "uint256"
        }
      ],
      "name": "teeListAt",
      "outputs": [
        {
          "components": [
            {
              "internalType": "address",
              "name": "teeAddress",
              "type": "address"
            },
            {
              "internalType": "string",
              "name": "url",
              "type": "string"
            },
            {
              "internalType": "enum ITeePool.TeeStatus",
              "name": "status",
              "type": "uint8"
            },
            {
              "internalType": "uint256",
              "name": "amount",
              "type": "uint256"
            },
            {
              "internalType": "uint256",
              "name": "withdrawnAmount",
              "type": "uint256"
            }
          ],
          "internalType": "struct ITeePool.TeeDetails",
          "name": "",
          "type": "tuple"
        }
      ],
      "stateMutability": "view",
      "type": "function"
    },
    {
      "inputs": [
        {
          "internalType": "address",
          "name": "teeAddress",
          "type": "address"
        }
      ],
      "name": "tees",
      "outputs": [
        {
          "components": [
            {
              "internalType": "address",
              "name": "teeAddress",
              "type": "address"
            },
            {
              "internalType": "string",
              "name": "url",
              "type": "string"
            },
            {
              "internalType": "enum ITeePool.TeeStatus",
              "name": "status",
              "type": "uint8"
            },
            {
              "internalType": "uint256",
              "name": "amount",
              "type": "uint256"
            },
            {
              "internalType": "uint256",
              "name": "withdrawnAmount",
              "type": "uint256"
            }
          ],
          "internalType": "struct ITeePool.TeeDetails",
          "name": "",
          "type": "tuple"
        }
      ],
      "stateMutability": "view",
      "type": "function"
    },
    {
      "inputs": [],
      "name": "teesCount",
      "outputs": [
        {
          "internalType": "uint256",
          "name": "",
          "type": "uint256"
        }
      ],
      "stateMutability": "view",
      "type": "function"
    },
    {
      "inputs": [
        {
          "internalType": "address",
          "name": "newOwner",
          "type": "address"
        }
      ],
      "name": "transferOwnership",
      "outputs": [],
      "stateMutability": "nonpayable",
      "type": "function"
    },
    {
      "inputs": [],
      "name": "unpause",
      "outputs": [],
      "stateMutability": "nonpayable",
      "type": "function"
    },
    {
      "inputs": [
        {
          "internalType": "contract IDataRegistry",
          "name": "newDataRegistry",
          "type": "address"
        }
      ],
      "name": "updateDataRegistry",
      "outputs": [],
      "stateMutability": "nonpayable",
      "type": "function"
    },
    {
      "inputs": [
        {
          "internalType": "uint256",
          "name": "newTeeFee",
          "type": "uint256"
        }
      ],
      "name": "updateTeeFee",
      "outputs": [],
      "stateMutability": "nonpayable",
      "type": "function"
    },
    {
      "inputs": [
        {
          "internalType": "address",
          "name": "newImplementation",
          "type": "address"
        },
        {
          "internalType": "bytes",
          "name": "data",
          "type": "bytes"
        }
      ],
      "name": "upgradeToAndCall",
      "outputs": [],
      "stateMutability": "payable",
      "type": "function"
    },
    {
      "inputs": [],
      "name": "version",
      "outputs": [
        {
          "internalType": "uint256",
          "name": "",
          "type": "uint256"
        }
      ],
      "stateMutability": "pure",
      "type": "function"
    }
  ],
  "transactionHash": "0x9859989a305e2d2638f735d69a267f4edcd294365804526e99cbcedd1f49a3a6",
  "args": [],
  "numDeployments": 2,
  "solcInputHash": "8b3dfc85f725c1a20c71e308475cd86d",
  "bytecode": "0x60a06040523060805234801561001457600080fd5b50608051611ff861003e6000396000818161113f0152818161116801526112ae0152611ff86000f3fe6080604052600436106101e35760003560e01c806373c8839611610102578063ca45a28811610095578063e30c397811610064578063e30c397814610543578063eb07b9c614610558578063f2fde38b1461056d578063f5d548d81461058d57600080fd5b8063ca45a288146104e5578063d2ef73d914610505578063d402919f14610518578063d5fbcf421461052d57600080fd5b8063961884aa116100d1578063961884aa14610454578063a39c1d6b14610474578063ad3cb1cc14610494578063c26045f7146104d257600080fd5b806373c88396146103dd57806379ba5097146103fd5780638456cb59146104125780638da5cb5b1461042757600080fd5b80634e71d92d1161017a5780635b818d36116101495780635b818d36146103635780635c975abb1461037857806369e8de56146103a8578063715018a6146103c857600080fd5b80634e71d92d146103045780634f1ef2861461031957806352d1902d1461032c57806354fd4d501461034f57600080fd5b8063288fffac116101b6578063288fffac1461028f57806336011aca146102af5780633f4ba83a146102cf578063485cc955146102e457600080fd5b80630e2a14a3146101e857806310f3cd301461020a578063180aedf3146102355780631a20409814610262575b600080fd5b3480156101f457600080fd5b5061020861020336600461188b565b6105a3565b005b34801561021657600080fd5b5061021f6105cd565b60405161022c91906118a8565b60405180910390f35b34801561024157600080fd5b506102556102503660046118f5565b6105de565b60405161022c9190611924565b34801561026e57600080fd5b5061028261027d3660046118f5565b610656565b60405161022c91906119a9565b34801561029b57600080fd5b506102086102aa36600461188b565b6106b0565b3480156102bb57600080fd5b506102086102ca366004611b02565b610746565b3480156102db57600080fd5b506102086107f8565b3480156102f057600080fd5b506102086102ff366004611b52565b61080a565b34801561031057600080fd5b50610208610956565b610208610327366004611b02565b610a48565b34801561033857600080fd5b50610341610a67565b60405190815260200161022c565b34801561035b57600080fd5b506001610341565b34801561036f57600080fd5b5061021f610a84565b34801561038457600080fd5b50600080516020611fa38339815191525460ff16604051901515815260200161022c565b3480156103b457600080fd5b506102086103c33660046118f5565b610a90565b3480156103d457600080fd5b50610208610a9d565b3480156103e957600080fd5b506102826103f83660046118f5565b610aaf565b34801561040957600080fd5b50610208610ac5565b34801561041e57600080fd5b50610208610b12565b34801561043357600080fd5b5061043c610b22565b6040516001600160a01b03909116815260200161022c565b34801561046057600080fd5b5061028261046f36600461188b565b610b57565b34801561048057600080fd5b5060005461043c906001600160a01b031681565b3480156104a057600080fd5b506104c5604051806040016040528060058152602001640352e302e360dc1b81525081565b60405161022c9190611b8b565b6102086104e0366004611b9e565b610c88565b3480156104f157600080fd5b506102826105003660046118f5565b610de5565b6102086105133660046118f5565b610dfb565b34801561052457600080fd5b50610341610e96565b34801561053957600080fd5b5061034160015481565b34801561054f57600080fd5b5061043c610ea2565b34801561056457600080fd5b50610341610ecb565b34801561057957600080fd5b5061020861058836600461188b565b610ed7565b34801561059957600080fd5b5061034160085481565b6105ab610f5c565b600080546001600160a01b0319166001600160a01b0392909216919091179055565b60606105d96005610f8e565b905090565b6105e6611816565b6002600083815260200190815260200160002060405180606001604052908160008201548152602001600182015481526020016002820160009054906101000a900460ff16600181111561063c5761063c61190e565b600181111561064d5761064d61190e565b90525092915050565b61065e611847565b6106686005610fa2565b600003610688576040516329ed7f2760e01b815260040160405180910390fd5b6106aa61046f6106986005610fa2565b6106a29085611cc5565b600590610fac565b92915050565b6106b8610f5c565b6106c3600582610fb8565b6106e0576040516310eddccd60e01b815260040160405180910390fd5b6001600160a01b0381166000908152600760205260409020805460ff1916600217905561070e600582610fda565b506040516001600160a01b038216907f18a003b29a5d1b1d6f0603956003fdc00a42ea8db3825c24a6bf532d5bae0bdf90600090a250565b61074e610f5c565b610759600583610fb8565b1561077757604051637668d56b60e01b815260040160405180910390fd5b610782600383610fef565b5061078e600583610fef565b506001600160a01b0382166000908152600760205260409020805460ff191660019081178255016107bf8282611d71565b506040516001600160a01b038316907fcc7ab74a9b11b56487e4c7356320d0be894972f6132884ccd04e04baa284fb7990600090a25050565b610800610f5c565b610808611004565b565b7ff0c57e16840df040f15088dc2f81fe391c3923bec73e23a9662efc9c229c6a008054600160401b810460ff16159067ffffffffffffffff166000811580156108505750825b905060008267ffffffffffffffff16600114801561086d5750303b155b90508115801561087b575080155b156108995760405163f92ee8a960e01b815260040160405180910390fd5b845467ffffffffffffffff1916600117855583156108c357845460ff60401b1916600160401b1785555b6108cb611064565b6108d3611064565b6108db61106c565b6108e361107c565b600080546001600160a01b0319166001600160a01b0388161790556109078761108c565b831561094d57845460ff60401b19168555604051600181527fc7f505b2f371ae2175ee4913f4499e1f2633a7b5936321eed1cdaeb6115181d29060200160405180910390a15b50505050505050565b61095e6110c4565b33600090815260076020526040812060038101546002909101546109829190611e47565b9050806000036109a5576040516312d37ee560e31b815260040160405180910390fd5b3360008181526007602052604080822060028101546003909101555183156108fc0291849190818181858888f193505050501580156109e8573d6000803e3d6000fd5b5060405181815233907fd8138f8a3f377c5259ca548e70e4c2de94f129f5a11036a15b69513cba2b426a9060200160405180910390a25061080860017f9b779b17422d0df92223018b32b4d1fa46e071723d6817e2486d003becc55f0055565b610a50611134565b610a59826111d9565b610a6382826111e1565b5050565b6000610a716112a3565b50600080516020611f8383398151915290565b60606105d96003610f8e565b610a98610f5c565b600855565b610aa5610f5c565b610808600061108c565b610ab7611847565b6106aa61046f600384610fac565b3380610acf610ea2565b6001600160a01b031614610b065760405163118cdaa760e01b81526001600160a01b03821660048201526024015b60405180910390fd5b610b0f8161108c565b50565b610b1a610f5c565b6108086112ec565b6000807f9016d09d72d40fdae2fd8ceac6b6234c7706214fd39c1cd1e609a0528c1993005b546001600160a01b031692915050565b610b5f611847565b6040805160a0810182526001600160a01b03841680825260009081526007602090815292902060010180549192830191610b9890611ce7565b80601f0160208091040260200160405190810160405280929190818152602001828054610bc490611ce7565b8015610c115780601f10610be657610100808354040283529160200191610c11565b820191906000526020600020905b815481529060010190602001808311610bf457829003601f168201915b50505091835250506001600160a01b03841660009081526007602090815260409091205491019060ff166002811115610c4c57610c4c61190e565b81526001600160a01b0390931660008181526007602081815260408084206002810154838a015294909352526003909101549301929092525090565b60013360009081526007602052604090205460ff166002811115610cae57610cae61190e565b14610ccc576040516310eddccd60e01b815260040160405180910390fd5b600082815260026020526040812090600282015460ff166001811115610cf457610cf461190e565b14610d12576040516361ff6d4560e11b815260040160405180910390fd5b600054815460405163c26045f760e01b81526001600160a01b039092169163c26045f791610d44918690600401611e5a565b600060405180830381600087803b158015610d5e57600080fd5b505af1158015610d72573d6000803e3d6000fd5b5050506001820154336000908152600760205260408120600201805492935091610d9d908490611ef5565b909155505060028101805460ff191660011790558054604051849033907f41eb9d6336d189fb4bf444a6b5056628c51aa4405c87f7389a107686e805726390600090a4505050565b610ded611847565b6106aa61046f600584610fac565b600854341015610e1d5760405162976f7560e21b815260040160405180910390fd5b60018054906000610e2d83611f08565b9091555050600180546000908152600260205260408082208490558254825290819020349083018190559154905183927ff54343d979b7d5a02524b04415a6513e2114a8284ccb9cc0e58c12a2190cb23091610e8b91815260200190565b60405180910390a350565b60006105d96005610fa2565b6000807f237e158222e3e6968b72b9db0d8043aacf074ad9f650f0d1606b4d82ee432c00610b47565b60006105d96003610fa2565b610edf610f5c565b7f237e158222e3e6968b72b9db0d8043aacf074ad9f650f0d1606b4d82ee432c0080546001600160a01b0319166001600160a01b0383169081178255610f23610b22565b6001600160a01b03167f38d16b8cac22d99fc7c124b9cd0de2d3fa1faef420bfe791d8c362d765e2270060405160405180910390a35050565b33610f65610b22565b6001600160a01b0316146108085760405163118cdaa760e01b8152336004820152602401610afd565b60606000610f9b83611335565b9392505050565b60006106aa825490565b6000610f9b8383611391565b6001600160a01b03811660009081526001830160205260408120541515610f9b565b6000610f9b836001600160a01b0384166113bb565b6000610f9b836001600160a01b0384166114ae565b61100c6114fd565b600080516020611fa3833981519152805460ff191681557f5db9ee0a495bf2e6ff9c91a7834c1ba4fdd244a5e8aa4e537bd38aeae4b073aa335b6040516001600160a01b03909116815260200160405180910390a150565b61080861152d565b61107461152d565b610808611576565b61108461152d565b610808611597565b7f237e158222e3e6968b72b9db0d8043aacf074ad9f650f0d1606b4d82ee432c0080546001600160a01b0319168155610a638261159f565b7f9b779b17422d0df92223018b32b4d1fa46e071723d6817e2486d003becc55f0080546001190161110857604051633ee5aeb560e01b815260040160405180910390fd5b60029055565b60017f9b779b17422d0df92223018b32b4d1fa46e071723d6817e2486d003becc55f0055565b306001600160a01b037f00000000000000000000000000000000000000000000000000000000000000001614806111bb57507f00000000000000000000000000000000000000000000000000000000000000006001600160a01b03166111af600080516020611f83833981519152546001600160a01b031690565b6001600160a01b031614155b156108085760405163703e46dd60e11b815260040160405180910390fd5b610b0f610f5c565b816001600160a01b03166352d1902d6040518163ffffffff1660e01b8152600401602060405180830381865afa92505050801561123b575060408051601f3d908101601f1916820190925261123891810190611f21565b60015b61126357604051634c9c8ce360e01b81526001600160a01b0383166004820152602401610afd565b600080516020611f83833981519152811461129457604051632a87526960e21b815260048101829052602401610afd565b61129e8383611610565b505050565b306001600160a01b037f000000000000000000000000000000000000000000000000000000000000000016146108085760405163703e46dd60e11b815260040160405180910390fd5b6112f4611666565b600080516020611fa3833981519152805460ff191660011781557f62e78cea01bee320cd4e420270b5ea74000d11b0c9f74754ebdbfc544b05a25833611046565b60608160000180548060200260200160405190810160405280929190818152602001828054801561138557602002820191906000526020600020905b815481526020019060010190808311611371575b50505050509050919050565b60008260000182815481106113a8576113a8611f3a565b9060005260206000200154905092915050565b600081815260018301602052604081205480156114a45760006113df600183611e47565b85549091506000906113f390600190611e47565b905080821461145857600086600001828154811061141357611413611f3a565b906000526020600020015490508087600001848154811061143657611436611f3a565b6000918252602080832090910192909255918252600188019052604090208390555b855486908061146957611469611f50565b6001900381819060005260206000200160009055905585600101600086815260200190815260200160002060009055600193505050506106aa565b60009150506106aa565b60008181526001830160205260408120546114f5575081546001818101845560008481526020808220909301849055845484825282860190935260409020919091556106aa565b5060006106aa565b600080516020611fa38339815191525460ff1661080857604051638dfc202b60e01b815260040160405180910390fd5b7ff0c57e16840df040f15088dc2f81fe391c3923bec73e23a9662efc9c229c6a0054600160401b900460ff1661080857604051631afcd79f60e31b815260040160405180910390fd5b61157e61152d565b600080516020611fa3833981519152805460ff19169055565b61110e61152d565b7f9016d09d72d40fdae2fd8ceac6b6234c7706214fd39c1cd1e609a0528c19930080546001600160a01b031981166001600160a01b03848116918217845560405192169182907f8be0079c531659141344cd1fd0a4f28419497f9722a3daafe3b4186f6b6457e090600090a3505050565b61161982611697565b6040516001600160a01b038316907fbc7cd75a20ee27fd9adebab32041f755214dbc6bffa90cc0225b39da2e5c2d3b90600090a280511561165e5761129e82826116fc565b610a63611772565b600080516020611fa38339815191525460ff16156108085760405163d93c066560e01b815260040160405180910390fd5b806001600160a01b03163b6000036116cd57604051634c9c8ce360e01b81526001600160a01b0382166004820152602401610afd565b600080516020611f8383398151915280546001600160a01b0319166001600160a01b0392909216919091179055565b6060600080846001600160a01b0316846040516117199190611f66565b600060405180830381855af49150503d8060008114611754576040519150601f19603f3d011682016040523d82523d6000602084013e611759565b606091505b5091509150611769858383611791565b95945050505050565b34156108085760405163b398979f60e01b815260040160405180910390fd5b6060826117a6576117a1826117ed565b610f9b565b81511580156117bd57506001600160a01b0384163b155b156117e657604051639996b31560e01b81526001600160a01b0385166004820152602401610afd565b5092915050565b8051156117fd5780518082602001fd5b604051630a12f52160e11b815260040160405180910390fd5b60405180606001604052806000815260200160008152602001600060018111156118425761184261190e565b905290565b6040805160a0810182526000808252606060208301529091820190815260200160008152602001600081525090565b6001600160a01b0381168114610b0f57600080fd5b60006020828403121561189d57600080fd5b8135610f9b81611876565b6020808252825182820181905260009190848201906040850190845b818110156118e95783516001600160a01b0316835292840192918401916001016118c4565b50909695505050505050565b60006020828403121561190757600080fd5b5035919050565b634e487b7160e01b600052602160045260246000fd5b8151815260208083015190820152604082015160608201906002811061194c5761194c61190e565b8060408401525092915050565b60005b8381101561197457818101518382015260200161195c565b50506000910152565b60008151808452611995816020860160208601611959565b601f01601f19169290920160200192915050565b602080825282516001600160a01b03168282015282015160a060408301526000906119d760c084018261197d565b90506040840151600381106119ee576119ee61190e565b8060608501525060608401516080840152608084015160a08401528091505092915050565b634e487b7160e01b600052604160045260246000fd5b6040805190810167ffffffffffffffff81118282101715611a4c57611a4c611a13565b60405290565b60405160a0810167ffffffffffffffff81118282101715611a4c57611a4c611a13565b600082601f830112611a8657600080fd5b813567ffffffffffffffff80821115611aa157611aa1611a13565b604051601f8301601f19908116603f01168101908282118183101715611ac957611ac9611a13565b81604052838152866020858801011115611ae257600080fd5b836020870160208301376000602085830101528094505050505092915050565b60008060408385031215611b1557600080fd5b8235611b2081611876565b9150602083013567ffffffffffffffff811115611b3c57600080fd5b611b4885828601611a75565b9150509250929050565b60008060408385031215611b6557600080fd5b8235611b7081611876565b91506020830135611b8081611876565b809150509250929050565b602081526000610f9b602083018461197d565b60008060408385031215611bb157600080fd5b82359150602083013567ffffffffffffffff80821115611bd057600080fd5b9084019060408287031215611be457600080fd5b611bec611a29565b823582811115611bfb57600080fd5b611c0788828601611a75565b825250602083013582811115611c1c57600080fd5b929092019160a08388031215611c3157600080fd5b611c39611a52565b8335815260208401356020820152604084013583811115611c5957600080fd5b611c6589828701611a75565b604083015250606084013583811115611c7d57600080fd5b611c8989828701611a75565b606083015250608084013583811115611ca157600080fd5b611cad89828701611a75565b60808301525060208201529396939550929350505050565b600082611ce257634e487b7160e01b600052601260045260246000fd5b500690565b600181811c90821680611cfb57607f821691505b602082108103611d1b57634e487b7160e01b600052602260045260246000fd5b50919050565b601f82111561129e576000816000526020600020601f850160051c81016020861015611d4a5750805b601f850160051c820191505b81811015611d6957828155600101611d56565b505050505050565b815167ffffffffffffffff811115611d8b57611d8b611a13565b611d9f81611d998454611ce7565b84611d21565b602080601f831160018114611dd45760008415611dbc5750858301515b600019600386901b1c1916600185901b178555611d69565b600085815260208120601f198616915b82811015611e0357888601518255948401946001909101908401611de4565b5085821015611e215787850151600019600388901b60f8161c191681555b5050505050600190811b01905550565b634e487b7160e01b600052601160045260246000fd5b818103818111156106aa576106aa611e31565b8281526040602082015260008251604080840152611e7b608084018261197d565b90506020840151603f198483030160608501528051825260208101516020830152604081015160a06040840152611eb560a084018261197d565b905060608201518382036060850152611ece828261197d565b915050608082015191508281036080840152611eea818361197d565b979650505050505050565b808201808211156106aa576106aa611e31565b600060018201611f1a57611f1a611e31565b5060010190565b600060208284031215611f3357600080fd5b5051919050565b634e487b7160e01b600052603260045260246000fd5b634e487b7160e01b600052603160045260246000fd5b60008251611f78818460208701611959565b919091019291505056fe360894a13ba1a3210667c828492db98dca3e2076cc3735a920a3ca505d382bbccd5ed15c6e187e77e9aee88184c21f4f2182ab5827cb3b7e07fbedcd63f03300a26469706673582212204661ef66db3e7cee0b8d0f7fe1284503f28b5bddec26a61a6b1a638155e3584f64736f6c63430008180033",
  "devdoc": {
    "errors": {
      "AddressEmptyCode(address)": [
        {
          "details": "There's no code at `target` (it is not a contract)."
        }
      ],
      "ERC1967InvalidImplementation(address)": [
        {
          "details": "The `implementation` of the proxy is invalid."
        }
      ],
      "ERC1967NonPayable()": [
        {
          "details": "An upgrade function sees `msg.value > 0` that may be lost."
        }
      ],
      "EnforcedPause()": [
        {
          "details": "The operation failed because the contract is paused."
        }
      ],
      "ExpectedPause()": [
        {
          "details": "The operation failed because the contract is not paused."
        }
      ],
      "FailedInnerCall()": [
        {
          "details": "A call to an address target failed. The target may have reverted."
        }
      ],
      "InvalidInitialization()": [
        {
          "details": "The contract is already initialized."
        }
      ],
      "NotInitializing()": [
        {
          "details": "The contract is not initializing."
        }
      ],
      "OwnableInvalidOwner(address)": [
        {
          "details": "The owner is not a valid owner account. (eg. `address(0)`)"
        }
      ],
      "OwnableUnauthorizedAccount(address)": [
        {
          "details": "The caller account is not authorized to perform an operation."
        }
      ],
      "ReentrancyGuardReentrantCall()": [
        {
          "details": "Unauthorized reentrant call."
        }
      ],
      "UUPSUnauthorizedCallContext()": [
        {
          "details": "The call is from an unauthorized context."
        }
      ],
      "UUPSUnsupportedProxiableUUID(bytes32)": [
        {
          "details": "The storage `slot` is unsupported as a UUID."
        }
      ]
    },
    "events": {
      "Initialized(uint64)": {
        "details": "Triggered when the contract has been initialized or reinitialized."
      },
      "JobSubmitted(uint256,uint256,uint256)": {
        "params": {
          "bidAmount": "bid amount",
          "fileId": "id of the file",
          "jobId": "id of the job"
        }
      },
      "Paused(address)": {
        "details": "Emitted when the pause is triggered by `account`."
      },
      "Unpaused(address)": {
        "details": "Emitted when the pause is lifted by `account`."
      },
      "Upgraded(address)": {
        "details": "Emitted when the implementation is upgraded."
      }
    },
    "kind": "dev",
    "methods": {
      "acceptOwnership()": {
        "details": "The new owner accepts the ownership transfer."
      },
      "activeTeeListAt(uint256)": {
        "params": {
          "index": "index of the tee"
        },
        "returns": {
          "_0": "TeeDetails                       details of the tee"
        }
      },
      "addProof(uint256,(bytes,(uint256,uint256,string,string,string)))": {
        "params": {
          "jobId": "id of the job",
          "proof": "proof for the file"
        }
      },
      "addTee(address,string)": {
        "params": {
          "teeAddress": "address of the tee",
          "url": "url of the tee"
        }
      },
      "initialize(address,address)": {
        "params": {
          "ownerAddress": "address of the owner"
        }
      },
      "jobTee(uint256)": {
        "params": {
          "jobId": "id of the job"
        },
        "returns": {
          "_0": "TeeDetails                       details of the tee"
        }
      },
      "jobs(uint256)": {
        "params": {
          "jobId": "id of the job"
        },
        "returns": {
          "_0": "Job                              details of the job"
        }
      },
      "owner()": {
        "details": "Returns the address of the current owner."
      },
      "pause()": {
        "details": "Pauses the contract"
      },
      "paused()": {
        "details": "Returns true if the contract is paused, and false otherwise."
      },
      "pendingOwner()": {
        "details": "Returns the address of the pending owner."
      },
      "proxiableUUID()": {
        "details": "Implementation of the ERC1822 {proxiableUUID} function. This returns the storage slot used by the implementation. It is used to validate the implementation's compatibility when performing an upgrade. IMPORTANT: A proxy pointing at a proxiable contract should not be considered proxiable itself, because this risks bricking a proxy that upgrades to it, by delegating to itself until out of gas. Thus it is critical that this function revert if invoked through a proxy. This is guaranteed by the `notDelegated` modifier."
      },
      "removeTee(address)": {
        "params": {
          "teeAddress": "address of the tee"
        }
      },
      "renounceOwnership()": {
        "details": "Leaves the contract without owner. It will not be possible to call `onlyOwner` functions. Can only be called by the current owner. NOTE: Renouncing ownership will leave the contract without an owner, thereby disabling any functionality that is only available to the owner."
      },
      "requestContributionProof(uint256)": {
        "params": {
          "fileId": "id of the file"
        }
      },
      "teeListAt(uint256)": {
        "params": {
          "index": "index of the tee"
        },
        "returns": {
          "_0": "TeeDetails                       details of the tee"
        }
      },
      "tees(address)": {
        "params": {
          "teeAddress": "address of the tee"
        },
        "returns": {
          "_0": "TeeDetails                       details of the tee"
        }
      },
      "transferOwnership(address)": {
        "details": "Starts the ownership transfer of the contract to a new account. Replaces the pending transfer if there is one. Can only be called by the current owner."
      },
      "unpause()": {
        "details": "Unpauses the contract"
      },
      "updateDataRegistry(address)": {
        "params": {
          "newDataRegistry": "new file registry"
        }
      },
      "updateTeeFee(uint256)": {
        "params": {
          "newTeeFee": "new fee"
        }
      },
      "upgradeToAndCall(address,bytes)": {
        "custom:oz-upgrades-unsafe-allow-reachable": "delegatecall",
        "details": "Upgrade the implementation of the proxy to `newImplementation`, and subsequently execute the function call encoded in `data`. Calls {_authorizeUpgrade}. Emits an {Upgraded} event."
      }
    },
    "version": 1
  },
  "userdoc": {
    "events": {
      "JobSubmitted(uint256,uint256,uint256)": {
        "notice": "Triggered when a job has been submitted"
      }
    },
    "kind": "user",
    "methods": {
      "activeTeeList()": {
        "notice": "Returns the list of active tees"
      },
      "activeTeeListAt(uint256)": {
        "notice": "Returns the details of the active tee at the given index"
      },
      "activeTeesCount()": {
        "notice": "Returns the number of active tees"
      },
      "addProof(uint256,(bytes,(uint256,uint256,string,string,string)))": {
        "notice": "Adds a proof to the file"
      },
      "addTee(address,string)": {
        "notice": "Adds a tee to the pool"
      },
      "claim()": {
        "notice": "method used by tees for claiming their rewards"
      },
      "initialize(address,address)": {
        "notice": "Initialize the contract"
      },
      "jobTee(uint256)": {
        "notice": "Returns details of the tee for the given job"
      },
      "jobs(uint256)": {
        "notice": "Returns the details of the job"
      },
      "removeTee(address)": {
        "notice": "Removes a tee from the pool"
      },
      "requestContributionProof(uint256)": {
        "notice": "Request a contribution proof"
      },
      "teeList()": {
        "notice": "Returns the list of tees"
      },
      "teeListAt(uint256)": {
        "notice": "Returns the details of the tee at the given index"
      },
      "tees(address)": {
        "notice": "Returns the details of the tee"
      },
      "teesCount()": {
        "notice": "Returns the number of tees"
      },
      "updateDataRegistry(address)": {
        "notice": "Updates the file registry"
      },
      "updateTeeFee(uint256)": {
        "notice": "Updates the tee fee"
      },
      "version()": {
        "notice": "Returns the version of the contract"
      }
    },
    "version": 1
  },
  "storageLayout": {
    "storage": [
      {
        "astId": 3348,
        "contract": "contracts/teePool/TeePoolImplementation.sol:TeePoolImplementation",
        "label": "dataRegistry",
        "offset": 0,
        "slot": "0",
        "type": "t_contract(IDataRegistry)2531"
      },
      {
        "astId": 3351,
        "contract": "contracts/teePool/TeePoolImplementation.sol:TeePoolImplementation",
        "label": "jobsCount",
        "offset": 0,
        "slot": "1",
        "type": "t_uint256"
      },
      {
        "astId": 3356,
        "contract": "contracts/teePool/TeePoolImplementation.sol:TeePoolImplementation",
        "label": "_jobs",
        "offset": 0,
        "slot": "2",
        "type": "t_mapping(t_uint256,t_struct(Job)3189_storage)"
      },
      {
        "astId": 3359,
        "contract": "contracts/teePool/TeePoolImplementation.sol:TeePoolImplementation",
        "label": "_teeList",
        "offset": 0,
        "slot": "3",
        "type": "t_struct(AddressSet)2130_storage"
      },
      {
        "astId": 3362,
        "contract": "contracts/teePool/TeePoolImplementation.sol:TeePoolImplementation",
        "label": "_activeTeeList",
        "offset": 0,
        "slot": "5",
        "type": "t_struct(AddressSet)2130_storage"
      },
      {
        "astId": 3367,
        "contract": "contracts/teePool/TeePoolImplementation.sol:TeePoolImplementation",
        "label": "_tees",
        "offset": 0,
        "slot": "7",
        "type": "t_mapping(t_address,t_struct(Tee)3199_storage)"
      },
      {
        "astId": 3370,
        "contract": "contracts/teePool/TeePoolImplementation.sol:TeePoolImplementation",
        "label": "teeFee",
        "offset": 0,
        "slot": "8",
        "type": "t_uint256"
      }
    ],
    "types": {
      "t_address": {
        "encoding": "inplace",
        "label": "address",
        "numberOfBytes": "20"
      },
      "t_array(t_bytes32)dyn_storage": {
        "base": "t_bytes32",
        "encoding": "dynamic_array",
        "label": "bytes32[]",
        "numberOfBytes": "32"
      },
      "t_bytes32": {
        "encoding": "inplace",
        "label": "bytes32",
        "numberOfBytes": "32"
      },
      "t_contract(IDataRegistry)2531": {
        "encoding": "inplace",
        "label": "contract IDataRegistry",
        "numberOfBytes": "20"
      },
      "t_enum(JobStatus)3181": {
        "encoding": "inplace",
        "label": "enum ITeePool.JobStatus",
        "numberOfBytes": "1"
      },
      "t_enum(TeeStatus)3178": {
        "encoding": "inplace",
        "label": "enum ITeePool.TeeStatus",
        "numberOfBytes": "1"
      },
      "t_mapping(t_address,t_struct(Tee)3199_storage)": {
        "encoding": "mapping",
        "key": "t_address",
        "label": "mapping(address => struct ITeePool.Tee)",
        "numberOfBytes": "32",
        "value": "t_struct(Tee)3199_storage"
      },
      "t_mapping(t_bytes32,t_uint256)": {
        "encoding": "mapping",
        "key": "t_bytes32",
        "label": "mapping(bytes32 => uint256)",
        "numberOfBytes": "32",
        "value": "t_uint256"
      },
      "t_mapping(t_uint256,t_struct(Job)3189_storage)": {
        "encoding": "mapping",
        "key": "t_uint256",
        "label": "mapping(uint256 => struct ITeePool.Job)",
        "numberOfBytes": "32",
        "value": "t_struct(Job)3189_storage"
      },
      "t_string_storage": {
        "encoding": "bytes",
        "label": "string",
        "numberOfBytes": "32"
      },
      "t_struct(AddressSet)2130_storage": {
        "encoding": "inplace",
        "label": "struct EnumerableSet.AddressSet",
        "members": [
          {
            "astId": 2129,
            "contract": "contracts/teePool/TeePoolImplementation.sol:TeePoolImplementation",
            "label": "_inner",
            "offset": 0,
            "slot": "0",
            "type": "t_struct(Set)1815_storage"
          }
        ],
        "numberOfBytes": "64"
      },
      "t_struct(Job)3189_storage": {
        "encoding": "inplace",
        "label": "struct ITeePool.Job",
        "members": [
          {
            "astId": 3183,
            "contract": "contracts/teePool/TeePoolImplementation.sol:TeePoolImplementation",
            "label": "fileId",
            "offset": 0,
            "slot": "0",
            "type": "t_uint256"
          },
          {
            "astId": 3185,
            "contract": "contracts/teePool/TeePoolImplementation.sol:TeePoolImplementation",
            "label": "bidAmount",
            "offset": 0,
            "slot": "1",
            "type": "t_uint256"
          },
          {
            "astId": 3188,
            "contract": "contracts/teePool/TeePoolImplementation.sol:TeePoolImplementation",
            "label": "status",
            "offset": 0,
            "slot": "2",
            "type": "t_enum(JobStatus)3181"
          }
        ],
        "numberOfBytes": "96"
      },
      "t_struct(Set)1815_storage": {
        "encoding": "inplace",
        "label": "struct EnumerableSet.Set",
        "members": [
          {
            "astId": 1810,
            "contract": "contracts/teePool/TeePoolImplementation.sol:TeePoolImplementation",
            "label": "_values",
            "offset": 0,
            "slot": "0",
            "type": "t_array(t_bytes32)dyn_storage"
          },
          {
            "astId": 1814,
            "contract": "contracts/teePool/TeePoolImplementation.sol:TeePoolImplementation",
            "label": "_positions",
            "offset": 0,
            "slot": "1",
            "type": "t_mapping(t_bytes32,t_uint256)"
          }
        ],
        "numberOfBytes": "64"
      },
      "t_struct(Tee)3199_storage": {
        "encoding": "inplace",
        "label": "struct ITeePool.Tee",
        "members": [
          {
            "astId": 3192,
            "contract": "contracts/teePool/TeePoolImplementation.sol:TeePoolImplementation",
            "label": "status",
            "offset": 0,
            "slot": "0",
            "type": "t_enum(TeeStatus)3178"
          },
          {
            "astId": 3194,
            "contract": "contracts/teePool/TeePoolImplementation.sol:TeePoolImplementation",
            "label": "url",
            "offset": 0,
            "slot": "1",
            "type": "t_string_storage"
          },
          {
            "astId": 3196,
            "contract": "contracts/teePool/TeePoolImplementation.sol:TeePoolImplementation",
            "label": "amount",
            "offset": 0,
            "slot": "2",
            "type": "t_uint256"
          },
          {
            "astId": 3198,
            "contract": "contracts/teePool/TeePoolImplementation.sol:TeePoolImplementation",
            "label": "withdrawnAmount",
            "offset": 0,
            "slot": "3",
            "type": "t_uint256"
          }
        ],
        "numberOfBytes": "128"
      },
      "t_uint256": {
        "encoding": "inplace",
        "label": "uint256",
        "numberOfBytes": "32"
      }
    }
  }
}