{
  "address": "0x90D3ecf6644B2A1c094F00F06A7E2F1286111c87",
  "abi": [
    {
      "inputs": [],
      "stateMutability": "nonpayable",
      "type": "constructor"
    },
    {
      "inputs": [
        {
          "internalType": "address",
          "name": "target",
          "type": "address"
        }
      ],
      "name": "AddressEmptyCode",
      "type": "error"
    },
    {
      "inputs": [],
      "name": "CancelDelayNotPassed",
      "type": "error"
    },
    {
      "inputs": [
        {
          "internalType": "address",
          "name": "implementation",
          "type": "address"
        }
      ],
      "name": "ERC1967InvalidImplementation",
      "type": "error"
    },
    {
      "inputs": [],
      "name": "ERC1967NonPayable",
      "type": "error"
    },
    {
      "inputs": [],
      "name": "EnforcedPause",
      "type": "error"
    },
    {
      "inputs": [],
      "name": "ExpectedPause",
      "type": "error"
    },
    {
      "inputs": [],
      "name": "FailedInnerCall",
      "type": "error"
    },
    {
      "inputs": [],
      "name": "InsufficientFee",
      "type": "error"
    },
    {
      "inputs": [],
      "name": "InvalidInitialization",
      "type": "error"
    },
    {
      "inputs": [],
      "name": "InvalidJobStatus",
      "type": "error"
    },
    {
      "inputs": [],
      "name": "JobCompleted",
      "type": "error"
    },
    {
      "inputs": [],
      "name": "NoActiveTee",
      "type": "error"
    },
    {
      "inputs": [],
      "name": "NotInitializing",
      "type": "error"
    },
    {
      "inputs": [],
      "name": "NotJobOwner",
      "type": "error"
    },
    {
      "inputs": [],
      "name": "NothingToClaim",
      "type": "error"
    },
    {
      "inputs": [
        {
          "internalType": "address",
          "name": "owner",
          "type": "address"
        }
      ],
      "name": "OwnableInvalidOwner",
      "type": "error"
    },
    {
      "inputs": [
        {
          "internalType": "address",
          "name": "account",
          "type": "address"
        }
      ],
      "name": "OwnableUnauthorizedAccount",
      "type": "error"
    },
    {
      "inputs": [],
      "name": "ReentrancyGuardReentrantCall",
      "type": "error"
    },
    {
      "inputs": [],
      "name": "TeeAlreadyAdded",
      "type": "error"
    },
    {
      "inputs": [],
      "name": "TeeNotActive",
      "type": "error"
    },
    {
      "inputs": [],
      "name": "TransferFailed",
      "type": "error"
    },
    {
      "inputs": [],
      "name": "UUPSUnauthorizedCallContext",
      "type": "error"
    },
    {
      "inputs": [
        {
          "internalType": "bytes32",
          "name": "slot",
          "type": "bytes32"
        }
      ],
      "name": "UUPSUnsupportedProxiableUUID",
      "type": "error"
    },
    {
      "anonymous": false,
      "inputs": [
        {
          "indexed": true,
          "internalType": "address",
          "name": "teeAddress",
          "type": "address"
        },
        {
          "indexed": false,
          "internalType": "uint256",
          "name": "amount",
          "type": "uint256"
        }
      ],
      "name": "Claimed",
      "type": "event"
    },
    {
      "anonymous": false,
      "inputs": [
        {
          "indexed": false,
          "internalType": "uint64",
          "name": "version",
          "type": "uint64"
        }
      ],
      "name": "Initialized",
      "type": "event"
    },
    {
      "anonymous": false,
      "inputs": [
        {
          "indexed": true,
          "internalType": "uint256",
          "name": "jobId",
          "type": "uint256"
        }
      ],
      "name": "JobCanceled",
      "type": "event"
    },
    {
      "anonymous": false,
      "inputs": [
        {
          "indexed": true,
          "internalType": "uint256",
          "name": "jobId",
          "type": "uint256"
        },
        {
          "indexed": true,
          "internalType": "uint256",
          "name": "fileId",
          "type": "uint256"
        },
        {
          "indexed": false,
          "internalType": "uint256",
          "name": "bidAmount",
          "type": "uint256"
        }
      ],
      "name": "JobSubmitted",
      "type": "event"
    },
    {
      "anonymous": false,
      "inputs": [
        {
          "indexed": true,
          "internalType": "address",
          "name": "previousOwner",
          "type": "address"
        },
        {
          "indexed": true,
          "internalType": "address",
          "name": "newOwner",
          "type": "address"
        }
      ],
      "name": "OwnershipTransferStarted",
      "type": "event"
    },
    {
      "anonymous": false,
      "inputs": [
        {
          "indexed": true,
          "internalType": "address",
          "name": "previousOwner",
          "type": "address"
        },
        {
          "indexed": true,
          "internalType": "address",
          "name": "newOwner",
          "type": "address"
        }
      ],
      "name": "OwnershipTransferred",
      "type": "event"
    },
    {
      "anonymous": false,
      "inputs": [
        {
          "indexed": false,
          "internalType": "address",
          "name": "account",
          "type": "address"
        }
      ],
      "name": "Paused",
      "type": "event"
    },
    {
      "anonymous": false,
      "inputs": [
        {
          "indexed": true,
          "internalType": "address",
          "name": "attestator",
          "type": "address"
        },
        {
          "indexed": true,
          "internalType": "uint256",
          "name": "jobId",
          "type": "uint256"
        },
        {
          "indexed": true,
          "internalType": "uint256",
          "name": "fileId",
          "type": "uint256"
        }
      ],
      "name": "ProofAdded",
      "type": "event"
    },
    {
      "anonymous": false,
      "inputs": [
        {
          "indexed": true,
          "internalType": "address",
          "name": "teeAddress",
          "type": "address"
        }
      ],
      "name": "TeeAdded",
      "type": "event"
    },
    {
      "anonymous": false,
      "inputs": [
        {
          "indexed": true,
          "internalType": "address",
          "name": "teeAddress",
          "type": "address"
        }
      ],
      "name": "TeeRemoved",
      "type": "event"
    },
    {
      "anonymous": false,
      "inputs": [
        {
          "indexed": false,
          "internalType": "address",
          "name": "account",
          "type": "address"
        }
      ],
      "name": "Unpaused",
      "type": "event"
    },
    {
      "anonymous": false,
      "inputs": [
        {
          "indexed": true,
          "internalType": "address",
          "name": "implementation",
          "type": "address"
        }
      ],
      "name": "Upgraded",
      "type": "event"
    },
    {
      "inputs": [],
      "name": "UPGRADE_INTERFACE_VERSION",
      "outputs": [
        {
          "internalType": "string",
          "name": "",
          "type": "string"
        }
      ],
      "stateMutability": "view",
      "type": "function"
    },
    {
      "inputs": [],
      "name": "acceptOwnership",
      "outputs": [],
      "stateMutability": "nonpayable",
      "type": "function"
    },
    {
      "inputs": [],
      "name": "activeTeeList",
      "outputs": [
        {
          "internalType": "address[]",
          "name": "",
          "type": "address[]"
        }
      ],
      "stateMutability": "view",
      "type": "function"
    },
    {
      "inputs": [
        {
          "internalType": "uint256",
          "name": "index",
          "type": "uint256"
        }
      ],
      "name": "activeTeeListAt",
      "outputs": [
        {
          "components": [
            {
              "internalType": "address",
              "name": "teeAddress",
              "type": "address"
            },
            {
              "internalType": "string",
              "name": "url",
              "type": "string"
            },
            {
              "internalType": "enum ITeePool.TeeStatus",
              "name": "status",
              "type": "uint8"
            },
            {
              "internalType": "uint256",
              "name": "amount",
              "type": "uint256"
            },
            {
              "internalType": "uint256",
              "name": "withdrawnAmount",
              "type": "uint256"
            }
          ],
          "internalType": "struct ITeePool.TeeInfo",
          "name": "",
          "type": "tuple"
        }
      ],
      "stateMutability": "view",
      "type": "function"
    },
    {
      "inputs": [],
      "name": "activeTeesCount",
      "outputs": [
        {
          "internalType": "uint256",
          "name": "",
          "type": "uint256"
        }
      ],
      "stateMutability": "view",
      "type": "function"
    },
    {
      "inputs": [
        {
          "internalType": "uint256",
          "name": "jobId",
          "type": "uint256"
        },
        {
          "components": [
            {
              "internalType": "bytes",
              "name": "signature",
              "type": "bytes"
            },
            {
              "components": [
                {
                  "internalType": "uint256",
                  "name": "score",
                  "type": "uint256"
                },
                {
                  "internalType": "uint256",
                  "name": "timestamp",
                  "type": "uint256"
                },
                {
                  "internalType": "string",
                  "name": "metadata",
                  "type": "string"
                },
                {
                  "internalType": "string",
                  "name": "proofUrl",
                  "type": "string"
                },
                {
                  "internalType": "string",
                  "name": "instruction",
                  "type": "string"
                }
              ],
              "internalType": "struct IDataRegistry.ProofData",
              "name": "data",
              "type": "tuple"
            }
          ],
          "internalType": "struct IDataRegistry.Proof",
          "name": "proof",
          "type": "tuple"
        }
      ],
      "name": "addProof",
      "outputs": [],
      "stateMutability": "payable",
      "type": "function"
    },
    {
      "inputs": [
        {
          "internalType": "address",
          "name": "teeAddress",
          "type": "address"
        },
        {
          "internalType": "string",
          "name": "url",
          "type": "string"
        }
      ],
      "name": "addTee",
      "outputs": [],
      "stateMutability": "nonpayable",
      "type": "function"
    },
    {
      "inputs": [],
      "name": "cancelDelay",
      "outputs": [
        {
          "internalType": "uint256",
          "name": "",
          "type": "uint256"
        }
      ],
      "stateMutability": "view",
      "type": "function"
    },
    {
      "inputs": [
        {
          "internalType": "uint256",
          "name": "jobId",
          "type": "uint256"
        }
      ],
      "name": "cancelJob",
      "outputs": [],
      "stateMutability": "nonpayable",
      "type": "function"
    },
    {
      "inputs": [],
      "name": "claim",
      "outputs": [],
      "stateMutability": "nonpayable",
      "type": "function"
    },
    {
      "inputs": [],
      "name": "dataRegistry",
      "outputs": [
        {
          "internalType": "contract IDataRegistry",
          "name": "",
          "type": "address"
        }
      ],
      "stateMutability": "view",
      "type": "function"
    },
    {
      "inputs": [
        {
          "internalType": "address",
          "name": "ownerAddress",
          "type": "address"
        },
        {
          "internalType": "address",
          "name": "dataRegistryAddress",
          "type": "address"
        },
        {
          "internalType": "uint256",
          "name": "initialCancelDelay",
          "type": "uint256"
        }
      ],
      "name": "initialize",
      "outputs": [],
      "stateMutability": "nonpayable",
      "type": "function"
    },
    {
      "inputs": [
        {
          "internalType": "address",
          "name": "teeAddress",
          "type": "address"
        }
      ],
      "name": "isTee",
      "outputs": [
        {
          "internalType": "bool",
          "name": "",
          "type": "bool"
        }
      ],
      "stateMutability": "view",
      "type": "function"
    },
    {
      "inputs": [
        {
          "internalType": "uint256",
          "name": "jobId",
          "type": "uint256"
        }
      ],
      "name": "jobTee",
      "outputs": [
        {
          "components": [
            {
              "internalType": "address",
              "name": "teeAddress",
              "type": "address"
            },
            {
              "internalType": "string",
              "name": "url",
              "type": "string"
            },
            {
              "internalType": "enum ITeePool.TeeStatus",
              "name": "status",
              "type": "uint8"
            },
            {
              "internalType": "uint256",
              "name": "amount",
              "type": "uint256"
            },
            {
              "internalType": "uint256",
              "name": "withdrawnAmount",
              "type": "uint256"
            }
          ],
          "internalType": "struct ITeePool.TeeInfo",
          "name": "",
          "type": "tuple"
        }
      ],
      "stateMutability": "view",
      "type": "function"
    },
    {
      "inputs": [
        {
          "internalType": "uint256",
          "name": "jobId",
          "type": "uint256"
        }
      ],
      "name": "jobs",
      "outputs": [
        {
          "components": [
            {
              "internalType": "uint256",
              "name": "fileId",
              "type": "uint256"
            },
            {
              "internalType": "uint256",
              "name": "bidAmount",
              "type": "uint256"
            },
            {
              "internalType": "enum ITeePool.JobStatus",
              "name": "status",
              "type": "uint8"
            },
            {
              "internalType": "uint256",
              "name": "addedTimestamp",
              "type": "uint256"
            },
            {
              "internalType": "address",
              "name": "ownerAddress",
              "type": "address"
            }
          ],
          "internalType": "struct ITeePool.Job",
          "name": "",
          "type": "tuple"
        }
      ],
      "stateMutability": "view",
      "type": "function"
    },
    {
      "inputs": [],
      "name": "jobsCount",
      "outputs": [
        {
          "internalType": "uint256",
          "name": "",
          "type": "uint256"
        }
      ],
      "stateMutability": "view",
      "type": "function"
    },
    {
      "inputs": [],
      "name": "owner",
      "outputs": [
        {
          "internalType": "address",
          "name": "",
          "type": "address"
        }
      ],
      "stateMutability": "view",
      "type": "function"
    },
    {
      "inputs": [],
      "name": "pause",
      "outputs": [],
      "stateMutability": "nonpayable",
      "type": "function"
    },
    {
      "inputs": [],
      "name": "paused",
      "outputs": [
        {
          "internalType": "bool",
          "name": "",
          "type": "bool"
        }
      ],
      "stateMutability": "view",
      "type": "function"
    },
    {
      "inputs": [],
      "name": "pendingOwner",
      "outputs": [
        {
          "internalType": "address",
          "name": "",
          "type": "address"
        }
      ],
      "stateMutability": "view",
      "type": "function"
    },
    {
      "inputs": [],
      "name": "proxiableUUID",
      "outputs": [
        {
          "internalType": "bytes32",
          "name": "",
          "type": "bytes32"
        }
      ],
      "stateMutability": "view",
      "type": "function"
    },
    {
      "inputs": [
        {
          "internalType": "address",
          "name": "teeAddress",
          "type": "address"
        }
      ],
      "name": "removeTee",
      "outputs": [],
      "stateMutability": "nonpayable",
      "type": "function"
    },
    {
      "inputs": [],
      "name": "renounceOwnership",
      "outputs": [],
      "stateMutability": "nonpayable",
      "type": "function"
    },
    {
      "inputs": [
        {
          "internalType": "uint256",
          "name": "fileId",
          "type": "uint256"
        }
      ],
      "name": "requestContributionProof",
      "outputs": [],
      "stateMutability": "payable",
      "type": "function"
    },
    {
      "inputs": [
        {
          "internalType": "uint256",
          "name": "fileId",
          "type": "uint256"
        }
      ],
      "name": "submitJob",
      "outputs": [],
      "stateMutability": "payable",
      "type": "function"
    },
    {
      "inputs": [],
      "name": "teeFee",
      "outputs": [
        {
          "internalType": "uint256",
          "name": "",
          "type": "uint256"
        }
      ],
      "stateMutability": "view",
      "type": "function"
    },
    {
      "inputs": [],
      "name": "teeList",
      "outputs": [
        {
          "internalType": "address[]",
          "name": "",
          "type": "address[]"
        }
      ],
      "stateMutability": "view",
      "type": "function"
    },
    {
      "inputs": [
        {
          "internalType": "uint256",
          "name": "index",
          "type": "uint256"
        }
      ],
      "name": "teeListAt",
      "outputs": [
        {
          "components": [
            {
              "internalType": "address",
              "name": "teeAddress",
              "type": "address"
            },
            {
              "internalType": "string",
              "name": "url",
              "type": "string"
            },
            {
              "internalType": "enum ITeePool.TeeStatus",
              "name": "status",
              "type": "uint8"
            },
            {
              "internalType": "uint256",
              "name": "amount",
              "type": "uint256"
            },
            {
              "internalType": "uint256",
              "name": "withdrawnAmount",
              "type": "uint256"
            }
          ],
          "internalType": "struct ITeePool.TeeInfo",
          "name": "",
          "type": "tuple"
        }
      ],
      "stateMutability": "view",
      "type": "function"
    },
    {
      "inputs": [
        {
          "internalType": "address",
          "name": "teeAddress",
          "type": "address"
        }
      ],
      "name": "tees",
      "outputs": [
        {
          "components": [
            {
              "internalType": "address",
              "name": "teeAddress",
              "type": "address"
            },
            {
              "internalType": "string",
              "name": "url",
              "type": "string"
            },
            {
              "internalType": "enum ITeePool.TeeStatus",
              "name": "status",
              "type": "uint8"
            },
            {
              "internalType": "uint256",
              "name": "amount",
              "type": "uint256"
            },
            {
              "internalType": "uint256",
              "name": "withdrawnAmount",
              "type": "uint256"
            }
          ],
          "internalType": "struct ITeePool.TeeInfo",
          "name": "",
          "type": "tuple"
        }
      ],
      "stateMutability": "view",
      "type": "function"
    },
    {
      "inputs": [],
      "name": "teesCount",
      "outputs": [
        {
          "internalType": "uint256",
          "name": "",
          "type": "uint256"
        }
      ],
      "stateMutability": "view",
      "type": "function"
    },
    {
      "inputs": [
        {
          "internalType": "address",
          "name": "newOwner",
          "type": "address"
        }
      ],
      "name": "transferOwnership",
      "outputs": [],
      "stateMutability": "nonpayable",
      "type": "function"
    },
    {
      "inputs": [],
      "name": "unpause",
      "outputs": [],
      "stateMutability": "nonpayable",
      "type": "function"
    },
    {
      "inputs": [
        {
          "internalType": "uint256",
          "name": "newCancelDelay",
          "type": "uint256"
        }
      ],
      "name": "updateCancelDelay",
      "outputs": [],
      "stateMutability": "nonpayable",
      "type": "function"
    },
    {
      "inputs": [
        {
          "internalType": "contract IDataRegistry",
          "name": "newDataRegistry",
          "type": "address"
        }
      ],
      "name": "updateDataRegistry",
      "outputs": [],
      "stateMutability": "nonpayable",
      "type": "function"
    },
    {
      "inputs": [
        {
          "internalType": "uint256",
          "name": "newTeeFee",
          "type": "uint256"
        }
      ],
      "name": "updateTeeFee",
      "outputs": [],
      "stateMutability": "nonpayable",
      "type": "function"
    },
    {
      "inputs": [
        {
          "internalType": "address",
          "name": "newImplementation",
          "type": "address"
        },
        {
          "internalType": "bytes",
          "name": "data",
          "type": "bytes"
        }
      ],
      "name": "upgradeToAndCall",
      "outputs": [],
      "stateMutability": "payable",
      "type": "function"
    },
    {
      "inputs": [],
      "name": "version",
      "outputs": [
        {
          "internalType": "uint256",
          "name": "",
          "type": "uint256"
        }
      ],
      "stateMutability": "pure",
      "type": "function"
    }
  ],
  "transactionHash": "0xad315e4c1b7764e144ef893e81548a6f2335c84d896360321b4a75db602fb5e7",
  "args": [],
  "numDeployments": 1,
  "solcInputHash": "607a8b9d3c8ae0738f4d31f58e0131ac",
  "bytecode": "0x60a06040523060805234801561001457600080fd5b5061001d610022565b6100d4565b7ff0c57e16840df040f15088dc2f81fe391c3923bec73e23a9662efc9c229c6a00805468010000000000000000900460ff16156100725760405163f92ee8a960e01b815260040160405180910390fd5b80546001600160401b03908116146100d15780546001600160401b0319166001600160401b0390811782556040519081527fc7f505b2f371ae2175ee4913f4499e1f2633a7b5936321eed1cdaeb6115181d29060200160405180910390a15b50565b608051612352620000fe600039600081816114460152818161146f01526115b501526123526000f3fe60806040526004361061021a5760003560e01c8063715018a611610123578063c26045f7116100ab578063e30c39781161006f578063e30c3978146105f1578063e7aa019414610606578063eb07b9c614610619578063f2fde38b1461062e578063f5d548d81461064e57600080fd5b8063c26045f714610580578063ca45a28814610593578063d2ef73d9146105b3578063d402919f146105c6578063d5fbcf42146105db57600080fd5b80638da5cb5b116100f25780638da5cb5b146104b5578063961884aa146104e2578063a39c1d6b14610502578063a7016f7014610522578063ad3cb1cc1461054257600080fd5b8063715018a61461045657806373c883961461046b57806379ba50971461048b5780638456cb59146104a057600080fd5b80634e71d92d116101a6578063576d6d4d11610175578063576d6d4d146103ba5780635b818d36146103da5780635c975abb146103ef578063638a0f091461042057806369e8de561461043657600080fd5b80634e71d92d1461035b5780634f1ef2861461037057806352d1902d1461038357806354fd4d50146103a657600080fd5b80631a204098116101ed5780631a204098146102b95780631dffa3dc146102e6578063288fffac1461030657806336011aca146103265780633f4ba83a1461034657600080fd5b80630e2a14a31461021f57806310f3cd30146102415780631794bb3c1461026c578063180aedf31461028c575b600080fd5b34801561022b57600080fd5b5061023f61023a366004611ba1565b610664565b005b34801561024d57600080fd5b5061025661068e565b6040516102639190611bbe565b60405180910390f35b34801561027857600080fd5b5061023f610287366004611c0b565b61069f565b34801561029857600080fd5b506102ac6102a7366004611c4c565b6107f1565b6040516102639190611c7b565b3480156102c557600080fd5b506102d96102d4366004611c4c565b610878565b6040516102639190611d1c565b3480156102f257600080fd5b5061023f610301366004611c4c565b6108d2565b34801561031257600080fd5b5061023f610321366004611ba1565b610a72565b34801561033257600080fd5b5061023f610341366004611e75565b610b08565b34801561035257600080fd5b5061023f610bba565b34801561036757600080fd5b5061023f610bcc565b61023f61037e366004611e75565b610ce9565b34801561038f57600080fd5b50610398610d08565b604051908152602001610263565b3480156103b257600080fd5b506001610398565b3480156103c657600080fd5b5061023f6103d5366004611c4c565b610d25565b3480156103e657600080fd5b50610256610d32565b3480156103fb57600080fd5b506000805160206122dd8339815191525460ff165b6040519015158152602001610263565b34801561042c57600080fd5b5061039860095481565b34801561044257600080fd5b5061023f610451366004611c4c565b610d3e565b34801561046257600080fd5b5061023f610d4b565b34801561047757600080fd5b506102d9610486366004611c4c565b610d5d565b34801561049757600080fd5b5061023f610d73565b3480156104ac57600080fd5b5061023f610dbd565b3480156104c157600080fd5b506104ca610dcd565b6040516001600160a01b039091168152602001610263565b3480156104ee57600080fd5b506102d96104fd366004611ba1565b610e02565b34801561050e57600080fd5b506000546104ca906001600160a01b031681565b34801561052e57600080fd5b5061041061053d366004611ba1565b610f33565b34801561054e57600080fd5b50610573604051806040016040528060058152602001640352e302e360dc1b81525081565b6040516102639190611ec5565b61023f61058e366004611ed8565b610f6b565b34801561059f57600080fd5b506102d96105ae366004611c4c565b6110ca565b61023f6105c1366004611c4c565b6110e0565b3480156105d257600080fd5b506103986111b8565b3480156105e757600080fd5b5061039860015481565b3480156105fd57600080fd5b506104ca6111c4565b61023f610614366004611c4c565b6111ed565b34801561062557600080fd5b506103986111f6565b34801561063a57600080fd5b5061023f610649366004611ba1565b611202565b34801561065a57600080fd5b5061039860085481565b61066c611287565b600080546001600160a01b0319166001600160a01b0392909216919091179055565b606061069a60056112b9565b905090565b7ff0c57e16840df040f15088dc2f81fe391c3923bec73e23a9662efc9c229c6a008054600160401b810460ff16159067ffffffffffffffff166000811580156106e55750825b905060008267ffffffffffffffff1660011480156107025750303b155b905081158015610710575080155b1561072e5760405163f92ee8a960e01b815260040160405180910390fd5b845467ffffffffffffffff19166001178555831561075857845460ff60401b1916600160401b1785555b6107606112cd565b6107686112cd565b6107706112d5565b6107786112e5565b600080546001600160a01b0319166001600160a01b03891617905560098690556107a1886112f5565b83156107e757845460ff60401b19168555604051600181527fc7f505b2f371ae2175ee4913f4499e1f2633a7b5936321eed1cdaeb6115181d29060200160405180910390a15b5050505050505050565b6107f9611b1d565b600082815260026020818152604092839020835160a0810185528154815260018201549281019290925291820154909283019060ff16600381111561084057610840611c65565b600381111561085157610851611c65565b8152600382015460208201526004909101546001600160a01b031660409091015292915050565b610880611b5d565b61088a600561132d565b6000036108aa576040516329ed7f2760e01b815260040160405180910390fd5b6108cc6104fd6108ba600561132d565b6108c49085611fff565b600590611337565b92915050565b6108da611343565b6000818152600260205260409020600401546001600160a01b0316331461091457604051639015f92360e01b815260040160405180910390fd5b60016000828152600260208190526040909120015460ff16600381111561093d5761093d611c65565b1461095b5760405163b969563b60e01b815260040160405180910390fd5b600954600082815260026020526040902060030154429161097b91612037565b111561099a57604051634b40143d60e01b815260040160405180910390fd5b600180546000908152600260208190526040808320909101805460ff19166003179055838252808220909201549151909133918381818185875af1925050503d8060008114610a05576040519150601f19603f3d011682016040523d82523d6000602084013e610a0a565b606091505b5050905080610a2c576040516312171d8360e31b815260040160405180910390fd5b60405182907f68a66a704ceacc38da3f12c63779e47866d9d72e875ec5d43237777adc666d6590600090a250610a6f60016000805160206122fd83398151915255565b50565b610a7a611287565b610a8560058261138f565b610aa2576040516310eddccd60e01b815260040160405180910390fd5b6001600160a01b0381166000908152600760205260409020805460ff19166002179055610ad06005826113b1565b506040516001600160a01b038216907f18a003b29a5d1b1d6f0603956003fdc00a42ea8db3825c24a6bf532d5bae0bdf90600090a250565b610b10611287565b610b1b60058361138f565b15610b3957604051637668d56b60e01b815260040160405180910390fd5b610b446003836113c6565b50610b506005836113c6565b506001600160a01b0382166000908152600760205260409020805460ff19166001908117825501610b8182826120d4565b506040516001600160a01b038316907fcc7ab74a9b11b56487e4c7356320d0be894972f6132884ccd04e04baa284fb7990600090a25050565b610bc2611287565b610bca6113db565b565b610bd4611343565b3360009081526007602052604081206003810154600290910154610bf89190612194565b905080600003610c1b576040516312d37ee560e31b815260040160405180910390fd5b3360008181526007602052604080822060028101546003909101555190919083908381818185875af1925050503d8060008114610c74576040519150601f19603f3d011682016040523d82523d6000602084013e610c79565b606091505b5050905080610c9b576040516312171d8360e31b815260040160405180910390fd5b60405182815233907fd8138f8a3f377c5259ca548e70e4c2de94f129f5a11036a15b69513cba2b426a9060200160405180910390a25050610bca60016000805160206122fd83398151915255565b610cf161143b565b610cfa826114e0565b610d0482826114e8565b5050565b6000610d126115aa565b506000805160206122bd83398151915290565b610d2d611287565b600955565b606061069a60036112b9565b610d46611287565b600855565b610d53611287565b610bca60006112f5565b610d65611b5d565b6108cc6104fd600384611337565b3380610d7d6111c4565b6001600160a01b031614610db45760405163118cdaa760e01b81526001600160a01b03821660048201526024015b60405180910390fd5b610a6f816112f5565b610dc5611287565b610bca6115f3565b6000807f9016d09d72d40fdae2fd8ceac6b6234c7706214fd39c1cd1e609a0528c1993005b546001600160a01b031692915050565b610e0a611b5d565b6040805160a0810182526001600160a01b03841680825260009081526007602090815292902060010180549192830191610e439061204a565b80601f0160208091040260200160405190810160405280929190818152602001828054610e6f9061204a565b8015610ebc5780601f10610e9157610100808354040283529160200191610ebc565b820191906000526020600020905b815481529060010190602001808311610e9f57829003601f168201915b50505091835250506001600160a01b03841660009081526007602090815260409091205491019060ff166002811115610ef757610ef7611c65565b81526001600160a01b0390931660008181526007602081815260408084206002810154838a015294909352526003909101549301929092525090565b600060016001600160a01b03831660009081526007602052604090205460ff166002811115610f6457610f64611c65565b1492915050565b60013360009081526007602052604090205460ff166002811115610f9157610f91611c65565b14610faf576040516310eddccd60e01b815260040160405180910390fd5b60008281526002602052604090206001600282015460ff166003811115610fd857610fd8611c65565b14610ff6576040516361ff6d4560e11b815260040160405180910390fd5b600054815460405163c26045f760e01b81526001600160a01b039092169163c26045f7916110289186906004016121a7565b600060405180830381600087803b15801561104257600080fd5b505af1158015611056573d6000803e3d6000fd5b5050506001820154336000908152600760205260408120600201805492935091611081908490612037565b90915550506002818101805460ff191690911790558054604051849033907f41eb9d6336d189fb4bf444a6b5056628c51aa4405c87f7389a107686e805726390600090a4505050565b6110d2611b5d565b6108cc6104fd600584611337565b6008543410156111025760405162976f7560e21b815260040160405180910390fd5b6001805490600061111283612242565b909155505060018054600090815260026020819052604080832085905583548352808320349085015583548352808320426003909101558354835280832060040180546001600160a01b031916331790558354835290912001805460ff191682800217905550806001547ff54343d979b7d5a02524b04415a6513e2114a8284ccb9cc0e58c12a2190cb230346040516111ad91815260200190565b60405180910390a350565b600061069a600561132d565b6000807f237e158222e3e6968b72b9db0d8043aacf074ad9f650f0d1606b4d82ee432c00610df2565b610a6f816110e0565b600061069a600361132d565b61120a611287565b7f237e158222e3e6968b72b9db0d8043aacf074ad9f650f0d1606b4d82ee432c0080546001600160a01b0319166001600160a01b038316908117825561124e610dcd565b6001600160a01b03167f38d16b8cac22d99fc7c124b9cd0de2d3fa1faef420bfe791d8c362d765e2270060405160405180910390a35050565b33611290610dcd565b6001600160a01b031614610bca5760405163118cdaa760e01b8152336004820152602401610dab565b606060006112c68361163c565b9392505050565b610bca611698565b6112dd611698565b610bca6116e1565b6112ed611698565b610bca611702565b7f237e158222e3e6968b72b9db0d8043aacf074ad9f650f0d1606b4d82ee432c0080546001600160a01b0319168155610d048261170a565b60006108cc825490565b60006112c6838361177b565b6000805160206122fd83398151915280546001190161137557604051633ee5aeb560e01b815260040160405180910390fd5b60029055565b60016000805160206122fd83398151915255565b6001600160a01b038116600090815260018301602052604081205415156112c6565b60006112c6836001600160a01b0384166117a5565b60006112c6836001600160a01b038416611898565b6113e36118e7565b6000805160206122dd833981519152805460ff191681557f5db9ee0a495bf2e6ff9c91a7834c1ba4fdd244a5e8aa4e537bd38aeae4b073aa335b6040516001600160a01b03909116815260200160405180910390a150565b306001600160a01b037f00000000000000000000000000000000000000000000000000000000000000001614806114c257507f00000000000000000000000000000000000000000000000000000000000000006001600160a01b03166114b66000805160206122bd833981519152546001600160a01b031690565b6001600160a01b031614155b15610bca5760405163703e46dd60e11b815260040160405180910390fd5b610a6f611287565b816001600160a01b03166352d1902d6040518163ffffffff1660e01b8152600401602060405180830381865afa925050508015611542575060408051601f3d908101601f1916820190925261153f9181019061225b565b60015b61156a57604051634c9c8ce360e01b81526001600160a01b0383166004820152602401610dab565b6000805160206122bd833981519152811461159b57604051632a87526960e21b815260048101829052602401610dab565b6115a58383611917565b505050565b306001600160a01b037f00000000000000000000000000000000000000000000000000000000000000001614610bca5760405163703e46dd60e11b815260040160405180910390fd5b6115fb61196d565b6000805160206122dd833981519152805460ff191660011781557f62e78cea01bee320cd4e420270b5ea74000d11b0c9f74754ebdbfc544b05a2583361141d565b60608160000180548060200260200160405190810160405280929190818152602001828054801561168c57602002820191906000526020600020905b815481526020019060010190808311611678575b50505050509050919050565b7ff0c57e16840df040f15088dc2f81fe391c3923bec73e23a9662efc9c229c6a0054600160401b900460ff16610bca57604051631afcd79f60e31b815260040160405180910390fd5b6116e9611698565b6000805160206122dd833981519152805460ff19169055565b61137b611698565b7f9016d09d72d40fdae2fd8ceac6b6234c7706214fd39c1cd1e609a0528c19930080546001600160a01b031981166001600160a01b03848116918217845560405192169182907f8be0079c531659141344cd1fd0a4f28419497f9722a3daafe3b4186f6b6457e090600090a3505050565b600082600001828154811061179257611792612274565b9060005260206000200154905092915050565b6000818152600183016020526040812054801561188e5760006117c9600183612194565b85549091506000906117dd90600190612194565b90508082146118425760008660000182815481106117fd576117fd612274565b906000526020600020015490508087600001848154811061182057611820612274565b6000918252602080832090910192909255918252600188019052604090208390555b85548690806118535761185361228a565b6001900381819060005260206000200160009055905585600101600086815260200190815260200160002060009055600193505050506108cc565b60009150506108cc565b60008181526001830160205260408120546118df575081546001818101845560008481526020808220909301849055845484825282860190935260409020919091556108cc565b5060006108cc565b6000805160206122dd8339815191525460ff16610bca57604051638dfc202b60e01b815260040160405180910390fd5b6119208261199e565b6040516001600160a01b038316907fbc7cd75a20ee27fd9adebab32041f755214dbc6bffa90cc0225b39da2e5c2d3b90600090a2805115611965576115a58282611a03565b610d04611a79565b6000805160206122dd8339815191525460ff1615610bca5760405163d93c066560e01b815260040160405180910390fd5b806001600160a01b03163b6000036119d457604051634c9c8ce360e01b81526001600160a01b0382166004820152602401610dab565b6000805160206122bd83398151915280546001600160a01b0319166001600160a01b0392909216919091179055565b6060600080846001600160a01b031684604051611a2091906122a0565b600060405180830381855af49150503d8060008114611a5b576040519150601f19603f3d011682016040523d82523d6000602084013e611a60565b606091505b5091509150611a70858383611a98565b95945050505050565b3415610bca5760405163b398979f60e01b815260040160405180910390fd5b606082611aad57611aa882611af4565b6112c6565b8151158015611ac457506001600160a01b0384163b155b15611aed57604051639996b31560e01b81526001600160a01b0385166004820152602401610dab565b5092915050565b805115611b045780518082602001fd5b604051630a12f52160e11b815260040160405180910390fd5b6040518060a00160405280600081526020016000815260200160006003811115611b4957611b49611c65565b815260006020820181905260409091015290565b6040805160a0810182526000808252606060208301529091820190815260200160008152602001600081525090565b6001600160a01b0381168114610a6f57600080fd5b600060208284031215611bb357600080fd5b81356112c681611b8c565b6020808252825182820181905260009190848201906040850190845b81811015611bff5783516001600160a01b031683529284019291840191600101611bda565b50909695505050505050565b600080600060608486031215611c2057600080fd5b8335611c2b81611b8c565b92506020840135611c3b81611b8c565b929592945050506040919091013590565b600060208284031215611c5e57600080fd5b5035919050565b634e487b7160e01b600052602160045260246000fd5b8151815260208083015190820152604082015160a082019060048110611ca357611ca3611c65565b6040830152606083810151908301526080928301516001600160a01b0316929091019190915290565b60005b83811015611ce7578181015183820152602001611ccf565b50506000910152565b60008151808452611d08816020860160208601611ccc565b601f01601f19169290920160200192915050565b602080825282516001600160a01b03168282015282015160a06040830152600090611d4a60c0840182611cf0565b9050604084015160038110611d6157611d61611c65565b8060608501525060608401516080840152608084015160a08401528091505092915050565b634e487b7160e01b600052604160045260246000fd5b6040805190810167ffffffffffffffff81118282101715611dbf57611dbf611d86565b60405290565b60405160a0810167ffffffffffffffff81118282101715611dbf57611dbf611d86565b600082601f830112611df957600080fd5b813567ffffffffffffffff80821115611e1457611e14611d86565b604051601f8301601f19908116603f01168101908282118183101715611e3c57611e3c611d86565b81604052838152866020858801011115611e5557600080fd5b836020870160208301376000602085830101528094505050505092915050565b60008060408385031215611e8857600080fd5b8235611e9381611b8c565b9150602083013567ffffffffffffffff811115611eaf57600080fd5b611ebb85828601611de8565b9150509250929050565b6020815260006112c66020830184611cf0565b60008060408385031215611eeb57600080fd5b82359150602083013567ffffffffffffffff80821115611f0a57600080fd5b9084019060408287031215611f1e57600080fd5b611f26611d9c565b823582811115611f3557600080fd5b611f4188828601611de8565b825250602083013582811115611f5657600080fd5b929092019160a08388031215611f6b57600080fd5b611f73611dc5565b8335815260208401356020820152604084013583811115611f9357600080fd5b611f9f89828701611de8565b604083015250606084013583811115611fb757600080fd5b611fc389828701611de8565b606083015250608084013583811115611fdb57600080fd5b611fe789828701611de8565b60808301525060208201529396939550929350505050565b60008261201c57634e487b7160e01b600052601260045260246000fd5b500690565b634e487b7160e01b600052601160045260246000fd5b808201808211156108cc576108cc612021565b600181811c9082168061205e57607f821691505b60208210810361207e57634e487b7160e01b600052602260045260246000fd5b50919050565b601f8211156115a5576000816000526020600020601f850160051c810160208610156120ad5750805b601f850160051c820191505b818110156120cc578281556001016120b9565b505050505050565b815167ffffffffffffffff8111156120ee576120ee611d86565b612102816120fc845461204a565b84612084565b602080601f831160018114612137576000841561211f5750858301515b600019600386901b1c1916600185901b1785556120cc565b600085815260208120601f198616915b8281101561216657888601518255948401946001909101908401612147565b50858210156121845787850151600019600388901b60f8161c191681555b5050505050600190811b01905550565b818103818111156108cc576108cc612021565b82815260406020820152600082516040808401526121c86080840182611cf0565b90506020840151603f198483030160608501528051825260208101516020830152604081015160a0604084015261220260a0840182611cf0565b90506060820151838203606085015261221b8282611cf0565b9150506080820151915082810360808401526122378183611cf0565b979650505050505050565b60006001820161225457612254612021565b5060010190565b60006020828403121561226d57600080fd5b5051919050565b634e487b7160e01b600052603260045260246000fd5b634e487b7160e01b600052603160045260246000fd5b600082516122b2818460208701611ccc565b919091019291505056fe360894a13ba1a3210667c828492db98dca3e2076cc3735a920a3ca505d382bbccd5ed15c6e187e77e9aee88184c21f4f2182ab5827cb3b7e07fbedcd63f033009b779b17422d0df92223018b32b4d1fa46e071723d6817e2486d003becc55f00a264697066735822122093000dc9f518d1b66d26fb3b4528267f505f525d6c05b821a55f869ce685fa9464736f6c63430008180033",
  "devdoc": {
    "errors": {
      "AddressEmptyCode(address)": [
        {
          "details": "There's no code at `target` (it is not a contract)."
        }
      ],
      "ERC1967InvalidImplementation(address)": [
        {
          "details": "The `implementation` of the proxy is invalid."
        }
      ],
      "ERC1967NonPayable()": [
        {
          "details": "An upgrade function sees `msg.value > 0` that may be lost."
        }
      ],
      "EnforcedPause()": [
        {
          "details": "The operation failed because the contract is paused."
        }
      ],
      "ExpectedPause()": [
        {
          "details": "The operation failed because the contract is not paused."
        }
      ],
      "FailedInnerCall()": [
        {
          "details": "A call to an address target failed. The target may have reverted."
        }
      ],
      "InvalidInitialization()": [
        {
          "details": "The contract is already initialized."
        }
      ],
      "NotInitializing()": [
        {
          "details": "The contract is not initializing."
        }
      ],
      "OwnableInvalidOwner(address)": [
        {
          "details": "The owner is not a valid owner account. (eg. `address(0)`)"
        }
      ],
      "OwnableUnauthorizedAccount(address)": [
        {
          "details": "The caller account is not authorized to perform an operation."
        }
      ],
      "ReentrancyGuardReentrantCall()": [
        {
          "details": "Unauthorized reentrant call."
        }
      ],
      "UUPSUnauthorizedCallContext()": [
        {
          "details": "The call is from an unauthorized context."
        }
      ],
      "UUPSUnsupportedProxiableUUID(bytes32)": [
        {
          "details": "The storage `slot` is unsupported as a UUID."
        }
      ]
    },
    "events": {
      "Claimed(address,uint256)": {
        "params": {
          "amount": "amount claimed",
          "teeAddress": "address of the tee"
        }
      },
      "Initialized(uint64)": {
        "details": "Triggered when the contract has been initialized or reinitialized."
      },
      "JobCanceled(uint256)": {
        "params": {
          "jobId": "id of the job"
        }
      },
      "JobSubmitted(uint256,uint256,uint256)": {
        "params": {
          "bidAmount": "bid amount",
          "fileId": "id of the file",
          "jobId": "id of the job"
        }
      },
      "Paused(address)": {
        "details": "Emitted when the pause is triggered by `account`."
      },
      "ProofAdded(address,uint256,uint256)": {
        "params": {
          "attestator": "address of the attestator",
          "fileId": "id of the file",
          "jobId": "id of the job"
        }
      },
      "TeeAdded(address)": {
        "params": {
          "teeAddress": "address of the tee"
        }
      },
      "TeeRemoved(address)": {
        "params": {
          "teeAddress": "address of the tee"
        }
      },
      "Unpaused(address)": {
        "details": "Emitted when the pause is lifted by `account`."
      },
      "Upgraded(address)": {
        "details": "Emitted when the implementation is upgraded."
      }
    },
    "kind": "dev",
    "methods": {
      "acceptOwnership()": {
        "details": "The new owner accepts the ownership transfer."
      },
      "activeTeeListAt(uint256)": {
        "params": {
          "index": "index of the tee"
        },
        "returns": {
          "_0": "TeeDetails                       details of the tee"
        }
      },
      "addProof(uint256,(bytes,(uint256,uint256,string,string,string)))": {
        "params": {
          "jobId": "id of the job",
          "proof": "proof for the file"
        }
      },
      "addTee(address,string)": {
        "params": {
          "teeAddress": "address of the tee",
          "url": "url of the tee"
        }
      },
      "cancelJob(uint256)": {
        "params": {
          "jobId": "id of the job"
        }
      },
      "constructor": {
        "custom:oz-upgrades-unsafe-allow": "constructor"
      },
      "initialize(address,address,uint256)": {
        "params": {
          "dataRegistryAddress": "address of the data registry contract",
          "initialCancelDelay": "initial cancel delay",
          "ownerAddress": "address of the owner"
        }
      },
      "jobTee(uint256)": {
        "params": {
          "jobId": "id of the job"
        },
        "returns": {
          "_0": "TeeDetails                       details of the tee"
        }
      },
      "jobs(uint256)": {
        "params": {
          "jobId": "id of the job"
        },
        "returns": {
          "_0": "Job                              details of the job"
        }
      },
      "owner()": {
        "details": "Returns the address of the current owner."
      },
      "pause()": {
        "details": "Pauses the contract"
      },
      "paused()": {
        "details": "Returns true if the contract is paused, and false otherwise."
      },
      "pendingOwner()": {
        "details": "Returns the address of the pending owner."
      },
      "proxiableUUID()": {
        "details": "Implementation of the ERC1822 {proxiableUUID} function. This returns the storage slot used by the implementation. It is used to validate the implementation's compatibility when performing an upgrade. IMPORTANT: A proxy pointing at a proxiable contract should not be considered proxiable itself, because this risks bricking a proxy that upgrades to it, by delegating to itself until out of gas. Thus it is critical that this function revert if invoked through a proxy. This is guaranteed by the `notDelegated` modifier."
      },
      "removeTee(address)": {
        "params": {
          "teeAddress": "address of the tee"
        }
      },
      "renounceOwnership()": {
        "details": "Leaves the contract without owner. It will not be possible to call `onlyOwner` functions. Can only be called by the current owner. NOTE: Renouncing ownership will leave the contract without an owner, thereby disabling any functionality that is only available to the owner."
      },
      "requestContributionProof(uint256)": {
        "params": {
          "fileId": "id of the file"
        }
      },
      "submitJob(uint256)": {
        "params": {
          "fileId": "id of the file"
        }
      },
      "teeListAt(uint256)": {
        "params": {
          "index": "index of the tee"
        },
        "returns": {
          "_0": "TeeDetails                       details of the tee"
        }
      },
      "tees(address)": {
        "params": {
          "teeAddress": "address of the tee"
        },
        "returns": {
          "_0": "TeeDetails                       details of the tee"
        }
      },
      "transferOwnership(address)": {
        "details": "Starts the ownership transfer of the contract to a new account. Replaces the pending transfer if there is one. Can only be called by the current owner."
      },
      "unpause()": {
        "details": "Unpauses the contract"
      },
      "updateCancelDelay(uint256)": {
        "params": {
          "newCancelDelay": "new cancel delay"
        }
      },
      "updateDataRegistry(address)": {
        "params": {
          "newDataRegistry": "new file registry"
        }
      },
      "updateTeeFee(uint256)": {
        "params": {
          "newTeeFee": "new fee"
        }
      },
      "upgradeToAndCall(address,bytes)": {
        "custom:oz-upgrades-unsafe-allow-reachable": "delegatecall",
        "details": "Upgrade the implementation of the proxy to `newImplementation`, and subsequently execute the function call encoded in `data`. Calls {_authorizeUpgrade}. Emits an {Upgraded} event."
      }
    },
    "version": 1
  },
  "userdoc": {
    "events": {
      "Claimed(address,uint256)": {
        "notice": "Triggered when a claim has been made"
      },
      "JobCanceled(uint256)": {
        "notice": "Triggered when a job has been cancelled"
      },
      "JobSubmitted(uint256,uint256,uint256)": {
        "notice": "Triggered when a job has been submitted"
      },
      "ProofAdded(address,uint256,uint256)": {
        "notice": "Triggered when a proof has been added"
      },
      "TeeAdded(address)": {
        "notice": "Triggered when a tee has been added"
      },
      "TeeRemoved(address)": {
        "notice": "Triggered when a tee has been removed"
      }
    },
    "kind": "user",
    "methods": {
      "activeTeeList()": {
        "notice": "Returns the list of active tees"
      },
      "activeTeeListAt(uint256)": {
        "notice": "Returns the details of the active tee at the given index"
      },
      "activeTeesCount()": {
        "notice": "Returns the number of active tees"
      },
      "addProof(uint256,(bytes,(uint256,uint256,string,string,string)))": {
        "notice": "Adds a proof to the file"
      },
      "addTee(address,string)": {
        "notice": "Adds a tee to the pool"
      },
      "cancelJob(uint256)": {
        "notice": "Cancels a contribution proof request"
      },
      "claim()": {
        "notice": "method used by tees for claiming their rewards"
      },
      "initialize(address,address,uint256)": {
        "notice": "Initialize the contract"
      },
      "jobTee(uint256)": {
        "notice": "Returns details of the tee for the given job"
      },
      "jobs(uint256)": {
        "notice": "Returns the details of the job"
      },
      "removeTee(address)": {
        "notice": "Removes a tee from the pool"
      },
      "requestContributionProof(uint256)": {
        "notice": "Adds a contribution proof request"
      },
      "submitJob(uint256)": {
        "notice": "Submits a contribution proof request"
      },
      "teeList()": {
        "notice": "Returns the list of tees"
      },
      "teeListAt(uint256)": {
        "notice": "Returns the details of the tee at the given index"
      },
      "tees(address)": {
        "notice": "Returns the details of the tee"
      },
      "teesCount()": {
        "notice": "Returns the number of tees"
      },
      "updateCancelDelay(uint256)": {
        "notice": "Updates the cancel delay"
      },
      "updateDataRegistry(address)": {
        "notice": "Updates the file registry"
      },
      "updateTeeFee(uint256)": {
        "notice": "Updates the tee fee"
      },
      "version()": {
        "notice": "Returns the version of the contract"
      }
    },
    "version": 1
  },
  "storageLayout": {
    "storage": [
      {
        "astId": 21752,
        "contract": "contracts/teePool/TeePoolImplementation.sol:TeePoolImplementation",
        "label": "dataRegistry",
        "offset": 0,
        "slot": "0",
        "type": "t_contract(IDataRegistry)11222"
      },
      {
        "astId": 21755,
        "contract": "contracts/teePool/TeePoolImplementation.sol:TeePoolImplementation",
        "label": "jobsCount",
        "offset": 0,
        "slot": "1",
        "type": "t_uint256"
      },
      {
        "astId": 21760,
        "contract": "contracts/teePool/TeePoolImplementation.sol:TeePoolImplementation",
        "label": "_jobs",
        "offset": 0,
        "slot": "2",
        "type": "t_mapping(t_uint256,t_struct(Job)21566_storage)"
      },
      {
        "astId": 21763,
        "contract": "contracts/teePool/TeePoolImplementation.sol:TeePoolImplementation",
        "label": "_teeList",
        "offset": 0,
        "slot": "3",
        "type": "t_struct(AddressSet)10192_storage"
      },
      {
        "astId": 21766,
        "contract": "contracts/teePool/TeePoolImplementation.sol:TeePoolImplementation",
        "label": "_activeTeeList",
        "offset": 0,
        "slot": "5",
        "type": "t_struct(AddressSet)10192_storage"
      },
      {
        "astId": 21771,
        "contract": "contracts/teePool/TeePoolImplementation.sol:TeePoolImplementation",
        "label": "_tees",
        "offset": 0,
        "slot": "7",
        "type": "t_mapping(t_address,t_struct(Tee)21576_storage)"
      },
      {
        "astId": 21774,
        "contract": "contracts/teePool/TeePoolImplementation.sol:TeePoolImplementation",
        "label": "teeFee",
        "offset": 0,
        "slot": "8",
        "type": "t_uint256"
      },
      {
        "astId": 21777,
        "contract": "contracts/teePool/TeePoolImplementation.sol:TeePoolImplementation",
        "label": "cancelDelay",
        "offset": 0,
        "slot": "9",
        "type": "t_uint256"
      }
    ],
    "types": {
      "t_address": {
        "encoding": "inplace",
        "label": "address",
        "numberOfBytes": "20"
      },
      "t_array(t_bytes32)dyn_storage": {
        "base": "t_bytes32",
        "encoding": "dynamic_array",
        "label": "bytes32[]",
        "numberOfBytes": "32"
      },
      "t_bytes32": {
        "encoding": "inplace",
        "label": "bytes32",
        "numberOfBytes": "32"
      },
      "t_contract(IDataRegistry)11222": {
        "encoding": "inplace",
        "label": "contract IDataRegistry",
        "numberOfBytes": "20"
      },
      "t_enum(JobStatus)21554": {
        "encoding": "inplace",
        "label": "enum ITeePool.JobStatus",
        "numberOfBytes": "1"
      },
      "t_enum(TeeStatus)21549": {
        "encoding": "inplace",
        "label": "enum ITeePool.TeeStatus",
        "numberOfBytes": "1"
      },
      "t_mapping(t_address,t_struct(Tee)21576_storage)": {
        "encoding": "mapping",
        "key": "t_address",
        "label": "mapping(address => struct ITeePool.Tee)",
        "numberOfBytes": "32",
        "value": "t_struct(Tee)21576_storage"
      },
      "t_mapping(t_bytes32,t_uint256)": {
        "encoding": "mapping",
        "key": "t_bytes32",
        "label": "mapping(bytes32 => uint256)",
        "numberOfBytes": "32",
        "value": "t_uint256"
      },
      "t_mapping(t_uint256,t_struct(Job)21566_storage)": {
        "encoding": "mapping",
        "key": "t_uint256",
        "label": "mapping(uint256 => struct ITeePool.Job)",
        "numberOfBytes": "32",
        "value": "t_struct(Job)21566_storage"
      },
      "t_string_storage": {
        "encoding": "bytes",
        "label": "string",
        "numberOfBytes": "32"
      },
      "t_struct(AddressSet)10192_storage": {
        "encoding": "inplace",
        "label": "struct EnumerableSet.AddressSet",
        "members": [
          {
            "astId": 10191,
            "contract": "contracts/teePool/TeePoolImplementation.sol:TeePoolImplementation",
            "label": "_inner",
            "offset": 0,
            "slot": "0",
            "type": "t_struct(Set)9877_storage"
          }
        ],
        "numberOfBytes": "64"
      },
      "t_struct(Job)21566_storage": {
        "encoding": "inplace",
        "label": "struct ITeePool.Job",
        "members": [
          {
            "astId": 21556,
            "contract": "contracts/teePool/TeePoolImplementation.sol:TeePoolImplementation",
            "label": "fileId",
            "offset": 0,
            "slot": "0",
            "type": "t_uint256"
          },
          {
            "astId": 21558,
            "contract": "contracts/teePool/TeePoolImplementation.sol:TeePoolImplementation",
            "label": "bidAmount",
            "offset": 0,
            "slot": "1",
            "type": "t_uint256"
          },
          {
            "astId": 21561,
            "contract": "contracts/teePool/TeePoolImplementation.sol:TeePoolImplementation",
            "label": "status",
            "offset": 0,
            "slot": "2",
            "type": "t_enum(JobStatus)21554"
          },
          {
            "astId": 21563,
            "contract": "contracts/teePool/TeePoolImplementation.sol:TeePoolImplementation",
            "label": "addedTimestamp",
            "offset": 0,
            "slot": "3",
            "type": "t_uint256"
          },
          {
            "astId": 21565,
            "contract": "contracts/teePool/TeePoolImplementation.sol:TeePoolImplementation",
            "label": "ownerAddress",
            "offset": 0,
            "slot": "4",
            "type": "t_address"
          }
        ],
        "numberOfBytes": "160"
      },
      "t_struct(Set)9877_storage": {
        "encoding": "inplace",
        "label": "struct EnumerableSet.Set",
        "members": [
          {
            "astId": 9872,
            "contract": "contracts/teePool/TeePoolImplementation.sol:TeePoolImplementation",
            "label": "_values",
            "offset": 0,
            "slot": "0",
            "type": "t_array(t_bytes32)dyn_storage"
          },
          {
            "astId": 9876,
            "contract": "contracts/teePool/TeePoolImplementation.sol:TeePoolImplementation",
            "label": "_positions",
            "offset": 0,
            "slot": "1",
            "type": "t_mapping(t_bytes32,t_uint256)"
          }
        ],
        "numberOfBytes": "64"
      },
      "t_struct(Tee)21576_storage": {
        "encoding": "inplace",
        "label": "struct ITeePool.Tee",
        "members": [
          {
            "astId": 21569,
            "contract": "contracts/teePool/TeePoolImplementation.sol:TeePoolImplementation",
            "label": "status",
            "offset": 0,
            "slot": "0",
            "type": "t_enum(TeeStatus)21549"
          },
          {
            "astId": 21571,
            "contract": "contracts/teePool/TeePoolImplementation.sol:TeePoolImplementation",
            "label": "url",
            "offset": 0,
            "slot": "1",
            "type": "t_string_storage"
          },
          {
            "astId": 21573,
            "contract": "contracts/teePool/TeePoolImplementation.sol:TeePoolImplementation",
            "label": "amount",
            "offset": 0,
            "slot": "2",
            "type": "t_uint256"
          },
          {
            "astId": 21575,
            "contract": "contracts/teePool/TeePoolImplementation.sol:TeePoolImplementation",
            "label": "withdrawnAmount",
            "offset": 0,
            "slot": "3",
            "type": "t_uint256"
          }
        ],
        "numberOfBytes": "128"
      },
      "t_uint256": {
        "encoding": "inplace",
        "label": "uint256",
        "numberOfBytes": "32"
      }
    }
  }
}